:020000040800F2
:10000000A012002049010008E9220008C9120008D6
:10001000E5220008870700085D30000800000000A6
:10002000000000000000000000000000FD280008A3
:10003000990800080000000059230008E929000879
:100040006301000863010008630100086301000800
:1000500063010008630100086301000863010008F0
:1000600063010008630100086301000863010008E0
:1000700063010008630100086301000863010008D0
:1000800063010008630100086301000863010008C0
:1000900063010008630100086301000863010008B0
:1000A00063010008630100086301000863010008A0
:1000B0006301000863010008630100086301000890
:1000C0006301000863010008630100086301000880
:1000D0006301000863010008630100086301000870
:1000E0006301000863010008630100086301000860
:1000F0006301000863010008630100086301000850
:10010000630100086301000863010008630100083F
:10011000630100086301000863010008630100082F
:10012000630100086301000863010008630100081F
:10013000DFF810D000F0F6FA0048004791400008C0
:10014000AFF30080A0120020064880470648004711
:10015000FEE7FEE7FEE7FEE7FEE7FEE7FEE7FEE777
:10016000FEE7FEE7ED29000831010008D2B201E008
:1001700000F8012B491EFBD270470022F6E710B5AC
:1001800013460A4604461946FFF7F0FF204610BD05
:10019000421C10F8011B0029FBD1801A7047F0B4F3
:1001A00080EA0102D40F4200B2EB410F02D20246B4
:1001B000084611464A0042D0C30DDDB2C1F3C75212
:1001C000AD1A202D35DAC1F3160141F4000204B155
:1001D0005242C5F1200602FA06F12A411044B3EB5F
:1001E000D05F23D0C4B1012DA0EBC35009DCF0BC1B
:1001F0004FF0004202EAC352DBB200F5000000F00B
:1002000006BA400000F1807000EBC350A0F180708E
:1002100040EAD170490009E0490841EAC071A0EB09
:10022000C35000F50000400800EBC350F0BC00F0E4
:10023000E5B96142012202EB4101001BF6E7F0BC87
:10024000704781F00041AAE780F00040A7E780EA0C
:10025000010210B502F00043400022D04A001FD036
:10026000010E01EB1261C0F35600C2F3560240F4D6
:10027000000042F40002A0FB022000047F391404B5
:1002800000D0401C50EA124001D44000491EC2B2C6
:100290000C0604EBD010401C4008802A02D003E07A
:1002A000002010BD20F00100002900DA00201843D2
:1002B00010BD30B480EA010202F0004530F0004287
:1002C00021F0004013D090B1C30DD40DC2F316013C
:1002D000C0F31600E41A41F4000140F400027D343A
:1002E000914201D3641C00E04900002C02DA30BCCA
:1002F000002070474FF400000023914201D3891A77
:10030000034340084FEA4101F7D151B1914202D174
:100310004FF0004105E002D24FF0010101E06FF023
:10032000010103EBC450284430BC00F067B92DE94B
:10033000FE4F81EA030404F0004421F000410094E0
:100340004FF0000B23F0004350EA01045ED052EA64
:1003500003045BD0C3F30A54C1F30A552C44A4F23E
:10036000F3340194A0FB0254C1F3130141F4801152
:10037000C3F3130343F4801301FB024400FB034E59
:10038000840A970A44EA815447EA8357A4FB076822
:1003900002958D0A05FB07854FEA932C04FB0C544C
:1003A0002705029D4FEA065847EA1637B5EB0805C0
:1003B0006EEB070C870E920E47EA811742EA831212
:1003C000A7FB0201B6EB0B0164EB00042B0D43EA23
:1003D0000C335E1844EB1C50DA465146E7FB020131
:1003E000C5F313044FEA0B3343EA14534FEA0432C4
:1003F000019C43EA0603A4F10C040294009CCDE99D
:1004000000B400F041F903B0BDE8F08F00200146D0
:10041000F9E72DE9F04D81EA030404F0004B21F0E7
:10042000004514464FF0000A23F0004150EA05024F
:1004300020D054EA01021DD0C5F30A570246C5F385
:100440001303C1F31300C1F30A5640F4801543F4BB
:100450008013A7EB0608101BD64608F2FD3873EB95
:10046000050002D308F1010801E092185B41B8F1E0
:10047000000F03DA00200146BDE8F08D00204FF4A4
:100480008011064684460EE0171B73EB050705D363
:10049000121B63EB050306434CEA010C49084FEAC3
:1004A000300092185B4150EA0107EDD152EA030097
:1004B00012D082EA040083EA0501084305D0101B2C
:1004C000AB4106D20122002306E000224FF0004398
:1004D00002E06FF0010253101AEB06004CEB0851DA
:1004E00010EB0A0041EB0B01BDE8F04D00F0BDB888
:1004F000C10F80EAE0700844CA079623002100F08B
:1005000086B800F0004220F00040C10DC0F3160094
:1005100040F400007F2901DA00207047962903DCAF
:10052000C1F19601C84001E096398840002AF4D014
:100530004042704720F00040C10DC0F3160040F467
:1005400000007F2901DA00207047962903DCC1F101
:100550009601C840704796398840704700F00042C5
:1005600030F000400AD0C10D01F56071C0F31600F3
:1005700042EA0151C208400711437047002001467A
:10058000704701F0004330B421F0004150EA01020D
:1005900006D00A0DA2F56072C1F31301002A02DC35
:1005A00030BC00207047440F44EAC104C100E01889
:1005B00030BC00EBC25000F021B80000002801DB85
:1005C000C0F10040002901DBC1F1004181427047C8
:1005D00030B50B46014600202022012409E021FA13
:1005E00002F59D4205D303FA02F5491B04FA02F510
:1005F0002844151EA2F10102F1DC30BD0029A8BF7C
:100600007047401C490008BF20F00100704710B43B
:10061000B0FA80FC00FA0CF050EA010404BF10BCF0
:10062000704749B1CCF1200421FA04F411FA0CF11D
:1006300018BF012121430843A3EB0C01CB1D4FEA56
:1006400000614FEA102042BF002010BC704700EB51
:10065000C35010440029A4BF10BC7047401C49007F
:1006600008BF20F0010010BC704710B5141E73F1D4
:10067000000408DA401C41F1000192185B411A4362
:1006800001D120F0010010BD2DE9F04D92469B46AE
:1006900011B1B1FA81F202E0B0FA80F22032904654
:1006A00000F052F804460F4640EA0A0041EA0B0106
:1006B00053465A46084313D0114653EA010019D055
:1006C000C8F14002504600F04EF805460E4650462E
:1006D0005946424600F038F8084305D0012004E0AE
:1006E00020463946BDE8F08D0020054346EAE07615
:1006F0002C4337430A986305E40AA0EB0800002264
:10070000FD0A44EA47540A3002D500200146E9E7D1
:10071000010510196941DDE9084500196941BDE885
:10072000F04DA2E7064C074D06E0E06840F00103FB
:1007300094E8070098471034AC42F6D3FFF7FCFC6E
:10074000B87C0008D87C0008202A04DB203A00FA94
:1007500002F1002070479140C2F1200320FA03F318
:10076000194390407047202A04DB203A21FA02F016
:100770000021704721FA02F3D040C2F120029140DB
:1007800008431946704700BFFEE7000038B505462C
:100790000C460020009001F031FF012291026846D2
:1007A00001F072FE9DF80000A52801D0012000E0B4
:1007B0000020012C01D1012100E00021084308B3F1
:1007C0009DF80000A52806D1012C04D1C022E10229
:1007D000104801F059FE00BF284602F0BDFF002876
:1007E000FAD0002001F0B6FFA5200090012291026E
:1007F000684601F071FEC0224FF40061054801F027
:100800006BFE05E0C0224FF40061024801F03CFE9F
:1008100038BD00002800002038B504464FF6FF71AF
:10082000084601F019FD012000900648008883B2B7
:1008300005480088523882B20021512000F094FF10
:1008400038BD00001A0000201800002070B50446D2
:100850002546287A04490871098888B24FF6FF7145
:1008600001F0FAFC70BD00001401002070B50446D0
:1008700025460849A8680860098888B24FF6FF71C4
:1008800001F0EAFC03480079082802D10020014960
:10089000087170BD1401002070470000F8B50546CE
:1008A0002C46207BA0BB4FF6FF714CF2186001F084
:1008B000D3FC01200090E6886788F61BB3B2A688B7
:1008C0002788F61BB2B26188384600F04DFF4CF223
:1008D00018614FF4784001F0BFFC324801F0C6FCCB
:1008E000E2886388D21AA2F1100606EBD67203EBF7
:1008F000620291B2A2882388D21AA2F1200707EBE4
:10090000D77203EB620290B227A200F0D1FD33E070
:10091000FFE74FF6FF71084601F09EFC01200090B2
:10092000E6886788F61BB3B2A6882788F61BB2B2A2
:100930006188384600F018FF4FF6FF714FF4784099
:1009400001F08AFC174801F091FCE2886388D21A12
:10095000A2F1100606EBD67203EB620291B2A288F6
:100960002388D21AA2F1200707EBD77203EB6202A9
:1009700090B20DA200F09CFD4FF6FF714FF4047091
:1009800001F06AFC00200090E6886788F61BB3B28D
:10099000A6882788F61BB2B26188384600F0E4FECC
:1009A000F8BD0000F8000020C7E5C6C10000000047
:1009B000F8B505462C46207BA0B9218988B24FF6B0
:1009C000FF7101F049FC01200090E6886788F61B62
:1009D000B3B2A6882788F61BB2B26188384600F009
:1009E000C3FE12E04FF6FF71084601F035FC01200E
:1009F0000090E6886788F61BB3B2A6882788F61BA6
:100A0000B2B26188384600F0AFFE4FF6FF714FF486
:100A1000047001F021FC00200090E6886788F61B36
:100A2000B3B2A6882788F61BB2B26188384600F0B8
:100A30009BFEF8BD2DE9F84306463446207B80BB7B
:100A40004FF6FF714CF2186001F006FC0120009097
:100A5000E788B4F802C0A7EB0C07BBB2A788B4F8CC
:100A600000C0A7EB0C07BAB26188604600F07CFEBC
:100A70004CF218614FF4047001F0EEFB002000907E
:100A8000E788B4F802C0A7EB0C07BBB2A788B4F89C
:100A900000C0A7EB0C07BAB26188604600F064FEA4
:100AA0002FE0FFE74FF6FF71084601F0D5FB01206C
:100AB0000090E788B4F802C0A7EB0C07BBB2A78888
:100AC000B4F800C0A7EB0C07BAB26188604600F02A
:100AD0004BFE4FF6FF714FF4047001F0BDFB002098
:100AE0000090E788B4F802C0A7EB0C07BBB2A78858
:100AF000B4F800C0A7EB0C07BAB26188604600F0FA
:100B000033FE4FF6FF71002001F0A6FBA068092814
:100B10002FD2DFE800F0052F567DA4CBF5F3F200CD
:100B20004FF6FF71002001F097FBB4F806C0B4F84F
:100B30000290ACEB090707EBD77C09EB6C0C1FFAB2
:100B40008CF3B4F806C0ACEB090808EBD87C09EBD1
:100B50006C0C1FFA8CF1B4F804C0ACF1140C1FFA41
:100B60008CF2B4F800C00CF1140C1FFA8CF000F0F9
:100B7000ABFD77E101200090B4F806C0B4F8029014
:100B8000ACEB090808EBD87C09EB6C0C1FFA8CF372
:100B9000B4F806C0ACEB090707EBD77C09EB6C0C8B
:100BA0001FFA8CF1B4F804C0ACF1140C1FFA8CF2EB
:100BB000B4F800C00CF1140C1FFA8CF001F08EFA9E
:100BC00050E102200090B4F806C0B4F80290ACEBFB
:100BD000090707EBD77C09EB6C0C1FFA8CF3B4F810
:100BE00006C0ACEB090808EBD87C09EB6C0C1FFACB
:100BF0008CF1B4F804C0ACF1140C1FFA8CF2B4F808
:100C000000C00CF1140C1FFA8CF001F067FA29E116
:100C100003200090B4F806C0B4F80290ACEB0907CA
:100C200007EBD77C09EB6C0C1FFA8CF3B4F806C009
:100C3000ACEB090808EBD87C09EB6C0C1FFA8CF1C3
:100C4000B4F804C0ACF1140C1FFA8CF2B4F800C074
:100C50000CF1140C1FFA8CF001F040FA02E10420B0
:100C60000090B4F806C0B4F80290ACEB090808EBA9
:100C7000D87C09EB6C0C1FFA8CF3B4F806C0ACEB13
:100C8000090707EBD77C09EB6C0C1FFA8CF1B4F861
:100C900004C0ACF1140C1FFA8CF2B4F800C00CF1D3
:100CA000140C1FFA8CF001F019FADBE00820009018
:100CB000B4F806C0B4F80290ACEB090707EBD77C98
:100CC00009EB6C0C1FFA8CF3B4F806C0ACEB090806
:100CD00008EBD87C09EB6C0C1FFA8CF1B4F804C05B
:100CE000ACF1140C1FFA8CF2B4F800C00CF1140C27
:100CF0001FFA8CF001F0F2F9B4E072E027E0FFE7B0
:100D00000A200090B4F806C0B4F80290ACEB0908D1
:100D100008EBD87C09EB6C0C1FFA8CF3B4F806C016
:100D2000ACEB090707EBD77C09EB6C0C1FFA8CF1D5
:100D3000B4F804C0ACF1140C1FFA8CF2B4F800C083
:100D40000CF1140C1FFA8CF001F0C8F98AE04FF690
:100D5000FF71002001F080FAB4F806C0B4F80290E8
:100D6000ACEB090707EBD77C09EB6C0C1FFA8CF393
:100D7000B4F806C0ACEB090808EBD87C09EB6C0CA6
:100D80001FFA8CF1B4F804C0ACF1050C1FFA8CF218
:100D9000B4F800C00CF1050C1FFA8CF000F094FCC4
:100DA000002514E0E2886388D71A07EBD77203EBBB
:100DB000620291B22288521D05EB850302EB4302C9
:100DC00090B20123032200F0CDFB681C85B2A088FD
:100DD0002188401A0A380A2190FBF1F0A842E1DC90
:100DE00040E000214FF6FF7001F036FA012000903C
:100DF000E2886388D21AA2F1280707EBD77203EBC7
:100E0000620291B2A2882388D21AA2F1180808EBD4
:100E1000D87203EB620290B218231A4600F0A4FCC9
:100E20004CF218614FF4784001F016FA0F4801F0C7
:100E30001DFAE2886388D21AA2F1280707EBD7725D
:100E400003EB6202183291B2A2882388D21AA2F16F
:100E5000200808EBD87203EB620290B204A200F003
:100E600027FB00BF00BFBDE8F8830000F8000020AA
:100E7000CFF0C6A4000000002DE9F84305460F4658
:100E800014461E46DDF82080512C6EDD512DFCDD10
:100E900098F80400092815D2DFE800F0051525357B
:100EA0004555687A9700002D01DB002F04DAB1B2B6
:100EB000A0B201F0EFF805E0B3B2A2B2B9B2A8B2A5
:100EC00000F002FCA9E0601E512802DB681E5128D8
:100ED00000DAA2E00120B3B2A2B2B9B20090A8B287
:100EE00001F0FCF899E0A01E512802DBA81E512851
:100EF00000DA92E00220B3B2A2B2B9B20090A8B276
:100F000001F0ECF889E0E01E512802DBE81E5128D0
:100F100000DA82E00320B3B2A2B2B9B20090A8B264
:100F200001F0DCF879E0201F512802DB281F51284E
:100F300000DA72E00420B3B2A2B2B9B20090A8B253
:100F400001F0CCF869E0A4F10800512803DBA5F119
:100F50000800512800DA60E00820B3B2A2B2B9B2AA
:100F60000090A8B201F0BAF857E057E0A4F10A00E7
:100F7000512803DBA5F10A00512800DA4DE00A20D0
:100F8000B3B2A2B2B9B20090A8B201F0A7F844E09F
:100F9000E01E512802DBE81E512800DA3DE0002D5A
:100FA00001DB002F04DAB1B2A0B201F073F80BE05C
:100FB000B3B2A2B2B9B2A8B200F086FBB1B2A0B28D
:100FC0000123032200F0CEFA27E0A4F114005128F7
:100FD00010DB28301249098888420BDC28380028A9
:100FE00008D406F114000F490988884202DC283829
:100FF000002800D511E04FF6FF71084601F02CF9EA
:101000000120A6F1140291B2A4F11402009090B252
:1010100028231A4600F0A8FB00BF00BFBDE8F883F4
:10102000180000201A00002051B18200A2F1C04235
:10103000126842F001038200A2F1C042136009E08D
:101040008200A2F1C0421268034B1A408300A3F150
:10105000C0431A6070470000FEFF0F00D0E9011284
:101060001143C26811430269114342691143826905
:101070001143C2691143026A1143426A1143826AF1
:101080001143C26A1143026B114302689200A2F13C
:10109000C0421160816808290BD101688900A1F163
:1010A000C041096841F0400201688900A1F1C041D6
:1010B0000A60416B0968426B526841EA0211426B57
:1010C000926841EA0221426B928941EA0241426BF5
:1010D000128A41EA0251426B127D41EA0261426B7F
:1010E000926911430268521C9200A2F1C042116041
:1010F000C16AB1F5804F1BD1816B0968826B526860
:1011000041EA0211826B926841EA0221826B128AE3
:1011100041EA0251826B127D41EA0261826B92695F
:10112000114302689200A2F1C042C2F8041107E024
:101130006FF0704201688900A1F1C041C1F804213B
:1011400070472DE9F04102460025002600200023CB
:101150000024002791F803C00CF00F0591F803C09C
:101160000CF0100CBCF1000F03D091F802C04CEA57
:10117000050591F800C0BCF1000F31D014680020C3
:101180002BE04FF0010C0CFA00F3B1F800C00CEAB0
:1011900003069E4220D183004FF00F0C0CFA03F798
:1011A000BC4305FA03FC4CEA040491F803C0BCF10B
:1011B000280F06D14FF0010C0CFA00FCC2F814C045
:1011C0000AE091F803C0BCF1480F05D14FF0010CC3
:1011D0000CFA00FCC2F810C0401C0828D1D31460DF
:1011E000B1F800C0BCF1FF0F34DD546800202EE0E0
:1011F00000F1080C4FF0010808FA0CF3B1F800C038
:101200000CEA03069E4221D183004FF00F0C0CFA2A
:1012100003F7BC4305FA03FC4CEA040491F803C04D
:10122000BCF1280F05D100F1080C08FA0CF8C2F83F
:10123000148091F803C0BCF1480F07D100F1080CED
:101240004FF0010808FA0CF8C2F81080401C08287A
:10125000CED35460BDE8F0810246002093680B4075
:101260000BB1012000E0002070474161704701612F
:10127000704700002DE9F04180460C461048007888
:1012800020B901F0BBF901200D4908702512E6B222
:10129000A5F1A101C1EB011202EB411106EB4101E5
:1012A000A1390802C11700EB5171CF100548391858
:1012B0002022404601F0E8F80020BDE8F08100005F
:1012C000100100200030180000BFFEE710B50446F2
:1012D00024B140210448FFF7C8FF03E04021024841
:1012E000FFF7C5FF10BD0000002001402DE9F041CF
:1012F00006460F4614461D462B46224639463046C2
:1013000000F012FC04FB05F00249098800F0A9FA7C
:10131000BDE8F0812600002001B502E00098401EE3
:10132000009000980028F9D108BD00002DE9F04395
:1013300089B080468946174610231A4649464046DA
:1013400000F0F2FB2C2000F0C1FE394601A8FFF7A7
:1013500091FF002422E001A810F814604FF6FF70FE
:1013600000EA0626012000EB440001A9085C0643C0
:1013700000250FE04FF400402841304020B10A48DA
:10138000008800F0A7FE03E00848008800F0A2FEF5
:10139000681CC5B2102DEDDB601CC4B2102CDADB6A
:1013A00009B0BDE8F08300002400002026000020E2
:1013B0002DE9F05F804689461646A6F120001FFA07
:1013C00080FA1E49096889881C4A1268D28801FB84
:1013D00002F0C11700EB5171C1F3C707174800684D
:1013E00000680AFB070B15480068C38813480068AB
:1013F00082884946404600F097FB2C2000F066FEAC
:10140000002416E0002510E01BF80400802129418B
:10141000084020B10A48008800F05CFE03E009485B
:10142000008800F057FE681CC5B2082DECDB601C7C
:10143000C4B2BC42E6DBBDE8F09F00002000002003
:10144000240000202600002070B504460D4600262A
:1014500024E03046134909688988084412490988FC
:10146000884205DD00260F480068C088204484B209
:1014700020460C490968C98808440C4909888842F3
:1014800001DD002600242A7821463046FFF790FF30
:101490006D1C044800688088304486B22878002893
:1014A000D7D170BD20000020180000201A000020B5
:1014B0002DE9F04105460E46144648E020787E2886
:1014C00025DC284624490968898808442349098875
:1014D000884205DD002520480068C088304486B277
:1014E00030461D490968C98808441D490988884251
:1014F00001DD00250026227831462846FFF758FFF7
:10150000154800688088284485B2641C1FE028467E
:10151000103012490988884203DD002506F11000C9
:1015200086B2304610300E490988884201DD002518
:1015300000262788380200EB272087B23A4631463A
:101540002846FFF7F3FE05F1100085B2A41C2078B1
:101550000028B3D1BDE8F081200000201800002051
:101560001A0000202DE9F05F05460E4691469B4685
:1015700000240FFA89F70320A0EB49000FFA80FA44
:1015800087E0BBF1000F40D0A0463BE006EB08022D
:1015900091B22A1990B200F07DFD06EB080291B2DB
:1015A0002A1B90B200F076FD321991B2A5EB080229
:1015B00090B200F06FFD321B91B2A5EB080290B221
:1015C00000F068FDA6EB080291B22A1B90B200F071
:1015D00061FDA6EB080291B22A1990B200F05AFD03
:1015E000321B91B205EB080290B200F053FD3219A4
:1015F00091B205EB080290B200F04CFD08F1010039
:101600000FFA80F8B845C1DD2FE0F21991B22A191E
:1016100090B200F03FFDF21991B22A1B90B200F097
:1016200039FD321991B2EA1B90B200F033FD321B42
:1016300091B2EA1B90B200F02DFDF21B91B22A1B71
:1016400090B200F027FDF21B91B22A1990B200F07F
:1016500021FD321B91B2EA1990B200F01BFD321944
:1016600091B2EA1990B200F015FD601C04B2BAF113
:10167000000F05DAA000801D50440FFA80FA07E041
:10168000E01B80000A3050440FFA80FA781E07B23F
:1016900000BFBC427FF775AFBDE8F09F70B5044650
:1016A0000D4604F10A018AB2143988B22B46294644
:1016B00000F00AF805F10A0083B2143881B222461C
:1016C000204600F001F870BD2DE9FF4F83B0814640
:1016D0004FF0000AD3460598A0EB09050499069837
:1016E000461ACDF8049004980090002D01DD0127E2
:1016F00005E00DB9002702E04FF0FF376D42002EE4
:1017000002DD4FF0010806E016B94FF0000802E0D4
:101710004FF0FF387642B54201DD2C4600E03446FA
:101720000020029019E0DDE9001000F0B3FCAA44AB
:10173000B344A24505DDAAEB040A0198384480B2FF
:101740000190A34505DDABEB040B0098404480B24B
:1017500000900298401C80B20290611C029888425E
:10176000E1DD07B0BDE8F08F2DE9F04104460D46FC
:1017700016461F46DDF81880B8F1000F0CD03B4626
:1017800032462946204600F0CFF906FB07F01749FC
:10179000098800F066F827E0A019401E82B22B46A7
:1017A00029462046FFF790FFE819401E83B2A01992
:1017B000401E82B2E819401E81B22046FFF784FF26
:1017C000E819401E83B2224629462046FFF77CFFD7
:1017D000E919491E8BB2A119491E8AB2A119491EE5
:1017E00088B22946FFF770FFBDE8F0812400002091
:1017F00000B597B03C2108A8FEF7BFFC1C2101A84A
:10180000FEF7BBFC0121080200F0A8FD01200190B9
:101810000420039080060790002002900490059019
:101820000690062008900020099008200A901020B9
:101830000B9000200C900E900F9010904FF4805061
:101840001190002012901390149001A815901690FA
:1018500008A8FFF703FC01210620FFF7E5FB17B0FE
:1018600000BD70B504460D4600262C2000F02EFC6D
:1018700000BF03E0284600F02DFC761CA642F9D3F9
:1018800070BD000008B501214FF4B07000F076FD86
:1018900003208DF8020018208DF803004FF48040DB
:1018A000ADF8000069465B48FFF74BFC4FF4004081
:1018B000ADF8000069465748FFF743FC0120ADF83A
:1018C000000069465348FFF73CFC0220ADF80000D9
:1018D00069465048FFF735FC8020ADF800006946A6
:1018E0004D48FFF72EFC4FF48070ADF800006946BC
:1018F0004948FFF726FC4FF40070ADF80000694638
:101900004548FFF71EFC4FF48060ADF800006946C3
:101910004148FFF716FC4FF40060ADF8000069463F
:101920003D48FFF70EFC4FF48050ADF800006946CB
:101930003948FFF706FC4FF40050ADF80000694647
:101940003548FFF7FEFB4FF48040ADF800006946D4
:101950003148FFF7F6FB4FF40040ADF80000694650
:101960002D48FFF7EEFB4FF48070ADF8000069469C
:101970002848FFF7E6FB4FF40070ADF80000694619
:101980002448FFF7DEFB4FF48060ADF800006946A5
:101990002048FFF7D6FB03208DF8020018208DF8B1
:1019A00003001020ADF8000069461A48FFF7C9FB94
:1019B0002020ADF8000069461648FFF7C2FB4FF43F
:1019C0008050ADF8000069461448FFF7BAFB0420C8
:1019D000ADF8000069461048FFF7B3FB10208DF802
:1019E000030003208DF802004FF40060ADF8000002
:1019F00069460A48FFF7A5FB10208DF80300032075
:101A00008DF802004020ADF8000069460348FFF75A
:101A100098FB08BD0014014000180140002001405F
:101A200010B50446072C00DD10BD31480470204677
:101A300004EBD0714910A4EB410139B9F0202D49D4
:101A400008804FF4A0702C49088006E04FF4A07085
:101A500028490880F02028490880362000F036FB0D
:101A60002648008849F24131884205D1082141EADF
:101A7000441000F02FFB0AE02048008848F2525141
:101A8000884204D1002141EA441000F023FB2A20BF
:101A900000F01CFB002000F01DFB002000F01AFBF2
:101AA00014490988491EC1F3072000F013FB1149AE
:101AB0000978491EC8B200F00DFB2B2000F006FB90
:101AC000002000F007FB002000F004FB0A49098811
:101AD000491EC1F3072000F0FDFA07490978491EA5
:101AE000C8B200F0F7FA2C2000F0F0FA00BF9BE734
:101AF0001C000020180000201A0000201E000020FA
:101B000010B5FFF7BFFEFFF773FE0120FFF7DEFB06
:101B100000F0A0FA00F038F802480078FFF780FFE4
:101B200010BD00001C0000202DE9F04104460D46C8
:101B300016461F462A2000F0C9FA201200F0CAFA01
:101B4000E0B200F0C7FAA119491EC1F30F2000F05E
:101B5000C1FAA119491EC8B200F0BCFA2B2000F04E
:101B6000B5FA281200F0B6FAE8B200F0B3FAE919B3
:101B7000491EC1F30F2000F0ADFAE919491EC8B2A1
:101B800000F0A8FABDE8F08110B500F025FAFE4992
:101B900008800846008849F2413188427ED1CF2032
:101BA00000F094FA002000F095FA812000F092FAFB
:101BB000302000F08FFAED2000F088FA642000F069
:101BC00089FA032000F086FA122000F083FA8120BF
:101BD00000F080FAE82000F079FA852000F07AFA27
:101BE000102000F077FA782000F074FACB2000F093
:101BF0006DFA392000F06EFA2C2000F06BFA00200C
:101C000000F068FA342000F065FA062000F062FA6D
:101C1000F72000F05BFA202000F05CFAEA2000F0E8
:101C200055FA002000F056FA002000F053FAB120D7
:101C300000F04CFA002000F04DFA1B2000F04AFAA8
:101C4000B62000F043FA0A2000F044FAA22000F087
:101C500041FAC02000F03AFA352000F03BFAC120EA
:101C600000F034FA112000F035FAC52000F02EFA09
:101C7000452000F02FFA452000F02CFAC72000F094
:101C800025FAA22000F026FAF22000F01FFA002028
:101C900000F020FA262000F019FA00E096E001207A
:101CA00000F018FAE02000F011FA0F2000F012FA0C
:101CB000262000F00FFA242000F00CFA0B2000F090
:101CC00009FA0E2000F006FA092000F003FA542069
:101CD00000F000FAA82000F0FDF9462000F0FAF923
:101CE0000C2000F0F7F9172000F0F4F9092000F0BB
:101CF000F1F90F2000F0EEF9072000F0EBF90020D9
:101D000000F0E8F9E12000F0E1F9002000F0E2F94C
:101D1000192000F0DFF91B2000F0DCF9042000F0AE
:101D2000D9F9102000F0D6F9072000F0D3F92A20C5
:101D300000F0D0F9472000F0CDF9392000F0CAF9C1
:101D4000032000F0C7F9062000F0C4F9062000F0D7
:101D5000C1F9302000F0BEF9382000F0BBF90F20A7
:101D600000F0B8F9362000F0B1F9C82000F0B2F95F
:101D70002A2000F0ABF9002000F0ACF9002000F0C0
:101D8000A9F9002000F0A6F9EF2000F0A3F92B201C
:101D900000F09CF9002000F09DF9002000F09AF975
:101DA000012000F097F93F2000F094F93A2000F06C
:101DB0008DF9552000F08EF9112000F087F9734855
:101DC000FFF7AAFA292000F081F901E16E480088A6
:101DD00048F252518842F8D1CF2000F077F9002024
:101DE00000F078F9C12000F075F9302000F072F9A8
:101DF000ED2000F06BF9642000F06CF9032000F096
:101E000069F9122000F066F9812000F063F9E820FA
:101E100000F05CF9852000F05DF9102000F05AF91F
:101E2000782000F057F9CB2000F050F9392000F06D
:101E300051F92C2000F04EF9002000F04BF934202D
:101E400000F048F9022000F045F9F72000F03EF9D3
:101E5000202000F03FF9EA2000F038F9002000F0DF
:101E600039F9002000F036F9C02000F02FF92120C8
:101E700000F030F9C12000F029F9112000F02AF912
:101E8000C52000F023F92D2000F024F9332000F0C4
:101E900021F9362000F01AF9002000F01BF93A2051
:101EA00000F014F9552000F015F9B12000F00EF9FA
:101EB000002000F00FF9172000F00CF9B62000F018
:101EC00005F90A2000F006F9A22000F003F9F62037
:101ED00000F0FCF8012000F0FDF8302000F0FAF8E6
:101EE000F22000F0F3F8002000F0F4F8262000F0D3
:101EF000EDF8012000F0EEF8E02000F0E7F8D02047
:101F000000F0E8F8002000F0E5F8022000F0E2F828
:101F1000072000F0DFF80B2000F0DCF81A2000F0BA
:101F2000D9F8312000F0D6F8542000F0D3F8402042
:101F300000F0D0F8292000F0CDF8122000F0CAF807
:101F4000122000F0C7F8122000F0C4F8172000F0AB
:101F5000C1F8E12000F0BAF8D02000F0BBF8002072
:101F600000F0B8F8022000F0B5F8072000F0B2F851
:101F7000052000F0AFF8252000F0ACF82D2000F08F
:101F8000A9F8442004E000001E000020FCBF02006D
:101F900000F0A0F8452000F09DF81C2000F09AF811
:101FA000182000F097F8162000F094F81C2000F09C
:101FB00091F81D2000F08EF8112000F087F80548F8
:101FC000FFF7AAF9292000F081F82C2000F07EF814
:101FD00010BD0000FCBF020010B50024042000F07A
:101FE00075F800BF4FF0DA40008800BF4FF0DA40CC
:101FF000008800F02BF804464FF6FF7000EA042436
:1020000000F024F8044348F25250844201D12046A3
:1020100010BDD32000F05AF800BF4FF0DA4000881E
:1020200000BF4FF0DA40008800F010F804464FF689
:10203000FF7000EA042400F009F8044349F241303B
:10204000844201D12046E3E70020E1E74FF0DA4087
:102050000088704710B54FF400610848FFF705F994
:1020600040F6FF20FFF758F94FF400610348FFF7EF
:10207000FEF840F6FF20FFF74FF910BD00200140A9
:1020800070B504460D4601231A4629462046FFF73F
:102090004BFD70BD70B505460C4609480088854269
:1020A0000CDA08480088844208DA21462846FFF7FF
:1020B000E7FF054801880120FFF7D3FB70BD000052
:1020C000180000201A000020240000204FF0D84102
:1020D000088070474FF0DA41088070472DE9F04FD3
:1020E0008BB005460E4691469A46DDF850B0002763
:1020F000B84600200A900990089007900690059035
:1021000000240490039002900190A9EB05000028A0
:1021100002DDA9EB050001E0A5EB090007B2AAEB7F
:102120000600002802DDAAEB060001E0A6EB0A008B
:102130000FFA80F828B20A9030B20990A94503DB63
:1021400001200890079003E04FF0FF3008900790BF
:10215000B24503DB01200690059003E04FF0FF300D
:102160000690059047450DDB0020089005903C4601
:10217000384607EBD071491009B20491CDF80C80B4
:1021800002970CE00020079006904446404608EB7A
:10219000D071491009B204910397CDF8088000204E
:1021A000019041E00A9858442349098888420DDC8F
:1021B0000A98B0EB0B0009D4099858441F490988C4
:1021C000884203DC0998B0EB0B0000D528E0099A9F
:1021D00091B20A9A90B201235A46FFF7C3F9DDE99A
:1021E0000310084400B204900498A0420DDB049848
:1021F000001B00B2049008990A98084400B20A90A3
:1022000006990998084400B2099007990A98084469
:1022100000B20A9005990998084400B2099000BFDD
:102220000198401C00B20190DDE901018842B9DD4E
:102230000BB0BDE8F08F0000180000201A0000204D
:102240000148006870470000200000200149088014
:102250007047000026000020024A1080024A1180C8
:10226000704700002400002026000020014908607B
:1022700070470000200000200149088070470000DE
:102280002400002008B50121082000F077F8202064
:10229000ADF8000010208DF8030003208DF8020037
:1022A00069460F48FEF74DFF0120ADF80000694672
:1022B0000B48FEF746FF0220ADF8000069460848CB
:1022C000FEF73FFF20210648FEF7D1FF0121044819
:1022D000FEF7CDFF02210248FEF7C9FF08BD00004E
:1022E000000C014000BFFEE77047000070B50546D6
:1022F0002846FFF795FB4FF6FF70FFF7A7FF124840
:1023000003881248028800210846FEF7EFFF00F01C
:10231000F9FB00240CE004EB44020D4B03EBC2007C
:1023200004EB440203EBC20211698847601CC4B28B
:10233000102CF0DB0020074908600871098888B27A
:10234000FFF79AFF70BD00001A000020180000205F
:1023500020010020140100207047000029B1064A26
:1023600052690243044B5A6104E0034A52698243B2
:10237000014B5A61704700000010024029B1064A23
:1023800092690243044B9A6104E0034A92698243D2
:10239000014B9A61704700000010024030B50021E7
:1023A0000022002400232D4D6D6805F00C0121B1A1
:1023B000042905D0082923D105E0294D056022E034
:1023C000274D05601FE0254D6D6805F47012234D03
:1023D0006D6805F48034022505EB92421CB9214D4D
:1023E000554305600BE01D4D6D6805F400351DB1CA
:1023F0001C4D5543056002E0194D5543056002E050
:10240000174D056000BF00BF144D6D6805F0F00169
:102410000909154D6B5C0568DD4045600F4D6D6821
:1024200005F4E061090A104D6B5C4568DD4085608C
:102430000A4D6D6805F46051C90A0B4D6B5C456827
:10244000DD40C560054D6D6805F44041890B074DC1
:102450006B5CC568B5FBF3F5056130BD001002404B
:1024600000127A0000093D0000000020100000204A
:1024700021B1028842F04002028004E002884FF657
:10248000BF731A400280704770B505460C46164669
:1024900010211048FEF7E9FE032000F07DF9C4F397
:1024A000074000F079F9C4F3072000F075F9E0B2B5
:1024B00000F072F904E0FF2000F06EF928706D1C46
:1024C000301EA6F101018EB2F5D110210148FEF7B0
:1024D000CEFE70BD000801402DE9F05F07460E46B4
:1024E00014464FF00008C146C2460025AB4606F030
:1024F000FF0ACAF10000C5B22046E11704EB1161E2
:10250000C1F30728E11704EB11610912A4EB0121C3
:1025100001F0FF09BAF1000F20D1B8F1000F05D189
:1025200022463146384600F0C7F864E009E04FF42F
:1025300080723146384600F0BFF806F5807607F520
:102540008077B8F10000A8F1010101F0FF08EED199
:102550004A463146384600F0AFF84CE0B8F1000F7B
:1025600018D1A94510DDA9EB050000F0FF0B2A46A4
:102570003146384600F0A0F82E442F445A463146E2
:10258000384600F099F836E022463146384600F0E9
:1025900093F830E0601B84B22046E11704EB116130
:1025A000C1F30728E11704EB11610912A4EB012123
:1025B00001F0FF092A463146384600F07DF82E44E6
:1025C0002F4409E04FF480723146384600F074F829
:1025D00006F5807607F58077B8F10000A8F10101D3
:1025E00001F0FF08EED1B9F1000F04D04A463146A0
:1025F000384600F061F8BDE8F09F000000B587B0F4
:1026000001210803FFF7BAFE0121C420FFF7B6FE3F
:102610001020ADF8040003208DF8060010208DF87E
:10262000070001A92248FEF78CFD2020ADF8040028
:1026300018208DF8070001A91D48FEF782FD4020F3
:10264000ADF8040001A91A48FEF77BFD8020ADF823
:10265000040001A91648FEF774FD10211448FEF786
:1026600006FE0020ADF808004FF48270ADF80A00B5
:102670000020ADF80C000220ADF80E000120ADF8EE
:1026800010004002ADF812000820ADF81400002040
:10269000ADF816000720ADF8180002A9054800F0B3
:1026A000EFF801210348FFF7E3FE07B000BD00008B
:1026B000000801400030014070B505460C46164642
:1026C00000F0C0F810211548FEF7CFFD022000F001
:1026D00063F8C4F3074000F05FF8C4F3072000F08C
:1026E0005BF8E0B200F058F8B6F5807F04DD4FF4F7
:1026F00080760BA001F0E0FA03E0287800F04CF8B7
:102700006D1C301EA6F101018EB2F6D110210348D6
:10271000FEF7ADFD00F07CF870BD00000008014040
:102720003C3C2D464C4153482D4552524F522D3E74
:102730003E205350495F464C4153485F50616765A6
:10274000577269746520746F6F206C6172676521C0
:102750000A00000010B5044600F074F800F058F8C4
:1027600010210C48FEF781FD202000F015F8C4F37D
:10277000074000F011F8C4F3072000F00DF8E0B2B4
:1027800000F00AF810210348FEF771FD00F040F850
:1027900010BD00000008014010B504464FF4805001
:1027A000194908600AE018490868411E164A116074
:1027B00020B9002000F082F8C0B210BD02211348F9
:1027C00000F050F80028EED02146104800F056F8EE
:1027D0004FF480500C4908600AE00B490868411E1C
:1027E000094A116020B9012000F068F8C0B2E4E79E
:1027F0000121064800F036F80028EED0034800F02A
:102800003AF8C0B2D9E700001400002000300140BF
:1028100010B5002410210A48FEF727FD0520FFF718
:10282000BBFF00BFFF20FFF7B7FF044604F0010025
:102830000028F7D110210248FEF719FD10BD000055
:102840000008014010B510210548FEF70EFD0620D6
:10285000FFF7A2FF10210248FEF709FD10BD00009E
:10286000000801400246002013890B400BB10120F3
:1028700000E00020704701468889704781817047D9
:1028800010B50022028802F441520B884C88234381
:102890008C882343CC8823430C8923434C892343CE
:1028A0008C892343CC8923431A430280838B4FF2C4
:1028B000FF74234083830B8A038210BD10B5044646
:1028C000214602A001F0F8F9002010BD3C3C2D4645
:1028D0004C4153482D4552524F522D3E3E205350AD
:1028E0004920B5C8B4FDB3ACCAB1216572726F722C
:1028F000436F6465203D2025640A0000704710B5D1
:1029000000F002F810BD00000CB50020019000900E
:102910003348006840F480303149086000BF3048D7
:10292000006800F4003000900198401C019000986D
:1029300018B90198B0F5A06FF1D12948006800F4EA
:10294000003010B10120009001E0002000900098BC
:10295000012843D12348006840F010002149086055
:102960000846006820F0030008600846006840F050
:10297000020008601A4840681949486008464068E3
:1029800048600846406840F48060486008464068F7
:1029900020F47C1048600846406840F4E810486025
:1029A0000846006840F08070086000BF0C4800686E
:1029B00000F000700028F9D00948406820F00300BA
:1029C000074948600846406840F00200486000BF80
:1029D0000348406800F00C000828F9D10CBD000045
:1029E00000100240002002407047000010B513485C
:1029F000006840F00100114908600846406810492D
:102A000008400E494860084600680E4908400B49D6
:102A100008600846006820F4802008600846406886
:102A200020F4FE0048604FF41F008860FFF767FF46
:102A30004FF000600449086010BD00000010024023
:102A40000000FFF8FFFFF6FE08ED00E070B5054658
:102A50000E46002450E004EB4400294901EBC0007D
:102A60008088A8422CDB04EB440001EBC000C08846
:102A7000B04225DB04EB440001EBC0004088B042CB
:102A80001EDC04EB440031F83000A84218DC04EBF3
:102A9000440001EBC000007B60BB012004EB44015B
:102AA000174A02EBC101087304EB4402144B03EB19
:102AB000C20004EB440203EBC2021169884719E02B
:102AC00004EB44000E4901EBC000007B012811D14A
:102AD000002004EB44010A4A02EBC101087304EB35
:102AE0004402074B03EBC20004EB440203EBC202B7
:102AF00011698847601CC4B2102CACDB70BD0000AB
:102B0000200100200020C4490880488028208880B7
:102B10001C20C880002088600873C0480861C04835
:102B20004861002008831C21BB4841832821818300
:102B30003821C18346F20C310162002180F8241053
:102B4000B6498162B649C1620020B349088638217E
:102B5000B1484186282181865421C1861F21816385
:102B6000002180F83C10AD490164AD49416400206A
:102B7000A949A1F848005421A748A0F84A102821E3
:102B8000A0F84C107021A0F84E1040F2FF710165C2
:102B9000002180F85410A1498165A149C165002038
:102BA0009D49A1F8600070219B48A0F8621028217F
:102BB000A0F864108C21A0F866104FF4784181666B
:102BC000002180F86C109549016795494167002004
:102BD0009149A1F878008C218F48A0F87A1028211B
:102BE000A0F87C10A821A0F87E104FF61F01C0F8B5
:102BF0008010002180F884108849C0F88810884926
:102C0000C0F88C1000208449A1F89000A8218248C7
:102C1000A0F892102821A0F89410C421A0F89610D2
:102C20004FF4FC61C0F89810002180F89C107B499B
:102C3000C0F8A0107A49C0F8A41000207649A1F885
:102C4000A800C4217448A0F8AA102821A0F8AC104C
:102C5000744801887048A0F8AE104CF21861C0F8B2
:102C6000B010002180F8B4106F49C0F8B8106F4957
:102C7000C0F8BC1028206849A1F8C00000216648AF
:102C8000A0F8C2105021A0F8C4101C21A0F8C61052
:102C90000021C0F8C81080F8CC106549C0F8D010E9
:102CA0006449C0F8D41028205B49A1F8D8001C2141
:102CB0005948A0F8DA105021A0F8DC103821A0F80B
:102CC000DE100121C0F8E010002180F8E41058491E
:102CD000C0F8E8105749C0F8EC1028204E49A1F878
:102CE000F00038214C48A0F8F2105021A0F8F41060
:102CF0005421A0F8F6100221C0F8F810002180F845
:102D0000FC104B49C0F800114A49C0F804112820B2
:102D10004149A1F8080154213F48A0F80A11502167
:102D2000A0F80C117021A0F80E110321C0F81011A9
:102D3000002180F814113E49C0F818113D49C0F82F
:102D40001C1128203449A1F8200170213248A0F834
:102D500022115021A0F824118C21A0F82611042161
:102D6000C0F82811002180F82C113149C0F8301129
:102D70003049C0F8341128202749A1F838018C21A6
:102D80002548A0F83A115021A0F83C11A821A0F83C
:102D90003E110521C0F84011002180F8441124495A
:102DA000C0F848112349C0F84C1128201A49A1F84D
:102DB0005001A8211848A0F852115021A0F8541130
:102DC000C421A0F856110621C0F85811002180F83E
:102DD0005C111749C0F860111649C0F86411282029
:102DE0000D49A1F86801C4210B48A0F86A115021CF
:102DF000A0F86C110B4801880748A0F86E11082153
:102E0000C0F87011002180F874110949C0F87811D8
:102E10000849C0F87C11704720010020B109000862
:102E20006D0800081A0000209D0800081908000815
:102E3000350A00084D08000870B505460E46002406
:102E40003BE004EB44001F4901EBC0008088A8422E
:102E500031DD04EB440031F83000A8422BDA04EBFA
:102E6000440001EBC000C088B04224DD04EB440004
:102E700001EBC0004088B0421DDA002004EB4401A1
:102E8000104A02EBC101087304EB44020D4B03EB43
:102E9000C20004EB440203EBC2021169884704EB51
:102EA0004402084B03EBC20004EB440203EBC202F2
:102EB0005169884703E0601CC4B2102CC1DB00BF1D
:102EC00070BD00002001002021B1828942F400522F
:102ED000828104E082894DF6FF731A408281704737
:102EE00000B585B001210420FFF748FA01218803CD
:102EF000FFF744FA4FF40070ADF8100018208DF879
:102F0000130003208DF8120004A91348FEF719F9E5
:102F10004FF48060ADF8100004208DF8130004A970
:102F20000D48FEF70EF94FF4E13000900020ADF8A7
:102F30000400ADF80600ADF80800ADF80C000C2058
:102F4000ADF80A006946054800F018F80121034869
:102F5000FFF7BAFF05B000BD00080140003801408E
:102F600002460020B1F5007F00D100BF13880B405E
:102F70000BB1012000E00020704700002DE9F04770
:102F800086B005460E460024A24600BFA146002793
:102F9000B08900B100BF2F462C8A4CF6FF70044068
:102FA000F08804432C82AC894EF6F3100440B088BC
:102FB00031890843718908430443AC81AC8A4FF6D8
:102FC000FF400440B0890443AC8201A8FFF7E6F952
:102FD0001F48874202D1DDF810A001E0DDF80CA007
:102FE000A88900F4004040B10AEBCA0000EB0A10C7
:102FF00031684900B0FBF1F807E00AEBCA0000EBCA
:103000000A1031688900B0FBF1F86420B8FBF0F0D9
:1030100004012009642101FB1089A88900F4004003
:1030200040B1322000EBC900B0FBF1F000F0070026
:10303000044308E0322000EB09106421B0FBF1F0FA
:1030400000F00F0004432C8106B0BDE8F0870000BB
:1030500000380140C1F308028280704700BFFEE7DC
:103060002DE9F04105460C4616460127B4F900103B
:10307000B4F91020891AB4F90A30B4F912209A1A56
:103080005143B4F90820B4F91030D31AB4F902C08E
:10309000B4F91220ACEB020203FB1210FDF728FA80
:1030A000B0610021B069FDF789FA01D10027C3E0C2
:1030B000B5F90010B5F91020891AB4F90A30B4F93D
:1030C00012209A1A5143B5F90820B5F91030D31AD5
:1030D000B4F902C0B4F91220ACEB020203FB1210E7
:1030E000FDF706FA3060B4F90010B4F91020891A1F
:1030F000B5F90820B5F91030D21A5143B5F90020BE
:10310000D21AB4F90830B4F910C0A3EB0C0302FBD7
:103110001310FDF7EDF97060B4F91010B5F908203F
:103120005143B4F90820B5F9103002FB1311B4F97A
:1031300002205143B4F900205A43B4F91030B5F9D4
:1031400000C003FB1C23B4F90A2003FB0212B4F9EC
:10315000081001FB0CF1B4F90030B5F908C003FB0D
:103160001C13B4F9121003FB0120FDF7C1F9B06084
:10317000B5F90220B5F91210511AB4F90A30B4F9B0
:1031800012209A1A5143B5F90A30B5F912209B1A48
:10319000B4F902C0B4F91220ACEB020203FB121026
:1031A000FDF7A6F9F060B4F90010B4F91020891AFF
:1031B000B5F90A30B5F912209A1A5143B5F902301F
:1031C000B5F912209A1AB4F90830B4F910C0A3EB7B
:1031D0000C0302FB1310FDF78BF93061B4F91010EA
:1031E000B5F90A205143B4F90830B5F9122003FBB0
:1031F0001211B4F902205143B4F90020B5F912308C
:103200005A43B4F91030B5F902C003FB1C23B4F9DA
:103210000A2003FB0213B4F9081001FB0CF1B4F906
:1032200000C0B5F90A200CFB1212B4F9121002FB0F
:103230000130FDF75DF970613846BDE8F08101B5F8
:10324000002007E00C2100BF0A1EA1F10103D9B242
:10325000FAD1401C00998842F4D308BD2DE9FC5FE7
:1032600005460C460126684600F0C2F8002865D0E5
:10327000BDF90200FDF73CF983463248007800EBC7
:10328000400004EBC00041685846FCF7E0FF81466F
:10329000BDF90000FDF72CF983462A48007800EBC1
:1032A000400054F830105846FCF7D1FF824649469A
:1032B000FCF775FF80462348007800EB400004EBE4
:1032C000C00081684046FCF76AFF0746FDF719F920
:1032D00000B22880BDF90200FDF70AF983461948BB
:1032E000007800EB400004EBC00001695846FCF791
:1032F000AEFF8146BDF90000FDF7FAF8834611489C
:10330000007800EB400004EBC000C1685846FCF7B1
:103310009EFF82464946FCF742FF804609480078F6
:1033200000EB400004EBC00041694046FCF737FF6A
:103330000746FDF7E6F800B2688000E00026304658
:10334000BDE8FC9F1C00002008B501214FF4C070AF
:10335000FFF714F88020ADF8000001208DF802007E
:1033600010208DF8030069461B48FDF7EAFE4FF474
:103370000060ADF8000069461848FDF7E2FE402005
:10338000ADF8000001208DF8020048208DF8030000
:1033900069461248FDF7D5FE4FF48060ADF8000095
:1033A00001208DF8020010208DF8030069460B48BB
:1033B000FDF7C7FE4FF480610848FDF756FF4FF454
:1033C0000070ADF8000048208DF8030069460348FE
:1033D000FDF7B7FE08BD000000200140001C0140C1
:1033E00010B50446204600F031FC00F0C3F810BDD3
:1033F0002DE9F0478CB00646002528216846FCF7E9
:10340000BCFE00BF0AA90BA800F0A0F8BDF92C0073
:103410002DF81500BDF9281005A820F81510681C16
:10342000C5B24FF400714748FDF716FF08B90A2DE1
:10343000E8DB4FF400714348FDF70EFF10B10020A8
:10344000414908700A2D7BD1BDF90070B846BDF91D
:103450001490CA4601240EE03DF91400B84202DA85
:103460003DF9147005E03DF91400404501DD3DF9DA
:103470001480601CC4B20A2CEEDB012412E005A803
:1034800030F91400484503DA05A830F9149007E034
:1034900005A830F91400504502DD05A830F914A044
:1034A000601CC4B20A2CEADBBDF90000BDF90210B1
:1034B0000844BDF904100844BDF906100844BDF9DC
:1034C00008100844BDF90A100844BDF90C1008445E
:1034D000BDF90E100844BDF910100844BDF91210D2
:1034E0000844C01BA0EB0800C01000B23080BDF93A
:1034F0001410BDF916000144BDF918000144BDF9CE
:103500001A000144BDF91C000144BDF91E0001442C
:10351000BDF920000144BDF922000144BDF9240099
:103520000144BDF926000844A0EB0900A0EB0A0005
:10353000C01000B2708001200CB0BDE8F087FFE73A
:103540000020F9E7001C0140E80000202DE9F041CF
:1035500004460D469020FFF743FF06B20120FFF717
:103560006EFED020FFF73CFF07B226802F80BDE81B
:10357000F081000070B500254FF400611048FDF7A0
:1035800074FE80210F48FDF772FE002414E08021B4
:103590000C48FDF76AFE40210948FDF75DFE06462E
:1035A000C4F10B0006FA00F0284385B280210548DB
:1035B000FDF75DFE601CC4B20C2CE8DB284670BD34
:1035C000001C01400020014010B50024284800786C
:1035D00020B1012812D0022842D131E04FF400710D
:1035E0002448FDF739FE20B9012021490870002444
:1035F00003E000201E490870002436E04FF40071FB
:103600001C48FDF729FEA0B91B480068401C1A4958
:10361000086008460068022806D9002008600220D9
:103620001349087001240AE00120114908700024A0
:1036300005E00020104908600D490870002414E0DE
:103640004FF400710B48FDF707FE20B9022008492E
:103650000870012403E0002005490870002404E0FC
:10366000002003490870002400BF00BF204610BDA1
:10367000E9000020001C0140EC00002038B50446A1
:10368000B4F90400401C20B9B4F90400401C00B98E
:1036900038BD628891B2228890B2FFF7D7F9074807
:1036A0000090B4F90230B4F90020B4F90610B4F96E
:1036B0000400FDF7E1FB00BFEAE700001401002071
:1036C00010B5FFF781FF012819D1202015490860A6
:1036D0000120091D08600220091F086012491348D3
:1036E000FFF7BCFD00BF00BF1048FFF7C7FF0F4842
:1036F00000880E49888008464088C88011E0202054
:1037000008490860012008600220091D0860074878
:1037100000F00EF84FF0FF300449088048808880A0
:10372000C88010BD100C014028000020F0000020CF
:1037300010B50446B4F90400401C20B9B4F90400E3
:10374000401C00B910BDE28891B2A28890B2FFF788
:1037500073FB00BFF6E700002DE9F04FB9B0044657
:103760004FF00009CA4600201E901D900026FE481A
:10377000FEF77CFD00211F20FEF76EFD2046FEF7C0
:103780004FF9FA4800888010ADF85400F8480088D6
:103790008010ADF85600BDF85400ADF85C00F44858
:1037A000008800EB4000801001B215A84181EF486D
:1037B000008800EB4000801000B2ADF8640015A84E
:1037C00041894182BDF86400ADF86C00BDF8561027
:1037D00015A84183002558E0E5480388E34802889E
:1037E00000210846FDF782FDE2A6FEF729FD80884C
:1037F000DE49098891FBF0F83046FCF7C9FCA8EBDC
:103800000000470820233A46E0A11FA8009600F0D8
:1038100063FAD749098848101FA9FDF715FEFEF77E
:103820000FFD8088D149098891FBF0F0471E681C84
:10383000009007EBD77042102023D6A11FA800F0FC
:103840004BFAFEF7FDFCC088C9490988C0EB61004E
:1038500087B21FA93846FDF7F7FDD048FFF7EFFC08
:1038600015AA02EBC502528891B215AA32F835208A
:1038700090B2FDF713FF00BF0DA901EBC500FFF7E4
:10388000B7FD0028F8D0681CC5B2042DA4DB06AA39
:103890000DA915A8FFF7E4FB00210C98FCF78EFE9C
:1038A00000D143E1BDF94E00FCF722FE03900799D9
:1038B000FCF7CDFC8346BDF94C00FCF719FE0390E4
:1038C0000699FCF7C4FC59460490FCF768FC804656
:1038D0000899FCF764FC05900C99FCF7EAFC074694
:1038E000FCF728FE1FFA80F9BDF94E00FCF700FE38
:1038F00003900A99FCF7ABFC0590BDF94C00FCF76E
:10390000F7FD03900999FCF7A2FC04900599FCF7D8
:1039100046FC83460B99FCF742FC80460C99FCF769
:10392000C8FC0746FCF706FE1FFA80FABDF96C00DA
:10393000484504DABDF96C00A9EB000003E0BDF9CD
:103940006C00A0EB090080B21E90BDF96E005045DE
:1039500004DABDF96E00AAEB000003E0BDF96E00C9
:10396000A0EB0A0080B21D901E980F2802DC1D9863
:103970000F2800DDDAE00C98FCF7F0FDCDE902013C
:103980000698FCF7EBFD07460022854BFCF7CFFCC1
:10399000CDE90001DDE90223FCF73BFDCDE904019F
:1039A000FCF7EFFD04EB44017E4A42F831000C982D
:1039B000FCF7D4FDCDE902010798FCF7CFFD0746DF
:1039C0000022774BFCF7B3FCCDE90001DDE90223CF
:1039D000FCF71FFDCDE90401FCF7D3FD04EB440126
:1039E000704A02EBC10148600C98FCF7B7FDCDE9C5
:1039F00002010898FCF7B2FD07460022684BFCF76D
:103A000096FCCDE90001DDE90223FCF702FDCDE9DA
:103A10000401FCF7B6FD04EB4401624A02EBC1016C
:103A200088600C98FCF79AFDCDE904010998FCF731
:103A300095FD00225A4BCDE90001FCF778FCCDE959
:103A40000201DDE90423FCF7E4FC0746FCF799FDDD
:103A500004EB4401534A02EBC101C8600C98FCF727
:103A60007DFDCDE904010A98FCF778FD00224C4B5E
:103A7000CDE90001FCF75BFCCDE90201DDE904239F
:103A8000FCF7C7FC0746FCF77CFD04EB4401454A04
:103A900002EBC10108610C98FCF760FDCDE9020161
:103AA0000B98FCF75BFD00223D4BCDE90001FCF7D4
:103AB0003EFC0746DDE90223FCF7ABFCCDE904013F
:103AC000FCF75FFD04EB4401364A02EBC10148619B
:103AD000274803882548028800210846FDF706FC90
:103AE0004FF4FC60FEF7C8FB2FA6FEF7A9FB808809
:103AF0001E49098891FBF0F83046FCF749FBA8EB1A
:103B00000000470820233A4620A11FA8009600F095
:103B1000E3F81749098848101FA9FDF795FC2748C5
:103B2000FFF78DFB012039B0BDE8F08F1048038806
:103B30000E48028800210846FDF7D8FB4FF4784074
:103B4000FEF79AFB1EA6FEF77BFB808807490988D3
:103B500091FBF0F83046FCF71BFBA8EB0000470890
:103B600020233A4609A133E0F80000201800002085
:103B70001A000020546F7563682043616C6962729B
:103B8000617465202E2E2E2E2E2E0000252A6325F0
:103B900073000000252A632564000000E093040000
:103BA0000000F03F2800002043616C69627261747C
:103BB00065205375636365640000000040420F0098
:103BC00043616C696272617465206661696C0000B2
:103BD0001FA8009600F080F81649098848101FA910
:103BE000FDF732FC14A6FEF72BFB808815490988E7
:103BF00091FBF0F83046FCF7CBFAA8EB0000470841
:103C000020233A46AFF27C011FA8009600F064F82A
:103C1000FEF716FBC0880749098800EB610087B2F0
:103C20001FA93846FDF710FC0748FFF708FB0020E6
:103C300079E700001A0000207472792061676169D9
:103C40006E0000001800002040420F0070B50546CD
:103C50004FF400611648FDF708FB80211548FDF779
:103C600004FB002421E0C4F1070045FA00F000F055
:103C7000010028B14FF400610D48FDF7F8FA04E0A7
:103C80004FF400610A48FDF7F0FA0520FFF7D7FA74
:103C900080210848FDF7EBFA0520FFF7D0FA8021D4
:103CA0000448FDF7E2FA601CC4B2082CDBDB70BDEF
:103CB000001C0140002001400FB4054B10B503A9C2
:103CC000044A029800F02CF810BC5DF814FB0000C8
:103CD0006D4000081C0100200FB4084B10B504A96A
:103CE00002AA039800F01CF8044602A9002000F084
:103CF000B8F9204610BC5DF814FB000063400008D2
:103D000002E008C8121F08C1002AFAD170477047A4
:103D1000002001E001C1121F002AFBD17047000002
:103D20002DE9FF4F8BB088460546002606E0252882
:103D30000BD0DDE90D1290476D1C761C2878002809
:103D4000F5D10FB03046BDE8F08F0024A146A24661
:103D50000122AE4900E0044315F8013F203B02FA7E
:103D600003F00842F7D128782A2810D06FF02F02EC
:103D70002878A0F13001092915D809EB890102EB57
:103D8000410144F0020400EB01096D1CF0E758F812
:103D9000041B5FEA010903D544F40054C9F100098A
:103DA00044F002046D1C28782E2817D115F8010F55
:103DB00044F004042A280ED06FF02F022878A0F1D6
:103DC000300109290AD80AEB8A0102EB410100EB14
:103DD000010A6D1CF2E758F804AB6D1C28786C28BA
:103DE0000FD006DC4C2817D068280DD06A2814D1D3
:103DF00004E0742810D07A280FD10DE044F40014A8
:103E00000AE044F4801401E044F4401469788142EB
:103E100002D104F580146D1C6D1C2878692865D0CA
:103E200006DC00288DD0632827D0642806D15DE009
:103E30006E2808D073282AD0752877D0DDE90D12B6
:103E40009047761CE0E0C4F30250022809D0032812
:103E50000DD0D8F8001004280DD00E6008F1040829
:103E6000D2E0D8F80010F217C1E90062F6E7D8F8FE
:103E700000100E80F2E70E70F0E718F8041B8DF8C2
:103E8000001000208DF80100EB46012003E058F8F7
:103E900004BB4FF0FF3061074FF0000701D40AE088
:103EA0007F1C57450DDA8742FADB1BF80710002903
:103EB000F6D106E07F1C8742FCDB1BF807100029C7
:103EC000F8D1DDE90D23A9EB07008146214600F07A
:103ED000B1F83044C61904E0DDE90D121BF8010BFE
:103EE00090477F1EF8D22146484688E058F8040BD8
:103EF000C4F302514FF00A0B032900D100B2042988
:103F000000D140B2002802DA40422D2102E0210512
:103F100005D52B218DF82410012104E006E0E107EE
:103F200010D02021F6E708AF089113E058F8040BF1
:103F3000C4F302514FF00A0B032900D180B20429C7
:103F400000D1C0B20021EEE75946FCF741FB303109
:103F500007F8011D0028F7D1ADEB070000F1200B99
:103F6000600702D524F4803401E04FF0010ADA45FD
:103F700002DDAAEB0B0000E00020824600EB0B0103
:103F800008980144A9EB01000A90E00306D4DDE99A
:103F90000D2321460A9800F04DF806444FF0000921
:103FA00008E009A911F80900DDE90D12904709F1AF
:103FB0000109761C08998945F3DBE0030CD5DDE99E
:103FC0000D2321460A9800F035F8064404E0DDE9A7
:103FD0000D1230209047761CBAF10001AAF1010AB7
:103FE000F5DC05E0DDE90D1217F8010B9047761CB2
:103FF000BBF10001ABF1010BF4DC0A982146DDE9CD
:104000000D2300F005F806446D1C97E60928010011
:104010002DE9F041044600251E461746880404D4C5
:1040200005E039462020B0476D1C641EF9D52846AE
:10403000BDE8F0812DE9F041044600251E4690467A
:10404000C80301D5302700E02027880404D505E007
:1040500041463846B0476D1C641EF9D52846BDE878
:10406000F0810A68531C0B601070704770B50446ED
:104070000D46E1B20548FEF7EDFF00BF8021034881
:10408000FEF76EFF0028F9D0204670BD00380140D1
:10409000FDF736FDFFF758F900210320FCF776FB0A
:1040A000FEF71EFFFEF7EEF808A0FFF705FE124828
:1040B000FFF702FE0320FDF7B3FC10480078FEF77F
:1040C00015F901E0FFF7FCFAFCE700000D0A202AD1
:1040D0002A2A2A2A2A2A2A2A2A20B4A5C3FEBBADC4
:1040E000B0E5B3CCD0F2202A2A2A2A2A2A2A2A2A60
:1040F0002A2A200D0A000000607C00081C00002015
:1041000000000000000000000000000000000000AF
:1041100000000018181818181808000818000000E7
:1041200000000034242424000000000000000000EF
:104130000000000016247F2424247E242400000094
:10414000000000083E6848681C1612127C1010001F
:1041500000000061D296740810162949C6000000BC
:10416000000000003C646438724ACE467F000000C4
:1041700000000018181818000000000000000000DF
:1041800000000004081810303030301010180C04F3
:10419000000000201008080C0404040C081810206B
:1041A000000000080A341C6A08000000000000003B
:1041B0000000000000001818187F181818000000F0
:1041C0000000000000000000000000181808300087
:1041D0000000000000000000003C000000000000A3
:1041E000000000000000000000000018180000009F
:1041F0000000000206040C080810102020400000F7
:10420000000000003C6642475B7342663C000000D1
:104210000000000018784808080808087E00000020
:10422000000000003C460606040810207E00000046
:10423000000000007C0606043C0202067C00000030
:10424000000000000C1C14246444FF04040000005F
:10425000000000007E6060607E0202067C000000BC
:10426000000000001E306048764242623C000000C0
:10427000000000007E0206040C0818103000000048
:10428000000000003C6242361C6642423C000000D6
:10429000000000003C664242661A020478000000FA
:1042A00000000000000018180000001818000000AE
:1042B0000000000000001818000000181808300066
:1042C00000000000000004183060100C0600000020
:1042D00000000000000000007E007E0000000000E2
:1042E000000000000000301804060C102000000040
:1042F000000000301C060606181000101000000018
:104300000000001C224141DDB5A5A5AF94C0403C92
:1043100000000000181C342426627E43C100000007
:10432000000000007C4642467C4242427C00000085
:10433000000000001E204040404040603E00000061
:10434000000000007C4642434343424678000000A0
:10435000000000007E6060607E6060607E000000A3
:10436000000000007E6060607E60606060000000B1
:10437000000000001E604040CE4242623E0000004D
:1043800000000000424242427E424242420000009F
:10439000000000007E181818181818187E00000079
:1043A000000000007C0404040404044478000000BD
:1043B000000000004244485070584C444200000045
:1043C0000000000020202020202020203E000000AF
:1043D000000000006266675F5B5BC1C1C100000056
:1043E00000000000626272525A4A4E4646000000C7
:1043F000000000003C6243C3C3C343623C000000B2
:10440000000000007C4642424678404040000000E8
:10441000000000003C6243C3C3C343623C180F006A
:10442000000000007C6662667C6C646662000000CE
:10443000000000003E6040601C0602027C0000009C
:10444000000000007F18181818181818180000002D
:104450000000000042424242424242623C000000F0
:1044600000000000C14342622624341C18000000F2
:1044700000000000C1C141495B5B76666600000038
:104480000000000043663418181C2466C3000000B6
:1044900000000000C14266341C1818181800000003
:1044A000000000007E02040C181020607E00000056
:1044B0000000001C10101010101010101010101C14
:1044C000000000402020101008080C040602000024
:1044D0000000003C0C0C0C0C0C0C0C0C0C0C0C3CE0
:1044E00000000000181C2462000000000000000012
:1044F000000000000000000000000000000000FFBD
:10450000000000201000000000000000000000007B
:104510000000000000003C06023E42467A00000017
:104520000000004040405C62424242427C00000089
:104530000000000000001E20604060203E000000DF
:104540000000000202023E62424242663A0000005F
:104550000000000000003C62427E40603E0000001F
:104560000000000F1810107E101010101000000036
:104570000000000000003F66426658403E43423C57
:104580000000004040405C62424242424200000063
:104590000000001818007808080808087E000000CD
:1045A000000000040C007C040404040404040C78DF
:1045B000000000606060626C7870686462000000F7
:1045C0000000007808080808080808087E000000B5
:1045D000000000000000764B4B4B4B4B4B000000A3
:1045E0000000000000005C624242424242000000C3
:1045F0000000000000003C62424342623C000000B8
:104600000000000000005C62424242427C404040A8
:104610000000000000003E62424242663A0202028E
:104620000000000000006E726360606060000000C7
:104630000000000000003E20203C06027C0000003C
:10464000000000001010FE10101010101E000000DE
:104650000000000000004242424242663A00000070
:1046600000000000000043426624341818000000D7
:10467000000000000000C1C15B5A5E6666000000D9
:1046800000000000000062261C181C2662000000CA
:1046900000000000000043426624341C181830E07B
:1046A0000000000000007E060C1810207E000000B4
:1046B0000000000E18101010307010101010180E9E
:1046C000000008080808080808080808080808087A
:1046D00000000030180808080C0E080808081830F8
:1046E0000000000000000000714B06000000000008
:1046F00000000000000000000000000000000000BA
:1047000000000000000000000000000000000000A9
:104710000000000000000000000000000000000099
:104720000000000000000000000003800180018004
:1047300001800180018001800180018001800000F2
:10474000000003C003C000000000000000000000E3
:10475000000000000000000000000E700E700E70DF
:104760000C3000000000000000000000000000000D
:104770000000000000000000000000000000000039
:1047800000000000000000000000000006180638CD
:1047900006307FFE0C300C300C300C307FFE0C608D
:1047A0001C6018601860000000000000000000009D
:1047B000000000000000000000C000C00FF83CC86E
:1047C00031C031803D801F8003F001F8031C030CD1
:1047D000031C3FF83FE00700060000000000000057
:1047E00000000000000000001C007E0E630C631837
:1047F00063307E6000C001800300077C0EE61CC6AB
:1048000018C630C6607C00000000000000000000F8
:10481000000000000000000000000FE01CF03870F5
:1048200038701C601FC00F003F8C71CC60EC607C46
:1048300070383CFC1FCE00000000000000000000AB
:104840000000000000000000000003C001800180A3
:1048500001800000000000000000000000000000D7
:104860000000000000000000000000000000000048
:104870000000000000000000003000E001C00180E6
:1048800003000700060006000E000E000E000E00DA
:10489000060007000300038001C000E000300000B4
:1048A00000000000000000000C00060003800180F2
:1048B00001C000E0006000600070007000700060E7
:1048C000006000E000C00180038006000C000000D2
:1048D00000000000000000000000018011881DB8E9
:1048E00003C007E03DBC018801800000000000001B
:1048F00000000000000000000000000000000000B8
:1049000000000000000000000000000000000000A7
:10491000018001800180018001807FFE0180018093
:104920000180018000000000000000000000000085
:104930000000000000000000000000000000000077
:104940000000000000000000000000000000000067
:1049500003C003C001C001C003801F0000000000AD
:104960000000000000000000000000000000000047
:10497000000000000000000000000FF00000000038
:104980000000000000000000000000000000000027
:104990000000000000000000000000000000000017
:1049A0000000000000000000000000000000000007
:1049B00003C003C003C000000000000000000000AE
:1049C0000000000000000000000000180038003067
:1049D000006000E000C001C0018003000300060089
:1049E0000E000C001C001800300000000000000049
:1049F0000000000000000000000001800FF01C38E3
:104A0000381C301C707E70EE738E7E0E7C0C300C69
:104A1000381C1E780FE000000000000000000000BD
:104A200000000000000000000000000007C01FC0E0
:104A300039C001C001C001C001C001C001C001C036
:104A400001C03FFC3FFC000000000000000000002F
:104A50000000000000000000000003801FF0183874
:104A60000038001800380038007001E003800700AB
:104A70001C003FFC3FFC00000000000000000000A4
:104A80000000000000000000000007801FF0003858
:104A900000380038003007E007F00038001C001C28
:104AA000001820F83FE000000000000000000000B7
:104AB00000000000000000000000000000F001B055
:104AC000033007300E301C30383070307FFE7FFEF0
:104AD0000030003000300000000000000000000046
:104AE0000000000000000000000000001FF8180097
:104AF0001800180018001FE000F8001C001C001C23
:104B0000003800F01FC0000000000000000000009E
:104B100000000000000000000000000003F80F008B
:104B20001C001800300037F83C3C300C300C380CBE
:104B3000381C1E380FF000000000000000000000CC
:104B40000000000000000000000000003FFC001C0E
:104B5000001800380070006000E001C00180038090
:104B6000070006000E00000000000000000000002A
:104B70000000000000000000000003C01FF8381C07
:104B8000381C381C1C380FF007F01C78381C300C0F
:104B9000381C3C380FF0000000000000000000004E
:104BA0000000000000000000000003801FF0383803
:104BB000301C701C700C380C1FFC0FCC001C001833
:104BC00000701FE01F8000000000000000000000D7
:104BD00000000000000000000000000000000000D5
:104BE000000003C003C001800000000000000000BE
:104BF00003C003C003C0000000000000000000006C
:104C000000000000000000000000000000000000A4
:104C1000000003C003C0018000000000000000008D
:104C200003C003C001C001C003800F0000000000EA
:104C30000000000000000000000000000000000074
:104C4000003800F001C007001E0038000E00078089
:104C500001C00070003000000000000000000000F3
:104C60000000000000000000000000000000000044
:104C70000000000000003FFC000000003FFC3FFC83
:104C80000000000000000000000000000000000024
:104C90000000000000000000000000000000000014
:104CA0001C000F00038001E00078001C007001E090
:104CB00003800E000C000000000000000000000057
:104CC000000000000000000000000FC000F00038ED
:104CD00000380038003803F00380030003000000B0
:104CE00000000780078000000000000000000000B6
:104CF000000000000000000000E007F80C0C18069F
:104D00003006700363F36633C673CC63CC62CC6643
:104D1000CCE6C7FCE0006000700038101FF0000017
:104D200000000000000000000000000003C007E0D9
:104D300006E00E700E700C301C3818183FFC3FFC5B
:104D4000700E600EE0070000000000000000000090
:104D50000000000000000000000000003FF03838B4
:104D6000381C381C38383FF03FF8381C380C380CE9
:104D7000381C3FF83FE00000000000000000000089
:104D80000000000000000000000000E007FC1E041E
:104D900038003800300070007000700030003800BB
:104DA0003C001F9C07FC0000000000000000000009
:104DB0000000000000000000000000003FF030781C
:104DC000301C300C300E300E300E300E300E301CD9
:104DD00030383FF03FC0000000000000000000003D
:104DE0000000000000000000000000001FF8180094
:104DF0001800180018001FF81FF8180018001800F5
:104E000018001FF81FF8000000000000000000005C
:104E10000000000000000000000000001FF8180063
:104E20001800180018001FF81FF8180018001800C4
:104E3000180018001800000000000000000000002A
:104E40000000000000000000000000F007FC1E044D
:104E5000380030007000700070FC700C700C300C6A
:104E6000380C1F1C07FC00000000000000000000C0
:104E7000000000000000000000000000300C300CBA
:104E8000300C300C300C3FFC3FFC300C300C300C44
:104E9000300C300C300C000000000000000000005E
:104EA0000000000000000000000000003FFC018046
:104EB00001800180018001800180018001800180EA
:104EC00001803FFC3FFC00000000000000000000EB
:104ED0000000000000000000000000001FF0003093
:104EE0000030003000300030003000300030003042
:104EF00000701DE01FC00000000000000000000066
:104F0000000000000000000000000000381C3870A5
:104F100038E039C03B803F003F003B8039C038E07B
:104F200038703838381C0000000000000000000015
:104F30000000000000000000000000001C001C0039
:104F40001C001C001C001C001C001C001C001C0081
:104F50001C001FFC1FFC00000000000000000000FF
:104F6000000000000000000000000000381C7C3C35
:104F70006C3E6E6E666E66CE63C663866186600644
:104F800060066006600600000000000000000000EF
:104F90000000000000000000000000003C0C3C0C81
:104FA0003E0C360C330C338C318C31CC30EC306C05
:104FB000307C303C301C000000000000000000008D
:104FC0000000000000000000000001C00FF81C3CC1
:104FD000381C700E700E60066006700E700E700C3D
:104FE000381C1E780FE000000000000000000000E8
:104FF0000000000000000000000000003FF0383C0E
:10500000381C380C380C381C38783FE03800380031
:1050100038003800380000000000000000000000E8
:105020000000000000000000000001C00FF81C3C60
:10503000381C700E700E60066006700E700E700CDC
:10504000381C1E780FE0018001C000FF003C00000A
:105050000000000000000000000000003FF03838B1
:1050600038183818383838F03FC038E038703838D9
:105070003838381C380E0000000000000000000026
:105080000000000000000000000001E00FF8380000
:10509000380038003C001F8003F00078001C001C22
:1050A000001C38783FE00000000000000000000015
:1050B0000000000000000000000000007FFE0180F2
:1050C00001800180018001800180018001800180D8
:1050D000018001800180000000000000000000004D
:1050E000000000000000000000000000300C300C48
:1050F000300C300C300C300C300C300C300C300CD0
:10510000381C1C380FF000000000000000000000F8
:10511000000000000000000000000000E006700E2B
:10512000700E381C381C1C181C380C300E700660B1
:1051300007E003C003C00000000000000000000002
:105140000000000000000000000000006006600693
:10515000600660066186638673C673CE766C366CB5
:105160003C3C3C3C381C00000000000000000000FB
:10517000000000000000000000000000301C381893
:105180001C380E7007E003C003C007E00E701C3827
:105190001838381C700E00000000000000000000ED
:1051A000000000000000000000000000700E700C05
:1051B000381C1C380E70066007E003C001800180B7
:1051C000018001800180000000000000000000005C
:1051D0000000000000000000000000003FFC001C78
:1051E0000038007000E001C0038007000E000C00D2
:1051F00018003FFC3FFC0000000000000000000021
:10520000000000000000000007F007F006000600A4
:10521000060006000600060006000600060006005E
:1052200006000600060006000600060007F0000063
:105230000000000000000000000018001C000C002E
:105240000600070003000380018001C000C0006069
:105250000070003000380018000C00000000000052
:1052600000000000000000000FE00FE000600060A0
:10527000006000600060006000600060006000602E
:105280000060006000600060006000600FE00000EF
:1052900000000000000000000000000003C006C085
:1052A00006600C301818301C0000000000000000E0
:1052B00000000000000000000000000000000000EE
:1052C00000000000000000000000000000000000DE
:1052D00000000000000000000000000000000000CE
:1052E000000000000000000000000000FFFF0000C0
:1052F000000000000000000000001E00038000000D
:10530000000000000000000000000000000000009D
:10531000000000000000000000000000000000008D
:10532000000000000000000000000000000000007D
:1053300000001FF01038001C001C0FFC1C1C381C47
:10534000381C3CFC1FDC00000000000000000000D6
:1053500000000000000000000000380038003800A5
:1053600038003BF83E1C3C1C380C380C380C380C10
:10537000381C3C781FE00000000000000000000026
:10538000000000000000000000000000000000001D
:10539000000007F80E001C00380038003800380004
:1053A0001C000F1807F800000000000000000000BB
:1053B00000000000000000000000001C001C001C99
:1053C000001C0FFC1C1C381C301C301C301C301CFA
:1053D000383C1CFC0F9C0000000000000000000096
:1053E00000000000000000000000000000000000BD
:1053F00000000FF01C38381C300C3FFC300030002F
:1054000038001E0C07FC0000000000000000000037
:105410000000000000000000003C01FE03800300CB
:10542000030003007FFC7FFC030003000300030074
:105430000300030003000000000000000000000063
:10544000000000000000000000000000000000005C
:1054500000000FFE1C383818381818381FF03B8031
:1054600030003FF01FFC300E700E381C1FF800009B
:105470000000000000000000000038003800380084
:1054800038003BF83E383C1C381C381C381C381C93
:10549000381C381C381C0000000000000000000010
:1054A0000000000000000000018003C003C00000F5
:1054B00000001FC001C001C001C001C001C001C087
:1054C00001C001C03FFC000000000000000000001F
:1054D00000000000000000000020007000700000CC
:1054E00000003FF0007000700070007000700070ED
:1054F0000070007000700070007020E03FC000007D
:105500000000000000000000000018001800180053
:105510001800183C187018E01B801F001B8019E051
:1055200018701838181C000000000000000000006F
:10553000000000000000000000001FC001C001C00A
:1055400001C001C001C001C001C001C001C001C053
:1055500001C001C03FFC000000000000000000008E
:10556000000000000000000000000000000000003B
:1055700000006F3C79EE71CE718E718E718E718EDE
:10558000718E718E718E000000000000000000001E
:10559000000000000000000000000000000000000B
:1055A00000003BF83E383C1C381C381C381C381CAA
:1055B000381C381C381C00000000000000000000EF
:1055C00000000000000000000000000000000000DB
:1055D00000000FF01C3C381C700E700E700E700C2A
:1055E000381C1E780FE000000000000000000000E2
:1055F00000000000000000000000000000000000AB
:1056000000003BF83E1C3C1C380C380C380C380CA5
:10561000381C3C783FE03800380038003800000083
:10562000000000000000000000000000000000007A
:1056300000000FFC1C1C381C301C301C301C301CA3
:10564000383C1CFC0F9C001C001C001C001C0000B3
:10565000000000000000000000000000000000004A
:10566000000019F81F1C1C0C180E18001800180058
:1056700018001800180000000000000000000000E2
:10568000000000000000000000000000000000001A
:1056900000000FF81C0018001E000FC001F80018D1
:1056A000001818381FF00000000000000000000083
:1056B00000000000000000000000000006000600DE
:1056C00006007FFC06000600060006000600060035
:1056D0000700078401FC000000000000000000003B
:1056E00000000000000000000000000000000000BA
:1056F0000000381C381C381C381C381C381C381C5E
:10570000383C1CFC0FDC0000000000000000000022
:105710000000000000000000000000000000000089
:105720000000700C381C38181C380C300E700660E5
:1057300007E003C003C000000000000000000000FC
:105740000000000000000000000000000000000059
:105750000000600660066186738E73CC33CC366CB5
:10576000366C3C3C3C3800000000000000000000AB
:105770000000000000000000000000000000000029
:105780000000381C1C380E7007E003C003C007E09F
:105790000E701C38381E00000000000000000000E1
:1057A00000000000000000000000000000000000F9
:1057B0000000700C381C38181C380C300E70066055
:1057C00007E003C003C0038007000E007C00000058
:1057D00000000000000000000000000000000000C9
:1057E00000001FF80038007000E001C003800700CF
:1057F0000C001FFC3FFC0000000000000000000047
:105800000000000000000000007801F80380038021
:1058100003800380038003003F003E0003000380F9
:105820000380038003800380038001C000F8000030
:105830000000000001800180018001800180018062
:105840000180018001800180018001800180018050
:1058500001800180018001800180018001800000C1
:1058600000000000000000001E001F80018001C039
:1058700001C001C001C000C000FC007C00C001C02C
:1058800001C001C001C001C001C003801F000000B1
:105890000000000000000000000000000000000008
:1058A0000000000000001C003F0671CE60FC0000FC
:1058B00000000000000000000000000000000000E8
:1058C00000000000000000000000000000000000D8
:1058D00000000000000000000000000000000000C8
:1058E00000000000000000000000000000000000B8
:1058F00000000000000000000000000000000000A8
:105900000000000000000000000000000000000097
:105910000000000000000000000000000000000087
:105920000000000000000000000000000000000077
:105930000000003C00003C00003C00003C00003C3B
:1059400000003C00003C00003C00003C00003C002B
:10595000003C00003C00003C00003C000000000057
:105960000000003C00007E00003C00000000000041
:105970000000000000000000000000000000000027
:105980000000000000000000000000000000000017
:10599000000003C3E003C3E003C3C003C3C003C3E9
:1059A000C003C3C003C1C00000000000000000002D
:1059B00000000000000000000000000000000000E7
:1059C00000000000000000000000000000000000D7
:1059D00000000000000000000000000000000000C7
:1059E00000000000000000000000000000000000B7
:1059F000000000000000000001E0E001C0E001C084
:105A0000E001C0E03FFFFE3FFFFE03C1C00381C0D5
:105A10000381C00381C07FFFFC7FFFFC07838007F9
:105A20000380070380070380070780000000000051
:105A30000000000000000000000000000000000066
:105A40000000000000000000000000000000000056
:105A50000700000F00000E0001FFF007FFF01F0E0F
:105A6000001E1E001E1C001E1C000FDC0007FC0098
:105A700000FF80003FF00038F800387800783C00E4
:105A800070783071F83FFFE01FFF0000E00000E099
:105A90000000E00000000000000000000000000026
:105AA00000000000000000000000000000000000F6
:105AB00000000F800F3FE01E78703C7070707070B7
:105AC000E07071C03FE3801FC700000E00001C00A3
:105AD00000780000F0F001E7FC03CF0E078E0E0FF8
:105AE0000E0E1E0E0E3C07BC7003F80000000000F6
:105AF00000000000000000000000000000000000A6
:105B00000000000000000000000000000000000095
:105B1000000000000001FF0007FF800F03C00F031B
:105B2000C00F03C00F0780079F0003FE0003F000B3
:105B30000FF83C3E7C3C3C1F3C780FF87807F87C23
:105B400001F03E03F81FFFFC07FE1F0000000000ED
:105B50000000000000000000000000000000000045
:105B60000000000000000000000000000000000035
:105B70000000003E00003C00003C00003C00003CF7
:105B800000003C00003C000000000000000000009D
:105B90000000000000000000000000000000000005
:105BA00000000000000000000000000000000000F5
:105BB00000000000000000000000000000000000E5
:105BC00000000000000000000000000000000000D5
:105BD00000800001C0000780000F00001E00003C94
:105BE0000000780000F00000E00001E00001E000AB
:105BF00001C00003C00003C00001C00001E00001BB
:105C0000E00000F00000F000007800003C00001E02
:105C100000000F000007C00001C0000000000000ED
:105C20000000000000000000000000000000000074
:105C3000000003C00001E00000F000007C00003E16
:105C400000001E00000F0000078000078000038096
:105C50000003C00003C00003C00003C000038000B5
:105C60000780000780000F00001E00003C00007845
:105C70000000F00001E000038000000000000000D0
:105C80000000000000000000000000000000000014
:105C90000000001C00001C000018000F18F007DBBB
:105CA000E0007F0000FF0007DBE00E187000180026
:105CB000001C00001C0000000000000000000000AC
:105CC00000000000000000000000000000000000D4
:105CD00000000000000000000000000000000000C4
:105CE00000000000000000000000000000000000B4
:105CF00000000000000000000000000000000000A4
:105D000000003C00003C00003C00003C00003C0067
:105D1000003C003FFFFC3FFFFC003C00003C00005B
:105D20003C00003C00003C000000000000000000BF
:105D30000000000000000000000000000000000063
:105D40000000000000000000000000000000000053
:105D50000000000000000000000000000000000043
:105D60000000000000000000000000000000000033
:105D70000000000000000000000000000000000023
:105D80007C00007E00007E00003E00001E00003C03
:105D90000000F80007E00004000000000000000020
:105DA00000000000000000000000000000000000F3
:105DB00000000000000000000000000000000000E3
:105DC00000000000000000000000000000000000D3
:105DD00000000003FFE003FFE000000000000000FF
:105DE00000000000000000000000000000000000B3
:105DF00000000000000000000000000000000000A3
:105E00000000000000000000000000000000000092
:105E10000000000000000000000000000000000082
:105E20000000000000000000000000000000000072
:105E30000000000000000000000000000000000062
:105E40007C0000FE0000FE00007E0000000000005C
:105E50000000000000000000000000000000000042
:105E60000000000000000000000000000000000032
:105E700000000000780000F00000E00001E00003F6
:105E8000C0000380000780000F00000E00001E000D
:105E9000003C0000380000700000F00000E000014D
:105EA000C00003C0000780000700000F00001E00B4
:105EB000001C0000000000000000000000000000C6
:105EC00000000000000000000000000000000000D2
:105ED000000000000000000001FFC007FFE00F000D
:105EE000F01E00781E003C3C00FC3C07FC3C1FBC44
:105EF0003C7C1C3DF03C3FC03C3F003C1E00381E3B
:105F000000780F80F007FFE001FF80000000000034
:105F10000000000000000000000000000000000081
:105F20000000000000000000000000000000000071
:105F30000000000000000000007E0003FE001FDEE5
:105F4000000E1E00001E00001E00001E00001E00AD
:105F5000001E00001E00001E00001E00001E0000AB
:105F60001E00001E000FFFF80FFFF80000000000E9
:105F70000000000000000000000000000000000021
:105F80000000000000000000000000000000000011
:105F9000000000000000000003FF800FFFE00E0182
:105FA000F00000F00000F00000F00000F00001E060
:105FB0000003C0000F80003E00007C0001F00003E1
:105FC000C0000F80001FFFFC1FFFFC00000000004E
:105FD00000000000000000000000000000000000C1
:105FE00000000000000000000000000000000000B1
:105FF00000000000000000000FFF800FFFE0000124
:10600000E00000F00000F00001E00003C001FF002C
:1060100001FFC00003F00000780000780000780065
:1060200000780001F00FFFC00FFF0000000000002B
:106030000000000000000000000000000000000060
:106040000000000000000000000000000000000050
:106050000000000000000000000FC0001FC0003F53
:10606000C0007BC000F3C001E3C003C3C00783C00E
:106070000F03C01C03C03803C07FFFFE7FFFFE007C
:1060800003C00003C00003C00003C0000000000004
:106090000000000000000000000000000000000000
:1060A00000000000000000000000000000000000F0
:1060B00000000000000000000FFFE00FFFE00F00F5
:1060C000000F00000F00000F00000F00000FFF8006
:1060D0000FFFE00000F0000078000078000078007A
:1060E00000F00003E00FFFC00FFE00000000000002
:1060F00000000000000000000000000000000000A0
:10610000000000000000000000000000000000008F
:106110000000000000000000003FF001FFF003E07D
:10612000000780000F00001E00001E1F001FFFE080
:106130001FC1F81E00781E003C1E003C1E003C0FD4
:1061400000780F80F807FFE001FF800000000000EA
:10615000000000000000000000000000000000003F
:10616000000000000000000000000000000000002F
:1061700000000000000000001FFFFC1FFFFC0000EB
:10618000780000F00000E00001E00003C00007809C
:10619000000F00000F00001E00003C00007800000F
:1061A000F00001F00001E00003C00000000000006A
:1061B00000000000000000000000000000000000DF
:1061C00000000000000000000000000000000000CF
:1061D000000000000000000003FFE00FE3F00F00EC
:1061E000781E00781E00780F00F007E3E001FF80C2
:1061F00001FF8007E7E00F00F81E00781E003C1E3C
:10620000007C1F00F80FFFF003FFC000000000003B
:10621000000000000000000000000000000000007E
:10622000000000000000000000000000000000006E
:10623000000000000000000003FF800FC7E01E0008
:10624000F01E00783C00783C00783C00381E007856
:106250000FEFF807FFB80000780000780000F000AA
:1062600001E0000FC00FFF000FF000000000000071
:10627000000000000000000000000000000000001E
:10628000000000000000000000000000000000000E
:1062900000000000000000000000000000000000FE
:1062A00000000000007E00007E00007E000018005C
:1062B00000000000000000000000000000000000DE
:1062C0003C00007E00007E00003E00000000000058
:1062D00000000000000000000000000000000000BE
:1062E00000000000000000000000000000000000AE
:1062F000000000000000000000000000000000009E
:1063000000000000007E00007E00007E00001800FB
:10631000000000000000000000000000000000007D
:106320003E00007E00007F00001F00001E00001ED7
:106330000000FC0007F00004000000000000000066
:10634000000000000000000000000000000000004D
:10635000000000000000000000000000000000003D
:10636000400001E00007C0001F00007E0001F800AF
:1063700003E0000F80000F800003E00000F8000041
:106380003E00000F800003E00000E000000000007D
:1063900000000000000000000000000000000000FD
:1063A00000000000000000000000000000000000ED
:1063B00000000000000000000000000000000000DD
:1063C000000000000000000000000000001FFFF8B7
:1063D0000000000000000000001FFFF81FFFF80091
:1063E00000000000000000000000000000000000AD
:1063F000000000000000000000000000000000009D
:10640000000000000000000000000000000000008C
:10641000000000000000000000000000000000007C
:106420000007800003E00000F800003E00000F803D
:106430000003E00000F80001F00007C0001F0000AA
:106440007C0001F00007C000030000000000000015
:10645000000000000000000000000000000000003C
:10646000000000000000000000000000000000002C
:10647000000001C00001FE00007F800007C0000195
:10648000E00000F00000F00001F00003E0007FC039
:10649000007E00007000007000007000000000002E
:1064A000000000F80000F80000F800000000000004
:1064B00000000000000000000000000000000000DC
:1064C00000000000000000000000000000000000CC
:1064D0000000001F8000FFF003C07807801C0E0042
:1064E0000E1C000E3C000F383FC778FFC770E3C793
:1064F00071C3C7F3C387E3C387E3878EE3878EE364
:10650000CF8EE3FFFC71F9F07000007000003800DE
:10651000003C00000F01C007FFC0000000000000A9
:10652000000000000000000000000000000000006B
:106530000000000000000000007E00007F0000FF5F
:106540000000E78001E78003C3C003C3C00781E008
:106550000781E00F00F00F00F81FFFF81FFFFC3C61
:10656000003C3C001E78001EF0000F000000000000
:10657000000000000000000000000000000000001B
:10658000000000000000000000000000000000000B
:1065900000000000000000001FFFC01FFFF01E00F1
:1065A000F01E00781E00781E00F01E01F01FFFC0D4
:1065B0001FFFE01E01F81E00781E003C1E003C1E5E
:1065C00000781E00F81FFFE01FFF00000000000021
:1065D00000000000000000000000000000000000BB
:1065E00000000000000000000000000000000000AB
:1065F000000000000000000000FFF803FFF807C0E3
:10660000000F00001E00001E00003C00003C0000C7
:106610003C00003C00003C00003E00001E00000F5B
:1066200000000FC00803FFF800FFF80000000000A2
:10663000000000000000000000000000000000005A
:10664000000000000000000000000000000000004A
:1066500000000000000000003FFF003FFFE03C01A1
:10666000F03C00783C003C3C003C3C003C3C001EC4
:106670003C001E3C001E3C003C3C003C3C00783C86
:1066800000F83C07E03FFFC03FFC000000000000B6
:1066900000000000000000000000000000000000FA
:1066A00000000000000000000000000000000000EA
:1066B00000000000000000000FFFF00FFFF00F00CF
:1066C000000F00000F00000F00000F00000FFFF090
:1066D0000FFFF00F00000F00000F00000F00000F71
:1066E00000000F00000FFFF00FFFF000000000009F
:1066F000000000000000000000000000000000009A
:106700000000000000000000000000000000000089
:1067100000000000000000000FFFF00FFFF00F006E
:10672000000F00000F00000F00000F00000FFFF02F
:106730000FFFF00F00000F00000F00000F00000F10
:1067400000000F00000F00000F000000000000001C
:106750000000000000000000000000000000000039
:106760000000000000000000000000000000000029
:10677000000000000000000000FFFC03FFFC0FC051
:10678000041F00001E00003C00003C0000780FFCCD
:10679000780FFC78003C3C003C3C003C3E003C1F39
:1067A000003C0FC03C03FFFC00FFF80000000000AD
:1067B00000000000000000000000000000000000D9
:1067C00000000000000000000000000000000000C9
:1067D00000000000000000003C003C3C003C3C008D
:1067E0003C3C003C3C003C3C003C3C003C3FFFFC53
:1067F0003FFFFC3C003C3C003C3C003C3C003C3C43
:10680000003C3C003C3C003C3C003C0000000000E4
:106810000000000000000000000000000000000078
:106820000000000000000000000000000000000068
:1068300000000000000000000FFFF80FFFF8003C10
:1068400000003C00003C00003C00003C00003C001C
:10685000003C00003C00003C00003C00003C00000C
:106860003C00003C000FFFF80FFFF80000000000A4
:106870000000000000000000000000000000000018
:106880000000000000000000000000000000000008
:1068900000000000000000000FFFE00FFFE000011B
:1068A000E00001E00001E00001E00001E00001E0A3
:1068B0000001E00001E00001E00001E00001E00073
:1068C00003C00C07C00FFF8007FE0000000000009F
:1068D00000000000000000000000000000000000B8
:1068E00000000000000000000000000000000000A8
:1068F00000000000000000001E00781E01F01E03D2
:10690000C01E07801E1F001E3C001E78001EF000E7
:106910001FF0001EF8001E3C001E1E001E0F801EF1
:1069200007C01E01E01E00F81E007C0000000000F1
:106930000000000000000000000000000000000057
:106940000000000000000000000000000000000047
:1069500000000000000000000780000780000780A2
:106960000007800007800007800007800007800084
:10697000078000078000078000078000078000076D
:10698000800007800007FFF807FFF8000000000004
:1069900000000000000000000000000000000000F7
:1069A00000000000000000000000000000000000E7
:1069B00000000000000000003E007C3F00FC3F8122
:1069C000DC3B81DC3BC39C39C39C38E71C38EF1CA3
:1069D000387E1C387C1E383C1E78001E78001E78DD
:1069E000001E78001E78001E78001E0000000000C7
:1069F0000000000000000000000000000000000097
:106A00000000000000000000000000000000000086
:106A100000000000000000001F003C1F803C1FC061
:106A20003C1DC03C1DE03C1CF03C1C783C1C783CF0
:106A30001C3C3C1C1E3C1C0F3C1C0F3C1C07BC1C83
:106A400003FC1C01FC1C00FC1C00FC0000000000FE
:106A50000000000000000000000000000000000036
:106A60000000000000000000000000000000000026
:106A7000000000000000000001FFC007FFF00F0051
:106A8000F81E007C3C003C3C001E78001E78001E76
:106A900078001E78001E78001E3C003C3C003C1E26
:106AA00000781F00F007FFE001FF800000000000F9
:106AB00000000000000000000000000000000000D6
:106AC00000000000000000000000000000000000C6
:106AD00000000000000000001FFF801FFFF01E00EC
:106AE000F81E007C1E003C1E003C1E003C1E007870
:106AF0001E03F01FFFC01FFE001E00001E00001E30
:106B000000001E00001E00001E000000000000002B
:106B10000000000000000000000000000000000075
:106B20000000000000000000000000000000000065
:106B3000000000000000000001FFC007FFF00F0090
:106B4000F81E007C3C003C3C001E78001E78001EB5
:106B500078001E78001E78001E3C003C3C003C1E65
:106B600000781F80F007FFE001FF80003C00003C40
:106B700000001F06000FFF0001F8000000000000E9
:106B80000000000000000000000000000000000005
:106B900000000000000000000FFF800FFFE00E016A
:106BA000F00E00F00E00F00E00F00E01F00FFFC02E
:106BB0000FFF000E1F000E07800E03C00E01E00E37
:106BC00000F00E00F80E00780E003C0000000000FF
:106BD00000000000000000000000000000000000B5
:106BE00000000000000000000000000000000000A5
:106BF000000000000000000003FFF00FFFF01F0086
:106C0000001E00001E00001F00000FC00007FC0057
:106C100000FF80000FF00001F8000078000078000D
:106C200000782000F83FFFE03FFF800000000000F8
:106C30000000000000000000000000000000000054
:106C40000000000000000000000000000000000044
:106C500000000000000000003FFFFC3FFFFC003C84
:106C600000003C00003C00003C00003C00003C00F8
:106C7000003C00003C00003C00003C00003C0000E8
:106C80003C00003C00003C00003C00000000000014
:106C900000000000000000000000000000000000F4
:106CA00000000000000000000000000000000000E4
:106CB00000000000000000003C003C3C003C3C00A8
:106CC0003C3C003C3C003C3C003C3C003C3C003C30
:106CD0003C003C3C003C3C003C3C003C3C003C1E3E
:106CE00000781F00F80FFFE003FF800000000000A5
:106CF0000000000000000000000000000000000094
:106D00000000000000000000000000000000000083
:106D10000000000000000000F8000F78001E3C009A
:106D20001E3C003C1E00381E00780F00700F00F063
:106D30000781E00781E003C3C003E3C001E78000EF
:106D4000F78000FF00007E00007E000000000000D1
:106D50000000000000000000000000000000000033
:106D60000000000000000000000000000000000023
:106D7000000000000000000078000E78000E78008F
:106D80000E78001E38001E38001E383C1C383C1C93
:106D9000387E1C387F1C3CE71C3CE79C3DC39C1D97
:106DA000C3DC1F81DC1F80F81F00F800000000001A
:106DB00000000000000000000000000000000000D3
:106DC00000000000000000000000000000000000C3
:106DD00000000000000000003C003C1E00780F0096
:106DE000F00781E003C3C001E78000FF00007E00E0
:106DF000007E0000FF0001FF8003E7C007C3E00F33
:106E000081F01F00F83E007C7C003E000000000086
:106E10000000000000000000000000000000000072
:106E20000000000000000000000000000000000062
:106E3000000000000000000078001F3C003E1E0023
:106E40007C1F00780F80F007C1E003E3C001E780FA
:106E500000FF00007E00003C00003C00003C000001
:106E60003C00003C00003C00003C00000000000032
:106E70000000000000000000000000000000000012
:106E80000000000000000000000000000000000002
:106E900000000000000000001FFFFC1FFFFC0000BE
:106EA000F80001E00003C0000780000F00001E0092
:106EB000003C0000780000F00003E00007C0000F75
:106EC00080001F00003FFFFC3FFFFC0000000000AF
:106ED00000000000000000000000000000000000B2
:106EE00000000000000000000000000000000000A2
:106EF000000001FFC001FFC001E00001E00001E06F
:106F00000001E00001E00001E00001E00001E0001C
:106F100001E00001E00001E00001E00001E000010B
:106F2000E00001E00001E00001E00001E00001E01C
:106F30000001E00001E00001FFC0000000000000CF
:106F40000000000000000000000000000000000041
:106F500000000E00000F000007000003800003C0C7
:106F60000001E00000E00000F000007800003800C0
:106F7000003C00001E00000E00000F000007800013
:106F800003800001C00001E00000E000007000008C
:106F90007800003C0000000000000000000000003D
:106FA00000000000000000000000000000000000E1
:106FB000000003FF8003FF800007800007800007B8
:106FC000800007800007800007800007800007809E
:106FD000000780000780000780000780000780000E
:106FE00007800007800007800007800007800007F7
:106FF0008000078000078003FF8000000000000081
:107000000000000000000000000000000000000080
:107010000000000000000000003C00007E0000E7CF
:107020000001C3800381C00700E00E00F01E00785D
:107030000000000000000000000000000000000050
:107040000000000000000000000000000000000040
:107050000000000000000000000000000000000030
:107060000000000000000000000000000000000020
:107070000000000000000000000000000000000010
:107080000000000000000000000000000000000000
:1070900000000000000000000000000000000000F0
:1070A00000000000000000000000000000000000E0
:1070B00000000000FFFFFFFFFFFF000000000000D6
:1070C00000000000000000000000000000000000C0
:1070D00000000F800003E00000F800003C0000000A
:1070E00000000000000000000000000000000000A0
:1070F0000000000000000000000000000000000090
:10710000000000000000000000000000000000007F
:10711000000000000000000000000000000000006F
:10712000000000000000000000000000000000005F
:10713000000000000000000000000000000000004F
:107140000000000007FFC007E7F00000F000007833
:1071500000007800FFF807FFF80F00781E00781E87
:1071600000781E03F80FFFF807FC7800000000000D
:10717000000000000000000000000000000000000F
:1071800000000000000000000000000000000000FF
:1071900000001E00001E00001E00001E00001E0059
:1071A000001E00001E7FE01EFFF01FC0781F007849
:1071B0001E003C1E003C1E003C1E003C1E00381EF3
:1071C00000781E00F01FFFE007FF00000000000035
:1071D00000000000000000000000000000000000AF
:1071E000000000000000000000000000000000009F
:1071F000000000000000000000000000000000008F
:107200000000000000FFF003FFF007C0000F800047
:107210000F00001E00001E00001E00000F00000FE7
:10722000800007C00003FFF000FFF0000000000036
:10723000000000000000000000000000000000004E
:10724000000000000000000000000000000000003E
:10725000000000007800007800007800007800004E
:107260007800007801FFF807FFF80F00781E00781B
:107270001E00783C00783C00783C00781C00781EAA
:1072800001F81F03F80FFF7803FC780000000000EE
:1072900000000000000000000000000000000000EE
:1072A00000000000000000000000000000000000DE
:1072B00000000000000000000000000000000000CE
:1072C0000000000001FFC007E3F00F00F81E007887
:1072D0001E003C1FFFFC1FFFFC1C00001E00001EC8
:1072E00000000F800007FFF801FFF8000000000019
:1072F000000000000000000000000000000000008E
:10730000000000000000000000000000000000007D
:1073100000000003FC001FFE003E00007800007823
:10732000000070000070000070003FFFFC3FFFFC99
:10733000007000007000007000007000007000001D
:10734000700000700000700000700000000000007D
:10735000000000000000000000000000000000002D
:10736000000000000000000000000000000000001D
:10737000000000000000000000000000000000000D
:107380000000000003FFFC07C3FC0F00F01E00F02C
:107390001E00F00F00F00F83E00FFFC01E7C001CEA
:1073A00000001F00000FFFF00FFFFC1E003C3C0020
:1073B0003C3C003C1F81F80FFFE00038000000005B
:1073C00000000000000000000000000000000000BD
:1073D00000001E00001E00001E00001E00001E0017
:1073E000001E00001E7FE01EFFF01FC0F01F00788F
:1073F0001E00781E00781E00781E00781E00781E81
:1074000000781E00781E00781E0078000000000042
:10741000000000000000000000000000000000006C
:10742000000000000000000000000000000000005C
:107430000000003C00007E00007E00003C000000D8
:10744000000000000FFE000FFE00001E00001E00E6
:10745000001E00001E00001E00001E00001E000096
:107460001E00001E000FFFF80FFFF80000000000D4
:10747000000000000000000000000000000000000C
:1074800000000000000000000000000000000000FC
:1074900000000003800007E00007E0000380000018
:1074A000000000000FFFC00FFFC00003C00003C0BA
:1074B0000003C00003C00003C00003C00003C000FD
:1074C00003C00003C00003C00003C00003C00003EA
:1074D000C00007801E3F001FFE0001C0000000002A
:1074E000000000000000000000000000000000009C
:1074F00000000F00000F00000F00000F00000F0041
:10750000000F00000F00F80F01E00F07C00F1F0071
:107510000F3C000FF8000FF8000F3E000F1F000F88
:1075200007C00F03E00F00F80F007C000000000010
:10753000000000000000000000000000000000004B
:10754000000000000000000000000000000000003B
:1075500000000FFE000FFE00001E00001E00001EB7
:1075600000001E00001E00001E00001E00001E0085
:10757000001E00001E00001E00001E00001E000075
:107580001E00001E000FFFF80FFFF80000000000B3
:1075900000000000000000000000000000000000EB
:1075A00000000000000000000000000000000000DB
:1075B00000000000000000000000000000000000CB
:1075C0000000000039F9F83BBBBC3E3E1C3C3E1CB1
:1075D000383C1C383C1C383C1C383C1C383C1C38A3
:1075E0003C1C383C1C383C1C383C1C000000000093
:1075F000000000000000000000000000000000008B
:10760000000000000000000000000000000000007A
:10761000000000000000000000000000000000006A
:10762000000000001E7FE01EFFF01FC0F01F00786A
:107630001E00781E00781E00781E00781E00781E3E
:1076400000781E00781E00781E0078000000000000
:10765000000000000000000000000000000000002A
:10766000000000000000000000000000000000001A
:10767000000000000000000000000000000000000A
:107680000000000001FFC007E7F00F00F81E003CFB
:107690003C003C3C003C3C003C3C003C3C003C1E74
:1076A00000781F00F007FFE001FF800000000000ED
:1076B00000000000000000000000000000000000CA
:1076C00000000000000000000000000000000000BA
:1076D00000000000000000000000000000000000AA
:1076E000000000001E7FE01EFFF01FC0781F007822
:1076F0001E003C1E003C1E003C1E003C1E00381EAE
:1077000000781E00F01FFFE01FFF001E00001E009B
:10771000001E00001E00001E00000000000000000F
:107720000000000000000000000000000000000059
:107730000000000000000000000000000000000049
:107740000000000001FFF807F7F80F00781E00782E
:107750001E00783C00783C00783C00781C00781EC5
:1077600001F81F03F80FFF7803FC78000078000091
:107770007800007800007800007800000000000029
:1077800000000000000000000000000000000000F9
:1077900000000000000000000000000000000000E9
:1077A000000000000F1FF00F7FF80FE03C0F803C3F
:1077B0000F003C0F00000F00000F00000F00000F33
:1077C00000000F00000F00000F000000000000008C
:1077D00000000000000000000000000000000000A9
:1077E0000000000000000000000000000000000099
:1077F0000000000000000000000000000000000089
:107800000000000001FFE007E1E00F00000F0000B2
:1078100007800003FC0000FFC0000FF00000F00034
:1078200000780000F00FFFE00FFF80000000000074
:107830000000000000000000000000000000000048
:107840000000000000000000000000000000000038
:10785000000000000000000001E00001E00001E085
:107860000001E0007FFFF87FFFF801E00001E00089
:1078700001E00001E00001E00001E00001E00001A2
:10788000E00000F000007FF8003FF800000000007A
:1078900000000000000000000000000000000000E8
:1078A00000000000000000000000000000000000D8
:1078B00000000000000000000000000000000000C8
:1078C000000000001E00781E00781E00781E007860
:1078D0001E00781E00781E00781E00781E00780EAC
:1078E00000F80F03F807FF7803FC780000000000A1
:1078F0000000000000000000000000000000000088
:107900000000000000000000000000000000000077
:107910000000000000000000000000000000000067
:10792000000000003C003C1E007C1E00780F00F0B0
:107930000F80F00781E003C3C003C3C001E78000EC
:10794000E70000FF00007E00003C00000000000097
:107950000000000000000000000000000000000027
:107960000000000000000000000000000000000017
:107970000000000000000000000000000000000007
:107980000000000078000E78001E78001E383C1EB3
:10799000383C1C3C7E1C3C7E3C1CE73C1CE7B81D74
:1079A000C3B81FC3F80F81F80F81F000000000007A
:1079B00000000000000000000000000000000000C7
:1079C00000000000000000000000000000000000B7
:1079D00000000000000000000000000000000000A7
:1079E000000000001F007C0F80F007C1E003E3C02F
:1079F00000F780007F00003E0000FF0001E78003E9
:107A0000C3C00781F01F00F83E007C0000000000AA
:107A10000000000000000000000000000000000066
:107A20000000000000000000000000000000000056
:107A30000000000000000000000000000000000046
:107A4000000000003C003C1E003C1E00780F00F0CF
:107A50000780F00781E003C1C003C3C001E78000D5
:107A6000F78000FF00007E00003E00003C00007830
:107A70000001F0007FE0007F8000000000000000B7
:107A800000000000000000000000000000000000F6
:107A900000000000000000000000000000000000E6
:107AA000000000000FFFF00FFFF00001E00007C032
:107AB000000F80001E00003C0000F80001E0000301
:107AC000C0000780000FFFF80FFFF8000000000063
:107AD00000000000000000000000000000000000A6
:107AE0000000000000000000000000000000000096
:107AF00000000007E0001FE0003C000038000038F4
:107B0000000078000078000078000078000078001D
:107B10001FF0001F800001F00000780000780000D6
:107B200078000078000078000078000078000038C5
:107B300000003C00001F80000FE00000000000007B
:107B4000000000000000000000003C00003C0000BD
:107B50003C00003C00003C00003C00003C00003CBD
:107B600000003C00003C00003C00003C00003C00E9
:107B7000003C00003C00003C00003C00003C0000D9
:107B80003C00003C00003C00003C00003C00003C8D
:107B900000003C00003C00003C0000000000000031
:107BA00000000000000000000000000000000000D5
:107BB000000007E00007F800003C00001E00001E67
:107BC00000001E00001E00001E00001E00000E002F
:107BD000000FF80001F8000F80000E00001E0000EA
:107BE0001E00001E00001E00001E00001E00001EE1
:107BF00000003C0000FC0007F00000000000000056
:107C00000000000000000000000000000000000074
:107C10000000000000000000000000000000000064
:107C20000000000000000000000000000007C0008D
:107C30001FF01E3C7C1E381FFC7807F80000000077
:107C40000000000000000000000000000000000034
:107C50000000000000000000000000000000000024
:107C60000D0A20C8F4BABAD7D6CFD4CABEB2BBD593
:107C7000FDB3A3A3ACC7EBD4C4B6C1B9A4B3CCD6EF
:107C8000D0B5C4726561646D652E747874CEC4BC61
:107C9000FECBB5C3F7A3ACB8F9BEDDD2AAC7F3B823
:107CA000F8464C415348D6D8CBA2D7D6C4A3CAFD78
:107CB000BEDD0D0A00000000D87C00080000002096
:107CC00020010000003D0008F87D00082001002090
:107CD00080110000103D00080000000001020304B4
:107CE00001020304060708090204060800A00000B8
:107CF000F000400106000000F80000200000FFFF37
:107D0000F6CFD3BBD10896BDD42D8C43A359993D52
:107D1000D97A063BA578D1C065C5B03D6EDBF73A90
:107D2000F3624DC1CCEC73BBA0C186BD39B77E43B5
:107D30003752363B7EFE7B3DF18739C1F3C9AA3D00
:107D4000D40CA93BC4667AC12ECBB73DEC8497B95D
:107D5000CEE5A4C1CA17B4BAE3FE833D996E80C1D3
:107D60008010493ADACA8BBD4BE47A438F39AFBDF4
:107D7000EA784CB9B35FA743438EADBDDE214538E9
:107D8000E294A14326370ABB85ED87BD2F7E82434F
:107D90009738F2BAE82E893D07EA4CC108CAADBD52
:107DA000A30653BA9CB2A643E50AAFBD5DA365BA6C
:107DB000F702A743C32A5EBB8A8E843DE5C1C6C0D5
:107DC0000000000000000000FFFFFFFFFFFFFFFFBB
:107DD0000041000808001000F046000810001800DC
:107DE000C05800081800200000000000000000003B
:087DF00000000000000000008B
:0400000508000131BD
:00000001FF
