Component: ARM Compiler 5.06 update 7 (build 960) Tool: armlink [4d3601]

==============================================================================

Section Cross References

    startup_stm32f10x_hd.o(RESET) refers to startup_stm32f10x_hd.o(STACK) for __initial_sp
    startup_stm32f10x_hd.o(RESET) refers to startup_stm32f10x_hd.o(.text) for Reset_Handler
    startup_stm32f10x_hd.o(RESET) refers to stm32f10x_it.o(.text) for NMI_Handler
    startup_stm32f10x_hd.o(.text) refers to system_stm32f10x.o(.text) for SystemInit
    startup_stm32f10x_hd.o(.text) refers to entry.o(.ARM.Collect$$$$00000000) for __main
    system_stm32f10x.o(.text) refers to system_stm32f10x.o(.data) for SystemCoreClock
    stm32f10x_adc.o(.text) refers to stm32f10x_rcc.o(.text) for RCC_APB2PeriphResetCmd
    stm32f10x_bkp.o(.text) refers to stm32f10x_rcc.o(.text) for RCC_BackupResetCmd
    stm32f10x_can.o(.text) refers to stm32f10x_rcc.o(.text) for RCC_APB1PeriphResetCmd
    stm32f10x_cec.o(.text) refers to stm32f10x_rcc.o(.text) for RCC_APB1PeriphResetCmd
    stm32f10x_dac.o(.text) refers to stm32f10x_rcc.o(.text) for RCC_APB1PeriphResetCmd
    stm32f10x_gpio.o(.text) refers to stm32f10x_rcc.o(.text) for RCC_APB2PeriphResetCmd
    stm32f10x_i2c.o(.text) refers to stm32f10x_rcc.o(.text) for RCC_APB1PeriphResetCmd
    stm32f10x_pwr.o(.text) refers to stm32f10x_rcc.o(.text) for RCC_APB1PeriphResetCmd
    stm32f10x_rcc.o(.text) refers to stm32f10x_rcc.o(.data) for APBAHBPrescTable
    stm32f10x_spi.o(.text) refers to stm32f10x_rcc.o(.text) for RCC_APB2PeriphResetCmd
    stm32f10x_tim.o(.text) refers to stm32f10x_rcc.o(.text) for RCC_APB2PeriphResetCmd
    stm32f10x_usart.o(.text) refers to stm32f10x_rcc.o(.text) for RCC_APB2PeriphResetCmd
==============================================================================

Removing Unused input sections from the image.

    Removing startup_stm32f10x_hd.o(HEAP), (1024 bytes).
    Removing stm32f10x_adc.o(.text), (1102 bytes).
    Removing stm32f10x_bkp.o(.text), (196 bytes).
    Removing stm32f10x_can.o(.text), (2544 bytes).
    Removing stm32f10x_cec.o(.text), (288 bytes).
    Removing stm32f10x_crc.o(.text), (72 bytes).
    Removing stm32f10x_dac.o(.text), (396 bytes).
    Removing stm32f10x_dbgmcu.o(.text), (48 bytes).
    Removing stm32f10x_exti.o(.text), (284 bytes).
    Removing stm32f10x_flash.o(.text), (1468 bytes).
    Removing stm32f10x_fsmc.o(.text), (1548 bytes).
    Removing stm32f10x_i2c.o(.text), (1028 bytes).
    Removing stm32f10x_iwdg.o(.text), (64 bytes).
    Removing stm32f10x_pwr.o(.text), (204 bytes).
    Removing stm32f10x_rtc.o(.text), (328 bytes).
    Removing stm32f10x_spi.o(.text), (780 bytes).
    Removing stm32f10x_tim.o(.text), (3610 bytes).
    Removing stm32f10x_wwdg.o(.text), (136 bytes).
==============================================================================

Image Symbol Table

    Local Symbols

    Symbol Name                              Value     Ov Type        Size  Object(Section)

    ../clib/microlib/division.c              0x00000000   Number         0  uldiv.o ABSOLUTE
    ../clib/microlib/division.c              0x00000000   Number         0  uidiv.o ABSOLUTE
    ../clib/microlib/init/entry.s            0x00000000   Number         0  entry11a.o ABSOLUTE
    ../clib/microlib/init/entry.s            0x00000000   Number         0  entry11b.o ABSOLUTE
    ../clib/microlib/init/entry.s            0x00000000   Number         0  entry7b.o ABSOLUTE
    ../clib/microlib/init/entry.s            0x00000000   Number         0  entry12b.o ABSOLUTE
    ../clib/microlib/init/entry.s            0x00000000   Number         0  entry7a.o ABSOLUTE
    ../clib/microlib/init/entry.s            0x00000000   Number         0  entry5.o ABSOLUTE
    ../clib/microlib/init/entry.s            0x00000000   Number         0  entry.o ABSOLUTE
    ../clib/microlib/init/entry.s            0x00000000   Number         0  entry2.o ABSOLUTE
    ../clib/microlib/init/entry.s            0x00000000   Number         0  entry9b.o ABSOLUTE
    ../clib/microlib/init/entry.s            0x00000000   Number         0  entry12a.o ABSOLUTE
    ../clib/microlib/init/entry.s            0x00000000   Number         0  entry8a.o ABSOLUTE
    ../clib/microlib/init/entry.s            0x00000000   Number         0  entry8b.o ABSOLUTE
    ../clib/microlib/init/entry.s            0x00000000   Number         0  entry9a.o ABSOLUTE
    ../clib/microlib/init/entry.s            0x00000000   Number         0  entry10a.o ABSOLUTE
    ../clib/microlib/init/entry.s            0x00000000   Number         0  entry10b.o ABSOLUTE
    ../clib/microlib/longlong.c              0x00000000   Number         0  llsshr.o ABSOLUTE
    ../clib/microlib/longlong.c              0x00000000   Number         0  llushr.o ABSOLUTE
    ../clib/microlib/longlong.c              0x00000000   Number         0  llshl.o ABSOLUTE
    ../clib/microlib/printf/printf.c         0x00000000   Number         0  printf8.o ABSOLUTE
    ../clib/microlib/printf/printf.c         0x00000000   Number         0  printf7.o ABSOLUTE
    ../clib/microlib/printf/printf.c         0x00000000   Number         0  printfa.o ABSOLUTE
    ../clib/microlib/printf/printf.c         0x00000000   Number         0  printf4.o ABSOLUTE
    ../clib/microlib/printf/printf.c         0x00000000   Number         0  printfb.o ABSOLUTE
    ../clib/microlib/printf/printf.c         0x00000000   Number         0  printf0.o ABSOLUTE
    ../clib/microlib/printf/printf.c         0x00000000   Number         0  printf1.o ABSOLUTE
    ../clib/microlib/printf/printf.c         0x00000000   Number         0  printf2.o ABSOLUTE
    ../clib/microlib/printf/printf.c         0x00000000   Number         0  printf3.o ABSOLUTE
    ../clib/microlib/printf/printf.c         0x00000000   Number         0  printf5.o ABSOLUTE
    ../clib/microlib/printf/printf.c         0x00000000   Number         0  printf6.o ABSOLUTE
    ../clib/microlib/printf/stubs.s          0x00000000   Number         0  stubs.o ABSOLUTE
    ../clib/microlib/stdio/streams.c         0x00000000   Number         0  stdout.o ABSOLUTE
    ../clib/microlib/string/memcpy.c         0x00000000   Number         0  memcpya.o ABSOLUTE
    ../clib/microlib/string/memcpy.c         0x00000000   Number         0  memcpyb.o ABSOLUTE
    ../clib/microlib/stubs.s                 0x00000000   Number         0  iusefp.o ABSOLUTE
    ../fplib/microlib/fpadd.c                0x00000000   Number         0  dadd.o ABSOLUTE
    ../fplib/microlib/fpdiv.c                0x00000000   Number         0  ddiv.o ABSOLUTE
    ../fplib/microlib/fpepilogue.c           0x00000000   Number         0  depilogue.o ABSOLUTE
    ../fplib/microlib/fpfix.c                0x00000000   Number         0  dfixul.o ABSOLUTE
    ../fplib/microlib/fpmul.c                0x00000000   Number         0  dmul.o ABSOLUTE
    ..\..\Libraries\CMSIS\startup\startup_stm32f10x_hd.s 0x00000000   Number         0  startup_stm32f10x_hd.o ABSOLUTE
    ..\..\Libraries\CMSIS\system_stm32f10x.c 0x00000000   Number         0  system_stm32f10x.o ABSOLUTE
    ..\..\Libraries\FWlib\src\misc.c         0x00000000   Number         0  misc.o ABSOLUTE
    ..\..\Libraries\FWlib\src\stm32f10x_adc.c 0x00000000   Number         0  stm32f10x_adc.o ABSOLUTE
    ..\..\Libraries\FWlib\src\stm32f10x_bkp.c 0x00000000   Number         0  stm32f10x_bkp.o ABSOLUTE
    ..\..\Libraries\FWlib\src\stm32f10x_can.c 0x00000000   Number         0  stm32f10x_can.o ABSOLUTE
    ..\..\Libraries\FWlib\src\stm32f10x_cec.c 0x00000000   Number         0  stm32f10x_cec.o ABSOLUTE
    ..\..\Libraries\FWlib\src\stm32f10x_crc.c 0x00000000   Number         0  stm32f10x_crc.o ABSOLUTE
    ..\..\Libraries\FWlib\src\stm32f10x_dac.c 0x00000000   Number         0  stm32f10x_dac.o ABSOLUTE
    ..\..\Libraries\FWlib\src\stm32f10x_dbgmcu.c 0x00000000   Number         0  stm32f10x_dbgmcu.o ABSOLUTE
    ..\..\Libraries\FWlib\src\stm32f10x_dma.c 0x00000000   Number         0  stm32f10x_dma.o ABSOLUTE
    ..\..\Libraries\FWlib\src\stm32f10x_exti.c 0x00000000   Number         0  stm32f10x_exti.o ABSOLUTE
    ..\..\Libraries\FWlib\src\stm32f10x_flash.c 0x00000000   Number         0  stm32f10x_flash.o ABSOLUTE
    ..\..\Libraries\FWlib\src\stm32f10x_fsmc.c 0x00000000   Number         0  stm32f10x_fsmc.o ABSOLUTE
    ..\..\Libraries\FWlib\src\stm32f10x_gpio.c 0x00000000   Number         0  stm32f10x_gpio.o ABSOLUTE
    ..\..\Libraries\FWlib\src\stm32f10x_i2c.c 0x00000000   Number         0  stm32f10x_i2c.o ABSOLUTE
    ..\..\Libraries\FWlib\src\stm32f10x_iwdg.c 0x00000000   Number         0  stm32f10x_iwdg.o ABSOLUTE
    ..\..\Libraries\FWlib\src\stm32f10x_pwr.c 0x00000000   Number         0  stm32f10x_pwr.o ABSOLUTE
    ..\..\Libraries\FWlib\src\stm32f10x_rcc.c 0x00000000   Number         0  stm32f10x_rcc.o ABSOLUTE
    ..\..\Libraries\FWlib\src\stm32f10x_rtc.c 0x00000000   Number         0  stm32f10x_rtc.o ABSOLUTE
    ..\..\Libraries\FWlib\src\stm32f10x_sdio.c 0x00000000   Number         0  stm32f10x_sdio.o ABSOLUTE
    ..\..\Libraries\FWlib\src\stm32f10x_spi.c 0x00000000   Number         0  stm32f10x_spi.o ABSOLUTE
    ..\..\Libraries\FWlib\src\stm32f10x_tim.c 0x00000000   Number         0  stm32f10x_tim.o ABSOLUTE
    ..\..\Libraries\FWlib\src\stm32f10x_usart.c 0x00000000   Number         0  stm32f10x_usart.o ABSOLUTE
    ..\..\Libraries\FWlib\src\stm32f10x_wwdg.c 0x00000000   Number         0  stm32f10x_wwdg.o ABSOLUTE
    ..\..\User\FATFS\diskio.c                0x00000000   Number         0  diskio.o ABSOLUTE
    ..\..\User\FATFS\ff.c                    0x00000000   Number         0  ff.o ABSOLUTE
    ..\..\User\FATFS\option\cc936.c          0x00000000   Number         0  cc936.o ABSOLUTE
    ..\..\User\led\bsp_led.c                 0x00000000   Number         0  bsp_led.o ABSOLUTE
    ..\..\User\main.c                        0x00000000   Number         0  main.o ABSOLUTE
    ..\..\User\sdio\bsp_sdio_sdcard.c        0x00000000   Number         0  bsp_sdio_sdcard.o ABSOLUTE
    ..\..\User\stm32f10x_it.c                0x00000000   Number         0  stm32f10x_it.o ABSOLUTE
    ..\..\User\usart\bsp_usart.c             0x00000000   Number         0  bsp_usart.o ABSOLUTE
    cdrcmple.s                               0x00000000   Number         0  cdrcmple.o ABSOLUTE
    dc.s                                     0x00000000   Number         0  dc.o ABSOLUTE
    handlers.s                               0x00000000   Number         0  handlers.o ABSOLUTE
    init.s                                   0x00000000   Number         0  init.o ABSOLUTE
    RESET                                    0x08000000   Section      304  startup_stm32f10x_hd.o(RESET)
    .ARM.Collect$$$$00000000                 0x08000130   Section        0  entry.o(.ARM.Collect$$$$00000000)
    .ARM.Collect$$$$00000001                 0x08000130   Section        4  entry2.o(.ARM.Collect$$$$00000001)
    .ARM.Collect$$$$00000004                 0x08000134   Section        4  entry5.o(.ARM.Collect$$$$00000004)
    .ARM.Collect$$$$00000008                 0x08000138   Section        0  entry7b.o(.ARM.Collect$$$$00000008)
    .ARM.Collect$$$$0000000A                 0x08000138   Section        0  entry8b.o(.ARM.Collect$$$$0000000A)
    .ARM.Collect$$$$0000000B                 0x08000138   Section        8  entry9a.o(.ARM.Collect$$$$0000000B)
    .ARM.Collect$$$$0000000E                 0x08000140   Section        4  entry12b.o(.ARM.Collect$$$$0000000E)
    .ARM.Collect$$$$0000000F                 0x08000144   Section        0  entry10a.o(.ARM.Collect$$$$0000000F)
    .ARM.Collect$$$$00000011                 0x08000144   Section        0  entry11a.o(.ARM.Collect$$$$00000011)
    .ARM.Collect$$$$00002712                 0x08000144   Section        4  entry2.o(.ARM.Collect$$$$00002712)
    __lit__00000000                          0x08000144   Data           4  entry2.o(.ARM.Collect$$$$00002712)
    .text                                    0x08000148   Section       36  startup_stm32f10x_hd.o(.text)
    .text                                    0x0800016c   Section        0  system_stm32f10x.o(.text)
    SetSysClockTo72                          0x0800016d   Thumb Code   214  system_stm32f10x.o(.text)
    SetSysClock                              0x08000243   Thumb Code     8  system_stm32f10x.o(.text)
    .text                                    0x0800034c   Section        0  misc.o(.text)
    .text                                    0x08000428   Section        0  stm32f10x_dma.o(.text)
    .text                                    0x0800067c   Section        0  stm32f10x_gpio.o(.text)
    .text                                    0x080009d8   Section        0  stm32f10x_rcc.o(.text)
    .text                                    0x08000d7c   Section        0  stm32f10x_sdio.o(.text)
    .text                                    0x08000f50   Section        0  stm32f10x_usart.o(.text)
    .text                                    0x08001358   Section        0  main.o(.text)
    .text                                    0x0800179c   Section        0  stm32f10x_it.o(.text)
    .text                                    0x080017c0   Section        0  bsp_led.o(.text)
    .text                                    0x08001820   Section        0  bsp_usart.o(.text)
    .text                                    0x080018dc   Section        0  bsp_sdio_sdcard.o(.text)
    NVIC_Configuration                       0x0800191f   Thumb Code    40  bsp_sdio_sdcard.o(.text)
    SD_DMAEndOfTransferStatus                0x08001947   Thumb Code    10  bsp_sdio_sdcard.o(.text)
    SD_DMA_RxConfig                          0x08001951   Thumb Code    86  bsp_sdio_sdcard.o(.text)
    SD_DMA_TxConfig                          0x080019a7   Thumb Code    86  bsp_sdio_sdcard.o(.text)
    GPIO_Configuration                       0x080019fd   Thumb Code    70  bsp_sdio_sdcard.o(.text)
    CmdResp1Error                            0x08001a43   Thumb Code    40  bsp_sdio_sdcard.o(.text)
    FindSCR                                  0x08001a6b   Thumb Code   396  bsp_sdio_sdcard.o(.text)
    SDEnWideBus                              0x08001bf7   Thumb Code   310  bsp_sdio_sdcard.o(.text)
    CmdResp2Error                            0x080020e5   Thumb Code   100  bsp_sdio_sdcard.o(.text)
    CmdResp6Error                            0x08002149   Thumb Code   152  bsp_sdio_sdcard.o(.text)
    CmdResp3Error                            0x08002307   Thumb Code    52  bsp_sdio_sdcard.o(.text)
    CmdResp7Error                            0x0800233b   Thumb Code    72  bsp_sdio_sdcard.o(.text)
    CmdError                                 0x08002383   Thumb Code    44  bsp_sdio_sdcard.o(.text)
    IsCardProgramming                        0x08002c8f   Thumb Code   434  bsp_sdio_sdcard.o(.text)
    .text                                    0x08002fdc   Section        0  diskio.o(.text)
    .text                                    0x08003208   Section        0  ff.o(.text)
    mem_cpy                                  0x08003209   Thumb Code    26  ff.o(.text)
    mem_set                                  0x08003223   Thumb Code    20  ff.o(.text)
    mem_cmp                                  0x08003237   Thumb Code    38  ff.o(.text)
    chk_chr                                  0x0800325d   Thumb Code    20  ff.o(.text)
    sync_window                              0x08003271   Thumb Code    82  ff.o(.text)
    move_window                              0x080032c3   Thumb Code    52  ff.o(.text)
    sync_fs                                  0x080032f7   Thumb Code   200  ff.o(.text)
    remove_chain                             0x0800369f   Thumb Code   108  ff.o(.text)
    create_chain                             0x0800370b   Thumb Code   214  ff.o(.text)
    dir_sdi                                  0x080037e1   Thumb Code   200  ff.o(.text)
    dir_next                                 0x080038a9   Thumb Code   314  ff.o(.text)
    dir_alloc                                0x080039e3   Thumb Code    92  ff.o(.text)
    ld_clust                                 0x08003a3f   Thumb Code    32  ff.o(.text)
    st_clust                                 0x08003a5f   Thumb Code    16  ff.o(.text)
    cmp_lfn                                  0x08003a6f   Thumb Code   154  ff.o(.text)
    pick_lfn                                 0x08003b09   Thumb Code   124  ff.o(.text)
    fit_lfn                                  0x08003b85   Thumb Code   122  ff.o(.text)
    gen_numname                              0x08003bff   Thumb Code   198  ff.o(.text)
    sum_sfn                                  0x08003cc5   Thumb Code    32  ff.o(.text)
    dir_find                                 0x08003ce5   Thumb Code   234  ff.o(.text)
    dir_read                                 0x08003dcf   Thumb Code   206  ff.o(.text)
    dir_register                             0x08003e9d   Thumb Code   298  ff.o(.text)
    dir_remove                               0x08003fc7   Thumb Code   106  ff.o(.text)
    get_fileinfo                             0x08004031   Thumb Code   272  ff.o(.text)
    create_name                              0x08004141   Thumb Code   604  ff.o(.text)
    follow_path                              0x0800439d   Thumb Code   144  ff.o(.text)
    get_ldnumber                             0x0800442d   Thumb Code    74  ff.o(.text)
    check_fs                                 0x08004477   Thumb Code   140  ff.o(.text)
    find_volume                              0x08004503   Thumb Code   996  ff.o(.text)
    validate                                 0x080048e7   Thumb Code    50  ff.o(.text)
    putc_bfd                                 0x08005eb1   Thumb Code    68  ff.o(.text)
    .text                                    0x08006220   Section        0  cc936.o(.text)
    .text                                    0x080062f8   Section        0  uldiv.o(.text)
    .text                                    0x0800635a   Section        0  memcpya.o(.text)
    .text                                    0x0800637e   Section        0  uidiv.o(.text)
    .text                                    0x080063aa   Section        0  llshl.o(.text)
    .text                                    0x080063c8   Section        0  llushr.o(.text)
    .text                                    0x080063e8   Section       36  init.o(.text)
    i.__0printf$3                            0x0800640c   Section        0  printf3.o(i.__0printf$3)
    i.__scatterload_copy                     0x0800642c   Section       14  handlers.o(i.__scatterload_copy)
    i.__scatterload_null                     0x0800643a   Section        2  handlers.o(i.__scatterload_null)
    i.__scatterload_zeroinit                 0x0800643c   Section       14  handlers.o(i.__scatterload_zeroinit)
    i._printf_core                           0x0800644c   Section        0  printf3.o(i._printf_core)
    _printf_core                             0x0800644d   Thumb Code   436  printf3.o(i._printf_core)
    .constdata                               0x08006604   Section       58  ff.o(.constdata)
    LfnOfs                                   0x08006604   Data          13  ff.o(.constdata)
    vst                                      0x08006612   Data          22  ff.o(.constdata)
    cst                                      0x08006628   Data          22  ff.o(.constdata)
    .constdata                               0x0800663e   Section    176320  cc936.o(.constdata)
    uni2oem                                  0x0800663e   Data       87172  cc936.o(.constdata)
    oem2uni                                  0x0801bac2   Data       87172  cc936.o(.constdata)
    lower                                    0x08030f46   Data         988  cc936.o(.constdata)
    upper                                    0x08031322   Data         988  cc936.o(.constdata)
    .data                                    0x20000000   Section       20  system_stm32f10x.o(.data)
    .data                                    0x20000014   Section       20  stm32f10x_rcc.o(.data)
    APBAHBPrescTable                         0x20000014   Data          16  stm32f10x_rcc.o(.data)
    ADCPrescTable                            0x20000024   Data           4  stm32f10x_rcc.o(.data)
    .data                                    0x20000028   Section       72  main.o(.data)
    .data                                    0x20000070   Section       20  bsp_sdio_sdcard.o(.data)
    CardType                                 0x20000070   Data           4  bsp_sdio_sdcard.o(.data)
    RCA                                      0x20000074   Data           4  bsp_sdio_sdcard.o(.data)
    .data                                    0x20000084   Section       10  ff.o(.data)
    FatFs                                    0x20000084   Data           8  ff.o(.data)
    Fsid                                     0x2000008c   Data           2  ff.o(.data)
    .data                                    0x20000090   Section        4  stdout.o(.data)
    .bss                                     0x20000094   Section     9300  main.o(.bss)
    .bss                                     0x200024e8   Section      204  bsp_sdio_sdcard.o(.bss)
    CSD_Tab                                  0x200024e8   Data          16  bsp_sdio_sdcard.o(.bss)
    CID_Tab                                  0x200024f8   Data          16  bsp_sdio_sdcard.o(.bss)
    SDSTATUS_Tab                             0x20002508   Data          16  bsp_sdio_sdcard.o(.bss)
    STACK                                    0x200025b8   Section     1024  startup_stm32f10x_hd.o(STACK)

    Global Symbols

    Symbol Name                              Value     Ov Type        Size  Object(Section)

    BuildAttributes$$THM_ISAv4$P$D$K$B$S$PE$A:L22UL41UL21$X:L11$S22US41US21$IEEE1$IW$USESV6$~STKCKD$USESV7$~SHL$OSPACE$ROPI$EBA8$MICROLIB$REQ8$PRES8$EABIv2 0x00000000   Number         0  anon$$obj.o ABSOLUTE
    __ARM_use_no_argv                        0x00000000   Number         0  main.o ABSOLUTE
    _printf_a                                0x00000000   Number         0  stubs.o ABSOLUTE
    _printf_c                                0x00000000   Number         0  stubs.o ABSOLUTE
    _printf_charcount                        0x00000000   Number         0  stubs.o ABSOLUTE
    _printf_d                                0x00000000   Number         0  stubs.o ABSOLUTE
    _printf_e                                0x00000000   Number         0  stubs.o ABSOLUTE
    _printf_f                                0x00000000   Number         0  stubs.o ABSOLUTE
    _printf_flags                            0x00000000   Number         0  stubs.o ABSOLUTE
    _printf_fp_dec                           0x00000000   Number         0  stubs.o ABSOLUTE
    _printf_fp_hex                           0x00000000   Number         0  stubs.o ABSOLUTE
    _printf_g                                0x00000000   Number         0  stubs.o ABSOLUTE
    _printf_i                                0x00000000   Number         0  stubs.o ABSOLUTE
    _printf_int_dec                          0x00000000   Number         0  stubs.o ABSOLUTE
    _printf_l                                0x00000000   Number         0  stubs.o ABSOLUTE
    _printf_lc                               0x00000000   Number         0  stubs.o ABSOLUTE
    _printf_ll                               0x00000000   Number         0  stubs.o ABSOLUTE
    _printf_lld                              0x00000000   Number         0  stubs.o ABSOLUTE
    _printf_lli                              0x00000000   Number         0  stubs.o ABSOLUTE
    _printf_llo                              0x00000000   Number         0  stubs.o ABSOLUTE
    _printf_llu                              0x00000000   Number         0  stubs.o ABSOLUTE
    _printf_llx                              0x00000000   Number         0  stubs.o ABSOLUTE
    _printf_longlong_dec                     0x00000000   Number         0  stubs.o ABSOLUTE
    _printf_longlong_hex                     0x00000000   Number         0  stubs.o ABSOLUTE
    _printf_longlong_oct                     0x00000000   Number         0  stubs.o ABSOLUTE
    _printf_ls                               0x00000000   Number         0  stubs.o ABSOLUTE
    _printf_mbtowc                           0x00000000   Number         0  stubs.o ABSOLUTE
    _printf_n                                0x00000000   Number         0  stubs.o ABSOLUTE
    _printf_o                                0x00000000   Number         0  stubs.o ABSOLUTE
    _printf_p                                0x00000000   Number         0  stubs.o ABSOLUTE
    _printf_percent                          0x00000000   Number         0  stubs.o ABSOLUTE
    _printf_pre_padding                      0x00000000   Number         0  stubs.o ABSOLUTE
    _printf_return_value                     0x00000000   Number         0  stubs.o ABSOLUTE
    _printf_s                                0x00000000   Number         0  stubs.o ABSOLUTE
    _printf_sizespec                         0x00000000   Number         0  stubs.o ABSOLUTE
    _printf_str                              0x00000000   Number         0  stubs.o ABSOLUTE
    _printf_truncate_signed                  0x00000000   Number         0  stubs.o ABSOLUTE
    _printf_truncate_unsigned                0x00000000   Number         0  stubs.o ABSOLUTE
    _printf_u                                0x00000000   Number         0  stubs.o ABSOLUTE
    _printf_wc                               0x00000000   Number         0  stubs.o ABSOLUTE
    _printf_wctomb                           0x00000000   Number         0  stubs.o ABSOLUTE
    _printf_widthprec                        0x00000000   Number         0  stubs.o ABSOLUTE
    _printf_x                                0x00000000   Number         0  stubs.o ABSOLUTE
    __arm_fini_                               - Undefined Weak Reference
    __cpp_initialize__aeabi_                  - Undefined Weak Reference
    __cxa_finalize                            - Undefined Weak Reference
    __decompress                              - Undefined Weak Reference
    _clock_init                               - Undefined Weak Reference
    _microlib_exit                            - Undefined Weak Reference
    __Vectors_Size                           0x00000130   Number         0  startup_stm32f10x_hd.o ABSOLUTE
    __Vectors                                0x08000000   Data           4  startup_stm32f10x_hd.o(RESET)
    __Vectors_End                            0x08000130   Data           0  startup_stm32f10x_hd.o(RESET)
    __main                                   0x08000131   Thumb Code     0  entry.o(.ARM.Collect$$$$00000000)
    _main_stk                                0x08000131   Thumb Code     0  entry2.o(.ARM.Collect$$$$00000001)
    _main_scatterload                        0x08000135   Thumb Code     0  entry5.o(.ARM.Collect$$$$00000004)
    __main_after_scatterload                 0x08000139   Thumb Code     0  entry5.o(.ARM.Collect$$$$00000004)
    _main_clock                              0x08000139   Thumb Code     0  entry7b.o(.ARM.Collect$$$$00000008)
    _main_cpp_init                           0x08000139   Thumb Code     0  entry8b.o(.ARM.Collect$$$$0000000A)
    _main_init                               0x08000139   Thumb Code     0  entry9a.o(.ARM.Collect$$$$0000000B)
    __rt_lib_shutdown_fini                   0x08000141   Thumb Code     0  entry12b.o(.ARM.Collect$$$$0000000E)
    __rt_final_cpp                           0x08000145   Thumb Code     0  entry10a.o(.ARM.Collect$$$$0000000F)
    __rt_final_exit                          0x08000145   Thumb Code     0  entry11a.o(.ARM.Collect$$$$00000011)
    Reset_Handler                            0x08000149   Thumb Code     8  startup_stm32f10x_hd.o(.text)
    ADC1_2_IRQHandler                        0x08000163   Thumb Code     0  startup_stm32f10x_hd.o(.text)
    ADC3_IRQHandler                          0x08000163   Thumb Code     0  startup_stm32f10x_hd.o(.text)
    CAN1_RX1_IRQHandler                      0x08000163   Thumb Code     0  startup_stm32f10x_hd.o(.text)
    CAN1_SCE_IRQHandler                      0x08000163   Thumb Code     0  startup_stm32f10x_hd.o(.text)
    DMA1_Channel1_IRQHandler                 0x08000163   Thumb Code     0  startup_stm32f10x_hd.o(.text)
    DMA1_Channel2_IRQHandler                 0x08000163   Thumb Code     0  startup_stm32f10x_hd.o(.text)
    DMA1_Channel3_IRQHandler                 0x08000163   Thumb Code     0  startup_stm32f10x_hd.o(.text)
    DMA1_Channel4_IRQHandler                 0x08000163   Thumb Code     0  startup_stm32f10x_hd.o(.text)
    DMA1_Channel5_IRQHandler                 0x08000163   Thumb Code     0  startup_stm32f10x_hd.o(.text)
    DMA1_Channel6_IRQHandler                 0x08000163   Thumb Code     0  startup_stm32f10x_hd.o(.text)
    DMA1_Channel7_IRQHandler                 0x08000163   Thumb Code     0  startup_stm32f10x_hd.o(.text)
    DMA2_Channel1_IRQHandler                 0x08000163   Thumb Code     0  startup_stm32f10x_hd.o(.text)
    DMA2_Channel2_IRQHandler                 0x08000163   Thumb Code     0  startup_stm32f10x_hd.o(.text)
    DMA2_Channel3_IRQHandler                 0x08000163   Thumb Code     0  startup_stm32f10x_hd.o(.text)
    DMA2_Channel4_5_IRQHandler               0x08000163   Thumb Code     0  startup_stm32f10x_hd.o(.text)
    EXTI0_IRQHandler                         0x08000163   Thumb Code     0  startup_stm32f10x_hd.o(.text)
    EXTI15_10_IRQHandler                     0x08000163   Thumb Code     0  startup_stm32f10x_hd.o(.text)
    EXTI1_IRQHandler                         0x08000163   Thumb Code     0  startup_stm32f10x_hd.o(.text)
    EXTI2_IRQHandler                         0x08000163   Thumb Code     0  startup_stm32f10x_hd.o(.text)
    EXTI3_IRQHandler                         0x08000163   Thumb Code     0  startup_stm32f10x_hd.o(.text)
    EXTI4_IRQHandler                         0x08000163   Thumb Code     0  startup_stm32f10x_hd.o(.text)
    EXTI9_5_IRQHandler                       0x08000163   Thumb Code     0  startup_stm32f10x_hd.o(.text)
    FLASH_IRQHandler                         0x08000163   Thumb Code     0  startup_stm32f10x_hd.o(.text)
    FSMC_IRQHandler                          0x08000163   Thumb Code     0  startup_stm32f10x_hd.o(.text)
    I2C1_ER_IRQHandler                       0x08000163   Thumb Code     0  startup_stm32f10x_hd.o(.text)
    I2C1_EV_IRQHandler                       0x08000163   Thumb Code     0  startup_stm32f10x_hd.o(.text)
    I2C2_ER_IRQHandler                       0x08000163   Thumb Code     0  startup_stm32f10x_hd.o(.text)
    I2C2_EV_IRQHandler                       0x08000163   Thumb Code     0  startup_stm32f10x_hd.o(.text)
    PVD_IRQHandler                           0x08000163   Thumb Code     0  startup_stm32f10x_hd.o(.text)
    RCC_IRQHandler                           0x08000163   Thumb Code     0  startup_stm32f10x_hd.o(.text)
    RTCAlarm_IRQHandler                      0x08000163   Thumb Code     0  startup_stm32f10x_hd.o(.text)
    RTC_IRQHandler                           0x08000163   Thumb Code     0  startup_stm32f10x_hd.o(.text)
    SPI1_IRQHandler                          0x08000163   Thumb Code     0  startup_stm32f10x_hd.o(.text)
    SPI2_IRQHandler                          0x08000163   Thumb Code     0  startup_stm32f10x_hd.o(.text)
    SPI3_IRQHandler                          0x08000163   Thumb Code     0  startup_stm32f10x_hd.o(.text)
    TAMPER_IRQHandler                        0x08000163   Thumb Code     0  startup_stm32f10x_hd.o(.text)
    TIM1_BRK_IRQHandler                      0x08000163   Thumb Code     0  startup_stm32f10x_hd.o(.text)
    TIM1_CC_IRQHandler                       0x08000163   Thumb Code     0  startup_stm32f10x_hd.o(.text)
    TIM1_TRG_COM_IRQHandler                  0x08000163   Thumb Code     0  startup_stm32f10x_hd.o(.text)
    TIM1_UP_IRQHandler                       0x08000163   Thumb Code     0  startup_stm32f10x_hd.o(.text)
    TIM2_IRQHandler                          0x08000163   Thumb Code     0  startup_stm32f10x_hd.o(.text)
    TIM3_IRQHandler                          0x08000163   Thumb Code     0  startup_stm32f10x_hd.o(.text)
    TIM4_IRQHandler                          0x08000163   Thumb Code     0  startup_stm32f10x_hd.o(.text)
    TIM5_IRQHandler                          0x08000163   Thumb Code     0  startup_stm32f10x_hd.o(.text)
    TIM6_IRQHandler                          0x08000163   Thumb Code     0  startup_stm32f10x_hd.o(.text)
    TIM7_IRQHandler                          0x08000163   Thumb Code     0  startup_stm32f10x_hd.o(.text)
    TIM8_BRK_IRQHandler                      0x08000163   Thumb Code     0  startup_stm32f10x_hd.o(.text)
    TIM8_CC_IRQHandler                       0x08000163   Thumb Code     0  startup_stm32f10x_hd.o(.text)
    TIM8_TRG_COM_IRQHandler                  0x08000163   Thumb Code     0  startup_stm32f10x_hd.o(.text)
    TIM8_UP_IRQHandler                       0x08000163   Thumb Code     0  startup_stm32f10x_hd.o(.text)
    UART4_IRQHandler                         0x08000163   Thumb Code     0  startup_stm32f10x_hd.o(.text)
    UART5_IRQHandler                         0x08000163   Thumb Code     0  startup_stm32f10x_hd.o(.text)
    USART1_IRQHandler                        0x08000163   Thumb Code     0  startup_stm32f10x_hd.o(.text)
    USART2_IRQHandler                        0x08000163   Thumb Code     0  startup_stm32f10x_hd.o(.text)
    USART3_IRQHandler                        0x08000163   Thumb Code     0  startup_stm32f10x_hd.o(.text)
    USBWakeUp_IRQHandler                     0x08000163   Thumb Code     0  startup_stm32f10x_hd.o(.text)
    USB_HP_CAN1_TX_IRQHandler                0x08000163   Thumb Code     0  startup_stm32f10x_hd.o(.text)
    USB_LP_CAN1_RX0_IRQHandler               0x08000163   Thumb Code     0  startup_stm32f10x_hd.o(.text)
    WWDG_IRQHandler                          0x08000163   Thumb Code     0  startup_stm32f10x_hd.o(.text)
    SystemInit                               0x0800024b   Thumb Code    78  system_stm32f10x.o(.text)
    SystemCoreClockUpdate                    0x08000299   Thumb Code   142  system_stm32f10x.o(.text)
    NVIC_PriorityGroupConfig                 0x0800034d   Thumb Code    10  misc.o(.text)
    NVIC_Init                                0x08000357   Thumb Code   100  misc.o(.text)
    NVIC_SetVectorTable                      0x080003bb   Thumb Code    14  misc.o(.text)
    NVIC_SystemLPConfig                      0x080003c9   Thumb Code    34  misc.o(.text)
    SysTick_CLKSourceConfig                  0x080003eb   Thumb Code    40  misc.o(.text)
    DMA_DeInit                               0x08000429   Thumb Code   324  stm32f10x_dma.o(.text)
    DMA_Init                                 0x0800056d   Thumb Code    60  stm32f10x_dma.o(.text)
    DMA_StructInit                           0x080005a9   Thumb Code    26  stm32f10x_dma.o(.text)
    DMA_Cmd                                  0x080005c3   Thumb Code    24  stm32f10x_dma.o(.text)
    DMA_ITConfig                             0x080005db   Thumb Code    18  stm32f10x_dma.o(.text)
    DMA_SetCurrDataCounter                   0x080005ed   Thumb Code     4  stm32f10x_dma.o(.text)
    DMA_GetCurrDataCounter                   0x080005f1   Thumb Code     8  stm32f10x_dma.o(.text)
    DMA_GetFlagStatus                        0x080005f9   Thumb Code    40  stm32f10x_dma.o(.text)
    DMA_ClearFlag                            0x08000621   Thumb Code    22  stm32f10x_dma.o(.text)
    DMA_GetITStatus                          0x08000637   Thumb Code    40  stm32f10x_dma.o(.text)
    DMA_ClearITPendingBit                    0x0800065f   Thumb Code    22  stm32f10x_dma.o(.text)
    GPIO_DeInit                              0x0800067d   Thumb Code   172  stm32f10x_gpio.o(.text)
    GPIO_AFIODeInit                          0x08000729   Thumb Code    20  stm32f10x_gpio.o(.text)
    GPIO_Init                                0x0800073d   Thumb Code   278  stm32f10x_gpio.o(.text)
    GPIO_StructInit                          0x08000853   Thumb Code    16  stm32f10x_gpio.o(.text)
    GPIO_ReadInputDataBit                    0x08000863   Thumb Code    18  stm32f10x_gpio.o(.text)
    GPIO_ReadInputData                       0x08000875   Thumb Code     8  stm32f10x_gpio.o(.text)
    GPIO_ReadOutputDataBit                   0x0800087d   Thumb Code    18  stm32f10x_gpio.o(.text)
    GPIO_ReadOutputData                      0x0800088f   Thumb Code     8  stm32f10x_gpio.o(.text)
    GPIO_SetBits                             0x08000897   Thumb Code     4  stm32f10x_gpio.o(.text)
    GPIO_ResetBits                           0x0800089b   Thumb Code     4  stm32f10x_gpio.o(.text)
    GPIO_WriteBit                            0x0800089f   Thumb Code    10  stm32f10x_gpio.o(.text)
    GPIO_Write                               0x080008a9   Thumb Code     4  stm32f10x_gpio.o(.text)
    GPIO_PinLockConfig                       0x080008ad   Thumb Code    18  stm32f10x_gpio.o(.text)
    GPIO_EventOutputConfig                   0x080008bf   Thumb Code    26  stm32f10x_gpio.o(.text)
    GPIO_EventOutputCmd                      0x080008d9   Thumb Code     6  stm32f10x_gpio.o(.text)
    GPIO_PinRemapConfig                      0x080008df   Thumb Code   138  stm32f10x_gpio.o(.text)
    GPIO_EXTILineConfig                      0x08000969   Thumb Code    66  stm32f10x_gpio.o(.text)
    GPIO_ETH_MediaInterfaceConfig            0x080009ab   Thumb Code     8  stm32f10x_gpio.o(.text)
    RCC_DeInit                               0x080009d9   Thumb Code    64  stm32f10x_rcc.o(.text)
    RCC_HSEConfig                            0x08000a19   Thumb Code    70  stm32f10x_rcc.o(.text)
    RCC_GetFlagStatus                        0x08000a5f   Thumb Code    56  stm32f10x_rcc.o(.text)
    RCC_WaitForHSEStartUp                    0x08000a97   Thumb Code    56  stm32f10x_rcc.o(.text)
    RCC_AdjustHSICalibrationValue            0x08000acf   Thumb Code    20  stm32f10x_rcc.o(.text)
    RCC_HSICmd                               0x08000ae3   Thumb Code     6  stm32f10x_rcc.o(.text)
    RCC_PLLConfig                            0x08000ae9   Thumb Code    24  stm32f10x_rcc.o(.text)
    RCC_PLLCmd                               0x08000b01   Thumb Code     6  stm32f10x_rcc.o(.text)
    RCC_SYSCLKConfig                         0x08000b07   Thumb Code    18  stm32f10x_rcc.o(.text)
    RCC_GetSYSCLKSource                      0x08000b19   Thumb Code    10  stm32f10x_rcc.o(.text)
    RCC_HCLKConfig                           0x08000b23   Thumb Code    18  stm32f10x_rcc.o(.text)
    RCC_PCLK1Config                          0x08000b35   Thumb Code    18  stm32f10x_rcc.o(.text)
    RCC_PCLK2Config                          0x08000b47   Thumb Code    20  stm32f10x_rcc.o(.text)
    RCC_ITConfig                             0x08000b5b   Thumb Code    26  stm32f10x_rcc.o(.text)
    RCC_USBCLKConfig                         0x08000b75   Thumb Code     8  stm32f10x_rcc.o(.text)
    RCC_ADCCLKConfig                         0x08000b7d   Thumb Code    18  stm32f10x_rcc.o(.text)
    RCC_LSEConfig                            0x08000b8f   Thumb Code    50  stm32f10x_rcc.o(.text)
    RCC_LSICmd                               0x08000bc1   Thumb Code     6  stm32f10x_rcc.o(.text)
    RCC_RTCCLKConfig                         0x08000bc7   Thumb Code    12  stm32f10x_rcc.o(.text)
    RCC_RTCCLKCmd                            0x08000bd3   Thumb Code     8  stm32f10x_rcc.o(.text)
    RCC_GetClocksFreq                        0x08000bdb   Thumb Code   192  stm32f10x_rcc.o(.text)
    RCC_AHBPeriphClockCmd                    0x08000c9b   Thumb Code    26  stm32f10x_rcc.o(.text)
    RCC_APB2PeriphClockCmd                   0x08000cb5   Thumb Code    26  stm32f10x_rcc.o(.text)
    RCC_APB1PeriphClockCmd                   0x08000ccf   Thumb Code    26  stm32f10x_rcc.o(.text)
    RCC_APB2PeriphResetCmd                   0x08000ce9   Thumb Code    26  stm32f10x_rcc.o(.text)
    RCC_APB1PeriphResetCmd                   0x08000d03   Thumb Code    26  stm32f10x_rcc.o(.text)
    RCC_BackupResetCmd                       0x08000d1d   Thumb Code     8  stm32f10x_rcc.o(.text)
    RCC_ClockSecuritySystemCmd               0x08000d25   Thumb Code     6  stm32f10x_rcc.o(.text)
    RCC_MCOConfig                            0x08000d2b   Thumb Code     6  stm32f10x_rcc.o(.text)
    RCC_ClearFlag                            0x08000d31   Thumb Code    14  stm32f10x_rcc.o(.text)
    RCC_GetITStatus                          0x08000d3f   Thumb Code    20  stm32f10x_rcc.o(.text)
    RCC_ClearITPendingBit                    0x08000d53   Thumb Code     6  stm32f10x_rcc.o(.text)
    SDIO_DeInit                              0x08000d7d   Thumb Code    28  stm32f10x_sdio.o(.text)
    SDIO_Init                                0x08000d99   Thumb Code    42  stm32f10x_sdio.o(.text)
    SDIO_StructInit                          0x08000dc3   Thumb Code    16  stm32f10x_sdio.o(.text)
    SDIO_ClockCmd                            0x08000dd3   Thumb Code     6  stm32f10x_sdio.o(.text)
    SDIO_SetPowerState                       0x08000dd9   Thumb Code    22  stm32f10x_sdio.o(.text)
    SDIO_GetPowerState                       0x08000def   Thumb Code    10  stm32f10x_sdio.o(.text)
    SDIO_ITConfig                            0x08000df9   Thumb Code    26  stm32f10x_sdio.o(.text)
    SDIO_DMACmd                              0x08000e13   Thumb Code     6  stm32f10x_sdio.o(.text)
    SDIO_SendCommand                         0x08000e19   Thumb Code    38  stm32f10x_sdio.o(.text)
    SDIO_CmdStructInit                       0x08000e3f   Thumb Code    14  stm32f10x_sdio.o(.text)
    SDIO_GetCommandResponse                  0x08000e4d   Thumb Code     8  stm32f10x_sdio.o(.text)
    SDIO_GetResponse                         0x08000e55   Thumb Code    22  stm32f10x_sdio.o(.text)
    SDIO_DataConfig                          0x08000e6b   Thumb Code    42  stm32f10x_sdio.o(.text)
    SDIO_DataStructInit                      0x08000e95   Thumb Code    20  stm32f10x_sdio.o(.text)
    SDIO_GetDataCounter                      0x08000ea9   Thumb Code     6  stm32f10x_sdio.o(.text)
    SDIO_ReadData                            0x08000eaf   Thumb Code     8  stm32f10x_sdio.o(.text)
    SDIO_WriteData                           0x08000eb7   Thumb Code     8  stm32f10x_sdio.o(.text)
    SDIO_GetFIFOCount                        0x08000ebf   Thumb Code     6  stm32f10x_sdio.o(.text)
    SDIO_StartSDIOReadWait                   0x08000ec5   Thumb Code     8  stm32f10x_sdio.o(.text)
    SDIO_StopSDIOReadWait                    0x08000ecd   Thumb Code     8  stm32f10x_sdio.o(.text)
    SDIO_SetSDIOReadWaitMode                 0x08000ed5   Thumb Code     8  stm32f10x_sdio.o(.text)
    SDIO_SetSDIOOperation                    0x08000edd   Thumb Code     8  stm32f10x_sdio.o(.text)
    SDIO_SendSDIOSuspendCmd                  0x08000ee5   Thumb Code     6  stm32f10x_sdio.o(.text)
    SDIO_CommandCompletionCmd                0x08000eeb   Thumb Code     8  stm32f10x_sdio.o(.text)
    SDIO_CEATAITCmd                          0x08000ef3   Thumb Code    12  stm32f10x_sdio.o(.text)
    SDIO_SendCEATACmd                        0x08000eff   Thumb Code     8  stm32f10x_sdio.o(.text)
    SDIO_GetFlagStatus                       0x08000f07   Thumb Code    20  stm32f10x_sdio.o(.text)
    SDIO_ClearFlag                           0x08000f1b   Thumb Code     6  stm32f10x_sdio.o(.text)
    SDIO_GetITStatus                         0x08000f21   Thumb Code    20  stm32f10x_sdio.o(.text)
    SDIO_ClearITPendingBit                   0x08000f35   Thumb Code     6  stm32f10x_sdio.o(.text)
    USART_DeInit                             0x08000f51   Thumb Code   134  stm32f10x_usart.o(.text)
    USART_Init                               0x08000fd7   Thumb Code   210  stm32f10x_usart.o(.text)
    USART_StructInit                         0x080010a9   Thumb Code    24  stm32f10x_usart.o(.text)
    USART_ClockInit                          0x080010c1   Thumb Code    34  stm32f10x_usart.o(.text)
    USART_ClockStructInit                    0x080010e3   Thumb Code    12  stm32f10x_usart.o(.text)
    USART_Cmd                                0x080010ef   Thumb Code    24  stm32f10x_usart.o(.text)
    USART_ITConfig                           0x08001107   Thumb Code    74  stm32f10x_usart.o(.text)
    USART_DMACmd                             0x08001151   Thumb Code    18  stm32f10x_usart.o(.text)
    USART_SetAddress                         0x08001163   Thumb Code    18  stm32f10x_usart.o(.text)
    USART_WakeUpConfig                       0x08001175   Thumb Code    18  stm32f10x_usart.o(.text)
    USART_ReceiverWakeUpCmd                  0x08001187   Thumb Code    24  stm32f10x_usart.o(.text)
    USART_LINBreakDetectLengthConfig         0x0800119f   Thumb Code    18  stm32f10x_usart.o(.text)
    USART_LINCmd                             0x080011b1   Thumb Code    24  stm32f10x_usart.o(.text)
    USART_SendData                           0x080011c9   Thumb Code     8  stm32f10x_usart.o(.text)
    USART_ReceiveData                        0x080011d1   Thumb Code    10  stm32f10x_usart.o(.text)
    USART_SendBreak                          0x080011db   Thumb Code    10  stm32f10x_usart.o(.text)
    USART_SetGuardTime                       0x080011e5   Thumb Code    16  stm32f10x_usart.o(.text)
    USART_SetPrescaler                       0x080011f5   Thumb Code    16  stm32f10x_usart.o(.text)
    USART_SmartCardCmd                       0x08001205   Thumb Code    24  stm32f10x_usart.o(.text)
    USART_SmartCardNACKCmd                   0x0800121d   Thumb Code    24  stm32f10x_usart.o(.text)
    USART_HalfDuplexCmd                      0x08001235   Thumb Code    24  stm32f10x_usart.o(.text)
    USART_OverSampling8Cmd                   0x0800124d   Thumb Code    22  stm32f10x_usart.o(.text)
    USART_OneBitMethodCmd                    0x08001263   Thumb Code    24  stm32f10x_usart.o(.text)
    USART_IrDAConfig                         0x0800127b   Thumb Code    18  stm32f10x_usart.o(.text)
    USART_IrDACmd                            0x0800128d   Thumb Code    24  stm32f10x_usart.o(.text)
    USART_GetFlagStatus                      0x080012a5   Thumb Code    26  stm32f10x_usart.o(.text)
    USART_ClearFlag                          0x080012bf   Thumb Code    18  stm32f10x_usart.o(.text)
    USART_GetITStatus                        0x080012d1   Thumb Code    84  stm32f10x_usart.o(.text)
    USART_ClearITPendingBit                  0x08001325   Thumb Code    52  stm32f10x_usart.o(.text)
    main                                     0x08001359   Thumb Code   374  main.o(.text)
    NMI_Handler                              0x0800179d   Thumb Code     2  stm32f10x_it.o(.text)
    HardFault_Handler                        0x0800179f   Thumb Code     4  stm32f10x_it.o(.text)
    MemManage_Handler                        0x080017a3   Thumb Code     4  stm32f10x_it.o(.text)
    BusFault_Handler                         0x080017a7   Thumb Code     4  stm32f10x_it.o(.text)
    UsageFault_Handler                       0x080017ab   Thumb Code     4  stm32f10x_it.o(.text)
    SVC_Handler                              0x080017af   Thumb Code     2  stm32f10x_it.o(.text)
    DebugMon_Handler                         0x080017b1   Thumb Code     2  stm32f10x_it.o(.text)
    PendSV_Handler                           0x080017b3   Thumb Code     2  stm32f10x_it.o(.text)
    SysTick_Handler                          0x080017b5   Thumb Code     2  stm32f10x_it.o(.text)
    SDIO_IRQHandler                          0x080017b7   Thumb Code     8  stm32f10x_it.o(.text)
    LED_GPIO_Config                          0x080017c1   Thumb Code    90  bsp_led.o(.text)
    USART_Config                             0x08001821   Thumb Code   120  bsp_usart.o(.text)
    fputc                                    0x08001899   Thumb Code    32  bsp_usart.o(.text)
    fgetc                                    0x080018b9   Thumb Code    26  bsp_usart.o(.text)
    SD_DeInit                                0x080018dd   Thumb Code    66  bsp_sdio_sdcard.o(.text)
    SD_EnableWideBusOperation                0x08001d2d   Thumb Code   140  bsp_sdio_sdcard.o(.text)
    SD_SelectDeselect                        0x08001db9   Thumb Code    48  bsp_sdio_sdcard.o(.text)
    SD_GetCardInfo                           0x08001de9   Thumb Code   764  bsp_sdio_sdcard.o(.text)
    SD_InitializeCards                       0x080021e1   Thumb Code   294  bsp_sdio_sdcard.o(.text)
    SD_PowerON                               0x080023af   Thumb Code   374  bsp_sdio_sdcard.o(.text)
    SD_Init                                  0x08002525   Thumb Code   138  bsp_sdio_sdcard.o(.text)
    SD_SendStatus                            0x080025af   Thumb Code    46  bsp_sdio_sdcard.o(.text)
    SD_GetState                              0x080025dd   Thumb Code    26  bsp_sdio_sdcard.o(.text)
    SD_GetStatus                             0x080025f7   Thumb Code    30  bsp_sdio_sdcard.o(.text)
    SD_PowerOFF                              0x08002615   Thumb Code    14  bsp_sdio_sdcard.o(.text)
    SD_SendSDStatus                          0x08002623   Thumb Code   360  bsp_sdio_sdcard.o(.text)
    SD_GetCardStatus                         0x0800278b   Thumb Code   156  bsp_sdio_sdcard.o(.text)
    SD_ReadBlock                             0x08002827   Thumb Code   208  bsp_sdio_sdcard.o(.text)
    SD_ReadMultiBlocks                       0x080028f7   Thumb Code   264  bsp_sdio_sdcard.o(.text)
    SD_WaitReadOperation                     0x080029ff   Thumb Code    42  bsp_sdio_sdcard.o(.text)
    SD_WriteBlock                            0x08002a29   Thumb Code   206  bsp_sdio_sdcard.o(.text)
    SD_WriteMultiBlocks                      0x08002af7   Thumb Code   312  bsp_sdio_sdcard.o(.text)
    SD_WaitWriteOperation                    0x08002c2f   Thumb Code    50  bsp_sdio_sdcard.o(.text)
    SD_GetTransferState                      0x08002c61   Thumb Code    18  bsp_sdio_sdcard.o(.text)
    SD_StopTransfer                          0x08002c73   Thumb Code    28  bsp_sdio_sdcard.o(.text)
    SD_Erase                                 0x08002e41   Thumb Code   290  bsp_sdio_sdcard.o(.text)
    SD_ProcessIRQSrc                         0x08002f63   Thumb Code    70  bsp_sdio_sdcard.o(.text)
    convert_from_bytes_to_power_of_two       0x08002fa9   Thumb Code    18  bsp_sdio_sdcard.o(.text)
    disk_status                              0x08002fdd   Thumb Code    28  diskio.o(.text)
    disk_initialize                          0x08002ff9   Thumb Code    42  diskio.o(.text)
    disk_read                                0x08003023   Thumb Code   182  diskio.o(.text)
    disk_write                               0x080030d9   Thumb Code   188  diskio.o(.text)
    disk_ioctl                               0x08003195   Thumb Code   102  diskio.o(.text)
    get_fattime                              0x080031fb   Thumb Code     4  diskio.o(.text)
    clust2sect                               0x080033bf   Thumb Code    26  ff.o(.text)
    get_fat                                  0x080033d9   Thumb Code   318  ff.o(.text)
    put_fat                                  0x08003517   Thumb Code   392  ff.o(.text)
    f_mount                                  0x08004919   Thumb Code    86  ff.o(.text)
    f_open                                   0x0800496f   Thumb Code   382  ff.o(.text)
    f_read                                   0x08004aed   Thumb Code   480  ff.o(.text)
    f_write                                  0x08004ccd   Thumb Code   524  ff.o(.text)
    f_sync                                   0x08004ed9   Thumb Code   176  ff.o(.text)
    f_close                                  0x08004f89   Thumb Code    32  ff.o(.text)
    f_lseek                                  0x08004fa9   Thumb Code   410  ff.o(.text)
    f_opendir                                0x08005143   Thumb Code   118  ff.o(.text)
    f_closedir                               0x080051b9   Thumb Code    22  ff.o(.text)
    f_readdir                                0x080051cf   Thumb Code   100  ff.o(.text)
    f_stat                                   0x08005233   Thumb Code    68  ff.o(.text)
    f_getfree                                0x08005277   Thumb Code   258  ff.o(.text)
    f_truncate                               0x08005379   Thumb Code   184  ff.o(.text)
    f_unlink                                 0x08005431   Thumb Code   174  ff.o(.text)
    f_mkdir                                  0x080054df   Thumb Code   358  ff.o(.text)
    f_chmod                                  0x08005645   Thumb Code    92  ff.o(.text)
    f_rename                                 0x080056a1   Thumb Code   266  ff.o(.text)
    f_utime                                  0x080057ab   Thumb Code    94  ff.o(.text)
    f_mkfs                                   0x08005809   Thumb Code  1622  ff.o(.text)
    f_gets                                   0x08005e5f   Thumb Code    82  ff.o(.text)
    f_putc                                   0x08005ef5   Thumb Code    64  ff.o(.text)
    f_puts                                   0x08005f35   Thumb Code    74  ff.o(.text)
    f_printf                                 0x08005f7f   Thumb Code   674  ff.o(.text)
    ff_convert                               0x08006221   Thumb Code   116  cc936.o(.text)
    ff_wtoupper                              0x08006295   Thumb Code    84  cc936.o(.text)
    __aeabi_uldivmod                         0x080062f9   Thumb Code    98  uldiv.o(.text)
    __aeabi_memcpy                           0x0800635b   Thumb Code    36  memcpya.o(.text)
    __aeabi_memcpy4                          0x0800635b   Thumb Code     0  memcpya.o(.text)
    __aeabi_memcpy8                          0x0800635b   Thumb Code     0  memcpya.o(.text)
    __aeabi_uidiv                            0x0800637f   Thumb Code     0  uidiv.o(.text)
    __aeabi_uidivmod                         0x0800637f   Thumb Code    44  uidiv.o(.text)
    __aeabi_llsl                             0x080063ab   Thumb Code    30  llshl.o(.text)
    _ll_shift_l                              0x080063ab   Thumb Code     0  llshl.o(.text)
    __aeabi_llsr                             0x080063c9   Thumb Code    32  llushr.o(.text)
    _ll_ushift_r                             0x080063c9   Thumb Code     0  llushr.o(.text)
    __scatterload                            0x080063e9   Thumb Code    28  init.o(.text)
    __scatterload_rt2                        0x080063e9   Thumb Code     0  init.o(.text)
    __0printf$3                              0x0800640d   Thumb Code    22  printf3.o(i.__0printf$3)
    __1printf$3                              0x0800640d   Thumb Code     0  printf3.o(i.__0printf$3)
    __2printf                                0x0800640d   Thumb Code     0  printf3.o(i.__0printf$3)
    __scatterload_copy                       0x0800642d   Thumb Code    14  handlers.o(i.__scatterload_copy)
    __scatterload_null                       0x0800643b   Thumb Code     2  handlers.o(i.__scatterload_null)
    __scatterload_zeroinit                   0x0800643d   Thumb Code    14  handlers.o(i.__scatterload_zeroinit)
    Region$$Table$$Base                      0x08031700   Number         0  anon$$obj.o(Region$$Table)
    Region$$Table$$Limit                     0x08031720   Number         0  anon$$obj.o(Region$$Table)
    SystemCoreClock                          0x20000000   Data           4  system_stm32f10x.o(.data)
    AHBPrescTable                            0x20000004   Data          16  system_stm32f10x.o(.data)
    res_sd                                   0x20000028   Data           1  main.o(.data)
    fnum                                     0x2000002c   Data           4  main.o(.data)
    WriteBuffer                              0x20000030   Data          64  main.o(.data)
    StopCondition                            0x20000078   Data           4  bsp_sdio_sdcard.o(.data)
    TransferError                            0x2000007c   Data           1  bsp_sdio_sdcard.o(.data)
    TransferEnd                              0x20000080   Data           4  bsp_sdio_sdcard.o(.data)
    __stdout                                 0x20000090   Data           4  stdout.o(.data)
    fs                                       0x20000094   Data        4144  main.o(.bss)
    fnew                                     0x200010c4   Data        4132  main.o(.bss)
    ReadBuffer                               0x200020e8   Data        1024  main.o(.bss)
    SDCardInfo                               0x20002518   Data          88  bsp_sdio_sdcard.o(.bss)
    SDIO_InitStructure                       0x20002570   Data          24  bsp_sdio_sdcard.o(.bss)
    SDIO_CmdInitStructure                    0x20002588   Data          20  bsp_sdio_sdcard.o(.bss)
    SDIO_DataInitStructure                   0x2000259c   Data          24  bsp_sdio_sdcard.o(.bss)
    __initial_sp                             0x200029b8   Data           0  startup_stm32f10x_hd.o(STACK)



==============================================================================

Memory Map of the image

  Image Entry point : 0x08000131

  Load Region LR_IROM1 (Base: 0x08000000, Size: 0x000317b4, Max: 0x00080000, ABSOLUTE)

    Execution Region ER_IROM1 (Exec base: 0x08000000, Load base: 0x08000000, Size: 0x00031720, Max: 0x00080000, ABSOLUTE)

    Exec Addr    Load Addr    Size         Type   Attr      Idx    E Section Name        Object

    0x08000000   0x08000000   0x00000130   Data   RO            3    RESET               startup_stm32f10x_hd.o
    0x08000130   0x08000130   0x00000000   Code   RO          555  * .ARM.Collect$$$$00000000  mc_w.l(entry.o)
    0x08000130   0x08000130   0x00000004   Code   RO          825    .ARM.Collect$$$$00000001  mc_w.l(entry2.o)
    0x08000134   0x08000134   0x00000004   Code   RO          828    .ARM.Collect$$$$00000004  mc_w.l(entry5.o)
    0x08000138   0x08000138   0x00000000   Code   RO          830    .ARM.Collect$$$$00000008  mc_w.l(entry7b.o)
    0x08000138   0x08000138   0x00000000   Code   RO          832    .ARM.Collect$$$$0000000A  mc_w.l(entry8b.o)
    0x08000138   0x08000138   0x00000008   Code   RO          833    .ARM.Collect$$$$0000000B  mc_w.l(entry9a.o)
    0x08000140   0x08000140   0x00000004   Code   RO          840    .ARM.Collect$$$$0000000E  mc_w.l(entry12b.o)
    0x08000144   0x08000144   0x00000000   Code   RO          835    .ARM.Collect$$$$0000000F  mc_w.l(entry10a.o)
    0x08000144   0x08000144   0x00000000   Code   RO          837    .ARM.Collect$$$$00000011  mc_w.l(entry11a.o)
    0x08000144   0x08000144   0x00000004   Code   RO          826    .ARM.Collect$$$$00002712  mc_w.l(entry2.o)
    0x08000148   0x08000148   0x00000024   Code   RO            4    .text               startup_stm32f10x_hd.o
    0x0800016c   0x0800016c   0x000001e0   Code   RO           10    .text               system_stm32f10x.o
    0x0800034c   0x0800034c   0x000000dc   Code   RO          111    .text               misc.o
    0x08000428   0x08000428   0x00000254   Code   RO          211    .text               stm32f10x_dma.o
    0x0800067c   0x0800067c   0x0000035c   Code   RO          259    .text               stm32f10x_gpio.o
    0x080009d8   0x080009d8   0x000003a4   Code   RO          307    .text               stm32f10x_rcc.o
    0x08000d7c   0x08000d7c   0x000001d4   Code   RO          333    .text               stm32f10x_sdio.o
    0x08000f50   0x08000f50   0x00000408   Code   RO          369    .text               stm32f10x_usart.o
    0x08001358   0x08001358   0x00000444   Code   RO          393    .text               main.o
    0x0800179c   0x0800179c   0x00000022   Code   RO          431    .text               stm32f10x_it.o
    0x080017be   0x080017be   0x00000002   PAD
    0x080017c0   0x080017c0   0x00000060   Code   RO          446    .text               bsp_led.o
    0x08001820   0x08001820   0x000000bc   Code   RO          458    .text               bsp_usart.o
    0x080018dc   0x080018dc   0x00001700   Code   RO          470    .text               bsp_sdio_sdcard.o
    0x08002fdc   0x08002fdc   0x0000022c   Code   RO          486    .text               diskio.o
    0x08003208   0x08003208   0x00003018   Code   RO          508    .text               ff.o
    0x08006220   0x08006220   0x000000d8   Code   RO          532    .text               cc936.o
    0x080062f8   0x080062f8   0x00000062   Code   RO          558    .text               mc_w.l(uldiv.o)
    0x0800635a   0x0800635a   0x00000024   Code   RO          560    .text               mc_w.l(memcpya.o)
    0x0800637e   0x0800637e   0x0000002c   Code   RO          842    .text               mc_w.l(uidiv.o)
    0x080063aa   0x080063aa   0x0000001e   Code   RO          844    .text               mc_w.l(llshl.o)
    0x080063c8   0x080063c8   0x00000020   Code   RO          846    .text               mc_w.l(llushr.o)
    0x080063e8   0x080063e8   0x00000024   Code   RO          859    .text               mc_w.l(init.o)
    0x0800640c   0x0800640c   0x00000020   Code   RO          653    i.__0printf$3       mc_w.l(printf3.o)
    0x0800642c   0x0800642c   0x0000000e   Code   RO          867    i.__scatterload_copy  mc_w.l(handlers.o)
    0x0800643a   0x0800643a   0x00000002   Code   RO          868    i.__scatterload_null  mc_w.l(handlers.o)
    0x0800643c   0x0800643c   0x0000000e   Code   RO          869    i.__scatterload_zeroinit  mc_w.l(handlers.o)
    0x0800644a   0x0800644a   0x00000002   PAD
    0x0800644c   0x0800644c   0x000001b8   Code   RO          660    i._printf_core      mc_w.l(printf3.o)
    0x08006604   0x08006604   0x0000003a   Data   RO          509    .constdata          ff.o
    0x0800663e   0x0800663e   0x0002b0c0   Data   RO          533    .constdata          cc936.o
    0x080316fe   0x080316fe   0x00000002   PAD
    0x08031700   0x08031700   0x00000020   Data   RO          865    Region$$Table       anon$$obj.o


    Execution Region RW_IRAM1 (Exec base: 0x20000000, Load base: 0x08031720, Size: 0x000029b8, Max: 0x00010000, ABSOLUTE)

    Exec Addr    Load Addr    Size         Type   Attr      Idx    E Section Name        Object

    0x20000000   0x08031720   0x00000014   Data   RW           11    .data               system_stm32f10x.o
    0x20000014   0x08031734   0x00000014   Data   RW          308    .data               stm32f10x_rcc.o
    0x20000028   0x08031748   0x00000048   Data   RW          395    .data               main.o
    0x20000070   0x08031790   0x00000014   Data   RW          472    .data               bsp_sdio_sdcard.o
    0x20000084   0x080317a4   0x0000000a   Data   RW          510    .data               ff.o
    0x2000008e   0x080317ae   0x00000002   PAD
    0x20000090   0x080317b0   0x00000004   Data   RW          841    .data               mc_w.l(stdout.o)
    0x20000094        -       0x00002454   Zero   RW          394    .bss                main.o
    0x200024e8        -       0x000000cc   Zero   RW          471    .bss                bsp_sdio_sdcard.o
    0x200025b4   0x080317b4   0x00000004   PAD
    0x200025b8        -       0x00000400   Zero   RW            1    STACK               startup_stm32f10x_hd.o


==============================================================================

Image component sizes


      Code (inc. data)   RO Data    RW Data    ZI Data      Debug   Object Name

        96          6          0          0          0        578   bsp_led.o
      5888        214          0         20        204      17612   bsp_sdio_sdcard.o
       188         10          0          0          0       1067   bsp_usart.o
       216         16     176320          0          0       2477   cc936.o
       556         10          0          0          0       4763   diskio.o
     12312        122         58         10          0      36084   ff.o
      1092        718          0         72       9300      11968   main.o
       220         22          0          0          0       1917   misc.o
        36          8        304          0       1024        904   startup_stm32f10x_hd.o
       596          8          0          0          0       4482   stm32f10x_dma.o
       860         38          0          0          0       5845   stm32f10x_gpio.o
        34          0          0          0          0       1438   stm32f10x_it.o
       932         36          0         20          0       9076   stm32f10x_rcc.o
       468         22          0          0          0       7232   stm32f10x_sdio.o
      1032         22          0          0          0       8576   stm32f10x_usart.o
       480         38          0         20          0     254043   system_stm32f10x.o

    ----------------------------------------------------------------------
     25008       1290     176716        144      10532     368062   Object Totals
         0          0         32          0          0          0   (incl. Generated)
         2          0          2          2          4          0   (incl. Padding)

    ----------------------------------------------------------------------

      Code (inc. data)   RO Data    RW Data    ZI Data      Debug   Library Member Name

         0          0          0          0          0          0   entry.o
         0          0          0          0          0          0   entry10a.o
         0          0          0          0          0          0   entry11a.o
         4          0          0          0          0          0   entry12b.o
         8          4          0          0          0          0   entry2.o
         4          0          0          0          0          0   entry5.o
         0          0          0          0          0          0   entry7b.o
         0          0          0          0          0          0   entry8b.o
         8          4          0          0          0          0   entry9a.o
        30          0          0          0          0          0   handlers.o
        36          8          0          0          0         68   init.o
        30          0          0          0          0         68   llshl.o
        32          0          0          0          0         68   llushr.o
        36          0          0          0          0         68   memcpya.o
       472         14          0          0          0        184   printf3.o
         0          0          0          4          0          0   stdout.o
        44          0          0          0          0         80   uidiv.o
        98          0          0          0          0         92   uldiv.o

    ----------------------------------------------------------------------
       804         30          0          4          0        628   Library Totals
         2          0          0          0          0          0   (incl. Padding)

    ----------------------------------------------------------------------

      Code (inc. data)   RO Data    RW Data    ZI Data      Debug   Library Name

       802         30          0          4          0        628   mc_w.l

    ----------------------------------------------------------------------
       804         30          0          4          0        628   Library Totals

    ----------------------------------------------------------------------

==============================================================================


      Code (inc. data)   RO Data    RW Data    ZI Data      Debug   

     25812       1320     176716        148      10532     367126   Grand Totals
     25812       1320     176716        148      10532     367126   ELF Image Totals
     25812       1320     176716        148          0          0   ROM Totals

==============================================================================

    Total RO  Size (Code + RO Data)               202528 ( 197.78kB)
    Total RW  Size (RW Data + ZI Data)             10680 (  10.43kB)
    Total ROM Size (Code + RO Data + RW Data)     202676 ( 197.93kB)

==============================================================================

