Component: ARM Compiler 5.06 update 7 (build 960) Tool: armlink [4d3601]

==============================================================================

Section Cross References

    startup_stm32f10x_hd.o(RESET) refers to startup_stm32f10x_hd.o(STACK) for __initial_sp
    startup_stm32f10x_hd.o(RESET) refers to startup_stm32f10x_hd.o(.text) for Reset_Handler
    startup_stm32f10x_hd.o(RESET) refers to stm32f10x_it.o(i.NMI_Handler) for NMI_Handler
    startup_stm32f10x_hd.o(RESET) refers to stm32f10x_it.o(i.HardFault_Handler) for HardFault_Handler
    startup_stm32f10x_hd.o(RESET) refers to stm32f10x_it.o(i.MemManage_Handler) for MemManage_Handler
    startup_stm32f10x_hd.o(RESET) refers to stm32f10x_it.o(i.BusFault_Handler) for BusFault_Handler
    startup_stm32f10x_hd.o(RESET) refers to stm32f10x_it.o(i.UsageFault_Handler) for UsageFault_Handler
    startup_stm32f10x_hd.o(RESET) refers to stm32f10x_it.o(i.SVC_Handler) for SVC_Handler
    startup_stm32f10x_hd.o(RESET) refers to stm32f10x_it.o(i.DebugMon_Handler) for DebugMon_Handler
    startup_stm32f10x_hd.o(RESET) refers to stm32f10x_it.o(i.PendSV_Handler) for PendSV_Handler
    startup_stm32f10x_hd.o(RESET) refers to stm32f10x_it.o(i.SysTick_Handler) for SysTick_Handler
    startup_stm32f10x_hd.o(.text) refers to system_stm32f10x.o(i.SystemInit) for SystemInit
    startup_stm32f10x_hd.o(.text) refers to entry.o(.ARM.Collect$$$$00000000) for __main
    system_stm32f10x.o(i.SetSysClock) refers to system_stm32f10x.o(i.SetSysClockTo72) for SetSysClockTo72
    system_stm32f10x.o(i.SystemCoreClockUpdate) refers to system_stm32f10x.o(.data) for SystemCoreClock
    system_stm32f10x.o(i.SystemInit) refers to system_stm32f10x.o(i.SetSysClock) for SetSysClock
    stm32f10x_adc.o(i.ADC_DeInit) refers to stm32f10x_rcc.o(i.RCC_APB2PeriphResetCmd) for RCC_APB2PeriphResetCmd
    stm32f10x_bkp.o(i.BKP_DeInit) refers to stm32f10x_rcc.o(i.RCC_BackupResetCmd) for RCC_BackupResetCmd
==============================================================================

Removing Unused input sections from the image.

    Removing startup_stm32f10x_hd.o(HEAP), (512 bytes).
    Removing system_stm32f10x.o(i.SystemCoreClockUpdate), (164 bytes).
    Removing system_stm32f10x.o(.data), (20 bytes).
    Removing misc.o(i.NVIC_Init), (112 bytes).
    Removing misc.o(i.NVIC_PriorityGroupConfig), (20 bytes).
    Removing misc.o(i.NVIC_SetVectorTable), (20 bytes).
    Removing misc.o(i.NVIC_SystemLPConfig), (32 bytes).
    Removing misc.o(i.SysTick_CLKSourceConfig), (40 bytes).
    Removing stm32f10x_adc.o(i.ADC_AnalogWatchdogCmd), (20 bytes).
    Removing stm32f10x_adc.o(i.ADC_AnalogWatchdogSingleChannelConfig), (16 bytes).
    Removing stm32f10x_adc.o(i.ADC_AnalogWatchdogThresholdsConfig), (6 bytes).
    Removing stm32f10x_adc.o(i.ADC_AutoInjectedConvCmd), (22 bytes).
    Removing stm32f10x_adc.o(i.ADC_ClearFlag), (6 bytes).
    Removing stm32f10x_adc.o(i.ADC_ClearITPendingBit), (10 bytes).
    Removing stm32f10x_adc.o(i.ADC_Cmd), (22 bytes).
    Removing stm32f10x_adc.o(i.ADC_DMACmd), (22 bytes).
    Removing stm32f10x_adc.o(i.ADC_DeInit), (92 bytes).
    Removing stm32f10x_adc.o(i.ADC_DiscModeChannelCountConfig), (24 bytes).
==============================================================================

Image Symbol Table

    Local Symbols

    Symbol Name                              Value     Ov Type        Size  Object(Section)

    ../clib/microlib/division.c              0x00000000   Number         0  uidiv.o ABSOLUTE
    ../clib/microlib/division.c              0x00000000   Number         0  uldiv.o ABSOLUTE
    ../clib/microlib/init/entry.s            0x00000000   Number         0  entry10b.o ABSOLUTE
    ../clib/microlib/init/entry.s            0x00000000   Number         0  entry10a.o ABSOLUTE
    ../clib/microlib/init/entry.s            0x00000000   Number         0  entry9b.o ABSOLUTE
    ../clib/microlib/init/entry.s            0x00000000   Number         0  entry9a.o ABSOLUTE
    ../clib/microlib/init/entry.s            0x00000000   Number         0  entry8b.o ABSOLUTE
    ../clib/microlib/init/entry.s            0x00000000   Number         0  entry8a.o ABSOLUTE
    ../clib/microlib/init/entry.s            0x00000000   Number         0  entry11b.o ABSOLUTE
    ../clib/microlib/init/entry.s            0x00000000   Number         0  entry12a.o ABSOLUTE
    ../clib/microlib/init/entry.s            0x00000000   Number         0  entry12b.o ABSOLUTE
    ../clib/microlib/init/entry.s            0x00000000   Number         0  entry7b.o ABSOLUTE
    ../clib/microlib/init/entry.s            0x00000000   Number         0  entry7a.o ABSOLUTE
    ../clib/microlib/init/entry.s            0x00000000   Number         0  entry5.o ABSOLUTE
    ../clib/microlib/init/entry.s            0x00000000   Number         0  entry.o ABSOLUTE
    ../clib/microlib/init/entry.s            0x00000000   Number         0  entry11a.o ABSOLUTE
    ../clib/microlib/init/entry.s            0x00000000   Number         0  entry2.o ABSOLUTE
    ../clib/microlib/longlong.c              0x00000000   Number         0  llshl.o ABSOLUTE
    ../clib/microlib/longlong.c              0x00000000   Number         0  llushr.o ABSOLUTE
    ../clib/microlib/longlong.c              0x00000000   Number         0  llsshr.o ABSOLUTE
    ../clib/microlib/printf/printf.c         0x00000000   Number         0  printf1.o ABSOLUTE
    ../clib/microlib/printf/printf.c         0x00000000   Number         0  printf2.o ABSOLUTE
    ../clib/microlib/printf/printf.c         0x00000000   Number         0  printf3.o ABSOLUTE
    ../clib/microlib/printf/printf.c         0x00000000   Number         0  printf4.o ABSOLUTE
    ../clib/microlib/printf/printf.c         0x00000000   Number         0  printf5.o ABSOLUTE
    ../clib/microlib/printf/printf.c         0x00000000   Number         0  printf7.o ABSOLUTE
    ../clib/microlib/printf/printf.c         0x00000000   Number         0  printf8.o ABSOLUTE
    ../clib/microlib/printf/printf.c         0x00000000   Number         0  printfa.o ABSOLUTE
    ../clib/microlib/printf/printf.c         0x00000000   Number         0  printfb.o ABSOLUTE
    ../clib/microlib/printf/printf.c         0x00000000   Number         0  printf0.o ABSOLUTE
    ../clib/microlib/printf/printf.c         0x00000000   Number         0  printf6.o ABSOLUTE
    ../clib/microlib/printf/stubs.s          0x00000000   Number         0  stubs.o ABSOLUTE
    ../clib/microlib/stdio/streams.c         0x00000000   Number         0  stdout.o ABSOLUTE
    ../clib/microlib/string/memset.c         0x00000000   Number         0  memseta.o ABSOLUTE
    ../clib/microlib/string/strlen.c         0x00000000   Number         0  strlen.o ABSOLUTE
    ../clib/microlib/stubs.s                 0x00000000   Number         0  iusefp.o ABSOLUTE
    ../fplib/microlib/d2f.c                  0x00000000   Number         0  d2f.o ABSOLUTE
    ../fplib/microlib/f2d.c                  0x00000000   Number         0  f2d.o ABSOLUTE
    ../fplib/microlib/fpadd.c                0x00000000   Number         0  fadd.o ABSOLUTE
    ../fplib/microlib/fpadd.c                0x00000000   Number         0  dadd.o ABSOLUTE
    ../fplib/microlib/fpdiv.c                0x00000000   Number         0  fdiv.o ABSOLUTE
    ../fplib/microlib/fpdiv.c                0x00000000   Number         0  ddiv.o ABSOLUTE
    ../fplib/microlib/fpepilogue.c           0x00000000   Number         0  depilogue.o ABSOLUTE
    ../fplib/microlib/fpepilogue.c           0x00000000   Number         0  fepilogue.o ABSOLUTE
    ../fplib/microlib/fpfix.c                0x00000000   Number         0  ffixui.o ABSOLUTE
    ../fplib/microlib/fpfix.c                0x00000000   Number         0  dfixul.o ABSOLUTE
    ../fplib/microlib/fpfix.c                0x00000000   Number         0  ffixi.o ABSOLUTE
    ../fplib/microlib/fpflt.c                0x00000000   Number         0  fflti.o ABSOLUTE
    ../fplib/microlib/fpmul.c                0x00000000   Number         0  dmul.o ABSOLUTE
    ../fplib/microlib/fpmul.c                0x00000000   Number         0  fmul.o ABSOLUTE
    ..\..\Libraries\CMSIS\startup\startup_stm32f10x_hd.s 0x00000000   Number         0  startup_stm32f10x_hd.o ABSOLUTE
    ..\..\Libraries\CMSIS\system_stm32f10x.c 0x00000000   Number         0  system_stm32f10x.o ABSOLUTE
    ..\..\Libraries\FWlib\src\misc.c         0x00000000   Number         0  misc.o ABSOLUTE
    ..\..\Libraries\FWlib\src\stm32f10x_adc.c 0x00000000   Number         0  stm32f10x_adc.o ABSOLUTE
    ..\..\Libraries\FWlib\src\stm32f10x_bkp.c 0x00000000   Number         0  stm32f10x_bkp.o ABSOLUTE
    ..\..\Libraries\FWlib\src\stm32f10x_can.c 0x00000000   Number         0  stm32f10x_can.o ABSOLUTE
    ..\..\Libraries\FWlib\src\stm32f10x_cec.c 0x00000000   Number         0  stm32f10x_cec.o ABSOLUTE
    ..\..\Libraries\FWlib\src\stm32f10x_crc.c 0x00000000   Number         0  stm32f10x_crc.o ABSOLUTE
    ..\..\Libraries\FWlib\src\stm32f10x_dac.c 0x00000000   Number         0  stm32f10x_dac.o ABSOLUTE
    ..\..\Libraries\FWlib\src\stm32f10x_dbgmcu.c 0x00000000   Number         0  stm32f10x_dbgmcu.o ABSOLUTE
    ..\..\Libraries\FWlib\src\stm32f10x_dma.c 0x00000000   Number         0  stm32f10x_dma.o ABSOLUTE
    ..\..\Libraries\FWlib\src\stm32f10x_exti.c 0x00000000   Number         0  stm32f10x_exti.o ABSOLUTE
    ..\..\Libraries\FWlib\src\stm32f10x_flash.c 0x00000000   Number         0  stm32f10x_flash.o ABSOLUTE
    ..\..\Libraries\FWlib\src\stm32f10x_fsmc.c 0x00000000   Number         0  stm32f10x_fsmc.o ABSOLUTE
    ..\..\Libraries\FWlib\src\stm32f10x_gpio.c 0x00000000   Number         0  stm32f10x_gpio.o ABSOLUTE
    ..\..\Libraries\FWlib\src\stm32f10x_i2c.c 0x00000000   Number         0  stm32f10x_i2c.o ABSOLUTE
    ..\..\Libraries\FWlib\src\stm32f10x_iwdg.c 0x00000000   Number         0  stm32f10x_iwdg.o ABSOLUTE
    ..\..\Libraries\FWlib\src\stm32f10x_pwr.c 0x00000000   Number         0  stm32f10x_pwr.o ABSOLUTE
    ..\..\Libraries\FWlib\src\stm32f10x_rcc.c 0x00000000   Number         0  stm32f10x_rcc.o ABSOLUTE
    ..\..\Libraries\FWlib\src\stm32f10x_rtc.c 0x00000000   Number         0  stm32f10x_rtc.o ABSOLUTE
    ..\..\Libraries\FWlib\src\stm32f10x_sdio.c 0x00000000   Number         0  stm32f10x_sdio.o ABSOLUTE
    ..\..\Libraries\FWlib\src\stm32f10x_spi.c 0x00000000   Number         0  stm32f10x_spi.o ABSOLUTE
    ..\..\Libraries\FWlib\src\stm32f10x_tim.c 0x00000000   Number         0  stm32f10x_tim.o ABSOLUTE
    ..\..\Libraries\FWlib\src\stm32f10x_usart.c 0x00000000   Number         0  stm32f10x_usart.o ABSOLUTE
    ..\..\Libraries\FWlib\src\stm32f10x_wwdg.c 0x00000000   Number         0  stm32f10x_wwdg.o ABSOLUTE
    ..\..\User\Lcd\bsp_ili9341_lcd.c         0x00000000   Number         0  bsp_ili9341_lcd.o ABSOLUTE
    ..\..\User\flash\bsp_spi_flash.c         0x00000000   Number         0  bsp_spi_flash.o ABSOLUTE
    ..\..\User\font\fonts.c                  0x00000000   Number         0  fonts.o ABSOLUTE
    ..\..\User\lcd\bsp_xpt2046_lcd.c         0x00000000   Number         0  bsp_xpt2046_lcd.o ABSOLUTE
    ..\..\User\led\bsp_led.c                 0x00000000   Number         0  bsp_led.o ABSOLUTE
    ..\..\User\main.c                        0x00000000   Number         0  main.o ABSOLUTE
    ..\..\User\palette.c                     0x00000000   Number         0  palette.o ABSOLUTE
    ..\..\User\stm32f10x_it.c                0x00000000   Number         0  stm32f10x_it.o ABSOLUTE
    ..\..\User\usart\bsp_usart.c             0x00000000   Number         0  bsp_usart.o ABSOLUTE
    cdrcmple.s                               0x00000000   Number         0  cdrcmple.o ABSOLUTE
    cfcmple.s                                0x00000000   Number         0  cfcmple.o ABSOLUTE
    dc.s                                     0x00000000   Number         0  dc.o ABSOLUTE
    handlers.s                               0x00000000   Number         0  handlers.o ABSOLUTE
    init.s                                   0x00000000   Number         0  init.o ABSOLUTE
    RESET                                    0x08000000   Section      304  startup_stm32f10x_hd.o(RESET)
    .ARM.Collect$$$$00000000                 0x08000130   Section        0  entry.o(.ARM.Collect$$$$00000000)
    .ARM.Collect$$$$00000001                 0x08000130   Section        4  entry2.o(.ARM.Collect$$$$00000001)
    .ARM.Collect$$$$00000004                 0x08000134   Section        4  entry5.o(.ARM.Collect$$$$00000004)
    .ARM.Collect$$$$00000008                 0x08000138   Section        0  entry7b.o(.ARM.Collect$$$$00000008)
    .ARM.Collect$$$$0000000A                 0x08000138   Section        0  entry8b.o(.ARM.Collect$$$$0000000A)
    .ARM.Collect$$$$0000000B                 0x08000138   Section        8  entry9a.o(.ARM.Collect$$$$0000000B)
    .ARM.Collect$$$$0000000E                 0x08000140   Section        4  entry12b.o(.ARM.Collect$$$$0000000E)
    .ARM.Collect$$$$0000000F                 0x08000144   Section        0  entry10a.o(.ARM.Collect$$$$0000000F)
    .ARM.Collect$$$$00000011                 0x08000144   Section        0  entry11a.o(.ARM.Collect$$$$00000011)
    .ARM.Collect$$$$00002712                 0x08000144   Section        4  entry2.o(.ARM.Collect$$$$00002712)
    __lit__00000000                          0x08000144   Data           4  entry2.o(.ARM.Collect$$$$00002712)
    .text                                    0x08000148   Section       36  startup_stm32f10x_hd.o(.text)
    .text                                    0x0800016c   Section        0  memseta.o(.text)
    .text                                    0x08000190   Section        0  strlen.o(.text)
    .text                                    0x0800019e   Section        0  fadd.o(.text)
    .text                                    0x0800024e   Section        0  fmul.o(.text)
    .text                                    0x080002b2   Section        0  fdiv.o(.text)
    .text                                    0x0800032e   Section        0  dmul.o(.text)
    .text                                    0x08000412   Section        0  ddiv.o(.text)
    .text                                    0x080004f0   Section        0  fflti.o(.text)
    .text                                    0x08000502   Section        0  ffixi.o(.text)
    .text                                    0x08000534   Section        0  ffixui.o(.text)
    .text                                    0x0800055c   Section        0  f2d.o(.text)
    .text                                    0x08000582   Section        0  d2f.o(.text)
    .text                                    0x080005bc   Section       20  cfcmple.o(.text)
    .text                                    0x080005d0   Section        0  uidiv.o(.text)
    .text                                    0x080005fc   Section        0  fepilogue.o(.text)
    .text                                    0x080005fc   Section        0  iusefp.o(.text)
    .text                                    0x0800066a   Section        0  depilogue.o(.text)
    .text                                    0x08000724   Section       36  init.o(.text)
    .text                                    0x08000748   Section        0  llshl.o(.text)
    .text                                    0x08000766   Section        0  llushr.o(.text)
    i.BusFault_Handler                       0x08000786   Section        0  stm32f10x_it.o(i.BusFault_Handler)
    i.Calibrate_or_Get_TouchParaWithFlash    0x0800078c   Section        0  bsp_xpt2046_lcd.o(i.Calibrate_or_Get_TouchParaWithFlash)
    i.Command_Clear_Palette                  0x08000818   Section        0  palette.o(i.Command_Clear_Palette)
    Command_Clear_Palette                    0x08000819   Thumb Code    42  palette.o(i.Command_Clear_Palette)
    i.Command_Select_Brush                   0x0800084c   Section        0  palette.o(i.Command_Select_Brush)
    Command_Select_Brush                     0x0800084d   Thumb Code    26  palette.o(i.Command_Select_Brush)
    i.Command_Select_Color                   0x0800086c   Section        0  palette.o(i.Command_Select_Color)
    Command_Select_Color                     0x0800086d   Thumb Code    40  palette.o(i.Command_Select_Color)
    i.DebugMon_Handler                       0x08000898   Section        0  stm32f10x_it.o(i.DebugMon_Handler)
    i.Draw_Clear_Button                      0x0800089c   Section        0  palette.o(i.Draw_Clear_Button)
    Draw_Clear_Button                        0x0800089d   Thumb Code   262  palette.o(i.Draw_Clear_Button)
    i.Draw_Color_Button                      0x080009b0   Section        0  palette.o(i.Draw_Color_Button)
    Draw_Color_Button                        0x080009b1   Thumb Code   132  palette.o(i.Draw_Color_Button)
    i.Draw_Shape_Button                      0x08000a34   Section        0  palette.o(i.Draw_Shape_Button)
    Draw_Shape_Button                        0x08000a35   Thumb Code  1078  palette.o(i.Draw_Shape_Button)
    i.Draw_Trail                             0x08000e78   Section        0  palette.o(i.Draw_Trail)
    i.FSMC_NORSRAMCmd                        0x08001028   Section        0  stm32f10x_fsmc.o(i.FSMC_NORSRAMCmd)
    i.FSMC_NORSRAMInit                       0x0800105c   Section        0  stm32f10x_fsmc.o(i.FSMC_NORSRAMInit)
    i.GPIO_Init                              0x08001142   Section        0  stm32f10x_gpio.o(i.GPIO_Init)
    i.GPIO_ReadInputDataBit                  0x08001258   Section        0  stm32f10x_gpio.o(i.GPIO_ReadInputDataBit)
    i.GPIO_ResetBits                         0x0800126a   Section        0  stm32f10x_gpio.o(i.GPIO_ResetBits)
    i.GPIO_SetBits                           0x0800126e   Section        0  stm32f10x_gpio.o(i.GPIO_SetBits)
    i.GetGBKCode_from_EXFlash                0x08001274   Section        0  fonts.o(i.GetGBKCode_from_EXFlash)
    i.HardFault_Handler                      0x080012c8   Section        0  stm32f10x_it.o(i.HardFault_Handler)
    i.ILI9341_BackLed_Control                0x080012cc   Section        0  bsp_ili9341_lcd.o(i.ILI9341_BackLed_Control)
    i.ILI9341_Clear                          0x080012ec   Section        0  bsp_ili9341_lcd.o(i.ILI9341_Clear)
    i.ILI9341_Delay                          0x08001318   Section        0  bsp_ili9341_lcd.o(i.ILI9341_Delay)
    ILI9341_Delay                            0x08001319   Thumb Code    18  bsp_ili9341_lcd.o(i.ILI9341_Delay)
    i.ILI9341_DispChar_CH                    0x0800132c   Section        0  bsp_ili9341_lcd.o(i.ILI9341_DispChar_CH)
    i.ILI9341_DispChar_EN                    0x080013b0   Section        0  bsp_ili9341_lcd.o(i.ILI9341_DispChar_EN)
    i.ILI9341_DispStringLine_EN              0x08001448   Section        0  bsp_ili9341_lcd.o(i.ILI9341_DispStringLine_EN)
    i.ILI9341_DispString_EN_CH               0x080014b0   Section        0  bsp_ili9341_lcd.o(i.ILI9341_DispString_EN_CH)
    i.ILI9341_DrawCircle                     0x08001564   Section        0  bsp_ili9341_lcd.o(i.ILI9341_DrawCircle)
    i.ILI9341_DrawCross                      0x0800169c   Section        0  bsp_xpt2046_lcd.o(i.ILI9341_DrawCross)
    ILI9341_DrawCross                        0x0800169d   Thumb Code    44  bsp_xpt2046_lcd.o(i.ILI9341_DrawCross)
    i.ILI9341_DrawLine                       0x080016c8   Section        0  bsp_ili9341_lcd.o(i.ILI9341_DrawLine)
    i.ILI9341_DrawRectangle                  0x08001768   Section        0  bsp_ili9341_lcd.o(i.ILI9341_DrawRectangle)
    i.ILI9341_FSMC_Config                    0x080017f0   Section        0  bsp_ili9341_lcd.o(i.ILI9341_FSMC_Config)
    ILI9341_FSMC_Config                      0x080017f1   Thumb Code   114  bsp_ili9341_lcd.o(i.ILI9341_FSMC_Config)
    i.ILI9341_FillColor                      0x08001862   Section        0  bsp_ili9341_lcd.o(i.ILI9341_FillColor)
    ILI9341_FillColor                        0x08001863   Thumb Code    32  bsp_ili9341_lcd.o(i.ILI9341_FillColor)
    i.ILI9341_GPIO_Config                    0x08001884   Section        0  bsp_ili9341_lcd.o(i.ILI9341_GPIO_Config)
    ILI9341_GPIO_Config                      0x08001885   Thumb Code   400  bsp_ili9341_lcd.o(i.ILI9341_GPIO_Config)
    i.ILI9341_GramScan                       0x08001a20   Section        0  bsp_ili9341_lcd.o(i.ILI9341_GramScan)
    i.ILI9341_Init                           0x08001b00   Section        0  bsp_ili9341_lcd.o(i.ILI9341_Init)
    i.ILI9341_OpenWindow                     0x08001b28   Section        0  bsp_ili9341_lcd.o(i.ILI9341_OpenWindow)
    i.ILI9341_REG_Config                     0x08001b88   Section        0  bsp_ili9341_lcd.o(i.ILI9341_REG_Config)
    ILI9341_REG_Config                       0x08001b89   Thumb Code  1098  bsp_ili9341_lcd.o(i.ILI9341_REG_Config)
    i.ILI9341_ReadID                         0x08001fd8   Section        0  bsp_ili9341_lcd.o(i.ILI9341_ReadID)
    i.ILI9341_Read_Data                      0x0800204c   Section        0  bsp_ili9341_lcd.o(i.ILI9341_Read_Data)
    i.ILI9341_Rst                            0x08002054   Section        0  bsp_ili9341_lcd.o(i.ILI9341_Rst)
    i.ILI9341_SetCursor                      0x08002080   Section        0  bsp_ili9341_lcd.o(i.ILI9341_SetCursor)
    ILI9341_SetCursor                        0x08002081   Thumb Code    20  bsp_ili9341_lcd.o(i.ILI9341_SetCursor)
    i.ILI9341_SetPointPixel                  0x08002094   Section        0  bsp_ili9341_lcd.o(i.ILI9341_SetPointPixel)
    i.ILI9341_Write_Cmd                      0x080020cc   Section        0  bsp_ili9341_lcd.o(i.ILI9341_Write_Cmd)
    i.ILI9341_Write_Data                     0x080020d4   Section        0  bsp_ili9341_lcd.o(i.ILI9341_Write_Data)
    i.LCD_DrawUniLineCircle                  0x080020dc   Section        0  palette.o(i.LCD_DrawUniLineCircle)
    LCD_DrawUniLineCircle                    0x080020dd   Thumb Code   346  palette.o(i.LCD_DrawUniLineCircle)
    i.LCD_GetFont                            0x08002240   Section        0  bsp_ili9341_lcd.o(i.LCD_GetFont)
    i.LCD_SetBackColor                       0x0800224c   Section        0  bsp_ili9341_lcd.o(i.LCD_SetBackColor)
    i.LCD_SetColors                          0x08002258   Section        0  bsp_ili9341_lcd.o(i.LCD_SetColors)
    i.LCD_SetFont                            0x0800226c   Section        0  bsp_ili9341_lcd.o(i.LCD_SetFont)
    i.LCD_SetTextColor                       0x08002278   Section        0  bsp_ili9341_lcd.o(i.LCD_SetTextColor)
    i.LED_GPIO_Config                        0x08002284   Section        0  bsp_led.o(i.LED_GPIO_Config)
    i.MemManage_Handler                      0x080022e4   Section        0  stm32f10x_it.o(i.MemManage_Handler)
    i.NMI_Handler                            0x080022e8   Section        0  stm32f10x_it.o(i.NMI_Handler)
    i.Palette_Init                           0x080022ec   Section        0  palette.o(i.Palette_Init)
    i.PendSV_Handler                         0x08002358   Section        0  stm32f10x_it.o(i.PendSV_Handler)
    i.RCC_AHBPeriphClockCmd                  0x0800235c   Section        0  stm32f10x_rcc.o(i.RCC_AHBPeriphClockCmd)
    i.RCC_APB2PeriphClockCmd                 0x0800237c   Section        0  stm32f10x_rcc.o(i.RCC_APB2PeriphClockCmd)
    i.RCC_GetClocksFreq                      0x0800239c   Section        0  stm32f10x_rcc.o(i.RCC_GetClocksFreq)
    i.SPI_Cmd                                0x08002470   Section        0  stm32f10x_spi.o(i.SPI_Cmd)
    i.SPI_FLASH_BufferRead                   0x08002488   Section        0  bsp_spi_flash.o(i.SPI_FLASH_BufferRead)
    i.SPI_FLASH_BufferWrite                  0x080024d8   Section        0  bsp_spi_flash.o(i.SPI_FLASH_BufferWrite)
    i.SPI_FLASH_Init                         0x080025fc   Section        0  bsp_spi_flash.o(i.SPI_FLASH_Init)
    i.SPI_FLASH_PageWrite                    0x080026b8   Section        0  bsp_spi_flash.o(i.SPI_FLASH_PageWrite)
    i.SPI_FLASH_SectorErase                  0x08002754   Section        0  bsp_spi_flash.o(i.SPI_FLASH_SectorErase)
    i.SPI_FLASH_SendByte                     0x08002798   Section        0  bsp_spi_flash.o(i.SPI_FLASH_SendByte)
    i.SPI_FLASH_WaitForWriteEnd              0x08002810   Section        0  bsp_spi_flash.o(i.SPI_FLASH_WaitForWriteEnd)
    i.SPI_FLASH_WriteEnable                  0x08002844   Section        0  bsp_spi_flash.o(i.SPI_FLASH_WriteEnable)
    i.SPI_I2S_GetFlagStatus                  0x08002864   Section        0  stm32f10x_spi.o(i.SPI_I2S_GetFlagStatus)
    i.SPI_I2S_ReceiveData                    0x08002876   Section        0  stm32f10x_spi.o(i.SPI_I2S_ReceiveData)
    i.SPI_I2S_SendData                       0x0800287c   Section        0  stm32f10x_spi.o(i.SPI_I2S_SendData)
    i.SPI_Init                               0x08002880   Section        0  stm32f10x_spi.o(i.SPI_Init)
    i.SPI_TIMEOUT_UserCallback               0x080028bc   Section        0  bsp_spi_flash.o(i.SPI_TIMEOUT_UserCallback)
    SPI_TIMEOUT_UserCallback                 0x080028bd   Thumb Code    16  bsp_spi_flash.o(i.SPI_TIMEOUT_UserCallback)
    i.SVC_Handler                            0x080028fc   Section        0  stm32f10x_it.o(i.SVC_Handler)
    i.SetSysClock                            0x080028fe   Section        0  system_stm32f10x.o(i.SetSysClock)
    SetSysClock                              0x080028ff   Thumb Code     8  system_stm32f10x.o(i.SetSysClock)
    i.SetSysClockTo72                        0x08002908   Section        0  system_stm32f10x.o(i.SetSysClockTo72)
    SetSysClockTo72                          0x08002909   Thumb Code   214  system_stm32f10x.o(i.SetSysClockTo72)
    i.SysTick_Handler                        0x080029e8   Section        0  stm32f10x_it.o(i.SysTick_Handler)
    i.SystemInit                             0x080029ec   Section        0  system_stm32f10x.o(i.SystemInit)
    i.Touch_Button_Down                      0x08002a4c   Section        0  palette.o(i.Touch_Button_Down)
    i.Touch_Button_Init                      0x08002b04   Section        0  palette.o(i.Touch_Button_Init)
    i.Touch_Button_Up                        0x08002e38   Section        0  palette.o(i.Touch_Button_Up)
    i.USART_Cmd                              0x08002ec8   Section        0  stm32f10x_usart.o(i.USART_Cmd)
    i.USART_Config                           0x08002ee0   Section        0  bsp_usart.o(i.USART_Config)
    i.USART_GetFlagStatus                    0x08002f60   Section        0  stm32f10x_usart.o(i.USART_GetFlagStatus)
    i.USART_Init                             0x08002f7c   Section        0  stm32f10x_usart.o(i.USART_Init)
    i.USART_SendData                         0x08003054   Section        0  stm32f10x_usart.o(i.USART_SendData)
    i.UsageFault_Handler                     0x0800305c   Section        0  stm32f10x_it.o(i.UsageFault_Handler)
    i.XPT2046_Calculate_CalibrationFactor    0x08003060   Section        0  bsp_xpt2046_lcd.o(i.XPT2046_Calculate_CalibrationFactor)
    XPT2046_Calculate_CalibrationFactor      0x08003061   Thumb Code   478  bsp_xpt2046_lcd.o(i.XPT2046_Calculate_CalibrationFactor)
    i.XPT2046_DelayUS                        0x0800323e   Section        0  bsp_xpt2046_lcd.o(i.XPT2046_DelayUS)
    XPT2046_DelayUS                          0x0800323f   Thumb Code    30  bsp_xpt2046_lcd.o(i.XPT2046_DelayUS)
    i.XPT2046_Get_TouchedPoint               0x0800325c   Section        0  bsp_xpt2046_lcd.o(i.XPT2046_Get_TouchedPoint)
    i.XPT2046_Init                           0x08003348   Section        0  bsp_xpt2046_lcd.o(i.XPT2046_Init)
    i.XPT2046_ReadAdc                        0x080033e0   Section        0  bsp_xpt2046_lcd.o(i.XPT2046_ReadAdc)
    XPT2046_ReadAdc                          0x080033e1   Thumb Code    16  bsp_xpt2046_lcd.o(i.XPT2046_ReadAdc)
    i.XPT2046_ReadAdc_Smooth_XY              0x080033f0   Section        0  bsp_xpt2046_lcd.o(i.XPT2046_ReadAdc_Smooth_XY)
    XPT2046_ReadAdc_Smooth_XY                0x080033f1   Thumb Code   340  bsp_xpt2046_lcd.o(i.XPT2046_ReadAdc_Smooth_XY)
    i.XPT2046_ReadAdc_XY                     0x0800354c   Section        0  bsp_xpt2046_lcd.o(i.XPT2046_ReadAdc_XY)
    XPT2046_ReadAdc_XY                       0x0800354d   Thumb Code    38  bsp_xpt2046_lcd.o(i.XPT2046_ReadAdc_XY)
    i.XPT2046_ReadCMD                        0x08003574   Section        0  bsp_xpt2046_lcd.o(i.XPT2046_ReadCMD)
    XPT2046_ReadCMD                          0x08003575   Thumb Code    76  bsp_xpt2046_lcd.o(i.XPT2046_ReadCMD)
    i.XPT2046_TouchDetect                    0x080035c8   Section        0  bsp_xpt2046_lcd.o(i.XPT2046_TouchDetect)
    i.XPT2046_TouchDown                      0x0800367c   Section        0  bsp_xpt2046_lcd.o(i.XPT2046_TouchDown)
    i.XPT2046_TouchEvenHandler               0x080036c0   Section        0  bsp_xpt2046_lcd.o(i.XPT2046_TouchEvenHandler)
    i.XPT2046_TouchUp                        0x08003730   Section        0  bsp_xpt2046_lcd.o(i.XPT2046_TouchUp)
    i.XPT2046_Touch_Calibrate                0x08003758   Section        0  bsp_xpt2046_lcd.o(i.XPT2046_Touch_Calibrate)
    i.XPT2046_WriteCMD                       0x08003c4c   Section        0  bsp_xpt2046_lcd.o(i.XPT2046_WriteCMD)
    XPT2046_WriteCMD                         0x08003c4d   Thumb Code   100  bsp_xpt2046_lcd.o(i.XPT2046_WriteCMD)
    i.__0printf$6                            0x08003cb8   Section        0  printf6.o(i.__0printf$6)
    i.__0sprintf$6                           0x08003cd8   Section        0  printf6.o(i.__0sprintf$6)
    i.__scatterload_copy                     0x08003d00   Section       14  handlers.o(i.__scatterload_copy)
    i.__scatterload_null                     0x08003d0e   Section        2  handlers.o(i.__scatterload_null)
    i.__scatterload_zeroinit                 0x08003d10   Section       14  handlers.o(i.__scatterload_zeroinit)
    i._printf_core                           0x08003d20   Section        0  printf6.o(i._printf_core)
    _printf_core                             0x08003d21   Thumb Code   748  printf6.o(i._printf_core)
    i._printf_post_padding                   0x08004010   Section        0  printf6.o(i._printf_post_padding)
    _printf_post_padding                     0x08004011   Thumb Code    36  printf6.o(i._printf_post_padding)
    i._printf_pre_padding                    0x08004034   Section        0  printf6.o(i._printf_pre_padding)
    _printf_pre_padding                      0x08004035   Thumb Code    46  printf6.o(i._printf_pre_padding)
    i._sputc                                 0x08004062   Section        0  printf6.o(i._sputc)
    _sputc                                   0x08004063   Thumb Code    10  printf6.o(i._sputc)
    i.fputc                                  0x0800406c   Section        0  bsp_usart.o(i.fputc)
    i.main                                   0x08004090   Section        0  main.o(i.main)
    .constdata                               0x08004100   Section    15200  fonts.o(.constdata)
    .conststring                             0x08007c60   Section       85  main.o(.conststring)
    .data                                    0x20000000   Section       20  stm32f10x_rcc.o(.data)
    APBAHBPrescTable                         0x20000000   Data          16  stm32f10x_rcc.o(.data)
    ADCPrescTable                            0x20000010   Data           4  stm32f10x_rcc.o(.data)
    .data                                    0x20000014   Section        4  bsp_spi_flash.o(.data)
    SPITimeout                               0x20000014   Data           4  bsp_spi_flash.o(.data)
    .data                                    0x20000018   Section       16  bsp_ili9341_lcd.o(.data)
    LCD_Currentfonts                         0x20000020   Data           4  bsp_ili9341_lcd.o(.data)
    CurrentTextColor                         0x20000024   Data           2  bsp_ili9341_lcd.o(.data)
    CurrentBackColor                         0x20000026   Data           2  bsp_ili9341_lcd.o(.data)
    .data                                    0x20000028   Section      208  bsp_xpt2046_lcd.o(.data)
    touch_state                              0x200000e9   Data           1  bsp_xpt2046_lcd.o(.data)
    i                                        0x200000ec   Data           4  bsp_xpt2046_lcd.o(.data)
    cinfo                                    0x200000f0   Data           8  bsp_xpt2046_lcd.o(.data)
    .data                                    0x200000f8   Section       25  fonts.o(.data)
    everRead                                 0x20000110   Data           1  fonts.o(.data)
    .data                                    0x20000114   Section        8  palette.o(.data)
    .data                                    0x2000011c   Section        4  stdout.o(.data)
    .bss                                     0x20000120   Section      384  palette.o(.bss)
    STACK                                    0x200002a0   Section     4096  startup_stm32f10x_hd.o(STACK)

    Global Symbols

    Symbol Name                              Value     Ov Type        Size  Object(Section)

    BuildAttributes$$THM_ISAv4$P$D$K$B$S$PE$A:L22UL41UL21$X:L11$S22US41US21$IEEE1$IW$USESV6$~STKCKD$USESV7$~SHL$OTIME$ROPI$EBA8$MICROLIB$REQ8$PRES8$EABIv2 0x00000000   Number         0  anon$$obj.o ABSOLUTE
    __ARM_use_no_argv                        0x00000000   Number         0  main.o ABSOLUTE
    _printf_a                                0x00000000   Number         0  stubs.o ABSOLUTE
    _printf_c                                0x00000000   Number         0  stubs.o ABSOLUTE
    _printf_charcount                        0x00000000   Number         0  stubs.o ABSOLUTE
    _printf_d                                0x00000000   Number         0  stubs.o ABSOLUTE
    _printf_e                                0x00000000   Number         0  stubs.o ABSOLUTE
    _printf_f                                0x00000000   Number         0  stubs.o ABSOLUTE
    _printf_flags                            0x00000000   Number         0  stubs.o ABSOLUTE
    _printf_fp_dec                           0x00000000   Number         0  stubs.o ABSOLUTE
    _printf_fp_hex                           0x00000000   Number         0  stubs.o ABSOLUTE
    _printf_g                                0x00000000   Number         0  stubs.o ABSOLUTE
    _printf_i                                0x00000000   Number         0  stubs.o ABSOLUTE
    _printf_int_dec                          0x00000000   Number         0  stubs.o ABSOLUTE
    _printf_l                                0x00000000   Number         0  stubs.o ABSOLUTE
    _printf_lc                               0x00000000   Number         0  stubs.o ABSOLUTE
    _printf_ll                               0x00000000   Number         0  stubs.o ABSOLUTE
    _printf_lld                              0x00000000   Number         0  stubs.o ABSOLUTE
    _printf_lli                              0x00000000   Number         0  stubs.o ABSOLUTE
    _printf_llo                              0x00000000   Number         0  stubs.o ABSOLUTE
    _printf_llu                              0x00000000   Number         0  stubs.o ABSOLUTE
    _printf_llx                              0x00000000   Number         0  stubs.o ABSOLUTE
    _printf_longlong_dec                     0x00000000   Number         0  stubs.o ABSOLUTE
    _printf_longlong_hex                     0x00000000   Number         0  stubs.o ABSOLUTE
    _printf_longlong_oct                     0x00000000   Number         0  stubs.o ABSOLUTE
    _printf_ls                               0x00000000   Number         0  stubs.o ABSOLUTE
    _printf_mbtowc                           0x00000000   Number         0  stubs.o ABSOLUTE
    _printf_n                                0x00000000   Number         0  stubs.o ABSOLUTE
    _printf_o                                0x00000000   Number         0  stubs.o ABSOLUTE
    _printf_p                                0x00000000   Number         0  stubs.o ABSOLUTE
    _printf_percent                          0x00000000   Number         0  stubs.o ABSOLUTE
    _printf_pre_padding                      0x00000000   Number         0  stubs.o ABSOLUTE
    _printf_return_value                     0x00000000   Number         0  stubs.o ABSOLUTE
    _printf_s                                0x00000000   Number         0  stubs.o ABSOLUTE
    _printf_sizespec                         0x00000000   Number         0  stubs.o ABSOLUTE
    _printf_str                              0x00000000   Number         0  stubs.o ABSOLUTE
    _printf_truncate_signed                  0x00000000   Number         0  stubs.o ABSOLUTE
    _printf_truncate_unsigned                0x00000000   Number         0  stubs.o ABSOLUTE
    _printf_u                                0x00000000   Number         0  stubs.o ABSOLUTE
    _printf_wc                               0x00000000   Number         0  stubs.o ABSOLUTE
    _printf_wctomb                           0x00000000   Number         0  stubs.o ABSOLUTE
    _printf_widthprec                        0x00000000   Number         0  stubs.o ABSOLUTE
    _printf_x                                0x00000000   Number         0  stubs.o ABSOLUTE
    __arm_fini_                               - Undefined Weak Reference
    __cpp_initialize__aeabi_                  - Undefined Weak Reference
    __cxa_finalize                            - Undefined Weak Reference
    __decompress                              - Undefined Weak Reference
    _clock_init                               - Undefined Weak Reference
    _microlib_exit                            - Undefined Weak Reference
    __Vectors_Size                           0x00000130   Number         0  startup_stm32f10x_hd.o ABSOLUTE
    __Vectors                                0x08000000   Data           4  startup_stm32f10x_hd.o(RESET)
    __Vectors_End                            0x08000130   Data           0  startup_stm32f10x_hd.o(RESET)
    __main                                   0x08000131   Thumb Code     0  entry.o(.ARM.Collect$$$$00000000)
    _main_stk                                0x08000131   Thumb Code     0  entry2.o(.ARM.Collect$$$$00000001)
    _main_scatterload                        0x08000135   Thumb Code     0  entry5.o(.ARM.Collect$$$$00000004)
    __main_after_scatterload                 0x08000139   Thumb Code     0  entry5.o(.ARM.Collect$$$$00000004)
    _main_clock                              0x08000139   Thumb Code     0  entry7b.o(.ARM.Collect$$$$00000008)
    _main_cpp_init                           0x08000139   Thumb Code     0  entry8b.o(.ARM.Collect$$$$0000000A)
    _main_init                               0x08000139   Thumb Code     0  entry9a.o(.ARM.Collect$$$$0000000B)
    __rt_lib_shutdown_fini                   0x08000141   Thumb Code     0  entry12b.o(.ARM.Collect$$$$0000000E)
    __rt_final_cpp                           0x08000145   Thumb Code     0  entry10a.o(.ARM.Collect$$$$0000000F)
    __rt_final_exit                          0x08000145   Thumb Code     0  entry11a.o(.ARM.Collect$$$$00000011)
    Reset_Handler                            0x08000149   Thumb Code     8  startup_stm32f10x_hd.o(.text)
    ADC1_2_IRQHandler                        0x08000163   Thumb Code     0  startup_stm32f10x_hd.o(.text)
    ADC3_IRQHandler                          0x08000163   Thumb Code     0  startup_stm32f10x_hd.o(.text)
    CAN1_RX1_IRQHandler                      0x08000163   Thumb Code     0  startup_stm32f10x_hd.o(.text)
    CAN1_SCE_IRQHandler                      0x08000163   Thumb Code     0  startup_stm32f10x_hd.o(.text)
    DMA1_Channel1_IRQHandler                 0x08000163   Thumb Code     0  startup_stm32f10x_hd.o(.text)
    DMA1_Channel2_IRQHandler                 0x08000163   Thumb Code     0  startup_stm32f10x_hd.o(.text)
    DMA1_Channel3_IRQHandler                 0x08000163   Thumb Code     0  startup_stm32f10x_hd.o(.text)
    DMA1_Channel4_IRQHandler                 0x08000163   Thumb Code     0  startup_stm32f10x_hd.o(.text)
    DMA1_Channel5_IRQHandler                 0x08000163   Thumb Code     0  startup_stm32f10x_hd.o(.text)
    DMA1_Channel6_IRQHandler                 0x08000163   Thumb Code     0  startup_stm32f10x_hd.o(.text)
    DMA1_Channel7_IRQHandler                 0x08000163   Thumb Code     0  startup_stm32f10x_hd.o(.text)
    DMA2_Channel1_IRQHandler                 0x08000163   Thumb Code     0  startup_stm32f10x_hd.o(.text)
    DMA2_Channel2_IRQHandler                 0x08000163   Thumb Code     0  startup_stm32f10x_hd.o(.text)
    DMA2_Channel3_IRQHandler                 0x08000163   Thumb Code     0  startup_stm32f10x_hd.o(.text)
    DMA2_Channel4_5_IRQHandler               0x08000163   Thumb Code     0  startup_stm32f10x_hd.o(.text)
    EXTI0_IRQHandler                         0x08000163   Thumb Code     0  startup_stm32f10x_hd.o(.text)
    EXTI15_10_IRQHandler                     0x08000163   Thumb Code     0  startup_stm32f10x_hd.o(.text)
    EXTI1_IRQHandler                         0x08000163   Thumb Code     0  startup_stm32f10x_hd.o(.text)
    EXTI2_IRQHandler                         0x08000163   Thumb Code     0  startup_stm32f10x_hd.o(.text)
    EXTI3_IRQHandler                         0x08000163   Thumb Code     0  startup_stm32f10x_hd.o(.text)
    EXTI4_IRQHandler                         0x08000163   Thumb Code     0  startup_stm32f10x_hd.o(.text)
    EXTI9_5_IRQHandler                       0x08000163   Thumb Code     0  startup_stm32f10x_hd.o(.text)
    FLASH_IRQHandler                         0x08000163   Thumb Code     0  startup_stm32f10x_hd.o(.text)
    FSMC_IRQHandler                          0x08000163   Thumb Code     0  startup_stm32f10x_hd.o(.text)
    I2C1_ER_IRQHandler                       0x08000163   Thumb Code     0  startup_stm32f10x_hd.o(.text)
    I2C1_EV_IRQHandler                       0x08000163   Thumb Code     0  startup_stm32f10x_hd.o(.text)
    I2C2_ER_IRQHandler                       0x08000163   Thumb Code     0  startup_stm32f10x_hd.o(.text)
    I2C2_EV_IRQHandler                       0x08000163   Thumb Code     0  startup_stm32f10x_hd.o(.text)
    PVD_IRQHandler                           0x08000163   Thumb Code     0  startup_stm32f10x_hd.o(.text)
    RCC_IRQHandler                           0x08000163   Thumb Code     0  startup_stm32f10x_hd.o(.text)
    RTCAlarm_IRQHandler                      0x08000163   Thumb Code     0  startup_stm32f10x_hd.o(.text)
    RTC_IRQHandler                           0x08000163   Thumb Code     0  startup_stm32f10x_hd.o(.text)
    SDIO_IRQHandler                          0x08000163   Thumb Code     0  startup_stm32f10x_hd.o(.text)
    SPI1_IRQHandler                          0x08000163   Thumb Code     0  startup_stm32f10x_hd.o(.text)
    SPI2_IRQHandler                          0x08000163   Thumb Code     0  startup_stm32f10x_hd.o(.text)
    SPI3_IRQHandler                          0x08000163   Thumb Code     0  startup_stm32f10x_hd.o(.text)
    TAMPER_IRQHandler                        0x08000163   Thumb Code     0  startup_stm32f10x_hd.o(.text)
    TIM1_BRK_IRQHandler                      0x08000163   Thumb Code     0  startup_stm32f10x_hd.o(.text)
    TIM1_CC_IRQHandler                       0x08000163   Thumb Code     0  startup_stm32f10x_hd.o(.text)
    TIM1_TRG_COM_IRQHandler                  0x08000163   Thumb Code     0  startup_stm32f10x_hd.o(.text)
    TIM1_UP_IRQHandler                       0x08000163   Thumb Code     0  startup_stm32f10x_hd.o(.text)
    TIM2_IRQHandler                          0x08000163   Thumb Code     0  startup_stm32f10x_hd.o(.text)
    TIM3_IRQHandler                          0x08000163   Thumb Code     0  startup_stm32f10x_hd.o(.text)
    TIM4_IRQHandler                          0x08000163   Thumb Code     0  startup_stm32f10x_hd.o(.text)
    TIM5_IRQHandler                          0x08000163   Thumb Code     0  startup_stm32f10x_hd.o(.text)
    TIM6_IRQHandler                          0x08000163   Thumb Code     0  startup_stm32f10x_hd.o(.text)
    TIM7_IRQHandler                          0x08000163   Thumb Code     0  startup_stm32f10x_hd.o(.text)
    TIM8_BRK_IRQHandler                      0x08000163   Thumb Code     0  startup_stm32f10x_hd.o(.text)
    TIM8_CC_IRQHandler                       0x08000163   Thumb Code     0  startup_stm32f10x_hd.o(.text)
    TIM8_TRG_COM_IRQHandler                  0x08000163   Thumb Code     0  startup_stm32f10x_hd.o(.text)
    TIM8_UP_IRQHandler                       0x08000163   Thumb Code     0  startup_stm32f10x_hd.o(.text)
    UART4_IRQHandler                         0x08000163   Thumb Code     0  startup_stm32f10x_hd.o(.text)
    UART5_IRQHandler                         0x08000163   Thumb Code     0  startup_stm32f10x_hd.o(.text)
    USART1_IRQHandler                        0x08000163   Thumb Code     0  startup_stm32f10x_hd.o(.text)
    USART2_IRQHandler                        0x08000163   Thumb Code     0  startup_stm32f10x_hd.o(.text)
    USART3_IRQHandler                        0x08000163   Thumb Code     0  startup_stm32f10x_hd.o(.text)
    USBWakeUp_IRQHandler                     0x08000163   Thumb Code     0  startup_stm32f10x_hd.o(.text)
    USB_HP_CAN1_TX_IRQHandler                0x08000163   Thumb Code     0  startup_stm32f10x_hd.o(.text)
    USB_LP_CAN1_RX0_IRQHandler               0x08000163   Thumb Code     0  startup_stm32f10x_hd.o(.text)
    WWDG_IRQHandler                          0x08000163   Thumb Code     0  startup_stm32f10x_hd.o(.text)
    __aeabi_memset                           0x0800016d   Thumb Code    14  memseta.o(.text)
    __aeabi_memset4                          0x0800016d   Thumb Code     0  memseta.o(.text)
    __aeabi_memset8                          0x0800016d   Thumb Code     0  memseta.o(.text)
    __aeabi_memclr                           0x0800017b   Thumb Code     4  memseta.o(.text)
    __aeabi_memclr4                          0x0800017b   Thumb Code     0  memseta.o(.text)
    __aeabi_memclr8                          0x0800017b   Thumb Code     0  memseta.o(.text)
    _memset$wrapper                          0x0800017f   Thumb Code    18  memseta.o(.text)
    strlen                                   0x08000191   Thumb Code    14  strlen.o(.text)
    __aeabi_fadd                             0x0800019f   Thumb Code   164  fadd.o(.text)
    __aeabi_fsub                             0x08000243   Thumb Code     6  fadd.o(.text)
    __aeabi_frsub                            0x08000249   Thumb Code     6  fadd.o(.text)
    __aeabi_fmul                             0x0800024f   Thumb Code   100  fmul.o(.text)
    __aeabi_fdiv                             0x080002b3   Thumb Code   124  fdiv.o(.text)
    __aeabi_dmul                             0x0800032f   Thumb Code   228  dmul.o(.text)
    __aeabi_ddiv                             0x08000413   Thumb Code   222  ddiv.o(.text)
    __aeabi_i2f                              0x080004f1   Thumb Code    18  fflti.o(.text)
    __aeabi_f2iz                             0x08000503   Thumb Code    50  ffixi.o(.text)
    __aeabi_f2uiz                            0x08000535   Thumb Code    40  ffixui.o(.text)
    __aeabi_f2d                              0x0800055d   Thumb Code    38  f2d.o(.text)
    __aeabi_d2f                              0x08000583   Thumb Code    56  d2f.o(.text)
    __aeabi_cfcmpeq                          0x080005bd   Thumb Code     0  cfcmple.o(.text)
    __aeabi_cfcmple                          0x080005bd   Thumb Code    20  cfcmple.o(.text)
    __aeabi_uidiv                            0x080005d1   Thumb Code     0  uidiv.o(.text)
    __aeabi_uidivmod                         0x080005d1   Thumb Code    44  uidiv.o(.text)
    __I$use$fp                               0x080005fd   Thumb Code     0  iusefp.o(.text)
    _float_round                             0x080005fd   Thumb Code    18  fepilogue.o(.text)
    _float_epilogue                          0x0800060f   Thumb Code    92  fepilogue.o(.text)
    _double_round                            0x0800066b   Thumb Code    30  depilogue.o(.text)
    _double_epilogue                         0x08000689   Thumb Code   156  depilogue.o(.text)
    __scatterload                            0x08000725   Thumb Code    28  init.o(.text)
    __scatterload_rt2                        0x08000725   Thumb Code     0  init.o(.text)
    __aeabi_llsl                             0x08000749   Thumb Code    30  llshl.o(.text)
    _ll_shift_l                              0x08000749   Thumb Code     0  llshl.o(.text)
    __aeabi_llsr                             0x08000767   Thumb Code    32  llushr.o(.text)
    _ll_ushift_r                             0x08000767   Thumb Code     0  llushr.o(.text)
    BusFault_Handler                         0x08000787   Thumb Code     4  stm32f10x_it.o(i.BusFault_Handler)
    Calibrate_or_Get_TouchParaWithFlash      0x0800078d   Thumb Code   134  bsp_xpt2046_lcd.o(i.Calibrate_or_Get_TouchParaWithFlash)
    DebugMon_Handler                         0x08000899   Thumb Code     2  stm32f10x_it.o(i.DebugMon_Handler)
    Draw_Trail                               0x08000e79   Thumb Code   424  palette.o(i.Draw_Trail)
    FSMC_NORSRAMCmd                          0x08001029   Thumb Code    46  stm32f10x_fsmc.o(i.FSMC_NORSRAMCmd)
    FSMC_NORSRAMInit                         0x0800105d   Thumb Code   230  stm32f10x_fsmc.o(i.FSMC_NORSRAMInit)
    GPIO_Init                                0x08001143   Thumb Code   278  stm32f10x_gpio.o(i.GPIO_Init)
    GPIO_ReadInputDataBit                    0x08001259   Thumb Code    18  stm32f10x_gpio.o(i.GPIO_ReadInputDataBit)
    GPIO_ResetBits                           0x0800126b   Thumb Code     4  stm32f10x_gpio.o(i.GPIO_ResetBits)
    GPIO_SetBits                             0x0800126f   Thumb Code     4  stm32f10x_gpio.o(i.GPIO_SetBits)
    GetGBKCode_from_EXFlash                  0x08001275   Thumb Code    74  fonts.o(i.GetGBKCode_from_EXFlash)
    HardFault_Handler                        0x080012c9   Thumb Code     4  stm32f10x_it.o(i.HardFault_Handler)
    ILI9341_BackLed_Control                  0x080012cd   Thumb Code    26  bsp_ili9341_lcd.o(i.ILI9341_BackLed_Control)
    ILI9341_Clear                            0x080012ed   Thumb Code    40  bsp_ili9341_lcd.o(i.ILI9341_Clear)
    ILI9341_DispChar_CH                      0x0800132d   Thumb Code   122  bsp_ili9341_lcd.o(i.ILI9341_DispChar_CH)
    ILI9341_DispChar_EN                      0x080013b1   Thumb Code   138  bsp_ili9341_lcd.o(i.ILI9341_DispChar_EN)
    ILI9341_DispStringLine_EN                0x08001449   Thumb Code    92  bsp_ili9341_lcd.o(i.ILI9341_DispStringLine_EN)
    ILI9341_DispString_EN_CH                 0x080014b1   Thumb Code   168  bsp_ili9341_lcd.o(i.ILI9341_DispString_EN_CH)
    ILI9341_DrawCircle                       0x08001565   Thumb Code   312  bsp_ili9341_lcd.o(i.ILI9341_DrawCircle)
    ILI9341_DrawLine                         0x080016c9   Thumb Code   160  bsp_ili9341_lcd.o(i.ILI9341_DrawLine)
    ILI9341_DrawRectangle                    0x08001769   Thumb Code   132  bsp_ili9341_lcd.o(i.ILI9341_DrawRectangle)
    ILI9341_GramScan                         0x08001a21   Thumb Code   208  bsp_ili9341_lcd.o(i.ILI9341_GramScan)
    ILI9341_Init                             0x08001b01   Thumb Code    34  bsp_ili9341_lcd.o(i.ILI9341_Init)
    ILI9341_OpenWindow                       0x08001b29   Thumb Code    96  bsp_ili9341_lcd.o(i.ILI9341_OpenWindow)
    ILI9341_ReadID                           0x08001fd9   Thumb Code   116  bsp_ili9341_lcd.o(i.ILI9341_ReadID)
    ILI9341_Read_Data                        0x0800204d   Thumb Code     8  bsp_ili9341_lcd.o(i.ILI9341_Read_Data)
    ILI9341_Rst                              0x08002055   Thumb Code    40  bsp_ili9341_lcd.o(i.ILI9341_Rst)
    ILI9341_SetPointPixel                    0x08002095   Thumb Code    42  bsp_ili9341_lcd.o(i.ILI9341_SetPointPixel)
    ILI9341_Write_Cmd                        0x080020cd   Thumb Code     8  bsp_ili9341_lcd.o(i.ILI9341_Write_Cmd)
    ILI9341_Write_Data                       0x080020d5   Thumb Code     8  bsp_ili9341_lcd.o(i.ILI9341_Write_Data)
    LCD_GetFont                              0x08002241   Thumb Code     6  bsp_ili9341_lcd.o(i.LCD_GetFont)
    LCD_SetBackColor                         0x0800224d   Thumb Code     6  bsp_ili9341_lcd.o(i.LCD_SetBackColor)
    LCD_SetColors                            0x08002259   Thumb Code    10  bsp_ili9341_lcd.o(i.LCD_SetColors)
    LCD_SetFont                              0x0800226d   Thumb Code     6  bsp_ili9341_lcd.o(i.LCD_SetFont)
    LCD_SetTextColor                         0x08002279   Thumb Code     6  bsp_ili9341_lcd.o(i.LCD_SetTextColor)
    LED_GPIO_Config                          0x08002285   Thumb Code    90  bsp_led.o(i.LED_GPIO_Config)
    MemManage_Handler                        0x080022e5   Thumb Code     4  stm32f10x_it.o(i.MemManage_Handler)
    NMI_Handler                              0x080022e9   Thumb Code     2  stm32f10x_it.o(i.NMI_Handler)
    Palette_Init                             0x080022ed   Thumb Code    90  palette.o(i.Palette_Init)
    PendSV_Handler                           0x08002359   Thumb Code     2  stm32f10x_it.o(i.PendSV_Handler)
    RCC_AHBPeriphClockCmd                    0x0800235d   Thumb Code    26  stm32f10x_rcc.o(i.RCC_AHBPeriphClockCmd)
    RCC_APB2PeriphClockCmd                   0x0800237d   Thumb Code    26  stm32f10x_rcc.o(i.RCC_APB2PeriphClockCmd)
    RCC_GetClocksFreq                        0x0800239d   Thumb Code   192  stm32f10x_rcc.o(i.RCC_GetClocksFreq)
    SPI_Cmd                                  0x08002471   Thumb Code    24  stm32f10x_spi.o(i.SPI_Cmd)
    SPI_FLASH_BufferRead                     0x08002489   Thumb Code    76  bsp_spi_flash.o(i.SPI_FLASH_BufferRead)
    SPI_FLASH_BufferWrite                    0x080024d9   Thumb Code   290  bsp_spi_flash.o(i.SPI_FLASH_BufferWrite)
    SPI_FLASH_Init                           0x080025fd   Thumb Code   178  bsp_spi_flash.o(i.SPI_FLASH_Init)
    SPI_FLASH_PageWrite                      0x080026b9   Thumb Code    98  bsp_spi_flash.o(i.SPI_FLASH_PageWrite)
    SPI_FLASH_SectorErase                    0x08002755   Thumb Code    62  bsp_spi_flash.o(i.SPI_FLASH_SectorErase)
    SPI_FLASH_SendByte                       0x08002799   Thumb Code   110  bsp_spi_flash.o(i.SPI_FLASH_SendByte)
    SPI_FLASH_WaitForWriteEnd                0x08002811   Thumb Code    46  bsp_spi_flash.o(i.SPI_FLASH_WaitForWriteEnd)
    SPI_FLASH_WriteEnable                    0x08002845   Thumb Code    26  bsp_spi_flash.o(i.SPI_FLASH_WriteEnable)
    SPI_I2S_GetFlagStatus                    0x08002865   Thumb Code    18  stm32f10x_spi.o(i.SPI_I2S_GetFlagStatus)
    SPI_I2S_ReceiveData                      0x08002877   Thumb Code     6  stm32f10x_spi.o(i.SPI_I2S_ReceiveData)
    SPI_I2S_SendData                         0x0800287d   Thumb Code     4  stm32f10x_spi.o(i.SPI_I2S_SendData)
    SPI_Init                                 0x08002881   Thumb Code    60  stm32f10x_spi.o(i.SPI_Init)
    SVC_Handler                              0x080028fd   Thumb Code     2  stm32f10x_it.o(i.SVC_Handler)
    SysTick_Handler                          0x080029e9   Thumb Code     2  stm32f10x_it.o(i.SysTick_Handler)
    SystemInit                               0x080029ed   Thumb Code    78  system_stm32f10x.o(i.SystemInit)
    Touch_Button_Down                        0x08002a4d   Thumb Code   178  palette.o(i.Touch_Button_Down)
    Touch_Button_Init                        0x08002b05   Thumb Code   788  palette.o(i.Touch_Button_Init)
    Touch_Button_Up                          0x08002e39   Thumb Code   138  palette.o(i.Touch_Button_Up)
    USART_Cmd                                0x08002ec9   Thumb Code    24  stm32f10x_usart.o(i.USART_Cmd)
    USART_Config                             0x08002ee1   Thumb Code   120  bsp_usart.o(i.USART_Config)
    USART_GetFlagStatus                      0x08002f61   Thumb Code    26  stm32f10x_usart.o(i.USART_GetFlagStatus)
    USART_Init                               0x08002f7d   Thumb Code   210  stm32f10x_usart.o(i.USART_Init)
    USART_SendData                           0x08003055   Thumb Code     8  stm32f10x_usart.o(i.USART_SendData)
    UsageFault_Handler                       0x0800305d   Thumb Code     4  stm32f10x_it.o(i.UsageFault_Handler)
    XPT2046_Get_TouchedPoint                 0x0800325d   Thumb Code   232  bsp_xpt2046_lcd.o(i.XPT2046_Get_TouchedPoint)
    XPT2046_Init                             0x08003349   Thumb Code   142  bsp_xpt2046_lcd.o(i.XPT2046_Init)
    XPT2046_TouchDetect                      0x080035c9   Thumb Code   168  bsp_xpt2046_lcd.o(i.XPT2046_TouchDetect)
    XPT2046_TouchDown                        0x0800367d   Thumb Code    62  bsp_xpt2046_lcd.o(i.XPT2046_TouchDown)
    XPT2046_TouchEvenHandler                 0x080036c1   Thumb Code   100  bsp_xpt2046_lcd.o(i.XPT2046_TouchEvenHandler)
    XPT2046_TouchUp                          0x08003731   Thumb Code    38  bsp_xpt2046_lcd.o(i.XPT2046_TouchUp)
    XPT2046_Touch_Calibrate                  0x08003759   Thumb Code  1242  bsp_xpt2046_lcd.o(i.XPT2046_Touch_Calibrate)
    __0printf$6                              0x08003cb9   Thumb Code    22  printf6.o(i.__0printf$6)
    __1printf$6                              0x08003cb9   Thumb Code     0  printf6.o(i.__0printf$6)
    __2printf                                0x08003cb9   Thumb Code     0  printf6.o(i.__0printf$6)
    __0sprintf$6                             0x08003cd9   Thumb Code    34  printf6.o(i.__0sprintf$6)
    __1sprintf$6                             0x08003cd9   Thumb Code     0  printf6.o(i.__0sprintf$6)
    __2sprintf                               0x08003cd9   Thumb Code     0  printf6.o(i.__0sprintf$6)
    __scatterload_copy                       0x08003d01   Thumb Code    14  handlers.o(i.__scatterload_copy)
    __scatterload_null                       0x08003d0f   Thumb Code     2  handlers.o(i.__scatterload_null)
    __scatterload_zeroinit                   0x08003d11   Thumb Code    14  handlers.o(i.__scatterload_zeroinit)
    fputc                                    0x0800406d   Thumb Code    32  bsp_usart.o(i.fputc)
    main                                     0x08004091   Thumb Code    58  main.o(i.main)
    ASCII8x16_Table                          0x08004100   Data        1520  fonts.o(.constdata)
    ASCII16x24_Table                         0x080046f0   Data        4560  fonts.o(.constdata)
    ASCII24x32_Table                         0x080058c0   Data        9120  fonts.o(.constdata)
    Region$$Table$$Base                      0x08007cb8   Number         0  anon$$obj.o(Region$$Table)
    Region$$Table$$Limit                     0x08007cd8   Number         0  anon$$obj.o(Region$$Table)
    LCD_X_LENGTH                             0x20000018   Data           2  bsp_ili9341_lcd.o(.data)
    LCD_Y_LENGTH                             0x2000001a   Data           2  bsp_ili9341_lcd.o(.data)
    LCD_SCAN_MODE                            0x2000001c   Data           1  bsp_ili9341_lcd.o(.data)
    lcdid                                    0x2000001e   Data           2  bsp_ili9341_lcd.o(.data)
    strXPT2046_TouchPara                     0x20000028   Data         192  bsp_xpt2046_lcd.o(.data)
    ucXPT2046_TouchFlag                      0x200000e8   Data           1  bsp_xpt2046_lcd.o(.data)
    Font8x16                                 0x200000f8   Data           8  fonts.o(.data)
    Font16x24                                0x20000100   Data           8  fonts.o(.data)
    Font24x32                                0x20000108   Data           8  fonts.o(.data)
    brush                                    0x20000114   Data           8  palette.o(.data)
    __stdout                                 0x2000011c   Data           4  stdout.o(.data)
    button                                   0x20000120   Data         384  palette.o(.bss)
    __initial_sp                             0x200012a0   Data           0  startup_stm32f10x_hd.o(STACK)



==============================================================================

Memory Map of the image

  Image Entry point : 0x08000131

  Load Region LR_IROM1 (Base: 0x08000000, Size: 0x00007df8, Max: 0x00080000, ABSOLUTE)

    Execution Region ER_IROM1 (Exec base: 0x08000000, Load base: 0x08000000, Size: 0x00007cd8, Max: 0x00080000, ABSOLUTE)

    Exec Addr    Load Addr    Size         Type   Attr      Idx    E Section Name        Object

    0x08000000   0x08000000   0x00000130   Data   RO            3    RESET               startup_stm32f10x_hd.o
    0x08000130   0x08000130   0x00000000   Code   RO         3812  * .ARM.Collect$$$$00000000  mc_w.l(entry.o)
    0x08000130   0x08000130   0x00000004   Code   RO         4102    .ARM.Collect$$$$00000001  mc_w.l(entry2.o)
    0x08000134   0x08000134   0x00000004   Code   RO         4105    .ARM.Collect$$$$00000004  mc_w.l(entry5.o)
    0x08000138   0x08000138   0x00000000   Code   RO         4107    .ARM.Collect$$$$00000008  mc_w.l(entry7b.o)
    0x08000138   0x08000138   0x00000000   Code   RO         4109    .ARM.Collect$$$$0000000A  mc_w.l(entry8b.o)
    0x08000138   0x08000138   0x00000008   Code   RO         4110    .ARM.Collect$$$$0000000B  mc_w.l(entry9a.o)
    0x08000140   0x08000140   0x00000004   Code   RO         4117    .ARM.Collect$$$$0000000E  mc_w.l(entry12b.o)
    0x08000144   0x08000144   0x00000000   Code   RO         4112    .ARM.Collect$$$$0000000F  mc_w.l(entry10a.o)
    0x08000144   0x08000144   0x00000000   Code   RO         4114    .ARM.Collect$$$$00000011  mc_w.l(entry11a.o)
    0x08000144   0x08000144   0x00000004   Code   RO         4103    .ARM.Collect$$$$00002712  mc_w.l(entry2.o)
    0x08000148   0x08000148   0x00000024   Code   RO            4    .text               startup_stm32f10x_hd.o
    0x0800016c   0x0800016c   0x00000024   Code   RO         3815    .text               mc_w.l(memseta.o)
    0x08000190   0x08000190   0x0000000e   Code   RO         3817    .text               mc_w.l(strlen.o)
    0x0800019e   0x0800019e   0x000000b0   Code   RO         4080    .text               mf_w.l(fadd.o)
    0x0800024e   0x0800024e   0x00000064   Code   RO         4082    .text               mf_w.l(fmul.o)
    0x080002b2   0x080002b2   0x0000007c   Code   RO         4084    .text               mf_w.l(fdiv.o)
    0x0800032e   0x0800032e   0x000000e4   Code   RO         4086    .text               mf_w.l(dmul.o)
    0x08000412   0x08000412   0x000000de   Code   RO         4088    .text               mf_w.l(ddiv.o)
    0x080004f0   0x080004f0   0x00000012   Code   RO         4090    .text               mf_w.l(fflti.o)
    0x08000502   0x08000502   0x00000032   Code   RO         4092    .text               mf_w.l(ffixi.o)
    0x08000534   0x08000534   0x00000028   Code   RO         4094    .text               mf_w.l(ffixui.o)
    0x0800055c   0x0800055c   0x00000026   Code   RO         4096    .text               mf_w.l(f2d.o)
    0x08000582   0x08000582   0x00000038   Code   RO         4098    .text               mf_w.l(d2f.o)
    0x080005ba   0x080005ba   0x00000002   PAD
    0x080005bc   0x080005bc   0x00000014   Code   RO         4100    .text               mf_w.l(cfcmple.o)
    0x080005d0   0x080005d0   0x0000002c   Code   RO         4119    .text               mc_w.l(uidiv.o)
    0x080005fc   0x080005fc   0x00000000   Code   RO         4123    .text               mc_w.l(iusefp.o)
    0x080005fc   0x080005fc   0x0000006e   Code   RO         4124    .text               mf_w.l(fepilogue.o)
    0x0800066a   0x0800066a   0x000000ba   Code   RO         4126    .text               mf_w.l(depilogue.o)
    0x08000724   0x08000724   0x00000024   Code   RO         4134    .text               mc_w.l(init.o)
    0x08000748   0x08000748   0x0000001e   Code   RO         4136    .text               mc_w.l(llshl.o)
    0x08000766   0x08000766   0x00000020   Code   RO         4138    .text               mc_w.l(llushr.o)
    0x08000786   0x08000786   0x00000004   Code   RO         3143    i.BusFault_Handler  stm32f10x_it.o
    0x0800078a   0x0800078a   0x00000002   PAD
    0x0800078c   0x0800078c   0x0000008c   Code   RO         3615    i.Calibrate_or_Get_TouchParaWithFlash  bsp_xpt2046_lcd.o
    0x08000818   0x08000818   0x00000034   Code   RO         3734    i.Command_Clear_Palette  palette.o
    0x0800084c   0x0800084c   0x00000020   Code   RO         3735    i.Command_Select_Brush  palette.o
    0x0800086c   0x0800086c   0x0000002c   Code   RO         3736    i.Command_Select_Color  palette.o
    0x08000898   0x08000898   0x00000002   Code   RO         3144    i.DebugMon_Handler  stm32f10x_it.o
    0x0800089a   0x0800089a   0x00000002   PAD
    0x0800089c   0x0800089c   0x00000114   Code   RO         3737    i.Draw_Clear_Button  palette.o
    0x080009b0   0x080009b0   0x00000084   Code   RO         3738    i.Draw_Color_Button  palette.o
    0x08000a34   0x08000a34   0x00000444   Code   RO         3739    i.Draw_Shape_Button  palette.o
    0x08000e78   0x08000e78   0x000001b0   Code   RO         3740    i.Draw_Trail        palette.o
    0x08001028   0x08001028   0x00000034   Code   RO         1167    i.FSMC_NORSRAMCmd   stm32f10x_fsmc.o
    0x0800105c   0x0800105c   0x000000e6   Code   RO         1169    i.FSMC_NORSRAMInit  stm32f10x_fsmc.o
    0x08001142   0x08001142   0x00000116   Code   RO         1282    i.GPIO_Init         stm32f10x_gpio.o
    0x08001258   0x08001258   0x00000012   Code   RO         1286    i.GPIO_ReadInputDataBit  stm32f10x_gpio.o
    0x0800126a   0x0800126a   0x00000004   Code   RO         1289    i.GPIO_ResetBits    stm32f10x_gpio.o
    0x0800126e   0x0800126e   0x00000004   Code   RO         1290    i.GPIO_SetBits      stm32f10x_gpio.o
    0x08001272   0x08001272   0x00000002   PAD
    0x08001274   0x08001274   0x00000054   Code   RO         3715    i.GetGBKCode_from_EXFlash  fonts.o
    0x080012c8   0x080012c8   0x00000004   Code   RO         3145    i.HardFault_Handler  stm32f10x_it.o
    0x080012cc   0x080012cc   0x00000020   Code   RO         3351    i.ILI9341_BackLed_Control  bsp_ili9341_lcd.o
    0x080012ec   0x080012ec   0x0000002c   Code   RO         3352    i.ILI9341_Clear     bsp_ili9341_lcd.o
    0x08001318   0x08001318   0x00000012   Code   RO         3353    i.ILI9341_Delay     bsp_ili9341_lcd.o
    0x0800132a   0x0800132a   0x00000002   PAD
    0x0800132c   0x0800132c   0x00000084   Code   RO         3354    i.ILI9341_DispChar_CH  bsp_ili9341_lcd.o
    0x080013b0   0x080013b0   0x00000098   Code   RO         3355    i.ILI9341_DispChar_EN  bsp_ili9341_lcd.o
    0x08001448   0x08001448   0x00000068   Code   RO         3356    i.ILI9341_DispStringLine_EN  bsp_ili9341_lcd.o
    0x080014b0   0x080014b0   0x000000b4   Code   RO         3360    i.ILI9341_DispString_EN_CH  bsp_ili9341_lcd.o
    0x08001564   0x08001564   0x00000138   Code   RO         3366    i.ILI9341_DrawCircle  bsp_ili9341_lcd.o
    0x0800169c   0x0800169c   0x0000002c   Code   RO         3616    i.ILI9341_DrawCross  bsp_xpt2046_lcd.o
    0x080016c8   0x080016c8   0x000000a0   Code   RO         3367    i.ILI9341_DrawLine  bsp_ili9341_lcd.o
    0x08001768   0x08001768   0x00000088   Code   RO         3368    i.ILI9341_DrawRectangle  bsp_ili9341_lcd.o
    0x080017f0   0x080017f0   0x00000072   Code   RO         3369    i.ILI9341_FSMC_Config  bsp_ili9341_lcd.o
    0x08001862   0x08001862   0x00000020   Code   RO         3370    i.ILI9341_FillColor  bsp_ili9341_lcd.o
    0x08001882   0x08001882   0x00000002   PAD
    0x08001884   0x08001884   0x0000019c   Code   RO         3371    i.ILI9341_GPIO_Config  bsp_ili9341_lcd.o
    0x08001a20   0x08001a20   0x000000e0   Code   RO         3373    i.ILI9341_GramScan  bsp_ili9341_lcd.o
    0x08001b00   0x08001b00   0x00000028   Code   RO         3374    i.ILI9341_Init      bsp_ili9341_lcd.o
    0x08001b28   0x08001b28   0x00000060   Code   RO         3375    i.ILI9341_OpenWindow  bsp_ili9341_lcd.o
    0x08001b88   0x08001b88   0x00000450   Code   RO         3376    i.ILI9341_REG_Config  bsp_ili9341_lcd.o
    0x08001fd8   0x08001fd8   0x00000074   Code   RO         3377    i.ILI9341_ReadID    bsp_ili9341_lcd.o
    0x0800204c   0x0800204c   0x00000008   Code   RO         3595    i.ILI9341_Read_Data  bsp_ili9341_lcd.o
    0x08002054   0x08002054   0x0000002c   Code   RO         3379    i.ILI9341_Rst       bsp_ili9341_lcd.o
    0x08002080   0x08002080   0x00000014   Code   RO         3380    i.ILI9341_SetCursor  bsp_ili9341_lcd.o
    0x08002094   0x08002094   0x00000038   Code   RO         3381    i.ILI9341_SetPointPixel  bsp_ili9341_lcd.o
    0x080020cc   0x080020cc   0x00000008   Code   RO         3585    i.ILI9341_Write_Cmd  bsp_ili9341_lcd.o
    0x080020d4   0x080020d4   0x00000008   Code   RO         3590    i.ILI9341_Write_Data  bsp_ili9341_lcd.o
    0x080020dc   0x080020dc   0x00000164   Code   RO         3741    i.LCD_DrawUniLineCircle  palette.o
    0x08002240   0x08002240   0x0000000c   Code   RO         3385    i.LCD_GetFont       bsp_ili9341_lcd.o
    0x0800224c   0x0800224c   0x0000000c   Code   RO         3386    i.LCD_SetBackColor  bsp_ili9341_lcd.o
    0x08002258   0x08002258   0x00000014   Code   RO         3387    i.LCD_SetColors     bsp_ili9341_lcd.o
    0x0800226c   0x0800226c   0x0000000c   Code   RO         3388    i.LCD_SetFont       bsp_ili9341_lcd.o
    0x08002278   0x08002278   0x0000000c   Code   RO         3389    i.LCD_SetTextColor  bsp_ili9341_lcd.o
    0x08002284   0x08002284   0x00000060   Code   RO         3230    i.LED_GPIO_Config   bsp_led.o
    0x080022e4   0x080022e4   0x00000004   Code   RO         3146    i.MemManage_Handler  stm32f10x_it.o
    0x080022e8   0x080022e8   0x00000002   Code   RO         3147    i.NMI_Handler       stm32f10x_it.o
    0x080022ea   0x080022ea   0x00000002   PAD
    0x080022ec   0x080022ec   0x0000006c   Code   RO         3742    i.Palette_Init      palette.o
    0x08002358   0x08002358   0x00000002   Code   RO         3148    i.PendSV_Handler    stm32f10x_it.o
    0x0800235a   0x0800235a   0x00000002   PAD
    0x0800235c   0x0800235c   0x00000020   Code   RO         1697    i.RCC_AHBPeriphClockCmd  stm32f10x_rcc.o
    0x0800237c   0x0800237c   0x00000020   Code   RO         1700    i.RCC_APB2PeriphClockCmd  stm32f10x_rcc.o
    0x0800239c   0x0800239c   0x000000d4   Code   RO         1708    i.RCC_GetClocksFreq  stm32f10x_rcc.o
    0x08002470   0x08002470   0x00000018   Code   RO         2177    i.SPI_Cmd           stm32f10x_spi.o
    0x08002488   0x08002488   0x00000050   Code   RO         3242    i.SPI_FLASH_BufferRead  bsp_spi_flash.o
    0x080024d8   0x080024d8   0x00000122   Code   RO         3243    i.SPI_FLASH_BufferWrite  bsp_spi_flash.o
    0x080025fa   0x080025fa   0x00000002   PAD
    0x080025fc   0x080025fc   0x000000bc   Code   RO         3245    i.SPI_FLASH_Init    bsp_spi_flash.o
    0x080026b8   0x080026b8   0x0000009c   Code   RO         3246    i.SPI_FLASH_PageWrite  bsp_spi_flash.o
    0x08002754   0x08002754   0x00000044   Code   RO         3250    i.SPI_FLASH_SectorErase  bsp_spi_flash.o
    0x08002798   0x08002798   0x00000078   Code   RO         3251    i.SPI_FLASH_SendByte  bsp_spi_flash.o
    0x08002810   0x08002810   0x00000034   Code   RO         3254    i.SPI_FLASH_WaitForWriteEnd  bsp_spi_flash.o
    0x08002844   0x08002844   0x00000020   Code   RO         3255    i.SPI_FLASH_WriteEnable  bsp_spi_flash.o
    0x08002864   0x08002864   0x00000012   Code   RO         2185    i.SPI_I2S_GetFlagStatus  stm32f10x_spi.o
    0x08002876   0x08002876   0x00000006   Code   RO         2188    i.SPI_I2S_ReceiveData  stm32f10x_spi.o
    0x0800287c   0x0800287c   0x00000004   Code   RO         2189    i.SPI_I2S_SendData  stm32f10x_spi.o
    0x08002880   0x08002880   0x0000003c   Code   RO         2190    i.SPI_Init          stm32f10x_spi.o
    0x080028bc   0x080028bc   0x00000040   Code   RO         3258    i.SPI_TIMEOUT_UserCallback  bsp_spi_flash.o
    0x080028fc   0x080028fc   0x00000002   Code   RO         3149    i.SVC_Handler       stm32f10x_it.o
    0x080028fe   0x080028fe   0x00000008   Code   RO           10    i.SetSysClock       system_stm32f10x.o
    0x08002906   0x08002906   0x00000002   PAD
    0x08002908   0x08002908   0x000000e0   Code   RO           11    i.SetSysClockTo72   system_stm32f10x.o
    0x080029e8   0x080029e8   0x00000002   Code   RO         3150    i.SysTick_Handler   stm32f10x_it.o
    0x080029ea   0x080029ea   0x00000002   PAD
    0x080029ec   0x080029ec   0x00000060   Code   RO           13    i.SystemInit        system_stm32f10x.o
    0x08002a4c   0x08002a4c   0x000000b8   Code   RO         3743    i.Touch_Button_Down  palette.o
    0x08002b04   0x08002b04   0x00000334   Code   RO         3744    i.Touch_Button_Init  palette.o
    0x08002e38   0x08002e38   0x00000090   Code   RO         3745    i.Touch_Button_Up   palette.o
    0x08002ec8   0x08002ec8   0x00000018   Code   RO         2868    i.USART_Cmd         stm32f10x_usart.o
    0x08002ee0   0x08002ee0   0x00000080   Code   RO         3206    i.USART_Config      bsp_usart.o
    0x08002f60   0x08002f60   0x0000001a   Code   RO         2871    i.USART_GetFlagStatus  stm32f10x_usart.o
    0x08002f7a   0x08002f7a   0x00000002   PAD
    0x08002f7c   0x08002f7c   0x000000d8   Code   RO         2875    i.USART_Init        stm32f10x_usart.o
    0x08003054   0x08003054   0x00000008   Code   RO         2885    i.USART_SendData    stm32f10x_usart.o
    0x0800305c   0x0800305c   0x00000004   Code   RO         3151    i.UsageFault_Handler  stm32f10x_it.o
    0x08003060   0x08003060   0x000001de   Code   RO         3617    i.XPT2046_Calculate_CalibrationFactor  bsp_xpt2046_lcd.o
    0x0800323e   0x0800323e   0x0000001e   Code   RO         3618    i.XPT2046_DelayUS   bsp_xpt2046_lcd.o
    0x0800325c   0x0800325c   0x000000ec   Code   RO         3619    i.XPT2046_Get_TouchedPoint  bsp_xpt2046_lcd.o
    0x08003348   0x08003348   0x00000098   Code   RO         3620    i.XPT2046_Init      bsp_xpt2046_lcd.o
    0x080033e0   0x080033e0   0x00000010   Code   RO         3621    i.XPT2046_ReadAdc   bsp_xpt2046_lcd.o
    0x080033f0   0x080033f0   0x0000015c   Code   RO         3622    i.XPT2046_ReadAdc_Smooth_XY  bsp_xpt2046_lcd.o
    0x0800354c   0x0800354c   0x00000026   Code   RO         3623    i.XPT2046_ReadAdc_XY  bsp_xpt2046_lcd.o
    0x08003572   0x08003572   0x00000002   PAD
    0x08003574   0x08003574   0x00000054   Code   RO         3624    i.XPT2046_ReadCMD   bsp_xpt2046_lcd.o
    0x080035c8   0x080035c8   0x000000b4   Code   RO         3625    i.XPT2046_TouchDetect  bsp_xpt2046_lcd.o
    0x0800367c   0x0800367c   0x00000044   Code   RO         3626    i.XPT2046_TouchDown  bsp_xpt2046_lcd.o
    0x080036c0   0x080036c0   0x00000070   Code   RO         3627    i.XPT2046_TouchEvenHandler  bsp_xpt2046_lcd.o
    0x08003730   0x08003730   0x00000026   Code   RO         3628    i.XPT2046_TouchUp   bsp_xpt2046_lcd.o
    0x08003756   0x08003756   0x00000002   PAD
    0x08003758   0x08003758   0x000004f4   Code   RO         3629    i.XPT2046_Touch_Calibrate  bsp_xpt2046_lcd.o
    0x08003c4c   0x08003c4c   0x0000006c   Code   RO         3630    i.XPT2046_WriteCMD  bsp_xpt2046_lcd.o
    0x08003cb8   0x08003cb8   0x00000020   Code   RO         3974    i.__0printf$6       mc_w.l(printf6.o)
    0x08003cd8   0x08003cd8   0x00000028   Code   RO         3976    i.__0sprintf$6      mc_w.l(printf6.o)
    0x08003d00   0x08003d00   0x0000000e   Code   RO         4144    i.__scatterload_copy  mc_w.l(handlers.o)
    0x08003d0e   0x08003d0e   0x00000002   Code   RO         4145    i.__scatterload_null  mc_w.l(handlers.o)
    0x08003d10   0x08003d10   0x0000000e   Code   RO         4146    i.__scatterload_zeroinit  mc_w.l(handlers.o)
    0x08003d1e   0x08003d1e   0x00000002   PAD
    0x08003d20   0x08003d20   0x000002f0   Code   RO         3981    i._printf_core      mc_w.l(printf6.o)
    0x08004010   0x08004010   0x00000024   Code   RO         3982    i._printf_post_padding  mc_w.l(printf6.o)
    0x08004034   0x08004034   0x0000002e   Code   RO         3983    i._printf_pre_padding  mc_w.l(printf6.o)
    0x08004062   0x08004062   0x0000000a   Code   RO         3985    i._sputc            mc_w.l(printf6.o)
    0x0800406c   0x0800406c   0x00000024   Code   RO         3208    i.fputc             bsp_usart.o
    0x08004090   0x08004090   0x00000070   Code   RO         3098    i.main              main.o
    0x08004100   0x08004100   0x00003b60   Data   RO         3716    .constdata          fonts.o
    0x08007c60   0x08007c60   0x00000055   Data   RO         3099    .conststring        main.o
    0x08007cb5   0x08007cb5   0x00000003   PAD
    0x08007cb8   0x08007cb8   0x00000020   Data   RO         4142    Region$$Table       anon$$obj.o


    Execution Region RW_IRAM1 (Exec base: 0x20000000, Load base: 0x08007cd8, Size: 0x000012a0, Max: 0x00010000, ABSOLUTE)

    Exec Addr    Load Addr    Size         Type   Attr      Idx    E Section Name        Object

    0x20000000   0x08007cd8   0x00000014   Data   RW         1728    .data               stm32f10x_rcc.o
    0x20000014   0x08007cec   0x00000004   Data   RW         3259    .data               bsp_spi_flash.o
    0x20000018   0x08007cf0   0x00000010   Data   RW         3391    .data               bsp_ili9341_lcd.o
    0x20000028   0x08007d00   0x000000d0   Data   RW         3631    .data               bsp_xpt2046_lcd.o
    0x200000f8   0x08007dd0   0x00000019   Data   RW         3717    .data               fonts.o
    0x20000111   0x08007de9   0x00000003   PAD
    0x20000114   0x08007dec   0x00000008   Data   RW         3747    .data               palette.o
    0x2000011c   0x08007df4   0x00000004   Data   RW         4118    .data               mc_w.l(stdout.o)
    0x20000120        -       0x00000180   Zero   RW         3746    .bss                palette.o
    0x200002a0        -       0x00001000   Zero   RW            1    STACK               startup_stm32f10x_hd.o


==============================================================================

Image component sizes


      Code (inc. data)   RO Data    RW Data    ZI Data      Debug   Object Name

      3620        164          0         16          0      22068   bsp_ili9341_lcd.o
        96          6          0          0          0        578   bsp_led.o
      1050        148          0          4          0       6903   bsp_spi_flash.o
       164         12          0          0          0       1275   bsp_usart.o
      3340        204          0        208          0      14996   bsp_xpt2046_lcd.o
        84         10      15200         25          0       2407   fonts.o
       112         54         85          0          0       2542   main.o
      3672        148          0          8        384      10933   palette.o
        36          8        304          0       4096        900   startup_stm32f10x_hd.o
       282          6          0          0          0       1965   stm32f10x_fsmc.o
       304          0          0          0          0       3904   stm32f10x_gpio.o
        26          0          0          0          0       4310   stm32f10x_it.o
       276         32          0         20          0       4681   stm32f10x_rcc.o
       112          0          0          0          0       4130   stm32f10x_spi.o
       274          6          0          0          0       4264   stm32f10x_usart.o
       328         28          0          0          0     248173   system_stm32f10x.o

    ----------------------------------------------------------------------
     13802        826      15624        284       4480     334029   Object Totals
         0          0         32          0          0          0   (incl. Generated)
        26          0          3          3          0          0   (incl. Padding)

    ----------------------------------------------------------------------

      Code (inc. data)   RO Data    RW Data    ZI Data      Debug   Library Member Name

         0          0          0          0          0          0   entry.o
         0          0          0          0          0          0   entry10a.o
         0          0          0          0          0          0   entry11a.o
         4          0          0          0          0          0   entry12b.o
         8          4          0          0          0          0   entry2.o
         4          0          0          0          0          0   entry5.o
         0          0          0          0          0          0   entry7b.o
         0          0          0          0          0          0   entry8b.o
         8          4          0          0          0          0   entry9a.o
        30          0          0          0          0          0   handlers.o
        36          8          0          0          0         68   init.o
         0          0          0          0          0          0   iusefp.o
        30          0          0          0          0         68   llshl.o
        32          0          0          0          0         68   llushr.o
        36          0          0          0          0        108   memseta.o
       916         20          0          0          0        504   printf6.o
         0          0          0          4          0          0   stdout.o
        14          0          0          0          0         68   strlen.o
        44          0          0          0          0         80   uidiv.o
        20          0          0          0          0         68   cfcmple.o
        56          0          0          0          0         88   d2f.o
       222          0          0          0          0        100   ddiv.o
       186          0          0          0          0        176   depilogue.o
       228          0          0          0          0         96   dmul.o
        38          0          0          0          0         68   f2d.o
       176          0          0          0          0        140   fadd.o
       124          0          0          0          0         88   fdiv.o
       110          0          0          0          0        168   fepilogue.o
        50          0          0          0          0         68   ffixi.o
        40          0          0          0          0         68   ffixui.o
        18          0          0          0          0         68   fflti.o
       100          0          0          0          0         76   fmul.o

    ----------------------------------------------------------------------
      2534         36          0          4          0       2236   Library Totals
         4          0          0          0          0          0   (incl. Padding)

    ----------------------------------------------------------------------

      Code (inc. data)   RO Data    RW Data    ZI Data      Debug   Library Name

      1162         36          0          4          0        964   mc_w.l
      1368          0          0          0          0       1272   mf_w.l

    ----------------------------------------------------------------------
      2534         36          0          4          0       2236   Library Totals

    ----------------------------------------------------------------------

==============================================================================


      Code (inc. data)   RO Data    RW Data    ZI Data      Debug   

     16336        862      15624        288       4480     330229   Grand Totals
     16336        862      15624        288       4480     330229   ELF Image Totals
     16336        862      15624        288          0          0   ROM Totals

==============================================================================

    Total RO  Size (Code + RO Data)                31960 (  31.21kB)
    Total RW  Size (RW Data + ZI Data)              4768 (   4.66kB)
    Total ROM Size (Code + RO Data + RW Data)      32248 (  31.49kB)

==============================================================================

