:020000040800F2
:10000000B8290020490100089D1700089F17000823
:10001000A3170008A7170008AB170008000000008E
:10002000000000000000000000000000AF17000802
:10003000B117000800000000B3170008B51700084A
:100040006301000863010008630100086301000800
:1000500063010008630100086301000863010008F0
:1000600063010008630100086301000863010008E0
:1000700063010008630100086301000863010008D0
:1000800063010008630100086301000863010008C0
:1000900063010008630100086301000863010008B0
:1000A00063010008630100086301000863010008A0
:1000B0006301000863010008630100086301000890
:1000C0006301000863010008630100086301000880
:1000D0006301000863010008630100086301000870
:1000E0006301000863010008630100086301000860
:1000F0006301000863010008630100086301000850
:1001000063010008B71700086301000863010008D5
:10011000630100086301000863010008630100082F
:10012000630100086301000863010008630100081F
:10013000DFF810D006F058F90048004759130008BE
:10014000AFF30080B82900200648804706480047E2
:10015000FEE7FEE7FEE7FEE7FEE7FEE7FEE7FEE777
:10016000FEE7FEE74B020008310100080CB5002055
:10017000019000906C48006840F480306A49086043
:1001800000BF6948006800F4003000900198401CEE
:100190000190009818B90198B0F5A06FF1D16248AC
:1001A000006800F4003010B10120009001E0002050
:1001B00000900098012843D15C48006840F010008E
:1001C0005A4908600846006820F0030008600846A5
:1001D000006840F002000860534840685249486097
:1001E0000846406848600846406840F480604860BF
:1001F0000846406820F47C1048600846406840F497
:10020000E81048600846006840F08070086000BF51
:100210004548006800F000700028F9D04248406866
:1002200020F00300404948600846406840F0020062
:10023000486000BF3C48406800F00C000828F9D135
:100240000CBD10B5FFF792FF10BD10B53648006821
:1002500040F00100344908600846406834490840CD
:100260003149486008460068324908402E49086014
:100270000846006820F4802008600846406820F4A2
:10028000FE0048604FF41F008860FFF7DAFF4FF070
:1002900000602949086010BD10B50021002000222F
:1002A000214B5B6803F00C0121B1042906D0082919
:1002B00028D107E0214B224C236027E01F4B204C24
:1002C000236023E0184B5B6803F47010164B5B68E7
:1002D00003F48032022303EB904022B9194B4343CD
:1002E000174C23600DE0104B5B6803F4003323B11F
:1002F000144B4343124C236003E0104B4343104C18
:10030000236003E00D4B0E4C236000BF00BF064B83
:100310005B68C3F303130C4CE15C094B1B68CB40D7
:10032000074C236010BD0000001002400020024076
:100330000000FFF8FFFFF6FE08ED00E000127A0073
:100340000000002000093D00040000203149014365
:10035000314A1160704770B5002100230F22C47824
:1003600004B32D4C246804F4E064C4F5E064210A6D
:10037000C1F10403CA40447804FA03F184781440BC
:1003800021430901254C0678A155047804F01F0586
:100390000124AC4005786D11AD0005F1E025C5F8EC
:1003A000004109E0047804F01F050124AC401C4D15
:1003B0000678761145F8264070BD1A4A0A40024375
:1003C000154B1B1F1A60704739B1134A121D126872
:1003D0000243114B1B1D1A6006E00F4A121D1268E2
:1003E00082430D4B1B1D1A607047042808D14FF043
:1003F000E021096941F004014FF0E022116107E0BA
:100400004FF0E021096921F004014FF0E022116171
:10041000704700000000FA050CED00E000E400E089
:1004200080E100E080FFFF1F01684FF6FE7211407F
:1004300001600021016041608160C1608D49884296
:1004400008D18C490839496841F00F01894A083AB6
:1004500051608AE087491431884208D185490839BA
:10046000496841F0F001834A083A51607DE08149D2
:100470002831884208D17F490839496841F47061C0
:100480007C4A083A516070E07A493C31884208D190
:1004900078490839496841F47041764A083A516010
:1004A00063E074495031884208D17249083949687B
:1004B00041F470216F4A083A516056E06D49643149
:1004C000884208D16B490839496841F47001694A8A
:1004D000083A516049E067497831884208D1654956
:1004E0000839496841F07061624A083A51603CE05D
:1004F0006149884206D1011F096841F00F01021FBE
:10050000116032E05C491431884208D15A49091F10
:10051000096841F0F001584A121F116025E0564960
:100520002831884208D15449091F096841F4706193
:10053000514A121F116018E04F493C31884208D1DE
:100540004D49091F096841F470414B4A121F11605F
:100550000BE049495031884207D14749091F0968D2
:1005600041F47021444A121F1160704710B50022F7
:10057000026847F6F0739A430C6A8B6823430C6950
:1005800023434C6923438C692343CC6923434C6A3E
:1005900023438C6A23431A430260CB6843600B6891
:1005A00083604B68C36010BD0021016041608160C1
:1005B000C160016141618161C16101624162816229
:1005C000704721B1026842F00102026004E0026853
:1005D0004FF6FE731A40026070471AB103680B436E
:1005E000036002E003688B4303607047416070471B
:1005F0000146486880B2704701460020002201F0A1
:1006000080531BB11C4B083B1A6802E0194B083B96
:100610001A6802EA01030BB1012000E000207047D4
:1006200000F0805119B11449091F086002E0114916
:1006300008394860704701460020002201F08053CD
:100640001BB10D4B083B1A6802E00A4B083B1A68C5
:1006500002EA01030BB1012000E00020704700F026
:10066000805119B10449091F086002E001490839A5
:1006700048607047080002400804024010B5044674
:10068000CC48844208D10121042000F02DFB002138
:10069000042000F029FB46E0C748844208D101212C
:1006A000082000F021FB0021082000F01DFB3AE0AB
:1006B000C248844208D10121102000F015FB00211E
:1006C000102000F011FB2EE0BD48844208D101212A
:1006D000202000F009FB0021202000F005FB22E093
:1006E000B848844208D10121402000F0FDFA0021E1
:1006F000402000F0F9FA16E0B348844208D1012105
:10070000802000F0F1FA0021802000F0EDFA0AE0EC
:10071000AE48844207D10121801500F0E5FA00219E
:10072000A01500F0E1FA10BD10B50121084600F057
:10073000DBFA0021012000F0D7FA10BD2DE9F041CD
:10074000024600250026002000230024002791F8FF
:1007500003C00CF00F0591F803C00CF0100CBCF1B5
:10076000000F03D091F802C04CEA050591F800C0D3
:10077000BCF1000F31D0146800202BE04FF0010CC9
:100780000CFA00F3B1F800C00CEA03069E4220D137
:1007900083004FF00F0C0CFA03F7BC4305FA03FC7F
:1007A0004CEA040491F803C0BCF1280F06D14FF0C5
:1007B000010C0CFA00FCC2F814C00AE091F803C066
:1007C000BCF1480F05D14FF0010C0CFA00FCC2F847
:1007D00010C0401C0828D1D31460B1F800C0BCF18F
:1007E000FF0F34DD546800202EE000F1080C4FF0BC
:1007F000010808FA0CF3B1F800C00CEA03069E42A7
:1008000021D183004FF00F0C0CFA03F7BC4305FA1B
:1008100003FC4CEA040491F803C0BCF1280F05D195
:1008200000F1080C08FA0CF8C2F8148091F803C023
:10083000BCF1480F07D100F1080C4FF0010808FA8D
:100840000CF8C2F81080401C0828CED35460BDE8D4
:10085000F0814FF6FF710180022181700421C17087
:1008600070470246002093680B400BB1012000E066
:10087000002070470146886880B270470246002019
:10088000D3680B400BB1012000E000207047014607
:10089000C86880B2704701617047416170470AB112
:1008A000016100E041617047C16070474FF48032E0
:1008B0000A4382618161826182698269704702466E
:1008C0000020434B18684FF68073184040EA02102E
:1008D00008433F4B186070473E49C8617047F0B508
:1008E0000A46002300240021002500F00046B6F14E
:1008F000004F02D1364EF16901E0354E7168C0F308
:10090000034583B200F44016B6F5401F08D121F02C
:1009100070612F4E766826F070662D4F7E6012E073
:1009200000F48016B6F5801F06D1032606FA05F4FA
:10093000A14341F0706106E0460D360103FA06F668
:10094000B14341F0706122B1460D360103FA06F65B
:10095000314300F00046B6F1004F02D11C4EF16168
:1009600001E01B4E7160F0BD30B500228B071C0FFB
:100970000F2303FA04F2164B08338C1053F824307B
:100980009343134C08348D1044F8253023468C10C3
:1009900053F824308C07240F00FA04F423430C4C42
:1009A00008348D1044F8253030BD0A49DC31086028
:1009B0007047000000080140000C01400010014099
:1009C0000014014000180140001C014000200140BB
:1009D0000000014000002042DF48006840F00100B4
:1009E000DD49086008464068DC490840DA4948604B
:1009F00008460068DA490840D74908600846006898
:100A000020F4802008600846406820F4FE0048601A
:100A10004FF41F0088607047CF49096821F4803186
:100A2000CD4A11601146096821F480211160B0F5AA
:100A3000803F03D0B0F5802F0ED106E0C64909688B
:100A400041F48031C44A116007E0C349096841F4A8
:100A5000A021C14A116000E000BF00BF704710B57F
:100A600001460022002300204A11012A02D1BA4C7B
:100A7000236806E0022A02D1B74C236A01E0B64C93
:100A8000636A01F01F02012494401C400CB1012054
:100A900000E0002010BD38B50020009000240025A3
:100AA00000BF3120FFF7DBFF05460098401C009097
:100AB0000098B0F5A06F01D0002DF2D03120FFF7E3
:100AC000CEFF08B1012400E00024204638BD0146D5
:100AD0000020A14A106820F0F80040EAC100106030
:100AE0007047A04908607047024600209A4B58683A
:100AF00020F47C1042EA01031843974B586070477A
:100B000098490866704701460020934A506820F0D3
:100B100003000843506070478F48406800F00C00A5
:100B20007047014600208C4A506820F0F0000843CE
:100B30005060704701460020874A506820F4E0600A
:100B400008435060704701460020834A506820F4F3
:100B5000605040EAC1005060704729B17E4A527A25
:100B600002437D4B5A7204E07B4A527A82437A4BAD
:100B70005A7270477B49D83108607047014600209F
:100B8000754A506820F44040084350607047002187
:100B9000714A20321170704A82F82010012802D068
:100BA00004280AD104E001216B4A2032117005E0CB
:100BB0000521694A2032117000E000BF00BF704774
:100BC0006949086070476449096A0143624A1162D1
:100BD0007047654944390860704730B500210022EC
:100BE000002400235C4D6D6805F00C0121B104293F
:100BF00005D0082923D105E05C4D056022E05B4D5E
:100C000005601FE0544D6D6805F47012524D6D681B
:100C100005F48034022505EB92421CB9544D55432E
:100C200005600BE04C4D6D6805F400351DB1504D6D
:100C30005543056002E04D4D5543056002E04B4DC4
:100C4000056000BF00BF444D6D6805F0F001090963
:100C5000484D6B5C0568DD4045603F4D6D6805F4AF
:100C6000E061090A434D6B5C4568DD4085603A4DA3
:100C70006D6805F46051C90A3E4D6B5C4568DD4006
:100C8000C560354D6D6805F44041890B3A4D6B5C8C
:100C9000C568B5FBF3F5056130BD29B12E4A52692F
:100CA00002432D4B5A6104E02B4A526982432A4B7E
:100CB0005A61704729B1284A92690243264B9A61CA
:100CC00004E0254A92698243234B9A61704729B117
:100CD000214AD2690243204BDA6104E01E4AD269FC
:100CE00082431D4BDA61704729B11B4AD268024327
:100CF000194BDA6004E0184AD2688243164BDA6076
:100D0000704729B1144A12690243134B1A6104E077
:100D1000114A12698243104B1A61704712494039D7
:100D2000086070470F49C86470470B49C871704725
:100D30000948406A40F080700749486270470146A0
:100D40000020054A92680A400AB1012000E0002014
:100D50007047014988727047001002400000FFF898
:100D6000FFFFF6FE000042428004424200127A0079
:100D700000093D00140000202400002000206F49DD
:100D8000086048608860C86048628862C8626C48D1
:100D900088630020C86370470021684A516847F69D
:100DA000FF629143027D83681A4343681A43C36814
:100DB0001A4303681A4303691A4311435F4A516097
:100DC000704700210175016041608160C16001616F
:100DD00070475C49086070475849096821F0030171
:100DE000564A116011460968014311607047534823
:100DF000006800F00300704729B1504AD26B0243EB
:100E00004E4BDA6304E04D4AD26B82434B4BDA63BC
:100E100070474D49086070470021484B02689A604E
:100E20001A46D1686FF30A01D0E901231A43C36857
:100E30001A4303691A431143404AD16070470021A5
:100E4000016041608160C160016170473B48006999
:100E5000C0B2704708B501460020009037481430F2
:100E6000084400900098006808BD0021334B0268D8
:100E70005A6242689A621A46D16A21F0F701D0E9B3
:100E800002231A4303691A4343691A4311432B4A45
:100E9000D16270474FF0FF310160002141608160F5
:100EA000C1600161416170472448006B704723486D
:100EB00080300068704721498031086070471F48C2
:100EC000806C704720491431086070471E49183102
:100ED000086070471C491C31086070471A4920316E
:100EE000086070471949086070471849091D086073
:100EF000704701218143154A083211607047134938
:100F00000C3108607047014600200C4A526B0A40C1
:100F10000AB1012000E0002070470849886370474B
:100F200001460020054A526B0A400AB1012000E048
:100F3000002070470149886370470000008001402D
:100F4000FF07C000A00030428C053042AC013042A7
:100F500010B50446FB48844209D101218803FFF7FC
:100F6000C3FE00214FF48040FFF7BEFE32E0F6489A
:100F7000844209D101214804FFF7C3FE00214FF448
:100F80000030FFF7BEFE25E0F048844209D1012180
:100F90008804FFF7B6FE00214FF48020FFF7B1FE72
:100FA00018E0EB48844209D10121C804FFF7A9FEEB
:100FB00000214FF40020FFF7A4FE0BE0E548844237
:100FC00008D101210805FFF79CFE00214FF4801095
:100FD000FFF797FE10BD2DE9F04786B005460E4697
:100FE0000024A24600BFA1460027B08900B100BF7F
:100FF0002F462C8A4CF6FF700440F08804432C8264
:10100000AC894EF6F3100440B088318908437189E9
:1010100008430443AC81AC8A4FF6FF400440B089DA
:101020000443AC8201A8FFF7D8FDC648874202D12D
:10103000DDF810A001E0DDF80CA0A88900F4004064
:1010400040B10AEBCA0000EB0A1031684900B0FB5E
:10105000F1F807E00AEBCA0000EB0A1031688900DA
:10106000B0FBF1F86420B8FBF0F004012009642122
:1010700001FB1089A88900F4004040B1322000EB48
:10108000C900B0FBF1F000F00700044308E0322093
:1010900000EB09106421B0FBF1F000F00F000443F5
:1010A0002C8106B0BDE8F0874FF416510160002195
:1010B0008180C18001810C214181002181817047A3
:1010C00010B502460020108A4FF2FF0318400B882B
:1010D0004C8823438C882343CC88234318431082B5
:1010E00010BD0021018041808180C180704721B105
:1010F000828942F40052828104E082894DF6FF73B6
:101100001A4082817047F0B503460024002600256E
:10111000002040F66A17B94200D100BF1846C1F35B
:10112000421401F01F06012707FA06F5012C01D130
:101130000C3004E0022C01D1103000E014301AB160
:1011400007682F43076002E00768AF430760F0BD00
:101150001AB1838A0B43838202E0838A8B438382A2
:101160007047028A4FF6F0731A400282028A0A43DD
:101170000282704782894FF2FF731A40828182890E
:101180000A438281704721B1828942F00202828142
:1011900004E082894FF6FD731A4082817047028A0B
:1011A0004FF6DF731A400282028A0A4302827047B6
:1011B00021B1028A42F48042028204E0028A4BF6A4
:1011C000FF731A4002827047C1F3080282807047A1
:1011D00001468888C0F308007047818941F0010109
:1011E00081817047028BD2B20283028B42EA0122D4
:1011F00002837047028B02F47F420283028B0A4310
:101200000283704721B1828A42F02002828204E088
:10121000828A4FF6DF731A408282704721B1828A38
:1012200042F01002828204E0828A4FF6EF731A4085
:101230008282704721B1828A42F00802828204E0F1
:10124000828A4FF6F7731A408282704721B18289F1
:1012500042F40042828103E08289C2F30E0282815D
:10126000704721B1828A42F40062828204E0828A5D
:101270004FF2FF731A4082827047828A4FF6FB73E7
:101280001A408282828A0A438282704721B1828A0E
:1012900042F00202828204E0828A4FF6FD731A4015
:1012A0008282704702460020B1F5007F00D100BF66
:1012B00013880B400BB1012000E00020704701F4BF
:1012C0000072B2F5007F00D100BFCA4302807047B0
:1012D00070B50246002400230025002040F66A165F
:1012E000B14200D100BFC1F3421501F01F03012636
:1012F00006FA03F3012D02D19689334006E0022D50
:1013000002D1168A334001E0968A33400C1201263E
:1013100006FA04F41688344013B10CB1012000E041
:10132000002070BD10B50022002340F66A14A142CF
:1013300000D100BF0A1201249440A3B2DC43048010
:1013400010BD00000038014000440040004800404B
:10135000004C00400050004000F032FA00F060FA0B
:101360005BA005F053F8012264A1654803F0D4FAAC
:1013700064490870084600780D2823D162A005F062
:1013800045F8002211465DA004F03EFA5D49087060
:101390000846007888B967A005F038F8012257A1FF
:1013A000002003F0B9FA57490870012253A15448AC
:1013B00003F0B2FA5349087014E066A005F026F86D
:1013C00000BFFEE74F48007848B14E48017867A05B
:1013D00005F01CF86EA005F019F800BFFEE775A037
:1013E00005F014F87DA005F011F80A2286A18C48BA
:1013F00003F0BDFA4349087008460078002820D160
:1014000088A005F003F8974B40229749844803F0E1
:101410005DFC3C4908700846007848B9914801686D
:1014200092A004F0F3FF904999A004F0EFFF04E0CC
:10143000344801789EA004F0E9FF794803F0A4FD48
:1014400002E0A1A004F0E2FFA6A004F0DFFF012269
:101450006DA1734803F08BFA2A490870084600789A
:10146000002827D12020A94908600120091D086013
:101470000220091F0860A6A004F0C8FF794B4FF4B2
:101480008062A849664803F031FB1E49087008468F
:10149000007848B973480168A3A004F0B7FFA149D8
:1014A000AAA004F0B3FF08E016480178AFA004F04A
:1014B000ADFF02E0B3A004F0A9FF594803F064FDBA
:1014C00001220EA1002003F027FA00BFFEE7000072
:1014D0000D0A2A2A2A2A2A2A20D5E2CAC7D2BBB84C
:1014E000F65344BFA820CEC4BCFECFB5CDB3CAB519
:1014F000D1E9202A2A2A2A2A2A0D0A00303A000095
:101500009400002028000020A1B75344BFA8BBB915
:10151000C3BBD3D0CEC4BCFECFB5CDB3A3ACBCB49B
:10152000BDABBDF8D0D0B8F1CABDBBAF2E2E2E0DCD
:101530000A000000A1B75344BFA8D2D1B3C9B9A6CD
:10154000B8F1CABDBBAFCEC4BCFECFB5CDB3A1A36D
:101550000D0A0000A1B6A1B6B8F1CABDBBAFCAA7BB
:10156000B0DCA1A3A1B7A1B70D0A0000A3A1A3A15C
:101570005344BFA8B9D2D4D8CEC4BCFECFB5CDB3E6
:10158000CAA7B0DCA1A3282564290D0A0000000029
:10159000A3A1A3A1BFC9C4DCD4ADD2F2A3BA534462
:1015A000BFA8B3F5CABCBBAFB2BBB3C9B9A6A1A3B0
:1015B0000D0A0000A1B7CEC4BCFECFB5CDB3B9D2E1
:1015C000D4D8B3C9B9A6A3ACBFC9D2D4BDF8D0D0C2
:1015D000B6C1D0B4B2E2CAD40D0A00000D0A2A2A5C
:1015E0002A2A2A2A20BCB4BDABBDF8D0D0CEC4BCB8
:1015F000FED0B4C8EBB2E2CAD42E2E2E202A2A2A5C
:101600002A2A2A0D0A000000303A4661744673B651
:10161000C1D0B4B2E2CAD4CEC4BCFE2E7478740079
:10162000C4100020A1B7B4F2BFAA2FB4B4BDA8461D
:1016300061744673B6C1D0B4B2E2CAD4CEC4BCFEA3
:101640002E747874CEC4BCFEB3C9B9A6A3ACCFF2D5
:10165000CEC4BCFED0B4C8EBCAFDBEDDA1A30D0A4A
:10166000000000002C00002030000020A1B7CEC4F4
:10167000BCFED0B4C8EBB3C9B9A6A3ACD0B4C8EB18
:10168000D7D6BDDACAFDBEDDA3BA25640A000000C4
:10169000A1B7CFF2CEC4BCFED0B4C8EBB5C4CAFD6E
:1016A000BEDDCEAAA3BA0D0A25730D0A0000000004
:1016B000A3A1A3A1CEC4BCFED0B4C8EBCAA7B0DC22
:1016C000A3BA282564290A00A3A1A3A1B4F2BFAA42
:1016D0002FB4B4BDA8CEC4BCFECAA7B0DCA1A30D74
:1016E0000A0000002A2A2A2A2A2A20BCB4BDABBD3F
:1016F000F8D0D0CEC4BCFEB6C1C8A1B2E2CAD42EC6
:101700002E2E202A2A2A2A2A2A0D0A00100C0140ED
:10171000A1B7B4F2BFAACEC4BCFEB3C9B9A6A1A3F7
:101720000D0A0000E8200020A1B7CEC4BCFEB6C15F
:10173000C8A1B3C9B9A62CB6C1B5BDD7D6BDDACA42
:10174000FDBEDDA3BA25640D0A000000A1B7B6C135
:10175000C8A1B5C3B5C4CEC4BCFECAFDBEDDCEAA09
:10176000A3BA0D0A2573200D0A000000A3A1A3A1AE
:10177000CEC4BCFEB6C1C8A1CAA7B0DCA3BA282596
:1017800064290A00A3A1A3A1B4F2BFAACEC4BCFEDF
:10179000CAA7B0DCA1A30D0A00000000704700BF7B
:1017A000FEE700BFFEE700BFFEE700BFFEE77047B1
:1017B00070477047704710B501F0D3FB10BD0000B3
:1017C00008B501210820FFF775FA2020ADF80000C8
:1017D00010208DF8030003208DF8020069460F48A1
:1017E000FEF7ACFF0120ADF8000069460B48FEF79C
:1017F000A5FF0220ADF8000069460848FEF79EFFED
:1018000020210648FFF747F801210448FFF743F875
:1018100002210248FFF73FF808BD0000000C01401C
:1018200000B585B001210420FFF744FA01218803A7
:10183000FFF740FA4FF40070ADF8100018208DF853
:10184000130003208DF8120004A92248FEF776FF4A
:101850004FF48060ADF8100004208DF8130004A947
:101860001C48FEF76BFF4FF4E13000900020ADF80C
:101870000400ADF80600ADF80800ADF80C000C202F
:10188000ADF80A0069461448FFF7A5FB012112488C
:10189000FFF72DFC05B000BD70B504460D46E1B262
:1018A0000D48FFF791FC00BF80210B48FFF7FAFCC1
:1018B0000028F9D0204670BD10B5044600BF202195
:1018C0000548FFF7EFFC0028F9D00348FFF780FC3C
:1018D00010BD0000000801400038014008B500209C
:1018E000FFF777FA0020FFF777FAFFF747FA0021B2
:1018F0004FF48060FFF7D1F94FF4F850ADF80000D5
:1019000004208DF803006946FC48FEF717FF042009
:10191000ADF800006946FA48FEF710FF08BD08B5AB
:101920004FF4C060FEF712FD31208DF8000000205A
:101930008DF801008DF8020001208DF80300684643
:10194000FEF709FD08BD10B5EE48FEF755FE10BDC7
:1019500030B58BB005460C46EB48FEF761FE002122
:10196000EA48FEF72EFEEA4800900195002002901A
:10197000A00803900020049080200590800006902D
:1019800080000790002008904FF40050099000203C
:101990000A906946DD48FEF7E9FD0121DB48FEF7C4
:1019A00010FE0BB030BD30B58BB005460C46D648A6
:1019B000FEF736FE0021D548FEF703FED44800901E
:1019C000019510200290A008039000200490802030
:1019D00005908000069080000790002008904FF44A
:1019E0000050099000200A906946C848FEF7BEFDE5
:1019F0000121C648FEF7E5FD0BB030BD08B5012159
:101A00003020FFF757F94FF4F850ADF800000320ED
:101A10008DF8020018208DF803006946B748FEF7DC
:101A20008DFE0420ADF800006946B548FEF786FE3D
:101A300001218802FFF731F901210220FFF72DF97A
:101A400008BD014600BFB2488038406B00F0450039
:101A50000028F8D040F2FF50AD4A803A906310461B
:101A6000406908221040C0B270472DE9FC4107468A
:101A70000D46002600240020009001900820A54972
:101A8000086010204860402088600020C8604FF443
:101A9000806008610846FFF7BFF91020FFF7D1FF0B
:101AA000044614B12046BDE8FC819B480088000430
:101AB0009849086037204860402088600020C8604E
:101AC0004FF4806008610846FFF7A6F93720FFF75A
:101AD000B8FF04460CB12046E5E74FF0FF308F49D0
:101AE000086008204860302088600220C86000201C
:101AF0000861012048610846FFF7B7F900208549D1
:101B0000086033204860402088600020C8604FF49F
:101B1000806008610846FFF77FF93320FFF791FFE7
:101B200004460CB12046BEE70CE04FF40010FFF76E
:101B3000EAF938B1FFF7BBF94DF82600761C012E03
:101B400000D907E072488038406B40F22A610840B3
:101B50000028EAD000BF0820FFF7D5F928B10820F7
:101B6000FFF7DBF9042420469DE70220FFF7CBF9BD
:101B700028B10220FFF7D1F90224204693E7202064
:101B8000FFF7C1F928B12020FFF7C7F90624204646
:101B900089E74FF40070FFF7B6F930B14FF40070E9
:101BA000FFF7BBF9072420467DE740F2FF50FFF71F
:101BB000B4F900980006009901F47F4140EA012041
:101BC000009901F47F0140EA1120009940EA116078
:101BD000686001980006019901F47F4140EA012004
:101BE000019901F47F0140EA1120019940EA116056
:101BF0002860204657E77CB5054600240020009069
:101C00000190FFF727F900F0007010B10E24204674
:101C10007CBD4149098888B26946FFF726FF044622
:101C20000CB12046F4E7012D36D1019800F4802054
:101C300000282ED038480088000436490860372034
:101C40004860402088600020C860A80208610846FB
:101C5000FFF7E2F83720FFF7F4FE04460CB1204608
:101C6000D6E702202B4908600620486040208860A3
:101C70000020C8604FF4806008610846FFF7CCF888
:101C80000620FFF7DEFE04460CB12046C0E72046E2
:101C9000BEE725242046BBE7019800F48030F8B366
:101CA0001D48008800041B49086037204860402018
:101CB00088600020C8604FF4806008610846FFF724
:101CC000ABF83720FFF7BDFE04460CB120469FE776
:101CD00000201049086006204860402088600020ED
:101CE000C8604FF4806008610846FFF795F8062049
:101CF000FFF7A7FE0446A4B1204689E70010014083
:101D0000001401400020001000F0001044040240C4
:101D10008080014088250020740000209C25002040
:101D200001E0204674E72524204671E770B504469B
:101D30000025FB480068032802D12725284670BDEE
:101D4000F748006838B1F6480068012803D0F44825
:101D5000006802282ED1B4F5805F02D127252846DD
:101D6000EDE7B4F5006F14D10120FFF744FF0546FD
:101D700005BB0120EB4908750020086048608860B9
:101D80004FF40060C860002008610846FFF704F8BF
:101D900010E00020FFF72FFF05465DB90120E14963
:101DA00008750020086048608860C86008610846BF
:101DB000FEF7F2FF2846C2E770B504460025DA4870
:101DC00004600720D8494860402088600020C8602F
:101DD0004FF4806008610846FFF71EF80720FFF700
:101DE00030FE0546284670BDF0B5014600200022B1
:101DF000CB4B1B7881F85630CC4B1B88A1F8543064
:101E0000CB4B1B681A0E93090B70C2F383034B7004
:101E100002F003038B70C64B1B68C3F30742CA7002
:101E2000C34B1B88C3F307220A71C14B1A784A714E
:101E30005B681A0E1301CB80BD4B5B68C3F307428E
:101E4000CB8843EA1213CB8002F00F030B72B84B1E
:101E50009B88C3F30722D3094B72C2F380138B72A2
:101E6000C2F34013CB72C2F300130B7300234B7306
:101E7000AB4B1B681BB1AA4B1B68012B4FD19307BF
:101E80001B0D0B61AA4B1A790B6943EA82030B61A4
:101E9000A74B9B681A0E0B6943EA92130B61C2F3BE
:101EA000C2030B7502F007034B75A14B9B68C3F38C
:101EB000074253098B75C2F38203CB7593075B0FFF
:101EC0000B769B4B1B89C3F307220B7E43EAD2138D
:101ED0000B760B695B1C0024C1E912340B7ED1E93F
:101EE00012649B1C012505FA03F3DD17A6FB037C96
:101EF00004FB03C306FB0533C1E912730C7A01230B
:101F0000A3400B650024D1E912560B6DA5FB037CA1
:101F100006FB03C305FB0433C1E912732EE0804BBB
:101F20001B68022B2AD1824B1A7993069B0A0B61FC
:101F30007F4B9B681A0E0B6943EA02230B617C4BB3
:101F40009B68C3F307420B6913430B61784B1B89F2
:101F5000C3F307220B695B1C4FF40074A3FB04540A
:101F60004FF480630026A5FB037C04FB03C305FB41
:101F70000633C1E912734FF400730B65C2F380138B
:101F800001F8193F93065B0E4B70694B1A7A4B7838
:101F900043EAD2134B7002F07F038B70644BDB6813
:101FA0001A0ED309CB70C2F341130B71C2F3820333
:101FB0004B7193071B0F8B715D4BDB68C3F30742BB
:101FC0008B7943EA92138B71C2F34013CB710023D8
:101FD0000B7202F001034B72554B9B89C3F307222E
:101FE000D3098B72C2F38013CB72C2F340130B730D
:101FF000C2F300134B73C2F381038B7302F003032C
:10200000CB734B4B1A7B53080B7401234B74494B16
:102010001B681A0ECA741939464B1B68C3F3074272
:102020001402CC85434B1B88C3F30722CB8D13438B
:10203000CB85404B1A7814060C635B681A0E0B6B49
:1020400043EA02440C633B4B5B68C3F307420B6BF0
:1020500043EA02240C63374B9B88C3F307220B6BC4
:1020600013430B63334B1A7934235A54314B9B6817
:102070001A0E35235A542F4B9B68C3F3074214069C
:102080008C632C4B1B89C3F307228B6B43EA0244FE
:102090008C63284B1A7A8B6B43EA02248C63254BA2
:1020A000DB681A0E8B6B13438B63224BDB68C3F325
:1020B00007423C235B5C43EA12143C235C54130745
:1020C0001C0DCC871B4B9B89C3F30722CB8F13437B
:1020D000CB87184B1A7B540840235C5401244123BE
:1020E0005C54F0BD70B500251348446B01E0124804
:1020F000446B04F045000028F9D004F0040028B136
:1021000003250420FEF709FF284670BD04F00100F6
:10211000A0B101250120FEF700FF2846F5E70000E9
:102120007000002070250020882500207400002009
:10213000E8240020F82400200080014040F2FF50F5
:10214000FEF7EBFE2846E0E72DE9F04106460F4694
:102150004FF00008FA48456B01E0F948456B05F07F
:1021600045000028F9D005F0040038B14FF003080D
:102170000420FEF7D2FE4046BDE8F08105F00100E4
:1021800030B14FF001080120FEF7C7FE4046F3E7EB
:10219000FEF75CFEB04203D04FF010084046EBE77C
:1021A00040F2FF50FEF7B9FE0020FEF753FE044652
:1021B00004F4604018B9200C38804046DCE704F491
:1021C000005008B11320D7E704F4804008B1102074
:1021D000D2E704F4004008B10F20CDE74046CBE73A
:1021E00038B5002401200090FEF701FE10B9252427
:1021F000204638BDD3480068042828D00020D249A2
:10220000086002204860C02088600020C8604FF449
:10221000806008610846FEF7FFFDFFF763FF044694
:102220000CB12046E5E70020FEF714FEC749086020
:102230000420FEF70FFEC54948600820FEF70AFE9D
:10224000C24988600C20FEF705FEC049C860BD4841
:10225000006858B1BB480068012807D0B948006839
:10226000062803D0B7480068022816D10020B649D6
:10227000086003204860402088600020C8604FF458
:10228000806008610846FEF7C7FD69460320FFF736
:102290005BFF04460CB12046ABE7AA48006804285F
:1022A0002ED0BDF80000AA490860BDF80000000467
:1022B000A549086009204860C02088600020C860E7
:1022C0004FF4806008610846FEF7A6FDFFF70AFF9D
:1022D00004460CB120468CE70020FEF7BBFD9D496B
:1022E00008600420FEF7B6FD9A4948600820FEF712
:1022F000B1FD984988600C20FEF7ACFD9549C86097
:102300000024204675E770B500258D48446B01E038
:102310008B48446B04F045000028F9D004F0040019
:1023200028B103250420FEF7F8FD284670BD40F2D1
:10233000FF50FEF7F2FD2846F8E770B500264FF48F
:1023400080357F48446B02E06D1E7D48446B04F08D
:10235000450008B9002DF7D115B104F0040028B1EB
:1023600003260420FEF7D9FD304670BD04F040007E
:1023700028B100264020FEF7D0FD3046F5E7304674
:10238000F3E770B500254FF4803400E0641E24B1FB
:102390008020FEF7B8FD0028F8D014B903252846A0
:1023A00070BD40F2FF50FEF7B8FD2846F8E72DE972
:1023B000F0410024002600250027A046B2206649EF
:1023C00008750020086048608860C8600861084699
:1023D000FEF7E2FC0320FEF7FFFC0120FEF7F9FC0C
:1023E00000205949086048608860C8604FF48060E8
:1023F00008610846FEF710FDFFF7C3FF044614B15D
:102400002046BDE8F0814FF4D5704F4908600820A0
:102410004860402088600020C8604FF480600861F8
:102420000846FEF7F9FCFFF788FF04462CB90120A7
:10243000444908604FF0804812E00020424908609B
:1024400037204860402088600020C8604FF48060DA
:1024500008610846FEF7E0FC3720FFF7F2FA044671
:1024600000203949086037204860402088600020FB
:10247000C8604FF4806008610846FEF7CDFC372045
:10248000FFF7DFFA0446002C4AD136E000202E493F
:10249000086037204860402088600020C8604FF402
:1024A000806008610846FEF7B7FC3720FFF7C9FADD
:1024B00004460CB12046A4E7284848EA0000224917
:1024C000086029204860402088600020C8604FF4E0
:1024D000806008610846FEF79FFCFFF714FF044682
:1024E0000CB120468DE70020FEF7B4FC0646012023
:1024F00080EAD67080F001076D1C1FB94FF6FF709F
:102500008542C3D34FF6FF70854202D31B24204679
:1025100077E706F08040061E02D0022009490860D5
:1025200020466EE710B50024FFF7F9F9FFF766FAC9
:10253000FEF724FCFFF73BFF04468CB1204610BD9C
:10254000008001407000002088250020F824002031
:1025500074000020E8240020702500200000108076
:10256000FFF73EFE04460CB12046E8E70120FD4996
:1025700008750020086048608860C86008610846E7
:10258000FEF70AFC1CB9F848FFF72EFC044634B9E4
:10259000F549B1F854100804FFF70EFC044624B9BD
:1025A0004FF40060FFF7C2FB04462046C7E770B552
:1025B00004460025ED4800880004ED49886040F29B
:1025C0004D40C8600D20FFF73CFA05460DB1284686
:1025D00070BDE748406920602846F9E708B500204B
:1025E00000906846FFF7E3FF08B1FF2008BD0098A0
:1025F000C0F34320FAE710B50424FFF7EFFF0446C9
:10260000042C01D1002010BDFF2C01D10220FAE7DB
:102610000120F8E710B500240020FEF7DDFB20467E
:1026200010BD70B50446002500260020FEF712FC00
:1026300000F0007010B10E25284670BD4020CD4935
:10264000086010204860402088600020C8604FF477
:10265000806008610846FEF7DFFB1020FFF7F1F904
:1026600005460DB12846E8E7C04800880004C14986
:10267000086037204860402088600020C8604FF420
:10268000806008610846FEF7C7FB3720FFF7D9F9DD
:1026900005460DB12846D0E74FF0FF30B649086037
:1026A00040204860602088600220C86000200861E7
:1026B000012048610846FEF7D8FB0020AD490860BC
:1026C0000D204860402088600020C8604FF4806082
:1026D00008610846FEF7A0FB0D20FFF7B2F905469A
:1026E0000DB12846A9E70EE04FF40040FEF70BFCC1
:1026F00048B1002604E0FEF7DAFB44F82600761C19
:10270000082EF8D320349A48406B40F22A610840E2
:102710000028E9D00820FEF7F6FB28B10820FEF7D4
:10272000FCFB0425284688E70220FEF7ECFB28B1D5
:102730000220FEF7F2FB022528467EE72020FEF766
:10274000E2FB28B12020FEF7E8FB0625284674E7C7
:102750004FF40070FEF7D7FB30B14FF40070FEF776
:10276000DCFB0725284668E703E0FEF7A0FB2060B6
:10277000241D4FF40010FEF7C6FB0028F5D140F2EF
:10278000FF50FEF7CAFB284657E770B504460026FF
:1027900000257A48FFF745FF06460EB1304670BD6A
:1027A000764800788509257074480078C0F3401594
:1027B000657072488578280260807048C5786088A6
:1027C000284360806D480579280660606B4845792C
:1027D000606840EA0540606068488579606840EA62
:1027E000052060606548C57960682843606063487B
:1027F000057A2572457A6572807A0509A5725F4867
:10280000C57A2802A0815D48057BA0892843A08164
:102810005A48407B8508A5735848407B00F0030563
:10282000E5733046BBE72DE9F041804614461D466E
:10283000069E0027002052490870524908605249FC
:1028400008604B49C86251480068022808D1060256
:10285000020200232046294603F04EFD04460D46A1
:1028600044480660102043494860402088600020AA
:10287000C8604FF4806008610846FEF7CDFA10206A
:10288000FFF7DFF8074617B13846BDE8F0814FF093
:10289000FF30394908600846466090208860022071
:1028A000C86000200861012048610846FEF7DDFA93
:1028B0003048046011202F49486040208860002083
:1028C000C8604FF4806008610846FEF7A5FA112041
:1028D000FFF7B7F807460FB13846D6E701210802DF
:1028E000FEF78AFA0120FEF794FA31464046FFF7D8
:1028F0002FF83846C9E72DE9F047814614461D46B2
:10290000DDE90868002700201D4908701D4908609E
:1029100001201D49086000201549C8621B48006855
:10292000022808D10602020200232046294603F0AD
:10293000E3FC04460D460F48066010200D49486030
:10294000402088600020C8604FF48060086108461D
:10295000FEF762FA1020FFF774F80746C7B1384651
:10296000BDE8F087702500201825002074000020A5
:1029700000800140882500209C250020082500209B
:102980007C000020800000207800002070000020E3
:102990004FF0FF30F949086008FB06F048609020CE
:1029A00088600220C8600020086101204861084654
:1029B000FEF75BFAF24804601220F14948604020BB
:1029C00088600020C8604FF4806008610846FEF708
:1029D00023FA1220FFF735F8074617B13846BDE84D
:1029E000F08701210802FEF707FA0120FEF711FA2D
:1029F00008FB06F14846FEF7ABFF3846EFE710B597
:102A0000002400BFFEF79FFF30B9DE48006818B908
:102A1000DD4800780028F5D0DB48007810B1DA48AE
:102A2000007810BD2046FCE72DE9F04180461446B1
:102A30001D46069E00270020D3490870D149086032
:102A4000D2490860D249C862D2480068022808D139
:102A50000602020200232046294603F04DFC0446EC
:102A60000D46C74806601020C54948604020886070
:102A70000020C8604FF4806008610846FEF7CCF97A
:102A80001020FEF7DEFF074617B13846BDE8F0819B
:102A9000BB4804601820BA49486040208860002084
:102AA000C8604FF4806008610846FEF7B5F9182049
:102AB000FEF7C7FF07460FB13846E7E74FF0FF3094
:102AC000AE49086008464660902088600020C860D3
:102AD0000861012048610846FEF7C7F90121080294
:102AE000FEF78AF931464046FEF75DFF0120FEF70A
:102AF00090F93846CAE72DE9F843814615461E4647
:102B0000DDE908780024002000909F4908709D4965
:102B1000086001209D49086000209D49C8629D48C9
:102B20000068022808D10702020200232846314625
:102B300003F0E2FB05460E469148076010209049DD
:102B40004860402088600020C8604FF480600861C1
:102B50000846FEF761F91020FEF773FF044614B132
:102B60002046BDE8F8838C4800880004844908604A
:102B700037204860402088600020C8604FF48060A3
:102B800008610846FEF748F93720FEF75AFF044669
:102B90000CB12046E5E77A48C0F800801720784954
:102BA0004860402088600020C8604FF48060086161
:102BB0000846FEF731F91720FEF743FF04460CB133
:102BC0002046CEE76E48056019206D4948604020D8
:102BD00088600020C8604FF4806008610846FEF7F6
:102BE0001BF91920FEF72DFF04460CB12046B8E76B
:102BF0004FF0FF306149086008FB07F04860902003
:102C000088600020C8600861012048610846FEF71E
:102C10002CF901210802FEF7EFF80120FEF7F9F880
:102C200008FB07F14846FEF7BEFE204699E710B5BF
:102C3000002400BFFEF787FE30B95248006818B97B
:102C4000514800780028F5D04F48007810B14E4820
:102C5000007810BD40F2FF50FEF75FF92046F8E71C
:102C60004B48406B00F4405008B1012070470020F1
:102C7000FCE710B5002400204549886040F24C4034
:102C8000C8600C20FEF7DDFE0446204610BD7CB572
:102C9000044600250020019000903F480088000471
:102CA000374908600D204860402088600020C860D7
:102CB0004FF4806008610846FEF7AEF83448406B78
:102CC000009002E03248406B0090009800F0450010
:102CD0000028F7D0009800F0040028B10325042054
:102CE000FEF71BF928467CBD009800F0010028B1D2
:102CF00001250120FEF711F92846F4E7FEF7A6F8B2
:102D0000009000980D2802D010252846EBE740F2ED
:102D1000FF50FEF702F90020FEF79CF801900198A1
:102D2000C0F3432020701D490198084008B9284687
:102D3000D9E7019800F0004008B11C20D3E70198C2
:102D400000F0804008B10920CDE7019800F0005064
:102D500008B10A20C7E7019800F0805008B10B20A5
:102D6000C1E7019800F0006008B10C20BBE70198B2
:102D700000F08060A0B10D20B5E700009C25002088
:102D800088250020800000207C00002078000020A2
:102D900000800140700000207400002008E0FFFD6A
:102DA000019800F0807008B10E209CE7019800F4B3
:102DB000000008B10F2096E7019800F4800008B1E8
:102DC000102090E7019800F4001008B111208AE764
:102DD000019800F4801008B1122084E7019800F4F3
:102DE000002008B113207EE7019800F4802008B18C
:102DF000142078E7019800F4003008B1152072E73C
:102E0000019800F4803008B116206CE7019800F4B6
:102E1000004008B1172066E7019800F4804008B12F
:102E2000182060E7019800F4005008B119205AE713
:102E3000019800F0080008B11A2054E7284652E72C
:102E40002DE9FC4105460E46002400270020019094
:102E500000905A484068202101EA105018B92524F2
:102E60002046BDE8FC8156484068C0B2801C5549E8
:102E7000B1FBF0F001900020FDF7ECFF00F00070D6
:102E800010B10E242046ECE74F480068022801D11B
:102E90006D0A760A4C48006838B14B480068012832
:102EA00003D04948006802282BD1484805602020FB
:102EB00046494860402088600020C8604FF4806028
:102EC00008610846FDF7A8FF2020FEF7BAFD04467A
:102ED0000CB12046C5E73D48066021203B494860CB
:102EE000402088600020C8604FF480600861084678
:102EF000FDF792FF2120FEF7A4FD04460CB1204609
:102F0000AFE70020314908602620486040208860F3
:102F10000020C8604FF4806008610846FDF77CFF20
:102F20002620FEF78EFD04460CB1204699E70027C7
:102F300000E07F1C01988742FBD36846FFF7A7FE9D
:102F4000044603E06846FFF7A2FE04463CB99DF83C
:102F500000000728F6D09DF800000628F2D0204691
:102F60007FE710B51A48006801280BD100201449EA
:102F7000886040F24C40C8600C20FEF762FD1549A5
:102F8000087002E00020134908704FF48070FDF7CC
:102F9000D1FF00214FF48070FDF72EFF01200E4974
:102FA00008600C48007810BD0146002002E049107E
:102FB000421CD0B20129FAD170470000E824002059
:102FC00000800140C0D4010070000020882500204E
:102FD000780000207C0000208000002001460120B5
:102FE00011B1012904D102E020F0010002E001E06A
:102FF000012000BF00BF704770B50446012514B121
:10300000012C09D107E0FFF78DFA10B925F0010571
:1030100000E0012502E001E0012500BF00BF2846D5
:1030200070BD2DE9F04FADF5017D81460C4615468A
:103030001E464FF0040B4FF0000AB9F1000F03D009
:10304000B9F1010F42D140E004F00300E8B10027DC
:1030500011E02A466D1C012301A90020FFF7E1FFC2
:10306000074607B10BE04FF4007201A9204603F0B8
:1030700074F904F50074301EA6F10106E9D100BF11
:1030800038460DF5017DBDE8F08F4FF40070A5FBCB
:1030900000713A460B46CDE900062046FFF72BFCAF
:1030A0008246BAF1000F07D1FFF7A9FC824600BFA4
:1030B000FFF7A1FA0028FBD1BAF1000F02D04FF0C0
:1030C000040B01E04FF0000B03E002E04FF0040BB3
:1030D00000BF00BF5846D4E72DE9F04FADF5017DA4
:1030E00081460C4616461D464FF0040B4FF0000A71
:1030F00025B904200DF5017DBDE8F08FB9F1000F71
:1031000003D0B9F1010F3FD13DE004F00300D0B18D
:10311000002711E04FF40072214601A803F01DF9C9
:103120003246761C012301A90020FFF7D5FF074690
:1031300007B105E004F50074281EA5F10105E9D1E9
:1031400000BF3846D6E74FF40070A6FB00713A4640
:103150000B46CDE900052046FFF7CDFC8246BAF1CB
:10316000000F07D1FFF763FD824600BFFFF743FA68
:103170000028FBD1BAF1000F02D04FF0040B01E0A0
:103180004FF0000B03E002E04FF0040B00BF00BF64
:103190005846AFE72DE9F04705460E4614464FF076
:1031A000040915B1012D21D11FE0CEB1012E0BD0A4
:1031B000022E02D0032E14D103E04FF400702080C1
:1031C0000FE0012020600CE00D48D0F850C06246AE
:1031D0000023D0E91271384603F08EF8206000E039
:1031E00000BF00BF4FF0000903E002E04FF0040908
:1031F00000BF00BF4846BDE8F087024870470000A6
:10320000182500200000214670B503460C4603E057
:1032100014F8015B03F8015B151EA2F10102F7D15E
:1032200070BD30B5034601E003F8011B141EA2F186
:103230000102F9D130BDF0B503461C460D46002011
:1032400000BF161EA2F1010207D014F8017B15F889
:1032500001CBA7EB0C06301EF3D0F0BD024600E018
:10326000521C107810B110788842F9D1107870474C
:103270002DE9F041044600272079F8B1E56A60782D
:1032800001232A4604F13001FFF726FF08B1012788
:1032900014E000202071206A281AA16988420DD20A
:1032A000E67809E0A0690544607801232A4604F124
:1032B0003001FFF711FF761E022EF3D23846BDE82B
:1032C000F08170B504460D460026E06AA84210D091
:1032D0002046FFF7CDFF06465EB9607801232A46F7
:1032E00004F13001FFF79DFE10B14FF0FF350126CC
:1032F000E562304670BD70B504462046FFF7B8FF62
:103300000546002D59D1207803284FD16079012836
:103310004CD16289002104F13000FFF782FF552172
:1033200084F82E12AA2184F82F12522084F830003B
:103330005221312001556121322001554121332094
:103340000155722184F8141284F81512412184F871
:103350001612612184F81712217C84F81812208A31
:10336000010A84F819122069010C84F81A122069E4
:10337000010E84F81B12217B84F81C12A089010A1B
:1033800084F81D12E068010C84F81E12E068010E3A
:1033900084F81F12E069401CE0626078012304F1A8
:1033A0003001E26AFFF798FE002060716078002229
:1033B0001146FFF7EFFE00B10125284670BD024619
:1033C000891E5069801E884201D80020704793787A
:1033D000906A01FB0300F9E72DE9F05F04460D4612
:1033E000022D02D36069A84202D84FF001098FE094
:1033F0004FF0FF392078012804D002283CD0032860
:103400007ED157E02F4607EB57076089B7FBF0F0F6
:10341000216A00EB010A51462046FFF752FF00B136
:1034200075E038467F1C6189B0FBF1F201FB1201A7
:1034300004F1300010F801806089B7FBF0F0216AD8
:1034400000EB010A51462046FFF73BFF00B15EE06A
:103450006089B7FBF0F100FB117104F13000405CB2
:1034600048EA002805F0010010B14FEA181001E009
:10347000C8F30B0081464AE0B4F80AA00AEBDA7000
:103480004010B5FBF0F0216A00EB010B59462046D5
:10349000FFF717FF00B13AE068006189B0FBF1F275
:1034A00001FB120104F130000E183078717840EA07
:1034B00001292CE0B4F80AA04FEAEA700AEB9070F8
:1034C0008010B5FBF0F0216A00EB010B5946204655
:1034D000FFF7F7FE00B11AE0A8006189B0FBF1F236
:1034E00001FB120104F130000E18F0780006B178EB
:1034F00040EA0140717840EA01203178084300E059
:1035000002E020F0704902E04FF0010900BF00BF67
:103510004846BDE8F09F2DE9F05F04460E46174689
:10352000022E02D36069B04202D84FF00208B3E025
:103530002078012804D0022852D0032872D172E0EA
:10354000B14609EB59096089B9FBF0F0216A00EB3B
:10355000010A51462046FFF7B4FE8046B8F1000F3D
:1035600000D098E0484609F101096189B0FBF1F209
:1035700001FB120104F130000D1806F0010020B12A
:10358000F9B2287861F31F1000E038462870012056
:1035900020716089B9FBF0F0216A00EB010A514605
:1035A0002046FFF78EFE8046B8F1000F00D072E093
:1035B0006089B9FBF0F100FB119104F130000D18A6
:1035C00006F0010010B1C7F3071005E0287800F0FD
:1035D000F000C7F3032108432870012020715AE04E
:1035E000B4F80AA00AEBDA704010B6FBF0F0216ADA
:1035F00000EB010B59462046FFF763FE8046B8F109
:10360000000F00D047E070006189B0FBF1F201FBD0
:10361000120104F130000D182F70380A6870012073
:10362000207138E034E0B4F80AA04FEAEA700AEBFF
:1036300090708010B6FBF0F0216A00EB010B594648
:103640002046FFF73EFE8046B8F1000F00D022E092
:10365000B0006189B0FBF1F201FB120104F130000E
:103660000D18E8780006A97840EA0140697840EA38
:1036700001202978084300F0704007432F70380A72
:103680006870380CA870380EE8700120207102E0D4
:103690004FF0020800BF00BF4046BDE8F09F2DE993
:1036A000F04104460E46022E02D36069B04201D8B2
:1036B000022727E0002721E031462046FFF78CFE55
:1036C000054605B91DE0012D01D1022719E0681C4E
:1036D00008B9012715E0002231462046FFF71BFFFD
:1036E000074607B10DE02069401C30B12069401C3D
:1036F0002061607940F0010060712E466069B0423F
:10370000DAD800BF3846BDE8F0812DE9F04704461D
:103710008946B9F1000F06D1E76817B16069B84270
:1037200015D8012713E049462046FFF755FE064607
:10373000022E02D20120BDE8F087701C08B9304685
:10374000F9E76069B04201D93046F4E74F463D469B
:1037500000BF6D1C6069A84204D80225BD4201D992
:103760000020E8E729462046FFF736FE064606B960
:1037700009E0701C08B1012E01D13046DBE7BD42E3
:10378000E7D10020D7E700BF6FF0704229462046FE
:10379000FFF7C1FE8046B8F1000F08D1B9F1000F64
:1037A00005D02A4649462046FFF7B5FE8046B8F1C7
:1037B000000F0BD1E5602069401C78B12069401EE4
:1037C0002061607940F00100607107E0B8F1010FFD
:1037D00002D14FF0FF3000E0012005462846AAE75D
:1037E0002DE9F04104460E46E680A568012D03D080
:1037F00020684069A84202D80220BDE8F0812DB9B6
:1038000020680078032801D12068456A45B92068FE
:103810000089B04201D80220EFE72068476A24E01F
:1038200021684889C11700EBD1614911226892785B
:1038300001FB02F812E029462068FFF7CDFD05469E
:10384000681C08B90120D8E7022D03D3206840691D
:10385000A84201D80220D0E7A6EB08064645EAD2E6
:1038600029462068FFF7ABFD0746E5600FB9022047
:10387000C3E721684889C11700EBD1614911B6FB44
:10388000F1F13944216121684889C11700EBD16108
:103890004911B6FBF1F201FB12612268303202EBF2
:1038A000411161610020A8E72DE9F04104468846F6
:1038B000E088461CB0B208B1206910B90420BDE808
:1038C000F08121684889C11700EBD1614911B6FB2D
:1038D000F1F201FB1261002971D12069401C2061C5
:1038E000E06828B920680089B04268D80420E6E77B
:1038F00021684889C11700EBD1614911B6FBF1F18C
:1039000022689278521E1140002958D1E16820683F
:10391000FFF762FD0546012D01D80220CFE7681CA4
:1039200008B90120CBE720684069A84241D8B8F126
:10393000000F01D10420C2E7E1682068FFF7E5FE2F
:1039400005460DB90720BAE7012D01D10220B6E7DF
:10395000681C08B90120B2E72068FFF789FC08B1AC
:103960000120ACE721684A8901F130000021FFF70E
:1039700058FC29462068FFF722FD2168C86200270D
:103980000EE00120216808712068FFF771FC08B182
:10399000012094E72068C06A401C2168C8627F1C2F
:1039A00020688078B842ECD82068C06AC01B2168C3
:1039B000C862E56029462068FFF701FD2061E680C6
:1039C00021684889C11700EBD1614911B6FBF1F2BA
:1039D00001FB12612268303202EB4111616100206B
:1039E0006DE72DE9F04104460E4600212046FFF721
:1039F000F7FE0546EDB9002700BF21692068FFF7F3
:103A000060FC054605B113E060690078E52802D046
:103A10006069007820B9781C0746B04201D107E000
:103A2000002701212046FFF73FFF0546002DE4D087
:103A300000BF042D00D107252846BDE8F08110B550
:103A400002468C7ECB7E44EA03201378032B05D1FB
:103A50000C7D4B7D44EA032340EA034010BD817690
:103A60000B0AC3760A0C02750B0E437570472DE9DD
:103A7000F04780460C46A17EE07E41EA002010B16E
:103A80000020BDE8F087207800F03F00401E00EBEA
:103A9000800101EBC0064FF00109002524E0F84841
:103AA000405D205CF649495D2144497840EA0127A0
:103AB000B9F1000F11D0FF2E0BD2384602F0EAFB0D
:103AC00082463146761C38F8110002F0E3FB82454D
:103AD00001D00020D5E7B94605E04FF6FF708742D8
:103AE00001D00020CDE76D1C0D2DD8D3207800F03B
:103AF000400038B1B9F1000F04D038F8160008B111
:103B00000020BEE70120BCE7F0B504468F7EC87EEA
:103B100047EA002008B10020F0BD087800F03F001F
:103B2000401E00EB800707EBC002012600231AE0CD
:103B3000D348C05C085CD24FFF5C0F447F7840EAFA
:103B400007254EB1FF2A01D30020E5E72E46104697
:103B5000521C24F8105005E04FF6FF70854201D04A
:103B60000020D9E75B1C0D2BE2D3087800F0400061
:103B700030B1FF2A01D30020CEE7002024F8120044
:103B80000120C9E7F0B504461D464D730F27CF72DB
:103B900000270F738F76BC4681F81BC0571E07EBBA
:103BA000870C0CEBC706002738463B4600BF4FF694
:103BB000FF77B84203D03746761C34F81700DFF899
:103BC000C0C21CF803C001F80C000712DFF8B0C235
:103BD0001CF803C08C448CF8017008B94FF6FF70D4
:103BE0005F1C3B460D2FE2D34FF6FF77B84202D061
:103BF00034F816700FB942F040020A70F0BD2DE99A
:103C0000FF4F83B0074691461E460B223846049963
:103C1000FFF7FAFA052E19D9B04612E039F802BBBF
:103C200000250CE0584668F35F0080464FEA6B0BB6
:103C300008F4803010B1934888EA00086D1C102DFC
:103C4000F0D3B9F800000028E8D14646072500BFA8
:103C500006F00F0000F1300ABAF1390F03DD0AF166
:103C6000070000F0FF0A28466D1E01A901F800A018
:103C70003609002EECD17E20485500240BE0385D3B
:103C8000812807DB385DFE2804DC681EA04200D1D5
:103C900006E0641C641CAC4202D2385D2028EED1E0
:103CA00000BF00BF082D04D228466D1C01A9095C85
:103CB00000E020212046641C3954082CF2D307B0C0
:103CC000BDE8F08F30B5014600200B2200BF431045
:103CD00003EBC01411F8015B6319D8B2531E1A1E0E
:103CE000F5D130BD2DE9F047044600212046FFF70D
:103CF00077FD074617B13846BDE8F0874FF0FF095A
:103D0000CA464FF6FF70208400BF21692068FFF784
:103D1000D8FA074607B157E065692E780EB904272F
:103D200052E0E87A00F03F08E52E05D008F00800E0
:103D300040B1B8F10F0F05D04FF0FF094FF6FF70FB
:103D400020843AE0B8F10F0F1CD1E06978B306F097
:103D5000400030B195F80DA026F04006B146E0884D
:103D600020844E450AD1687B504507D12946E06939
:103D7000FFF77DFE10B1A9F1010000E0FF2000F087
:103D8000FF091AE0B9F1000F05D12846FFF79AFFA5
:103D9000504500D118E0A069C07A00F0010038B9A0
:103DA0000B222846A169FFF746FA08B90CE004E0A7
:103DB0004FF0FF094FF6FF70208400212046FFF7E7
:103DC00073FD0746002FA0D000BF384694E72DE9C9
:103DD000F05F04468A464FF0FF09CB46042753E0C4
:103DE00021692068FFF76DFA074607B14FE0666961
:103DF00035780DB904274AE0F07A00F03F08E52D48
:103E00000AD02E2D08D028F02000082801D101204A
:103E100000E00020504502D04FF0FF0929E0B8F142
:103E20000F0F1AD105F0400030B196F80DB025F013
:103E30004005A946E08820844D450AD1707B58454D
:103E400007D13146E069FFF75FFE10B1A9F101002B
:103E500000E0FF2000F0FF090BE0B9F1000F04D1F2
:103E60003046FFF72FFF584502D04FF6FF702084F1
:103E70000DE000212046FFF717FD074627B106E0B9
:103E8000046600082110010020690028A8D100BFA5
:103E90000FB1002020613846BDE8F09F2DE9FE4FAC
:103EA0000446D4F81880D4F81C900C224146684689
:103EB000FFF7AAF900BF9DF80B0000F0010020B346
:103EC000002088F80B00E06101260CE033464A46EA
:103ED00069464046FFF793FE2046FFF703FF05467D
:103EE00005B102E0761C642EF0D300BF642E02D12F
:103EF0000720BDE8FE8F042D01D02846F9E79DF884
:103F00000B0088F80B00C4F81C909DF80B0000F023
:103F1000020060B1002600E0761C39F81600002887
:103F2000FAD106F119000D21B0FBF1F700E00127ED
:103F300039462046FFF755FD054645BB781E071E4E
:103F400025D0E088C11B2046FFF74AFC0546F5B99D
:103F5000A069FFF7B7FE824600BF21692068FFF71E
:103F6000B0F9054605B111E0FAB253466169E0695E
:103F7000FFF708FE01202168087100212046FFF7A5
:103F800093FC054615B9781E071EE6D100BFC5B9DA
:103F900021692068FFF795F9054695B9202200218F
:103FA0006069FFF73EF90B22D4E90501FFF72CF910
:103FB000A069C07A00F018006169087301202168C7
:103FC0000871284695E770B50446E688208C4FF6C0
:103FD000FF72904201D1304600E0208C014620461D
:103FE000FFF7FEFB05460DBB00BF21692068FFF708
:103FF00068F9054605B115E0202200216069FFF748
:1040000010F9E52061690870012021680871E088D5
:10401000B04200D306E000212046FFF745FC0546EC
:10402000002DE2D000BF042D00D10225284670BD2E
:104030002DE9F05F80460D4605F10907D8F810001C
:10404000002843D0D8F81440002626E03046761CDD
:1040500014F80090B9F1200F00D11EE0B9F1050F5E
:1040600001D14FF0E509092E02D12E2007F8010BEE
:10407000B9F1410F0EDBB9F15A0F0BDC207B092E91
:1040800001D3102100E00821084018B109F12000F7
:1040900000F0FF0907F8019B00BF0B2ED6D3E07A92
:1040A0002872E07F0106A07F41EA0041607F41EA7B
:1040B0000020217F08432860217E607E41EA0020A5
:1040C000A880A17DE07D41EA0020E88000203870D2
:1040D000A86998B30026AF69D8F8100060B3E86902
:1040E00050B3B8F820004FF6FF71884224D0D8F8BA
:1040F0001CB01BE00021504602F092F88246BAF153
:10410000000F01D1002616E0BAF1FF0F04DD4FEADF
:104110002A223046761C3A54E869401EB04201D843
:10412000002608E03046761C07F800A03BF8021B8A
:10413000B1F1000ADED100BF0020B855BDE8F09F04
:104140002DE9F34F83B0814604980068019002E0A6
:104150000198401C0190019800782F28F8D0019810
:1041600000785C28F4D0D9F81CA000252F4600BFA9
:1041700038467F1C01990C5C202C03DB2F2C01D0CE
:104180005C2C00D132E0FF2D03D3062005B0BDE842
:10419000F08FE4B2812C13DBE0B2FE2810DC38464D
:1041A0007F1C01990E5C06EB042084B2402E01DBDB
:1041B0007E2E05DD802E01DBFE2E01DD0620E5E7EB
:1041C0000121204602F02CF804460CB90620DDE758
:1041D000802C06DA2146F8A0FFF740F808B1062047
:1041E000D4E728466D1C2AF81040C1E700BF0198AB
:1041F000C11904980160202C01DA042000E000209D
:10420000804608E0681E3AF81040202C02D02E2C80
:1042100000D002E06D1E002DF4D100BF0DB90620C4
:10422000B4E700202AF815000B222021D9F8180045
:10423000FEF7F7FF002700E07F1C3AF81700202860
:10424000FAD03AF817002E28F6D00FB148F003083C
:1042500000E06D1E25B1681E3AF810002E28F8D136
:104260000020064602904FF0080B00BF38467F1C26
:104270003AF8104004B963E0202C03D02E2C04D16E
:10428000AF4202D048F00308F0E70298584501D247
:10429000AF4214D1BBF10B0F02D148F003084FE03D
:1042A000AF4201D048F00308AF4200D948E02F46A2
:1042B000082002904FF00B0BB006060ED6E7802CBC
:1042C00009DB204601F0E6FF0021009001F0A8FF85
:1042D000044648F00208FF2C11DDABF10100029901
:1042E000884204D848F00308CDF808B0BEE722128F
:1042F000D9F818300298411C02911A5419E024B1DF
:104300002146B0A0FEF7AAFF18B15F2448F00308C9
:104310000FE0412C04DB5A2C02DC46F0020608E0D8
:10432000612C06DB7A2C04DC46F00106A4F12000A7
:1043300084B2D9F818300298411C02911C5495E7B8
:1043400000BFD9F818000078E52803D10520D9F876
:1043500018100870BBF1080F01D1B006060E06F068
:104360000C000C2803D006F00300032801D148F00C
:10437000020808F0020058B906F00300012801D134
:1043800048F0100806F00C00042801D148F0080895
:10439000D9F8180080F80B800020F7E62DE9F341EA
:1043A0000446019800782F2803D0019800785C28F3
:1043B00002D10198401C01900020A0600198007873
:1043C000202807D200212046FFF70AFA05460020E0
:1043D000606128E000BF01A92046FFF7B1FE054655
:1043E00005B11FE02046FFF77DFC0546A069C67AAF
:1043F0003DB1042D04D100BF06F0040000B905252D
:1044000010E006F0040000B10CE06769F87A00F0F3
:10441000100008B9052505E039462068FFF70FFBB5
:10442000A060D8E700BF2846BDE8FC8170B5024611
:104430004FF0FF301568E5B1116800E0491C0D78B8
:10444000202D02D30D783A2DF8D10D783A2D0FD1C9
:10445000146814F8015BA5F130030A2B07D28C42D3
:1044600005D1022B03D218464D1C2946156070BD9C
:10447000002000BFFBE770B504460D460020207108
:10448000401EE06229462046FEF71BFF08B10320CC
:1044900070BD94F82E1294F82F0241EA00204AF6DB
:1044A0005521884201D00220F2E794F86900010604
:1044B00094F8680041EA004194F8670041EA00205E
:1044C00094F86610084320F07F404049884201D1AB
:1044D0000020DDE794F88500010694F8840041EAA5
:1044E000004194F8830041EA002094F882100843C8
:1044F00020F07F403549884201D10020C8E70120E3
:10450000C6E72DE9F74F8AB000210A9801600B98A1
:10451000FFF78CFF09900998002803DA0B200DB0F3
:10452000BDE8F08F2A49099851F820400CB90C20B9
:10453000F5E70A980460207878B16078FEF74EFDC0
:10454000814609F0010040B90C9820B109F004003F
:1045500008B10A20E3E70020E1E700202070099875
:1045600060706078FEF748FD814609F0010008B1EF
:104570000320D4E70C9820B109F0040008B10A2008
:10458000CDE7607804F10A020221FEF703FE38B994
:104590006089B0F5007F03DB6089B0F5805F01DDE5
:1045A0000120BCE7002739462046FFF764FF054697
:1045B000012D0FD0D5BB41E0222A3A3C3E3F7C7F03
:1045C000000000002B2C3B3D5B5D00004641540089
:1045D0008400002000261AE004F5F77000EB0618AE
:1045E00098F8040070B198F80B00010698F80A00DA
:1045F00041EA004198F8090041EA002098F80810C3
:10460000084300E0002002A941F82600761C042E91
:10461000E2D3002606B1761E00BF02A850F826702D
:104620002FB139462046FFF726FF01E006E00220C1
:1046300005461DB1701C06460428EED3032D01D19A
:1046400001206CE70DB10D2069E73B20015D94F876
:104650003C0041EA00206189884201D00D205EE7DC
:104660004620015D94F8470041EA002ABAF1000FA4
:104670000ED194F85700010694F8560041EA004123
:1046800094F8550041EA002094F8541040EA010AD9
:10469000C4F818A04020005DE070E078012804D044
:1046A000E078022801D00D2039E7E0780AFB00FA13
:1046B0003D20005DA070A07818B1A078411E084090
:1046C00008B10D202BE74120015D94F8420041EA3A
:1046D000002020816089C11700EBD1614911228936
:1046E00092FBF1F301FB132109B10D2017E74320E1
:1046F000015D94F8440041EA00200890089870B9E0
:1047000094F85300010694F8520041EA004194F8ED
:10471000510041EA002094F85010084308903E20D0
:10472000015D94F83F0041EA00200190019808B92A
:104730000D20F4E66089C11700EBD161491122898F
:1047400092FBF1F20199514411440791DDE9071000
:10475000884201D20D20E2E6DDE90710401AA17877
:10476000B0FBF1FBBBF1000F01D10D20D7E6012515
:1047700040F6F670834500D302254FF6F670834568
:1047800000D303250BF102006061E7610198384412
:10479000206207983844A062032D16D1208908B101
:1047A0000D20BCE694F85F00010694F85E0041EA33
:1047B000004194F85D0041EA002094F85C10084341
:1047C000606260698000069014E0208908B90D20BD
:1047D000A5E6206A50446062022D02D16069400063
:1047E00007E0207D00F00100616901EB410100EB71
:1047F000510006906089401E069908446189B0FB0B
:10480000F1F0A169884201D90D2088E64FF0FF3010
:104810002061E06080206071032D5AD194F860100F
:1048200094F8610041EA0020012852D1791C204609
:10483000FEF747FDE8BB0020607194F82E1294F853
:104840002F0241EA00204AF65521884241D1332007
:10485000005D01063220005D41EA00413120005D2B
:1048600041EA002094F830100843F549884230D1DD
:1048700094F81702010694F8160241EA004194F8F0
:10488000150241EA002094F814120843ED498842C9
:104890001FD194F81B02010694F81A0241EA004164
:1048A00094F8190241EA002094F818120843206194
:1048B00000E00EE094F81F02010694F81E0241EA9F
:1048C000004194F81D0241EA002094F81C120843AC
:1048D000E0602570DC480088401C80B2DA4908801E
:1048E000E08000201BE670B505462C4684B12068A8
:1048F00070B12068007858B12068C088A1888842CB
:1049000006D121684878FEF769FB00F0010008B184
:10491000092070BD0020FCE7F7B582B01646039869
:10492000019001A8FFF782FD0546002D02DA0B2059
:1049300005B0F0BDC54850F825400CB100202070EE
:10494000029810B1002002990870C049029841F8FD
:104950002500029808B1012E01D00020E8E70022CE
:1049600003A902A8FFF7CDFD07463846E0E72DE989
:10497000F743ADF50C7D0546164625B909200DF522
:104980000F7DBDE8F0830020286006F01F0626F0AA
:1049900001028DA983A8FFF7B4FD0746002F74D14B
:1049A00080A88990CDF828D283A88D99FFF7F6FCCE
:1049B0000746889C0FB904B9062706F01C0000289A
:1049C0005CD04FB1042F03D183A8FFF767FA0746E5
:1049D00046F00806889C09E0E07A00F0110008B172
:1049E000072703E006F0040000B10827002F55D187
:1049F00006F00800002851D0FEF7FFFB804684F83F
:104A00000E804FEA1821E1734FEA184121744FEAF2
:104A10001861617484F816804FEA1821E1754FEA35
:104A2000184121764FEA186161760020E072207704
:104A300000216177A177E17721468398FEF7FFFF98
:104A4000814600212046FFF70AF80120839908716A
:104A5000B9F1000F22D08398D0F82C804946839872
:104A6000FEF71DFE0746CFB9A9F101008399C86082
:104A700041468398FEF725FC07460FE077B9E07AB8
:104A800000F0100010B1042708E02DE006F002004D
:104A900020B1E07A00F0010000B1072747B906F025
:104AA000080008B146F020068398C06AE8612C62CD
:104AB000D7B9AE710020E87121468398FEF7BFFF99
:104AC0002861E07F0106A07F41EA0041607F41EA62
:104AD0000020217F0843E8600020A860A861839837
:104AE00028602868C088A880384648E72DE9FF4F2D
:104AF00085B0044615469A46DDF818B00020CAF87D
:104B000000002046FFF7EFFE0490049818B10498C7
:104B100009B0BDE8F08FE07908B1E079F8E7A07955
:104B200000F0010008B90720F2E7D4E90210401AAA
:104B300002900298854200D9029DC2E0216849890D
:104B4000A068B0FBF1F201FB1200002877D12168C8
:104B50004989A068B0FBF1F021688978491E0840B6
:104B600000F0FF09B9F1000F17D1A06810B9206952
:104B7000039004E061692068FEF72EFC039003981F
:104B8000022802D20220E071C2E70398401C10B94B
:104B90000120E071BCE70398606161692068FEF75D
:104BA0000EFC064616B90220E071B1E74E442068BB
:104BB0004089B5FBF0F8B8F1000F2DD009EB0800E3
:104BC00021688978884203D920688078A0EB090899
:104BD00021684878434632465946FEF722FA10B11A
:104BE0000120E07194E7A07900F0400078B1A0695D
:104BF000801B40450BD2A169891B23685B8901FB9F
:104C000003B021684A8904F12401FEF7FDFA206807
:104C1000408900FB08F74AE0A069B04228D0A0799B
:104C200000F04000C0B121684878012304F124015C
:104C3000A269FEF751FA58B10120E07168E718E067
:104C400052526141727241618C0000208400002048
:104C5000A07920F04000A0712168487801233246F5
:104C600004F12401FEF7DDF910B10120E0714FE7F6
:104C7000A66121684989A068B0FBF1F201FB12002E
:104C8000216849890F1AAF4200D92F462168498906
:104C9000A068B0FBF1F201FB120104F1240008440A
:104CA0003A46014601905846FEF7AEFA00BFBB44B3
:104CB000A0683844A060DAF800003844CAF8000060
:104CC000ED1B002D7FF43AAF002021E72DE9FF4FC7
:104CD00083B0044615469B46049801900020CBF80B
:104CE00000002046FFF7FFFD0290029818B10298DD
:104CF00007B0BDE8F08FE07908B1E079F8E7A07976
:104D000000F0020008B90720F2E7A0682844A16873
:104D1000884200D20025CFE021684989A068B0FB15
:104D2000F1F201FB120000287ED121684989A068B8
:104D3000B0FBF1F021688978491E084000F0FF0AB5
:104D4000BAF1000F1ED1A06838B9276957B9002100
:104D50002068FEF7DAFC074604E061692068FEF788
:104D6000D4FC074607B9AAE0012F02D10220E07166
:104D7000BEE7781C10B90120E071B9E767612069CE
:104D800000B92761A07900F0400078B12168487827
:104D9000012304F12401A269FEF79EF910B101205C
:104DA000E071A5E7A07920F04000A071616920685A
:104DB000FEF705FB064616B90220E07198E7564457
:104DC00020684089B5FBF0F9B9F1000F31D00AEB4A
:104DD000090021688978884203D920688078A0EB8F
:104DE0000A09216848784B4632460199FEF774F962
:104DF00010B10120E0717BE7A069801B484511D20A
:104E0000A069831B2068B0F80AC0019803FB0C015D
:104E10002068428904F12400FEF7F6F9A07920F019
:104E20004000A071206800E017E0408900FB09F80D
:104E300035E0A069B0420FD0D4E9020188420BD21C
:104E4000216848780123324604F12401FEF7E9F88D
:104E500010B10120E0714BE7A66121684989A06883
:104E6000B0FBF1F201FB120021684989A1EB0008B7
:104E7000A84500D9A84621684989A068B0FBF1F28D
:104E800001FB120104F124000844424600900199FC
:104E9000FEF7BAF9A07940F04000A07100BF019878
:104EA00040440190A0684044A060DBF8000040440A
:104EB000CBF80000A5EB0805002D7FF42DAF00BF57
:104EC000D4E90201884201D9A068E060A07940F0ED
:104ED0002000A07100200BE72DE9F0410446204698
:104EE000FFF701FD0746002F4CD1A07900F020000C
:104EF000002847D0A07900F0400078B121684878B8
:104F0000012304F12401A269FEF7E6F810B10120A3
:104F1000BDE8F081A07920F04000A071E16920682F
:104F2000FEF7CFF90746002F2CD1256AE87A40F02A
:104F30002000E872207B2877A089010A6977E06861
:104F4000010CA977E068010EE97728462169FEF790
:104F500086FDFEF752F90646AE75310AE975310C49
:104F60002976310E69760020A8740021E974A079B1
:104F700020F02000A0710120216808712068FEF750
:104F8000BAF907463846C3E770B505462846FFF725
:104F9000A3FF044634B92846FFF7A5FC04460CB924
:104FA00000202860204670BD2DE9F04704460E46DB
:104FB0002046FFF798FC8246BAF1000F02D0504617
:104FC000BDE8F087E07908B1E079F9E7E068B04240
:104FD00004D2A07900F0020000B9E668D4F8089085
:104FE0004FF00008C4F80880002E71D02068807847
:104FF0002168498900FB01F7B9F1000F11D0701E3B
:10500000B0FBF7F1A9F10100B0FBF7F0814208D342
:10501000A9F10100791E8843A060A068361A65696D
:1050200012E025697DB900212068FEF76EFB054678
:10503000012D02D10220E071C2E7681C10B90120E5
:10504000E071BDE725616561002D41D023E0A079C5
:1050500000F0020038B129462068FEF756FB0546ED
:1050600035B93E4619E029462068FEF7B5F90546F0
:10507000681C10B90120E071A2E7012D03D9206856
:105080004069A84202D80220E07199E76561A068F2
:105090003844A060F61BBE42D9D800BFA068304497
:1050A000A06020684089B6FBF0F100FB116078B188
:1050B00029462068FEF783F98046B8F1000F02D137
:1050C0000220E0717CE720684089B6FBF0F0804464
:1050D00021684989A068B0FBF1F201FB120020B3FE
:1050E000A069404521D0A07900F0400078B1216846
:1050F0004878012304F12401A269FDF7EDFF10B106
:105100000120E0715CE7A07920F04000A0712168E7
:1051100048780123424604F12401FDF782FF10B1D3
:105120000120E0714CE7C4F81880D4E902018842FC
:1051300005D9A068E060A07940F02000A071504639
:105140003EE733B5ADF5057D04461CB909200DF5E4
:10515000077D30BD002286A984A8FFF7D2F9054655
:105160002DBB8498206081A8A06101A8E061204641
:105170008699FFF713F90546B5B9606958B16069BA
:10518000C07A00F0100028B161698498FEF757FCDE
:10519000A06000E005253DB98498C088A08000216A
:1051A0002046FEF71DFB0546042D00D105250DB157
:1051B000002020602846CAE770B504462046FFF765
:1051C00092FB05460DB900202060284670BD70B5E1
:1051D000ADF5047D04460E462046FFF784FB0546E8
:1051E0001DBB2EB900212046FEF7FAFA05461CE049
:1051F00081A8A06101A8E06100212046FEF7E7FD3B
:105200000546042D02D10020206100256DB93146EC
:105210002046FEF70DFF00212046FEF745FB054620
:10522000042D02D100202061002528460DF5047DC3
:1052300070BD33B5ADF50D7D0D4600228DA984A856
:10524000FFF75FF9044694B981A88A9001A88B9072
:1052500084A88D99FFF7A2F8044644B9899828B12B
:105260002DB1294684A8FEF7E3FE00E0062420467F
:105270000DF50F7D30BD2DE9F74F82B08A46002233
:1052800002A90498FFF73DF9019004980468019879
:1052900000286DD1D4E90410801E814203D8206912
:1052A000CAF8000064E094F800B00026BBF1010FDA
:1052B0001CD1022700BF39462046FEF78DF88046F4
:1052C00008F1010010B9012001900EE0B8F1010FC2
:1052D00002D10220019008E0B8F1000F00D1761C45
:1052E000781C074661698842E5D33AE06769206A1D
:1052F00000904FF00009002500BFB9F1000F0ED15A
:105300000098421C014620460092FDF7DAFF01900A
:10531000019800B124E004F13005B4F80A90BBF123
:10532000020F09D12878697840EA012000B9761C7B
:10533000AD1CA9F1020910E0E8780006A97840EA5E
:105340000140697840EA01202978084320F0704044
:1053500000B9761C2D1DA9F10409781E071ECCD1B9
:1053600000BF2661607940F001006071CAF80060FA
:10537000019805B0BDE8F08F70B504462046FFF7F0
:10538000B2FA054645B9E07908B1E57904E0A079BB
:1053900000F0020000B90725002D47D1D4E9021022
:1053A000884241D9A068E060A07940F02000A07157
:1053B000A06838B921692068FEF771F90546002018
:1053C00020611DE061692068FEF706F806460025A9
:1053D000701C00B90125012E00D1022585B9206875
:1053E0004069B0420CD96FF0704261692068FEF7E5
:1053F00092F8054625B931462068FEF750F9054672
:1054000095B9A07900F0400070B121684878012377
:1054100004F12401A269FDF75FFE08B1012503E054
:10542000A07920F04000A07105B1E571284670BD5B
:1054300071B5ADF5157D0026012295A98CA8FFF761
:1054400060F80446002C46D180A89290CDF84CD24A
:105450008CA89599FEF7A2FF044600BF002C3AD114
:10546000919D0DB9062404E0E87A00F0010000B136
:105470000724FCB929468C98FEF7E1FA0646CEB11E
:10548000E87A00F01000A8B124228CA983A8FDF7C7
:10549000BBFE8596022183A8FEF7A2F904464CB90B
:1054A000002183A8FEF793FC044604B90724042CCA
:1054B00000D100247CB98CA8FEF785FD04462CB9E8
:1054C00026B131468C98FEF7EAF804461CB98C9850
:1054D000FDF711FF044620460DF5167D70BD2DE940
:1054E000F147ADF50D7DFDF788FE064601228DA939
:1054F00084A8FFF706F80546002D6FD181A88A9091
:1055000001A88B9084A88D99FEF748FF054605B940
:10551000082500BF042DF0D100218498FEF7F5F88E
:105520000746002507B90725012F00D10225781C61
:1055300000B901251DB98498FDF79AFE0546002D96
:105540005BD139468498FDF73AFF8146849800F193
:1055500030048498428900212046FDF762FE0B2228
:1055600020212046FDF75DFE2E2020701020E072E5
:10557000A675310AE175310C2176310E6176394616
:105580002046FEF76CFA2022214604F12000FDF7A8
:105590003BFE2E2084F82100DDF818A284980078C4
:1055A000032804D18498406A504500D1AA46514648
:1055B00004F12000FEF753FA849890F8028018E076
:1055C0008498C0F82C9009F1010901208499087190
:1055D0008498FDF74DFE05460DB10DE02DE0849851
:1055E000428900212046FDF71CFEA8F1010000F0D1
:1055F000FF08B8F1000FE3D100BF1DB984A8FEF782
:105600004DFC054625B139468498FEF748F814E06C
:10561000899C1020E072A675310AE175310C217663
:10562000310E617639462046FEF719FA0120849939
:1056300008718498FDF75FFE054628460DF50E7D3E
:10564000BDE8F087F7B5ADF50C7D0F461446012295
:105650008CA983A8FEF755FF0646EEB980A889906D
:10566000CDF828D283A88C99FEF798FE064600BF95
:1056700096B9889D0DB906260EE004F0270407EAC6
:105680000400E97AA1430843E87201208399087174
:105690008398FDF730FE064630460DF50F7DF0BDD0
:1056A000F3B5ADF51B7D01229BA992A8FEF729FF5A
:1056B0000446002C75D19298899080A89890CDF8D6
:1056C00064D292A89B99FEF769FE044600BF002CA5
:1056D00067D1979808B9042463E0979800F10B010B
:1056E000152283A8FDF790FD242292A989A8FDF731
:1056F0008BFD9CA8FEF79AFE002805DB89A89C99E3
:10570000FEF74CFE044600E00B2404B90824042CE8
:1057100047D189A8FEF7C2FB0446002C41D18E9DDB
:1057200013220DF20E2105F10D00FDF76DFD9DF820
:105730000C0240F02000E872012092990871E87A8A
:1057400000F0100018B38B99949888421FD0294616
:105750009298FEF774F9074639469298FDF72FFEA6
:1057600006460EB9022412E031469298FDF7A9FDD3
:105770000446929800F150054CB968782E2806D15D
:1057800028468B99FEF76BF901209299087144B96C
:1057900092A8FEF718FC04461CB99298FDF7ABFDE1
:1057A000044620460DF51D7DF0BD73B5ADF50C7DAD
:1057B0000D4601228CA983A8FEF7A3FE0646FEB97A
:1057C00080A88990CDF828D283A88C99FEF7E6FDB1
:1057D000064600BFA6B9889C0CB9062610E0A87939
:1057E000A075E8880112E17528792076A888011251
:1057F00061760120839908718398FDF77CFD064648
:1058000030460DF50E7D70BD2DE9F74F90B09146F5
:105810001198012803DD132013B0BDE8F08F10A804
:10582000FEF704FE0F900F98002801DA0B20F3E733
:10583000FA490F9851F820500DB90C20ECE70020E0
:1058400028700F98C0B20C9000200B900C98FDF7B8
:10585000D3FB0190019800F0010008B10320DBE7C1
:10586000019800F0040008B10A20D5E705F10A020A
:1058700002210C98FDF78EFC38B96889B0F5805F7D
:1058800003DC6889B0F5007F01DA0120C4E700BFBE
:1058900004AA01210C98FDF77DFC10B9049880281A
:1058A00001D20120B8E7119808B1002000E03F20A4
:1058B00082460498A0EB0A000490A9F1010000EAD6
:1058C000090008B14FF00009B9F1000F1AD1688939
:1058D000C11700EBD15149124FF4FA6292FBF1F17A
:1058E000049AB2FBF1F10A914FF0000B01E00BF1C9
:1058F000010BCB4830F81B100A988142F7D8C948F1
:1059000030F81B90B9F5007F02D36889B9FBF0F934
:10591000B9F1000F01D14FF00109B9F1800F01D9A0
:105920004FF080090498B0FBF9F8012640F6F670B4
:10593000804500D302264FF6F670804500D303263B
:10594000032E0CD1082000EB880069890844401E12
:10595000B0FBF1F7202003900020029019E0012E07
:1059600005D108EB4800401C4008C01C02E04FEA8B
:105970004800001D074668893844401E6989B0FB0D
:10598000F1F70120039068894FF48041B1FBF0F0FA
:105990000290039850440790079838440690029963
:1059A00006980844059005984844A0EB0A0004991D
:1059B000884201D90E202FE709AA03210C98FDF790
:1059C000E9FB28B9099818B10998B0F5004F01D939
:1059D00001200990099905980844401E491E8843F2
:1059E000099009990598081A0990032E08D1099978
:1059F000039808440390099907980844079001E028
:105A000009980744DDE90301081AC11B0298081A26
:105A1000B0FBF9F8022E03D140F6F670804505D3AD
:105A2000032E05D14FF6F670804501D20E20F3E625
:105A3000032E02D10C200D9010E0012E06D1049807
:105A4000B0F5803F02D201200D9007E00498B0F538
:105A5000803F01D2042000E006200D9000BF119885
:105A600010B1F0200E9043E06A89002105F130006A
:105A7000FDF7D7FB05F5F77401206070A0700020DA
:105A8000E0700D982071FE206071049850443F2111
:105A9000B0FBF1F0FF21B0FBF1F009903F21099834
:105AA00041EA9000A0710998E0713F202072002126
:105AB0006172A172E172049820730498010A617303
:105AC0000498010CA1730498010EE173552185F827
:105AD0002E12AA2185F82F120123002205F1300190
:105AE0000C98FDF7F9FA08B1012095E6F8200E9020
:105AF00005F130046A8900212046FDF792FB0B2254
:105B000049A12046FDF780FBB5F80AB084F80BB038
:105B10004FEA1B21217384F80D900398A07303981A
:105B2000010AE17301202074032E01D1002001E05D
:105B30004FF40070834684F811B04FEA1B21A17422
:105B40000498B0F5803F05D20498E0740498010AE7
:105B5000217510E0049884F820000498C0F3072110
:105B6000212001550498C0F30741222001550498D3
:105B7000010E232001550E9860753F2020760021EC
:105B80006176FF20A076E17684F81CA04FEA1A2106
:105B900061774FEA1A41A1774FEA1A61E177FDF781
:105BA0002CFB0990032E4BD1099884F843000998E7
:105BB000C0F30721442001550998C0F3074145204F
:105BC00001550998010E4620015584F82470C7F349
:105BD000072125200155C7F3074126200155390E1D
:105BE00027200155022084F82C0000212D2001558A
:105BF0002E2001552F200155012084F8300031203E
:105C00000155062084F8320033200155802084F8A5
:105C10004000292084F8420013220BE08400002079
:105C20001266000828660008EBFE904D53444F535F
:105C3000352E3000F7A104F14700FDF7E5FA1FE02B
:105C4000099884F827000998C0F3072128200155F6
:105C50000998C0F30741292001550998010E2A200F
:105C60000155A775390AE175802084F824002920A0
:105C700084F826001322ECA104F12B00FDF7C4FAEE
:105C8000552084F8FE01AA2140F2FF10015501239E
:105C9000524621460C98FDF71FFA08B10120BBE5DA
:105CA000032E06D101230AF1060221460C98FDF7C6
:105CB00013FA079808904FF0000B5FE06A89002103
:105CC0002046FDF7AEFA0E980990032E14D0012E4F
:105CD00001D1DA4801E06FF0FF000999084309900B
:105CE000099820700998000A60700998000CA0704B
:105CF0000998000EE07019E0099860F0FF00099023
:105D0000099820700998000A60700998000CA0702A
:105D10000998000EE070FF202071FF216171A171D0
:105D2000E17120726172A1720F21E1720898411C29
:105D300002460123089121460C98FDF7CDF908B1E0
:105D4000012069E56A8900212046FDF76AFA0120F1
:105D500009900EE00898411C024601230891214653
:105D60000C98FDF7B9F908B1012055E50998401CD8
:105D700009900998B842EDD30BF1010BBBF1000F6C
:105D80009CD0032E01D1484600E00298834600BF14
:105D90000898411C02460123089121460C98FDF702
:105DA0009BF908B1012037E5ABF10100B0F1000B20
:105DB000EED1032E49D15220207060706120A07076
:105DC0004120E070722084F8E401722140F2E51075
:105DD00001554121401C01556121401C0155A8F18C
:105DE000010084F8E801C0F3072140F2E9100155F1
:105DF000A8F10100C0F307414FF4F5700155A8F177
:105E00000100010E40F2EB100155022084F8EC0174
:105E1000002140F2ED100155401C0155401C015578
:105E2000552084F8FE01AA2140F2FF1001550123FC
:105E30000AF1010221460C98FDF74EF901230AF1FF
:105E4000070221460C98FDF747F9002211460C98ED
:105E5000FDF7A0F908B10120DEE40020DCE42DE923
:105E6000FC4707468846914600243E4613E06B46B1
:105E7000012201A94846FEF739FE0098012800D00A
:105E80000DE09DF8045000BF06F8015B641C0A2D6C
:105E900000D104E000BFA8F10100A042E7DC00BF90
:105EA0000020307014B13846BDE8FC870020FBE7C5
:105EB000F8B504460E4600BF6568002D00DAF8BD4F
:105EC00028466D1C04F10C010E543D2D0CDB6B4675
:105ED0002A462068FEF7FAFE0098A84201D1002069
:105EE00001E04FF0FF3005466560A068401CA060EF
:105EF00000BFE4E730B595B004460D46029500209A
:105F000003900490214602A8FFF7D2FF03980028CF
:105F10000DDB01AB05A9DDE90202FEF7D7FE30B9C2
:105F200001990398884202D1049815B030BD4FF012
:105F3000FF30FAE730B595B004460D4602950020D3
:105F40000390049004E014F8011B02A8FFF7B0FFCF
:105F500020780028F7D1039800280DDB01AB05A9B4
:105F6000DDE90202FEF7B2FE30B9019903988842DA
:105F700002D1049815B030BD4FF0FF30FAE70FB4EE
:105F80002DE9F04F9BB024980190002002900390DF
:105F900026A81A9000BF259810F8014B259004B947
:105FA00024E1252C04D0214601A8FFF781FFF2E768
:105FB000002006468146259810F8014B2590302C8C
:105FC00005D10126259810F8014B259006E02D2CCF
:105FD00004D10226259810F8014B259009E009EB21
:105FE000890004EB4000A0F13009259810F8014B1E
:105FF0002590302C01DB392CF1DD6C2C01D04C2CA0
:1060000005D146F00406259810F8014B2590BCB93F
:10601000ECE000004E4F204E414D45202020204610
:1060200041543332202020004E4F204E414D452018
:1060300020202046415420202020200000FFFF0087
:106040002546612D04DB7A2D02DCA5F12000C5B2C6
:106050004F2D49D006DC422D43D0432D38D0442D5E
:106060004CD144E0532D04D0552D41D0582D45D16D
:1060700041E01A9850F804BB1A904FF0000801E074
:1060800008F101081BF808000028F9D106F0020009
:1060900048B903E0202101A8FFF70AFF404608F1B4
:1060A00001084845F6D304E01BF8011B01A8FFF7DF
:1060B000FFFE9BF800000028F6D103E0202101A894
:1060C000FFF7F6FE404608F101084845F6D362E7BF
:1060D0001A9810F8042BD1B21A9001A8FFF7E8FE25
:1060E00059E7022019900EE0082019900BE000BF3C
:1060F0000A20199007E01020199004E0214601A819
:10610000FFF7D6FE47E700BF06F0040028B11A9853
:1061100000681A99091D1A910CE0442D05D11A98AE
:1061200000681A99091D1A9104E01A9800681A99D2
:10613000091D1A918246442D06D10AF0004018B17B
:10614000CAF1000A46F00806002700BF1998BAFBFA
:10615000F0F100FB11A0C5B21998BAFBF0FA092DB5
:1061600006DD782C01D1272000E007202844C5B2A5
:1061700005F13000C2B238467F1C14A90A54BAF1A6
:10618000000F01D0102FE1D306F0080020B12D221E
:1061900038467F1C14A90A54B84606F0010008B11D
:1061A000302000E02020054603E0294601A8FFF743
:1061B0007FFE06F0020020B9404608F1010848457C
:1061C000F3D300BF781E074614AA115C01A8FFF79D
:1061D0006FFE002FF6D103E0294601A8FFF768FE05
:1061E000404608F101084845F6D3D4E600BF002038
:1061F0001A900298002810DB18AB04A9DDE901020F
:10620000FEF764FD48B918990298884205D10398B1
:106210001BB0BDE8F00F5DF814FB4FF0FF30F7E75F
:106220002DE9F04102460F46802A01DA10462FE0A0
:106230001FB12D4B45F2205602E02C4B45F2205663
:106240000025102416E0A6EB050C0CEBDC7805EB22
:1062500068014FEA410C33F81CC0944500D10BE0B3
:106260004FEA410C33F81CC0944501DA0D4600E0BA
:106270000E46641E002CE6D100BF34B14FF0010C75
:106280000CEB410C33F81CC001E04FF0000C6046F1
:10629000BDE8F08130B5802807DA612823DB7A2851
:1062A00021DCA0F12005A8B21DE00C2200234FF450
:1062B000F77400BFE51A03EB55010D4D35F8115089
:1062C000854200D10AE00A4D35F81150854201DAC5
:1062D0000B4600E00C46551E2A1EEBD100BF12B142
:1062E000044D35F8110030BDC2BA01083E66000801
:1062F000460F0308221303082DE9F05F054600202E
:1063000092469B4688460646814640241BE0284626
:1063100041464746224600F057F853465A46C01AAF
:10632000914110D311461846224600F03EF82D1A2E
:1063300067EB01084F4622460120002100F035F8A6
:1063400017EB00094E41201EA4F10104DFDC484692
:1063500031462A464346BDE8F09F40EA01039B07C9
:1063600003D009E008C9121F08C0042AFAD203E0CA
:1063700011F8013B00F8013B521EF9D2704730B5CD
:106380000B46014600202022012409E021FA02F5F3
:106390009D4205D303FA02F5491B04FA02F528448D
:1063A000151EA2F10102F1DC30BD202A04DB203AE7
:1063B00000FA02F1002070479140C2F1200320FA58
:1063C00003F3194390407047202A04DB203A21FA56
:1063D00002F00021704721FA02F3D040C2F12002FE
:1063E0009140084319467047064C074D06E0E068A7
:1063F00040F0010394E8070098471034AC42F6D30C
:10640000F9F79AFE00170308201703080FB4054B8D
:1064100010B503A9044A029800F018F810BC5DF802
:1064200014FB0000991800089000002002E008C842
:10643000121F08C1002AFAD170477047002001E0FE
:1064400001C1121F002AFBD1704700002DE9FF4F48
:106450008BB09A460F460546002606E025280BD04D
:1064600052460D9990476D1C761C28780028F5D16E
:106470000FB03046BDE8F08F0024A04601226049ED
:1064800000E0044315F8013F203B02FA03F0084204
:10649000F7D128782E2817D115F8010F44F00404FD
:1064A0002A280ED06FF02F022878A0F13001092998
:1064B0000AD808EB880102EB410100EB01086D1CD2
:1064C000F2E757F8048B6D1C287869283ED006DC6B
:1064D0000028CDD063280BD0642804D136E073287F
:1064E00010D075284BD052460D999047761C85E008
:1064F00017F8040B8DF8000000208DF80100E94624
:10650000012003E057F8049B4FF0FF3061074FF084
:10651000000401D40AE0641C44450DDA8442FADB2D
:1065200019F804100029F6D106E0641C8442FCDB53
:1065300019F804100029F8D1264404E019F8010BD9
:1065400052460D999047641EF8D257E001CF4FF0A4
:106550000A0B002802DA40422D2102E0210504D571
:106560002B218DF82410012103E0E10705D0202123
:10657000F7E70DF1200908910CE00021F9E701CFC0
:106580004FF00A0BF9E75946FFF7F9FE01F1300227
:1065900009F8012D0028F6D1ADEB090000F1200B20
:1065A000600701D44FF00108D84502DDA8EB0B00CD
:1065B00000E000208046002406E009A85246005D65
:1065C0000D999047641C761C08988442F5DB04E022
:1065D000302052460D999047761CB8F10001A8F181
:1065E0000108F5DC05E019F8010B52460D999047BA
:1065F000761CBBF10001ABF1010BF4DC6D1C34E740
:106600000928010001030507090E10121416181CB1
:106610001E00000400020001800040002000100065
:10662000080004000200000000800040002000106C
:106630000008004000200010000800040002A40030
:10664000E8A1A700ECA1A800A7A1B000E3A1B100B8
:10665000C0A1B700A4A1D700C1A1E000A4A8E10097
:10666000A2A8E800A8A8E900A6A8EA00BAA8EC0039
:10667000ACA8ED00AAA8F200B0A8F300AEA8F700FD
:10668000C2A1F900B4A8FA00B2A8FC00B9A801019F
:10669000A1A81301A5A81B01A7A82B01A9A8440123
:1066A000BDA84801BEA84D01ADA86B01B1A8CE019F
:1066B000A3A8D001ABA8D201AFA8D401B3A8D6013A
:1066C000B5A8D801B6A8DA01B7A8DC01B8A851026C
:1066D000BBA86102C0A8C702A6A1C902A5A1CA029F
:1066E00040A8CB0241A8D90242A89103A1A69203D7
:1066F000A2A69303A3A69403A4A69503A5A6960316
:10670000A6A69703A7A69803A8A69903A9A69A03E5
:10671000AAA69B03ABA69C03ACA69D03ADA69E03B5
:10672000AEA69F03AFA6A003B0A6A103B1A6A30384
:10673000B2A6A403B3A6A503B4A6A603B5A6A70351
:10674000B6A6A803B7A6A903B8A6B103C1A6B2030B
:10675000C2A6B303C3A6B403C4A6B503C5A6B603B5
:10676000C6A6B703C7A6B803C8A6B903C9A6BA0385
:10677000CAA6BB03CBA6BC03CCA6BD03CDA6BE0355
:10678000CEA6BF03CFA6C003D0A6C103D1A6C30324
:10679000D2A6C403D3A6C503D4A6C603D5A6C703F1
:1067A000D6A6C803D7A6C903D8A60104A7A7100474
:1067B000A1A71104A2A71204A3A71304A4A7140459
:1067C000A5A71504A6A71604A8A71704A9A7180427
:1067D000AAA71904ABA71A04ACA71B04ADA71C04F5
:1067E000AEA71D04AFA71E04B0A71F04B1A72004C5
:1067F000B2A72104B3A72204B4A72304B5A7240495
:10680000B6A72504B7A72604B8A72704B9A7280464
:10681000BAA72904BBA72A04BCA72B04BDA72C0434
:10682000BEA72D04BFA72E04C0A72F04C1A7300404
:10683000D1A73104D2A73204D3A73304D4A7340498
:10684000D5A73504D6A73604D8A73704D9A7380466
:10685000DAA73904DBA73A04DCA73B04DDA73C0434
:10686000DEA73D04DFA73E04E0A73F04E1A7400404
:10687000E2A74104E3A74204E4A74304E5A74404D4
:10688000E6A74504E7A74604E8A74704E9A74804A4
:10689000EAA74904EBA74A04ECA74B04EDA74C0474
:1068A000EEA74D04EFA74E04F0A74F04F1A7510443
:1068B000D7A710205CA9132043A81420AAA1152053
:1068C00044A81620ACA11820AEA11920AFA11C200D
:1068D000B0A11D20B1A1252045A82620ADA13020C2
:1068E000EBA13220E4A13320E5A1352046A83B20CE
:1068F000F9A1AC2080000321E6A1052147A80921C8
:1069000048A81621EDA1212159A96021F1A26121F8
:10691000F2A26221F3A26321F4A26421F5A265210F
:10692000F6A26621F7A26721F8A26821F9A26921DF
:10693000FAA26A21FBA26B21FCA27021A1A2712103
:10694000A2A27221A3A27321A4A27421A5A27521DF
:10695000A6A27621A7A27721A8A27821A9A27921AF
:10696000AAA29021FBA19121FCA19221FAA193213D
:10697000FDA1962149A897214AA898214BA89921C1
:106980004CA80822CAA10F22C7A11122C6A1152214
:106990004DA81A22CCA11D22D8A11E22DEA11F22A1
:1069A0004EA82022CFA123224FA82522CEA1272204
:1069B000C4A12822C5A12922C9A12A22C8A12B220B
:1069C000D2A12E22D3A13422E0A13522DFA136228A
:1069D000C3A13722CBA13D22D7A14822D6A14C2268
:1069E000D5A1522250A86022D9A16122D4A164224B
:1069F000DCA16522DDA1662251A8672252A86E2281
:106A0000DAA16F22DBA1952292A89922D1A1A52219
:106A1000CDA1BF2253A81223D0A16024D9A2612402
:106A2000DAA26224DBA26324DCA26424DDA2652452
:106A3000DEA26624DFA26724E0A26824E1A2692422
:106A4000E2A27424C5A27524C6A27624C7A2772424
:106A5000C8A27824C9A27924CAA27A24CBA27B2412
:106A6000CCA27C24CDA27D24CEA27E24CFA27F24E2
:106A7000D0A28024D1A28124D2A28224D3A28324B2
:106A8000D4A28424D5A28524D6A28624D7A2872482
:106A9000D8A28824B1A28924B2A28A24B3A28B24CA
:106AA000B4A28C24B5A28D24B6A28E24B7A28F24C2
:106AB000B8A29024B9A29124BAA29224BBA2932492
:106AC000BCA29424BDA29524BEA29624BFA2972462
:106AD000C0A29824C1A29924C2A29A24C3A29B2432
:106AE000C4A20025A4A90125A5A90225A6A90325BC
:106AF000A7A90425A8A90525A9A90625AAA90725A6
:106B0000ABA90825ACA90925ADA90A25AEA90B2575
:106B1000AFA90C25B0A90D25B1A90E25B2A90F2545
:106B2000B3A91025B4A91125B5A91225B6A9132515
:106B3000B7A91425B8A91525B9A91625BAA91725E5
:106B4000BBA91825BCA91925BDA91A25BEA91B25B5
:106B5000BFA91C25C0A91D25C1A91E25C2A91F2585
:106B6000C3A92025C4A92125C5A92225C6A9232555
:106B7000C7A92425C8A92525C9A92625CAA9272525
:106B8000CBA92825CCA92925CDA92A25CEA92B25F5
:106B9000CFA92C25D0A92D25D1A92E25D2A92F25C5
:106BA000D3A93025D4A93125D5A93225D6A9332595
:106BB000D7A93425D8A93525D9A93625DAA9372565
:106BC000DBA93825DCA93925DDA93A25DEA93B2535
:106BD000DFA93C25E0A93D25E1A93E25E2A93F2505
:106BE000E3A94025E4A94125E5A94225E6A94325D5
:106BF000E7A94425E8A94525E9A94625EAA94725A5
:106C0000EBA94825ECA94925EDA94A25EEA94B2574
:106C1000EFA9502554A8512555A8522556A853250B
:106C200057A8542558A8552559A856255AA8572578
:106C30005BA858255CA859255DA85A255EA85B2548
:106C40005FA85C2560A85D2561A85E2562A85F2518
:106C500063A8602564A8612565A8622566A86325E8
:106C600067A8642568A8652569A866256AA86725B8
:106C70006BA868256CA869256DA86A256EA86B2588
:106C80006FA86C2570A86D2571A86E2572A86F2558
:106C900073A8702574A8712575A8722576A8732528
:106CA00077A8812578A8822579A883257AA88425C4
:106CB0007BA885257CA886257DA887257EA8882594
:106CC00080A8892581A88A2582A88B2583A88C2560
:106CD00084A88D2585A88E2586A88F2587A893252D
:106CE00088A8942589A895258AA8A025F6A1A1257C
:106CF000F5A1B225F8A1B325F7A1BC258BA8BD2528
:106D00008CA8C625F4A1C725F3A1CB25F0A1CE25DB
:106D1000F2A1CF25F1A1E2258DA8E3258EA8E425D7
:106D20008FA8E52590A80526EFA10626EEA1092645
:106D300091A84026E2A14226E1A10030A1A10130A4
:106D4000A2A10230A3A10330A8A10530A9A1063059
:106D500065A9073096A90830B4A10930B5A10A3059
:106D6000B6A10B30B7A10C30B8A10D30B9A10E30CF
:106D7000BAA10F30BBA11030BEA11130BFA112309B
:106D800093A81330FEA11430B2A11530B3A1163070
:106D9000BCA11730BDA11D3094A81E3095A821308C
:106DA00040A9223041A9233042A9243043A92530EB
:106DB00044A9263045A9273046A9283047A92930BB
:106DC00048A94130A1A44230A2A44330A3A4443036
:106DD000A4A44530A5A44630A6A44730A7A44830B3
:106DE000A8A44930A9A44A30AAA44B30ABA44C3083
:106DF000ACA44D30ADA44E30AEA44F30AFA4503053
:106E0000B0A45130B1A45230B2A45330B3A4543022
:106E1000B4A45530B5A45630B6A45730B7A45830F2
:106E2000B8A45930B9A45A30BAA45B30BBA45C30C2
:106E3000BCA45D30BDA45E30BEA45F30BFA4603092
:106E4000C0A46130C1A46230C2A46330C3A4643062
:106E5000C4A46530C5A46630C6A46730C7A4683032
:106E6000C8A46930C9A46A30CAA46B30CBA46C3002
:106E7000CCA46D30CDA46E30CEA46F30CFA47030D2
:106E8000D0A47130D1A47230D2A47330D3A47430A2
:106E9000D4A47530D5A47630D6A47730D7A4783072
:106EA000D8A47930D9A47A30DAA47B30DBA47C3042
:106EB000DCA47D30DDA47E30DEA47F30DFA4803012
:106EC000E0A48130E1A48230E2A48330E3A48430E2
:106ED000E4A48530E5A48630E6A48730E7A48830B2
:106EE000E8A48930E9A48A30EAA48B30EBA48C3082
:106EF000ECA48D30EDA48E30EEA48F30EFA4903052
:106F0000F0A49130F1A49230F2A49330F3A49B301A
:106F100061A99C3062A99D3066A99E3067A9A13005
:106F2000A1A5A230A2A5A330A3A5A430A4A5A530F5
:106F3000A5A5A630A6A5A730A7A5A830A8A5A930C5
:106F4000A9A5AA30AAA5AB30ABA5AC30ACA5AD3095
:106F5000ADA5AE30AEA5AF30AFA5B030B0A5B13065
:106F6000B1A5B230B2A5B330B3A5B430B4A5B53035
:106F7000B5A5B630B6A5B730B7A5B830B8A5B93005
:106F8000B9A5BA30BAA5BB30BBA5BC30BCA5BD30D5
:106F9000BDA5BE30BEA5BF30BFA5C030C0A5C130A5
:106FA000C1A5C230C2A5C330C3A5C430C4A5C53075
:106FB000C5A5C630C6A5C730C7A5C830C8A5C93045
:106FC000C9A5CA30CAA5CB30CBA5CC30CCA5CD3015
:106FD000CDA5CE30CEA5CF30CFA5D030D0A5D130E5
:106FE000D1A5D230D2A5D330D3A5D430D4A5D530B5
:106FF000D5A5D630D6A5D730D7A5D830D8A5D93085
:10700000D9A5DA30DAA5DB30DBA5DC30DCA5DD3054
:10701000DDA5DE30DEA5DF30DFA5E030E0A5E13024
:10702000E1A5E230E2A5E330E3A5E430E4A5E530F4
:10703000E5A5E630E6A5E730E7A5E830E8A5E930C4
:10704000E9A5EA30EAA5EB30EBA5EC30ECA5ED3094
:10705000EDA5EE30EEA5EF30EFA5F030F0A5F13064
:10706000F1A5F230F2A5F330F3A5F430F4A5F53034
:10707000F5A5F630F6A5FC3060A9FD3063A9FE3019
:1070800064A90531C5A80631C6A80731C7A80831CB
:10709000C8A80931C9A80A31CAA80B31CBA80C313C
:1070A000CCA80D31CDA80E31CEA80F31CFA810310C
:1070B000D0A81131D1A81231D2A81331D3A81431DC
:1070C000D4A81531D5A81631D6A81731D7A81831AC
:1070D000D8A81931D9A81A31DAA81B31DBA81C317C
:1070E000DCA81D31DDA81E31DEA81F31DFA820314C
:1070F000E0A82131E1A82231E2A82331E3A824311C
:10710000E4A82531E5A82631E6A82731E7A82831EB
:10711000E8A82931E9A82032E5A22132E6A22232EC
:10712000E7A22332E8A22432E9A22532EAA22632DB
:10713000EBA22732ECA22832EDA22932EEA23132A4
:107140005AA9A33249A98E334AA98F334BA99C333C
:107150004CA99D334DA99E334EA9A1334FA9C433E9
:1071600050A9CE3351A9D13352A9D23353A9D53323
:1071700054A9004EBBD2014EA1B6024E4081034E2F
:10718000DFC6044E4181054E4281064E4381074EC3
:10719000F2CD084EC9D5094EFDC80A4ECFC90B4ED7
:1071A000C2CF0C4EA2D80D4EBBB20E4EEBD30F4E3B
:1071B0004481104EA4D8114EF3B3124E4581134EA4
:1071C000A8D7144ED2C7154EA7D8164EC0CA174E10
:1071D0004681184EF0C7194EFBB11A4EB5D21B4E60
:1071E000D4B41C4EABB61D4EBFCB1E4EA9D81F4EFD
:1071F0004781204E4881214E4981224EAAB6234E16
:107200004A81244EBDC1254ECFD1264E4B81274EFB
:10721000A5C9284EADD8294E4C812A4EF6B82B4E22
:10722000BED12C4EDCE32D4ED0D62E4E4D812F4EAE
:107230004E81304EE1B7314E4F81324EAEB4334EB7
:107240005081344ED9C1354E5181364EBCD8374E5F
:107250005281384EE8CD394EA4B53A4EAACE3B4EB7
:10726000F7D63C4E53813D4EF6C03E4ED9BE3F4E02
:10727000AFD8404E5481414E5581424E5681434EC7
:10728000CBC4444E5781454EC3BE464E5881474EEF
:10729000B1D8484EB4C3494EE5D24A4E59814B4EFF
:1072A000AED64C4EDACE4D4EA7D54E4EF5BA4F4E19
:1072B000A6B7504ED6C0514E5A81524EB9C6534E03
:1072C000D2C5544EC7C7554E5B81564ED4B9574EA2
:1072D0005C81584ECBB3594ED2D25A4E5D815B4E33
:1072E0005E815C4EBFD85D4EC5BE5E4EF2C65F4E3F
:1072F000B2D2604EB0CF614EE7CF624E5F81634E37
:107300006081644E6181654E6281664EE9CA674E56
:107310006381684E6481694EC0D86A4E65816B4E48
:1073200066816C4E67816D4E68816E4E69816F4ECD
:107330006A81704EF2C2714ED2C2724E6B81734E30
:10734000E9C8744E6C81754E6D81764E6E81774EB4
:107350006F81784E7081794E71817A4E72817B4E49
:1073600073817C4E74817D4E75817E4EACC77F4E9D
:107370007681804E7781814E7881824E7981834EED
:107380007A81844E7B81854E7C81864ECBC1874E2F
:107390007D81884EE8D3894EF9D58A4E7E818B4E09
:1073A000C2CA8C4EFEB68D4EA1D88E4EDAD38F4E09
:1073B000F7BF904E8081914EC6D4924EA5BB934E9E
:1073C000C1D8944EE5CE954EAEBE964E8181974E75
:1073D0008281984EA8D8994E83819A4EC7D19B4EF0
:1073E000A9D09C4E84819D4E85819E4E86819F4E64
:1073F000BDD8A04EEFD9A14EF6CDA24EBABFA34E36
:107400008781A44EBBBDA54EA5BAA64EE0D2A74E1D
:10741000FAB2A84EE0BAA94EB6C4AA4E8881AB4EC5
:10742000EDCFAC4EA9BEAD4EA4CDAE4EC1C1AF4E58
:107430008981B04E8A81B14E8B81B24ED7C7B34E8F
:10744000F1D9B44E8C81B54EF4D9B64E8D81B74E7C
:107450008E81B84E8F81B94E9081BA4ECBC8BB4E4B
:10746000E9D8BC4E9181BD4E9281BE4E9381BF4EF4
:10747000DAD2C04EB2CAC14ECAC8C24EECD8C34E50
:10748000EAD8C44EC6D8C54EF6BDC64ECDC6C74E08
:10749000F0B3C84E9481C94EEBD8CA4EF1BDCB4E65
:1074A000E9BDCC4E9581CD4ED4C8CE4ED3B4CF4E8F
:1074B0009681D04E9781D14ED8C2D24E9881D34E6C
:1074C000D6B2D44ED0D7D54ECBCAD64EFBCBD74EA4
:1074D000CCD5D84EB6B8D94EC9CFDA4E9981DB4E4D
:1074E0009A81DC4E9B81DD4EDAD9DE4EF0D8DF4E3C
:1074F000AAC7E04E9C81E14EEED8E24E9D81E34E5C
:10750000FAB4E44EEEC1E54ED4D2E64E9E81E74E8B
:107510009F81E84EEDD8E94EA081EA4EC7D2EB4EEE
:10752000EFD8EC4EC7C3ED4EA181EE4EA281EF4ED7
:10753000A381F04EF6D1F14EA481F24ED9D6F34E8E
:10754000F2D8F44EA581F54EF5D8F64EFEBCF74EB6
:10755000DBBCF84EA681F94EA781FA4EA881FB4EFE
:10756000CEC8FC4EA981FD4EDDB7FE4EAA81FF4E6E
:10757000C2B7004FAB81014FF3C6024FAC81034F3E
:10758000AD81044FAE81054FAF81064FB081074FEB
:10759000B181084FB281094FF8D80A4FC1D20B4FC1
:1075A000B3810C4FB4810D4FE9CE0E4FBFBC0F4FCE
:1075B000FCB7104FA5B7114FDDD0124FB581134F57
:1075C000B681144FB781154FB881164FB981174F47
:1075D000DAD6184FC5D3194FEFBB1A4FE1BB1B4F7B
:1075E000F1D81C4FBA811D4FBB811E4FA1C91F4F3F
:1075F000B0CE204FABB4214FBC81224FF3D8234FE4
:10760000BD81244FCBC9254FF6D8264FD7C2274F6F
:10761000F7D8284FBE81294FBF812A4FB1CE2B4FBB
:10762000F9D82C4FC0812D4FC1812E4FC2812F4FD1
:10763000AEB2304FC0B9314FC381324FA3D9334FAF
:10764000C481344FE9B0354FC581364FE6C1374F5D
:10765000C681384FECC9394FC7813A4FC5CB3B4F34
:10766000C8813C4FC6CB3D4FA4D93E4FC9813F4F47
:10767000CA81404FCB81414FCC81424FCD81434F96
:10768000E8B5444FCE81454FCF81464FABB5474F0C
:10769000D081484FD181494FD2814A4FD3814B4F3E
:1076A000D4814C4FD5814D4FBBCE4E4FCDB54F4FB2
:1076B000A1D7504FF4D7514FD3D3524FD681534F08
:1076C000E5CC544FD781554FCEBA564FD881574F3E
:1076D000A2D9584FDCD9594FE0D35A4FFDD85B4F50
:1076E000F0B75C4FF7D75D4FFED85E4FFAD85F4FCB
:1076F000A1D9604FE3C4614FD981624FDA81634FF2
:10770000B6D3644FF4D8654FDDD9664FDB81674F40
:10771000FBD8684FDC81694FE5C56A4FDD816B4F4F
:10772000DE816C4FD0C06D4FDF816E4FE0816F4FB7
:10773000F0D1704FDBB0714FE181724FE281734F36
:10774000D1BC744FA6D9754FE381764FA5D9774F39
:10775000E481784FE581794FE6817A4FE7817B4F6D
:10776000ACD97C4FAED97D4FE8817E4FABD97F4FEE
:10777000B9CA804FE981814FEA81824FEB81834F03
:10778000A9D9844FB6D6854FEC81864FED81874FBE
:10779000EE81884FDEB3894FA8D98A4FEF818B4F96
:1077A000FDC08C4FF0818D4FCCCA8E4FF1818F4F31
:1077B000AAD9904FF281914FA7D9924FF381934F5D
:1077C000F481944FB0D9954FF581964FF681974F3C
:1077D000B1B6984FF781994FF8819A4FF9819B4F35
:1077E000A9B99C4FFA819D4FC0D29E4FFB819F4FFC
:1077F000FC81A04FC0CFA14FFD81A24FFE81A34FBE
:10780000C2C2A44F4082A54FC4BDA64FECD5A74F1E
:10781000E0B2A84FC8C7A94FEBBFAA4FADD9AB4F35
:107820004182AC4FAFD9AD4F4282AE4FEACEAF4F9F
:10783000EEBAB04F4382B14F4482B24F4582B34F4C
:107840004682B44F4782B54FD6C7B64F4882B74F2E
:107850004982B84F4A82B94F4B82BA4F4C82BB4FD4
:107860004D82BC4F4E82BD4F4F82BE4F5082BF4FA4
:10787000E3B1C04F5182C14F5282C24F5382C34FB6
:10788000D9B4C44FEDB6C54FB4D9C64F5482C74F13
:107890005582C84F5682C94F5782CA4FA1BFCB4F9E
:1078A0005882CC4F5982CD4F5A82CE4FDED9CF4F1E
:1078B000CEC7D04FFEC0D14FB8D9D24F5B82D34F85
:1078C0005C82D44F5D82D54F5E82D64F5F82D74FA8
:1078D000D7CBD84FFDB7D94F6082DA4FB5D9DB4F40
:1078E0006182DC4FB7D9DD4FA3B1DE4FE1D3DF4F6B
:1078F000B9D9E04F6282E14FC5D0E24F6382E34FD6
:10790000B6D9E44F6482E54F6582E64FB1D9E74FBF
:107910006682E84FB2D9E94FA9C1EA4FB3D9EB4F1C
:107920006782EC4F6882ED4FF3BCEE4FDED0EF4F35
:10793000A9B8F04F6982F14FE3BEF24F6A82F34F6C
:10794000BDD9F44F6B82F54F6C82F64F6D82F74FC5
:107950006E82F84FBAD9F94F6F82FA4FB3B0FB4F2E
:107960007082FC4F7182FD4F7282FE4FC2D9FF4F71
:1079700073820050748201507582025076820350E7
:107980007782045078820550798206507A820750B7
:107990007B8208507C8209507D820A507E820B5087
:1079A00080820C50C4D90D50B6B10E5081820F5058
:1079B000BFD910508282115083821250B9B5135032
:1079C00084821450F3BE155085821650868217505B
:1079D00087821850C8CC1950F2BA1A50D0D21B5016
:1079E00088821C50C3D91D5089821E508A821F5024
:1079F000E8BD20508B822150ABB322508C822350A3
:107A00008D8224508E822550C5D92650EBBE27503A
:107A10008F822850C6D92950BBD92A50DFC42B5099
:107A200090822C50BED92D50C1D92E50C0D92F5084
:107A300091823050928231509382325094823350EE
:107A400095823450968235509782365098823750BE
:107A5000998238509A8239509B823A50AED53B5029
:107A60009C823C50B5D63D509D823E50E3C73F506E
:107A70009E8240509F824150A0824250A18243503A
:107A8000C8D94450A2824550A3824650A482475090
:107A9000D9BC4850CAD94950A5824A50A6824B50F9
:107AA000A7824C50BCD94D50A8824E50CBD94F50D4
:107AB000ABC65050A9825150AA825250AB8253504B
:107AC000AC825450AD825550C9D95650AE825750F1
:107AD000AF825850B0825950B1825A50F6D75B509D
:107AE000B2825C50A3CD5D50B3825E50B4825F50D1
:107AF000B5826050B6826150B7826250B8826350DE
:107B0000B9826450BA826550A1BD6650BB8267508D
:107B1000BC826850BD826950BE826A50BF826B5081
:107B2000C0826C50CCD96D50C1826E50C2826F50F1
:107B3000C3827050C4827150C5827250C682735025
:107B4000C7827450C8827550C9827650BCC57750C0
:107B5000B5CD7850CA827950CB827A50CC827B5096
:107B6000CDD97C50CD827D50CE827E50C7D97F50FA
:107B7000A5B38050FEBF8150CF828250D082835007
:107B8000D1828450D2828550B5B88650D382875036
:107B9000D4828850FCC08950D5828A50D6828B50BE
:107BA000D7828C50D8828D50F8B08E50D9828F50A9
:107BB000DA829050DB829150DC829250DD829350C9
:107BC000DE829450DF829550E0829650E182975099
:107BD000E2829850E3829950E4829A50E5829B5069
:107BE000E6829C50E7829D50E8829E50E9829F5039
:107BF000EA82A050EB82A150EC82A250ED82A35009
:107C0000F6B4A450EE82A550CED9A650EF82A7506C
:107C1000CFD9A850A2B4A950D0D9AA50F082AB5065
:107C2000F182AC50DFB4AD50F282AE50F382AF506F
:107C3000F482B050F582B150F682B250C1B0B35068
:107C4000F782B450F882B550F982B650FA82B75034
:107C5000FB82B850FC82B950FD82BA50D1D9BB50DA
:107C6000B5C9BC50FE82BD504083BE504183BF5059
:107C70004283C0504383C1504483C2504583C350A4
:107C80004683C4504783C5504883C6504983C75074
:107C90004A83C8504B83C9504C83CA504D83CB5044
:107CA0004E83CC504F83CD505083CE505183CF5014
:107CB000F1CFD0505283D1505383D2505483D350FC
:107CC0005583D4505683D5505783D650D2D9D750E8
:107CD0005883D8505983D9505A83DA50C5C1DB50E4
:107CE0005B83DC505C83DD505D83DE505E83DF5060
:107CF0005F83E0506083E1506183E2506283E35030
:107D00006383E4506483E5506583E650D6D9E75039
:107D1000AEC9E8506683E9506783EA506883EB5048
:107D20006983EC50D5D9ED50D4D9EE50D7D9EF5066
:107D30006A83F0506B83F1506C83F2506D83F35083
:107D4000DBCBF4506E83F550A9BDF6506F83F7502E
:107D50007083F8507183F9507283FA507383FB502B
:107D6000A7C6FC507483FD507583FE507683FF5088
:107D70007783005178830151798302517A830351CB
:107D80007B8304517C8305517D830651D3D90751F0
:107D9000D8D908517E83095180830A5181830B51C0
:107DA000D9D90C5182830D5183830E5184830F5195
:107DB000858310518683115187831251E5C8135171
:107DC00088831451898315518A8316518B831751E7
:107DD0008C8318518D8319518E831A518F831B51B7
:107DE00090831C5191831D5192831E5193831F5187
:107DF0009483205195832151DCC0225196832351D5
:107E00009783245198832551998326519A8327512A
:107E10009B8328519C8329519D832A519E832B51FA
:107E20009F832C51A0832D51A1832E51A2832F51CA
:107E3000A3833051A4833151A5833251A68333519A
:107E4000A7833451A8833551A9833651AA8337516A
:107E5000AB833851AC833951AD833A51AE833B513A
:107E6000AF833C51B0833D51B1833E51B2833F510A
:107E7000F9B64051A3D84151CAD44251B3834351BA
:107E8000AAD44451D6D04551E4B34651D7D5475131
:107E9000B4834851C8CF4951E2B94A51B5834B51D7
:107EA000CBBF4C51B6834D51E2C34E51B7834F51B6
:107EB000B8835051B9835151D2B65251BA835351FC
:107EC000BB835451C3CD5551EED95651F0D95751BA
:107ED000BC835851BD835951BE835A51B3B55B51D0
:107EE000BF835C51B5B65D51C0835E51C1835F51A4
:107EF000C2836051C3836151C4836251A4BE635184
:107F0000C5836451C6836551EBC86651C783675109
:107F1000C8836851ABC86951C9836A51CA836B5120
:107F2000CBB06C51ABB96D51F9C16E51E2D96F5103
:107F3000CB837051BCC07151B2B97251CC837351B3
:107F4000D8B97451CBD07551F8B17651E4C6775198
:107F5000DFBE7851E4B57951C8D77A51CD837B51D2
:107F6000F8D17C51E6BC7D51DECA7E51CE837F5173
:107F7000CF838051BDBC8151E6D98251E7D883516E
:107F8000D0838451D1838551DAC48651D2838751FD
:107F9000D3838851D4B88951BDC88A51D4838B51B9
:107FA000D5838C51E1B28D51D9D48E51D6838F5166
:107FB000D7839051D8839151D9839251B0C39351B3
:107FC000DA839451DB839551E1C39651A2DA97513C
:107FD000DFC89851DC839951B4D09A51DD839B510D
:107FE000FCBE9C51A9C59D51DE839E51DF839F51EC
:107FF000E083A051DAB9A151E183A251A3DAA351E0
:10800000E283A451A9D4A551A4DAA651E383A751D0
:10801000E483A851E583A951E683AA51E783AB51D4
:10802000FBD9AC51ACB6AD51E883AE51E983AF5149
:10803000EBB7B051F9B1B151FCD9B251E5B3B3517D
:10804000F6BEB451EA83B551F6BFB651B1D2B751BD
:10805000E4C0B851EB83B951EC83BA51ED83BB5105
:10806000B3B6BC51FED9BD51FDD9BE51EE83BF514F
:10807000EF83C051BBBEC151F083C251F183C351E4
:10808000F283C451E0C6C551F383C651BCD7C75172
:10809000A1DAC851F483C951B9C1CA51F583CB5192
:1080A000F2B5CC51E8C1CD51F683CE51F783CF5113
:1080B000F5BCD051F883D151D5B4D251F983D35105
:1080C000FA83D451FB83D551FC83D651FD83D7511C
:1080D000FE83D8514084D9514184DA514284DB5126
:1080E000DDC1DC514384DD51FDC4DE514484DF51E8
:1080F0004584E051B8BCE151B2B7E2514684E35146
:108100004784E451EFB7E5514884E6514984E7518B
:108110004A84E8514B84E9514C84EA514D84EB5137
:10812000ECD9EC514E84ED51BEC6EE514F84EF5167
:10813000ADBFF051CBBBF1515084F2515184F3519A
:10814000CAB5F4515284F551C9DBF651D7D0F75175
:108150005384F851B9CDF951BCB0FA51F6B3FB5183
:10816000F7BBFC51CADBFD51AFBAFE515484FF513D
:10817000E4D40052B6B50152F3B50252D6D8035238
:10818000D0C804525584055256840652D6B70752B9
:10819000D0C70852D7D8095257840A52AFBF0B52E2
:1081A00058840C5259840D52BBDB0E52D8D80F5252
:1081B0005A8410525B841152CCD01252AEBB13526F
:1081C0005C8414525D8415525E841652BEEB1752C5
:1081D000D0C11852F5C11952F2D41A52D5B81B5257
:1081E000B4B41C525F841D52F5B31E5260841F52FA
:1081F00061842052BEC92152628422526384235278
:1082000064842452D0C52552658426526684275240
:1082100067842852D9C52952FBC02A5268842B5240
:10822000F0B12C5269842D52D9D82E52CEB92F528A
:108230006A843052BDB531526B8432526C843352F1
:10824000DAD834526D8435526E843652C6D63752DF
:10825000A2CB3852AFC83952B2C93A52CCB43B5211
:10826000CCBF3C526F843D52F4B93E5270843F52B1
:10827000DBD84052DCD84152E7B64252C1BC43522F
:10828000EACC4452718445527284465273844752F8
:10829000748448527584495276844A52F7CF4B52BF
:1082A00077844C52DDD84D52B0C74E5278844F522D
:1082B00079845052D0B95152A3BD52527A8453524C
:1082C0007B845452DECC55527C845652CAC65752D7
:1082D0007D8458527E84595280845A5281845B52E4
:1082E00082845C52E0D85D5283845E52DED85F5255
:1082F0008484605285846152DFD8625286846352DE
:108300008784645288846552FEB0665289846752BD
:10831000E7BE68528A846952A3CA6A52F4BC6B529F
:108320008B846C528C846D528D846E528E846F520D
:10833000B1B870528F84715290847252EEB87352F9
:1083400091847452928475529384765294847752B5
:10835000958478529684795297847A5298847B5285
:1083600099847C529A847D52E2D87E529B847F52BB
:10837000CBBD80529C848152E4D88252E3D8835290
:108380009D8484529E8485529F848652A084875205
:10839000A1848852FCC58952A2848A52A3848B523C
:1083A000A4848C52A5848D52A6848E52A7848F52A9
:1083B000A8849052E5D89152A9849252AA849352EB
:1083C000E6D89452AB849552AC849652AD849752C1
:1083D000AE849852AF849952B0849A52B1849B5221
:1083E000A6C19C52B2849D52B0C89E52ECB09F521E
:1083F000A6B9A052D3BCA152F1CEA252BDDBA3526A
:10840000D3C1A452B384A552B484A652B584A75252
:10841000B684A852AFB6A952FAD6AA52ACC5AB528E
:10842000D9BDAC52BEDBAD52BFDBAE52B784AF524A
:10843000B884B052B984B152F8C0B252A2BEB3529D
:10844000CDC0B452BA84B552BB84B652BC84B752C4
:10845000BD84B852BE84B952BF84BA52C084BB52E4
:10846000C184BC52C284BD52C384BE52C0DBBF5261
:10847000C6CAC052C484C152C584C252C684C35243
:10848000AAB2C452C784C552C884C652C984C7524E
:10849000C2D3C852CA84C952E3C3CA52CB84CB5296
:1084A000ABD1CC52CC84CD52CD84CE52CE84CF52DF
:1084B000CF84D052C2DBD152D084D252D5C0D35255
:1084C000D184D452D284D552D384D652C3DBD7526E
:1084D000D484D852B1BFD952D584DA52D684DB5273
:1084E000D784DC52D884DD52D984DE52DA84DF525C
:1084F000BCC4E052DB84E152DC84E252DD84E3520E
:10850000DE84E452DAC7E552DF84E652E084E752C3
:10851000E184E852E284E952E384EA52E484EB52D3
:10852000E584EC52E684ED52E784EE52E884EF52A3
:10853000E984F052C4DBF152EA84F252EB84F35244
:10854000EC84F452ED84F552EE84F652EF84F75247
:10855000F084F852F184F952E8D9FA52D7C9FB52A3
:10856000F284FC52F384FD52F484FE52B4B9FF52FB
:10857000F0CE0053C8D40153F5840253F68403535C
:10858000F7840453F8840553FCB00653D2B4075360
:10859000F9840853D9D00953FA840A53FB840B5346
:1085A000FC840C53FD840D53E9D90E53FE840F5304
:1085B000CBDE1053EBD91153408512534185135331
:1085C0004285145343851553B0D81653AFBB175388
:1085D000B1B1185344851953D7B31A53CED81B538E
:1085E00045851C5346851D53D1D41E5347851F53C3
:1085F00048852053B3BD2153EFBF225349852353F0
:10860000BBCF24534A8525534B852653D0D82753B7
:108610004C8528534D8529534E852A53CBB72B5370
:108620004F852C5350852D5351852E53D1D82F5320
:1086300052853053538531535485325355853353C6
:108640005685345357853553588536535985375396
:108650005A8538535B853953A5C63A53F8C73B53FF
:10866000BDD23C535C853D535D853E53D2D83F53CC
:10867000E4C440535E854153AECA42535F854353C1
:10868000A7C7445360854553A6D8465361854753D1
:10869000FDC94853E7CE4953DCBB4A53EBB04B53BB
:1086A00062854C5363854D5364854E53AABB4F532B
:1086B000ADD0505365855153B0B15253E4D75353A5
:1086C000BFD7545366855553A5B55653F4C2575377
:1086D000CFC458536785595368855A53A9B25B5321
:1086E00069855C53B7B25D536A855E53E5B15F53EC
:1086F000B2DF6053BCD56153A8BF6253ACC26353B1
:10870000D5D86453B1C265536B856653D4D86753CB
:10871000D4CE68536C856953E0DA6A536D856B5328
:10872000C0CE6C536E856D536F856E53B4D86F5346
:10873000AEC37053A1D37153A3CE725370857353DC
:10874000B4BC7453B4C87553D1C276537185775392
:10875000EDBE7853B6D0795372857A53E1DA7B5304
:1087600073857C5374857D5375857E5376857F53E1
:10877000E4C780537785815378858253A7B38353A9
:1087800079858453F2B68553FCCC8653FAC087535F
:108790007A8588537B858953F7C08A537C858B53B0
:1087A000B9D18C53E1D18D53C7D88E537D858F536A
:1087B0007E85905380859153818592538285935312
:1087C0008385945384859553DEB29653858597535C
:1087D00086859853E5C0995387859A53F1BA9B5380
:1087E00088859C5389859D53C8D89E538A859F53FD
:1087F000ADD4A0538B85A1538C85A253E1CFA35355
:10880000C9D8A4538D85A553CAD8A653C3CFA7539F
:108810008E85A853F8B3A953C7BEAA538F85AB530F
:108820009085AC539185AD539285AE53CBD8AF5361
:108830009385B0539485B1539585B2539685B353C0
:108840009785B4539885B5539985B653CCDBB75308
:108850009A85B8539B85B9539C85BA539D85BB5364
:10886000A5C8BC539E85BD539F85BE53A085BF53ED
:10887000D8CFC053A185C153FEC8C253CEB2C35393
:10888000A285C453A385C553A485C653A585C753E4
:10889000A685C853D6D3C953E6B2CA53B0BCCB538E
:1088A000D1D3CC53ABCBCD53B4B7CE53A785CF5395
:1088B000A885D053A985D153A2B7D253AA85D35343
:1088C000AB85D453E5CAD553AC85D653A1C8D7538D
:1088D000DCCAD853E4B1D953F0D0DA53AD85DB53B9
:1088E000D1C5DC53AE85DD53AF85DE53B085DF5394
:1088F000C5DBE053FEB5E153B185E253B285E353E6
:10890000DABFE453C5B9E553E4BEE653EDC1E7531E
:10891000B385E853B6DFE953B5DFEA53BBD6EB5373
:10892000D0BDEC53D9D5ED53C8B0EE53A3B6EF5339
:10893000C9BFF053A8CCF153B3DFF253B7CAF35316
:10894000D2D3F453B485F553CFD8F653B6D2F753F8
:10895000C5BAF853BECBF953BECCFA53B585FB5319
:10896000B7DFFC53F0B5FD53B4DFFE53B685FF53BC
:10897000B7850054B8850154F5D30254B985035422
:10898000D4B30454F7B80554BA850654BADF075473
:10899000BB850854CFBA0954AABC0A54F5B50B5488
:1089A000BC850C54ACCD0D54FBC30E54F3BA0F541C
:1089B000F4C01054C2CD1154F2CF1254B8DF135486
:1089C000C5CF1454BD851554C0C21654B9DF175411
:1089D000F0C21854BE851954BF851A54C0851B5463
:1089E000FDBE1C54C1851D54DFC11E54CCCD1F5487
:1089F000F7D22054CDB72154C1DF2254C28523546D
:108A0000C4DF2454C3852554C4852654F1B72754A4
:108A1000C9B02854D6B62954D4B72A54C5852B5486
:108A2000ACBA2C54FDCC2D54D4BF2E54B1CB2F5402
:108A3000F4C63054C6853154A8D63254C5DF3354F9
:108A4000C7853454E2CE3554B3B33654C885375451
:108A5000C9853854FCCE3954B5B43A54CA853B5410
:108A6000C7CE3C54F0BA3D54CB853E54E1CE3F5482
:108A7000CC854054BDD14154CD854254CE8543541C
:108A8000C0DF4454CF854554D0854654F4B4475490
:108A9000D1854854CAB34954D2854A54E6B84B5498
:108AA000BBDF4C54D3854D54D4854E54D5854F549B
:108AB000D6855054C5C45154D7855254BCDF535445
:108AC000BDDF5454BEDF5554BBC55654BFDF5754A9
:108AD000C2DF5854B1D45954C3DF5A54D8855B54BB
:108AE000BAC75C54D8CE5D54D9855E54DA855F54DC
:108AF000DB856054DC856154DD856254D8C46354E1
:108B0000DE856454CADF6554DF856654CFDF675461
:108B1000E0856854DCD66954E1856A54E2856B547B
:108B2000E3856C54E4856D54E5856E54E6856F5499
:108B3000E7857054E8857154C9DF7254DADF7354E5
:108B4000B6CE7454E9857554C7BA7654CEDF7754DF
:108B5000C8DF7854DEC57954EA857A54EB857B54B6
:108B6000EBC97C54F4BA7D54FCC37E54EC857F542D
:108B7000ED858054D7BE8154EE858254C6DF835480
:108B8000EF858454CDDF8554F0858654D8C587544D
:108B9000F1858854F2858954F3858A54F4858B5481
:108BA000A6D58C54CDBA8D54F5858E54CCBE8F5439
:108BB000BDD39054C0B89154F6859254E4D69354E2
:108BC000F7859454C7DF9554BEB99654A7BF975400
:108BD000F8859854F9859954FCC19A54CBDF9B547D
:108BE000CCDF9C54FA859D54D0DF9E54FB859F5466
:108BF000FC85A054FD85A154FE85A2544086A35453
:108C0000DBDFA454E5DFA5544186A654D7DFA75483
:108C1000D6DFA854C9D7A954E3DFAA54E4DFAB5484
:108C2000EBE5AC54A7D2AD54D2DFAE544286AF547C
:108C3000A9BFB0544386B154DBD4B2544486B35474
:108C4000C8BFB454D4DFB5544586B6544686B7542D
:108C50004786B854CCCFB9544886BA544986BB54D9
:108C6000DDDFBC544A86BD54CAD1BE544B86BF54C6
:108C7000DEDFC054A7B0C154B7C6C254D3DFC3545B
:108C80004C86C454E5BAC5544D86C654DFB6C754A5
:108C9000DBCDC854FEB9C954D5D4CA544E86CB5482
:108CA0004F86CC54DFDFCD54ECCFCE54A5B0CF549B
:108CB000E7DFD054D1DFD154C6D1D254D5DFD3545D
:108CC000D8DFD454D9DFD554DCDFD6545086D754FE
:108CD000A9BBD8545186D954E0DFDA54E1DFDB5424
:108CE0005286DC54E2DFDD54E6DFDE54E8DFDF5499
:108CF000B4D3E0545386E1545486E2545586E35489
:108D00005686E4545786E554E7B8E654B6C5E754AA
:108D1000EADFE854DAC9E954A8C1EA54C4C4EB5400
:108D20005886EC545986ED54DEBFEE54F8CFEF541C
:108D30005A86F0545B86F1545C86F254DCD5F354C9
:108D4000EEDFF4545D86F5545E86F6545F86F75484
:108D50006086F8546186F9546286FA54B8B2FB54BE
:108D60006386FC54DFBAFD54ECDFFE546486FF5486
:108D7000C1DB005565860155E4D102556686035571
:108D8000678604556886055569860655F4CB0755F0
:108D9000BDB408556A860955A6B00A556B860B55B1
:108DA0006C860C556D860D556E860E556F860F556B
:108DB000F1DF1055C6CC1155F2DF125570861355F0
:108DC00071861455EDDF1555728616557386175545
:108DD000748618557586195576861A5577861B55EB
:108DE000E9DF1C5578861D5579861E557A861F55F4
:108DF0007B862055EBDF21557C862255EFDF2355FE
:108E0000F0DF2455BDBB25557D8626557E8627552A
:108E1000F3DF28558086295581862A55F4DF2B55A6
:108E200082862C55A3BB2D5583862E55DBCA2F5524
:108E3000A8CE3055A7E03155AAB3325584863355B4
:108E4000A6E034558586355586863655878637554E
:108E5000A1E038558886395589863A558A863B552A
:108E60008B863C55FEDF3D558C863E55D9CD3F5512
:108E7000FCDF40558D864155FADF42558E864355BD
:108E8000D0BF4455C4D745558F864655CCC94755A4
:108E90009086485591864955F8DF4A55A1B04B5503
:108EA00092864C5593864D5594864E5595864F55D2
:108EB00096865055FDDF51559786525598865355E5
:108EC000998654559A865555FBDF5655A2E057555D
:108ED0009B8658559C8659559D865A559E865B554E
:108EE0009F865C55A8E05D55A0865E55A1865F55BE
:108EF000A2866055A3866155C8B76255A48663559E
:108F0000A5866455A1C66555B6C96655B2C06755F4
:108F1000F5DF6855A6866955A7866A55BEC56B55A7
:108F2000A8866C55C4D86D55F9DF6E55F6C46F55DB
:108F3000A9867055AA867155AB867255AC86735555
:108F4000AD867455AE867555A3E07655A4E0775589
:108F5000A5E07855A5D07955AF867A55B0867B5572
:108F6000B4E07C55E4CC7D55B1867E55B1E07F55AB
:108F7000B2868055A6BF8155AFE08255B9CE8355E4
:108F8000ABE08455C6C98555B3868655B4868755EA
:108F9000AEC08855AEE08955EDBA8A55B0BA8B554A
:108FA000A9E08C55B5868D55B6868E55B7868F55FA
:108FB000F6DF9055B8869155B3E09255B986935532
:108FC000BA869455B8E09555BB869655BC8697559C
:108FD000BD869855ADB49955B9E09A55BE869B5556
:108FE000BF869C55B2CF9D55C8BA9E55C0869F5529
:108FF000B0E0A055C186A155C286A255C386A3552F
:10900000C486A455C586A555C686A655C786A75548
:10901000FAD0A855C886A955C986AA55CA86AB559F
:10902000CB86AC55CC86AD55CD86AE55CE86AF55EC
:10903000CF86B055D086B155ACE0B255D186B35588
:10904000FBD4B455D286B555F7DFB655D386B755A0
:10905000E7C5B855D486B955ADE0BA55D586BB55E8
:10906000F7D3BC55D686BD55B6E0BE55B7E0BF5563
:10907000D786C055D886C155D986C255DA86C3551C
:10908000DB86C455C4E0C555E1D0C655DC86C7555E
:10909000DD86C855DE86C955BCE0CA55DF86CB558E
:1090A000E086CC55C9E0CD55CAE0CE55E186CF5516
:1090B000E286D055E386D155BEE0D255AAE0D3551D
:1090C000A4C9D455C1E0D555E486D655B2E0D755EC
:1090D000E586D855E686D955E786DA55E886DB5524
:1090E000E986DC55C8CADD55C3E0DE55EA86DF55A2
:1090F000B5E0E055EB86E155CBCEE255EC86E35585
:10910000C3CBE455CDE0E555C6E0E655C2E0E755F2
:10911000ED86E855CBE0E955EE86EA55BAE0EB5529
:10912000BFE0EC55C0E0ED55EF86EE55F086EF550B
:10913000C5E0F055F186F155F286F255C7E0F355DA
:10914000C8E0F455F386F555CCE0F655F486F755AE
:10915000BBE0F855F586F955F686FA55F786FB55C6
:10916000F886FC55F986FD55D4CBFE55D5E0FF5564
:10917000FA860056D6E00156D2E00256FB86035628
:10918000FC860456FD860556FE8606564087075621
:1091900041870856D0E00956CEBC0A5642870B5686
:1091A00043870C56D1E00D5644870E56C2B80F5671
:1091B000C5D810564587115646871256478713560D
:1091C00048871456498715564A8716564B871756AF
:1091D0004C871856EAD019564D871A564E871B569B
:1091E000EFC21C564F871D5650871E56CFE01F56A4
:1091F000BDE0205651872156528722565387235669
:10920000D4E02456D3E02556548726565587275652
:10921000D7E028565687295657872A5658872B56FF
:1092200059872C56DCE02D56D8E02E565A872F56FB
:109230005B8730565C873156F6D63256B0B333561C
:109240005D873456ECD735565E873656BBCB3756DE
:109250005F87385660873956DAE03A5661873B5661
:10926000FBCE3C5662873D5663873E5664873F5629
:10927000D9BA405665874156668742566787435636
:1092800068874456698745566A8746566B874756AE
:109290006C8748566D8749566E874A566F874B567E
:1092A00070874C56E1E04D56DDE04E56ADD24F563C
:1092B000718750567287515673875256748753562A
:1092C00075875456E2E05556768756567787575637
:1092D000DBE05856D9E05956DFE05A5678875B569E
:1092E00079875C56E0E05D567A875E567B875F56ED
:1092F0007C8760567D8761567E876256DEE06356C6
:1093000080876456E4E06556818766568287675693
:1093100083876856F7C66956ACD86A56EBD46B5645
:10932000E6E06C56C9CA6D5684876E5685876F56BF
:109330008687705687877156E5E072568887735620
:10934000898774568A8775568B877656C1B8775643
:109350008C8778568D8779568E877A568F877B567D
:10936000E7E07C56E8E07D5690877E5691877F56F1
:109370009287805693878156948782569587835625
:109380009687845697878556E9E08656E3E08756A8
:1093900098878856998789569A878A569B878B56CD
:1093A0009C878C569D878D569E878E56BFBA8F564A
:1093B000E7CC90569F879156A0879256A1879356E7
:1093C000EAE09456A2879556A3879656A4879756A7
:1093D000A5879856A6879956A7879A56A8879B5619
:1093E000A9879C56AA879D56AB879E56AC879F56E9
:1093F000AD87A056AE87A156AF87A256B087A356B9
:10940000F9CFA456B187A556B287A656B387A756FB
:10941000B487A856B587A956B687AA56B787AB565C
:10942000B887AC56B987AD56BA87AE56BB87AF562C
:10943000EBE0B056BC87B156BD87B256BE87B35677
:10944000BF87B456C087B556C187B656C287B756D0
:10945000C2C8B856C387B956C487BA56C587BB5663
:10946000C687BC56C0BDBD56C787BE56C887BF5647
:10947000C987C056CA87C156CB87C256CC87C35648
:10948000CD87C456CE87C556CF87C656D087C75618
:10949000D187C856D287C956D387CA56D2C4CB56AD
:1094A000D487CC56D587CD56D687CE56D787CF56BC
:1094B000D887D056D987D156DA87D256DB87D3568C
:1094C000DC87D456ECE0D556DD87D656DE87D756F6
:1094D000EDE0D856DF87D956E087DA56F4C7DB5679
:1094E000C4CBDC56E187DD56EEE0DE56D8BBDF5656
:1094F000B6D8E056F2D2E156EFE0E256C5CDE356DB
:10950000E287E456DAB6E556E387E656E487E7569F
:10951000E587E856E687E956E787EA56E887EB5697
:10952000F1E0EC56E987ED56B0D4EE56EA87EF56F7
:10953000EB87F056A7C0F156D1B4F256EC87F3563C
:10954000ED87F456A7CEF556F0E0F656EE87F756BF
:10955000EF87F856F087F956F2E0FA56CCB9FB5689
:10956000F187FC56F287FD56FAB9FE56BCCDFF5680
:10957000F3E00057F3870157F4870257F587035745
:10958000D4C60457F4E00557F6870657B2D40757F8
:10959000F7870857A6C80957F6E00A57F5E00B57B2
:1095A000F8870C57F9870D57FA870E57FB870F5727
:1095B000FC871057FD871157FE87125740881357B5
:1095C00041881457428815574388165744881757BF
:1095D000458818574688195747881A5748881B578F
:1095E00049881C57F7E01D574A881E574B881F575C
:1095F000C1CD20574C8821574D8822574E8823577C
:10960000A5CA24574F882557508826575188275771
:1096100052882857DAD42957D7DB2A57D9DB2B575A
:1096200053882C57D8DB2D57E7B92E57DCDB2F5743
:10963000DDDB3057D8B5315754883257558833570A
:10964000DADB345756883557578836575888375796
:10965000598838575A883957DBDB3A57A1B33B57FB
:10966000DFDB3C575B883D575C883E57F8BB3F5774
:109670005D884057B7D641575E884257E0DB435775
:109680005F884457608845576188465762884757C6
:10969000F9BE48576388495764884A57BBB74B5748
:1096A00065884C57D0DB4D57AECC4E57B2BF4F57A5
:1096B000B5BB5057F8D75157D3BF52576688535749
:1096C0006788545768885557698856576A88575726
:1096D000E9BF58576B8859576C885A57E1BC5B579C
:1096E000B3CC5C57DEDB5D57D3B05E57EBCE5F5734
:1096F000D8B76057B9D76157C2C662576D886357EC
:109700006E886457A4C065576F886657B9CC675791
:1097100070886857E7DB6957E1DB6A57BAC66B5751
:10972000E3DB6C5771886D57E8DB6E5772886F57B3
:10973000F7C5705773887157748872577588735757
:10974000EADB74577688755777887657E9DB775761
:10975000C0BF78577888795779887A577A887B5745
:10976000E6DB7C57E5DB7D577B887E577C887F571F
:109770007D8880577E88815780888257B9B4835707
:10978000ACC08457A2C28557E2DB8657E4DB87571B
:10979000818888578288895783888A5784888B571D
:1097A000CDD08C57EDDB8D5785888E5786888F57A7
:1097B000878890578888915789889257DDC093573A
:1097C000F2DB94578A8895578B8896578C889757E1
:1097D0008D8898578E8899578F889A5790889B576D
:1097E000E2B69C5791889D5792889E5793889F57C1
:1097F0009488A057F3DBA157D2DBA257B8B9A3577F
:10980000ABD4A457ECDBA5579588A657D1BFA75773
:10981000F0DBA8579688A957D1DBAA579788AB5792
:10982000E6B5AC579888AD57EBDBAE57E5BFAF5701
:109830009988B0579A88B1579B88B257EEDBB357D7
:109840009C88B457F1DBB5579D88B6579E88B757AB
:109850009F88B857F9DBB957A088BA57A188BB577A
:10986000A288BC57A388BD57A488BE57A588BF57F8
:10987000A688C057A788C157A888C257A1B9C3579F
:10988000A3B0C457A988C557AA88C657AB88C7577D
:10989000AC88C857AD88C957AE88CA57AF88CB5770
:1098A000F1C2CC57B088CD57B188CE57C7B3CF5788
:1098B000EFDBD057B288D157B388D257F8DBD357F4
:1098C000B488D457D2C6D557F4DBD657B588D75706
:1098D000B688D857F5DBD957F7DBDA57F6DBDB5715
:1098E000B788DC57B888DD57FEDBDE57B988DF570D
:1098F000F2D3E057BAB2E157BA88E257BB88E357D0
:10990000BC88E457FDDBE557BD88E657BE88E757BE
:10991000BF88E857C088E957C188EA57C288EB5723
:10992000C388EC57C488ED57A4DCEE57C588EF57C1
:10993000FBDBF057C688F157C788F257C888F35742
:10994000C988F457FADBF557CA88F657CB88F7571A
:10995000CC88F857FCDBF957E0C5FA57F9BBFB5741
:10996000CD88FC57CE88FD57A3DCFE57CF88FF5724
:10997000D0880058A5DC0158D1880258C3CC0358C0
:10998000D2880458D3880558D4880658D1B60758C9
:10999000C0DD0858D5880958D6880A58D7880B588A
:1099A000A1DC0C58D8880D58A2DC0E58D9880F5865
:1099B000DA881058DB881158B5C71258DC8813585C
:1099C000DD881458DE881558E9B61658DF88175810
:1099D000E0881858E1881958A7DC1A58E2881B5803
:1099E000E3881C58E4881D58E5881E58A6DC1F58DB
:1099F000E6882058A9DC2158A4B12258E7882358CA
:109A0000E8882458CCB52558E9882658EA8827588C
:109A1000EB882858EC882958ED882A58B0BF2B5875
:109A2000EE882C58EF882D58F0882E58F1882F5842
:109A3000F2883058DFD13158F3883258F4883358DF
:109A4000F5883458F6883558C2B63658F7883758EE
:109A5000F8883858F9883958FA883A58FB883B58BA
:109A6000FC883C58FD883D58FE883E5840893F5848
:109A70004189405842894158438942584489435852
:109A800045894458A8DC455846894658478947586F
:109A900048894858498949584A894A584B894B58F6
:109AA0004C894C58FACB4D58F3EB4E584D894F58D2
:109AB0004E8950584F895158DCCB525850895358D1
:109AC00051895458FECB5558528956585389575886
:109AD00054895858C1CC595855895A5856895B5899
:109AE00057895C5858895D5859895E58FBC85F583A
:109AF0005A8960585B8961585C8962585D896358EE
:109B00005E8964585F896558AADC66586089675821
:109B1000618968586289695863896A5864896B5891
:109B2000EECC6C58ABDC6D5865896E5866896F5801
:109B30006789705868897158698972586A89735839
:109B40006B8974586C8975586D8976586E89775809
:109B50006F8978587089795871897A5872897B58D9
:109B600073897C5874897D5875897E58D3DB7F58FA
:109B700076898058AFDC8158ACDC8258778983586D
:109B8000B3BE845878898558FBCA86587989875826
:109B90007A8988587B898958ADDC8A587C898B58AA
:109BA0007D898C587E898D5880898E5881898F58FF
:109BB000828990588389915884899258CAC9935848
:109BC000B9C4945885899558868996588789975835
:109BD0008889985889899958BDC79A58AEDC9B588E
:109BE0008A899C588B899D588C899E58F6D49F5899
:109BF000E6D0A0588D89A1588E89A2588F89A35884
:109C00009089A4589189A5589289A6589389A758F4
:109C10009489A858ABC4A958D5B6AA589589AB5809
:109C20009689AC589789AD589889AE589989AF589C
:109C30009A89B0589B89B1589C89B2589D89B3586C
:109C40009E89B4589F89B558A089B658A189B7583C
:109C5000A289B858A389B958A489BA58A589BB580C
:109C6000A689BC58D4DBBD58A789BE58A889BF585F
:109C7000A989C058AA89C158DAB1C258AB89C3585A
:109C8000AC89C458AD89C558D5DBC658AE89C7580C
:109C9000AF89C858B089C958B189CA58B289CB5858
:109CA000B389CC58B489CD58B589CE58B689CF5828
:109CB000B789D058B889D158D6DBD258B989D3588A
:109CC000BA89D458BB89D558BEBAD658BC89D7589A
:109CD000BD89D858BE89D958BF89DA58C089DB58A0
:109CE000C189DC58C289DD58C389DE58C489DF5870
:109CF000C589E058C689E158C789E258C889E35840
:109D0000C989E458C0C8E558CA89E658CB89E758DC
:109D1000CC89E858CD89E958CE89EA58CF89EB58E3
:109D2000BFCAEC58C9C8ED58D089EE58B3D7EF5820
:109D3000D189F058F9C9F158D289F258D389F3582A
:109D4000C7BFF458D489F558D589F658F8BAF758EA
:109D5000D689F858D789F958BCD2FA58D889FB580F
:109D6000D989FC58DA89FD58DB89FE58DC89FF580F
:109D7000DD890059DE890159DF890259BAE20359A8
:109D8000E0890459A6B40559E1890659E2890759C1
:109D9000B8B10859E3890959E4890A59E5890B5989
:109DA000E6890C59E7890D59B4B80E59E8890F595D
:109DB000C4CF1059E9891159EA891259EB8913590D
:109DC000EC891459E7D91559A6CF1659E2CD175980
:109DD000ED891859EE891959EDD91A59E0B61B5970
:109DE000EF891C59B9D21D59F0891E59F1891F59A3
:109DF000BBB92059F2892159F3892259F489235991
:109E0000F5892459B9E22559B7E22659F689275927
:109E1000F3B42859F7892959ECCC2A59ABCC2B59E2
:109E2000F2B72C59F8892D59B2D82E59EBD12F59A8
:109E3000BBBA3059F9893159A7CA3259FA8933590D
:109E4000FB893459B7CD3559FC893659FD893759C5
:109E5000C4D23859E4BF3959D0BC3A59E1B63B595C
:109E6000FE893C59C5DE3D59408A3E59418A3F59D9
:109E7000428A4059438A4159C6DE4259BCDB4359A4
:109E8000448A4459D9D14559458A4659468A475941
:109E9000E6C64859CEC44959EEB74A59478A4B5984
:109EA000DCB74C59488A4D59498A4E59FCBF4F5925
:109EB000E0D750594A8A5159F5C652594B8A5359DD
:109EC0004C8A5459BCB15559C8DE5659B1BD575981
:109ED000D7CC5859CADE59594D8A5A59C9DE5B59EF
:109EE0004E8A5C594F8A5D59508A5E59518A5F5932
:109EF000528A6059ECB56159538A6259DDC9635978
:109F0000548A6459558A6559C2B06659568A675948
:109F1000578A6859588A6959598A6A595A8A6B59AD
:109F20005B8A6C595C8A6D595D8A6E595E8A6F597D
:109F30005F8A7059608A7159618A7259628A73594D
:109F4000AEC57459ABC57559638A7659CCC4775977
:109F5000648A7859E9BC7959FDCB7A59658A7B596D
:109F6000668A7C59678A7D59C3BA7E59688A7F5947
:109F7000698A80596A8A8159F9E58259E7C8835903
:109F8000FAE58459FDCD85596B8A8659B1D7875931
:109F9000BEB88859E8C289596C8A8A59D1C88B5988
:109FA0006D8A8C596E8A8D59FBE58E596F8A8F594F
:109FB000708A9059718A9159728A9259CAB6935986
:109FC000CBBC9459738A9559748A9659FDD1975987
:109FD000A1E69859758A9959EEC39A59768A9B5980
:109FE000778A9C59788A9D59798A9E59A4E69F5907
:109FF0007A8AA0597B8AA1597C8AA2597D8AA35961
:10A00000FEE5A459A5E6A559D7CDA6597E8AA7593C
:10A01000808AA859C1B7A959FCE5AA59FDE5AB59F1
:10A02000A3E6AC59818AAD59828AAE59DDC4AF59D5
:10A03000A8E6B059838AB159848AB259A7E6B359C0
:10A04000858AB459868AB559878AB659888AB75994
:10A05000898AB8598A8AB959C3C3BA598B8ABB59F4
:10A06000DEC6BC598C8ABD598D8ABE59AAE6BF5935
:10A070008E8AC0598F8AC159908AC259918AC35910
:10A08000928AC459938AC559948AC659B7C4C75984
:10A09000958AC859968AC959978ACA59A2E6CB594E
:10A0A000BCCACC59988ACD59998ACE599A8ACF5927
:10A0B0009B8AD059E3BDD159C3B9D259A6E6D35929
:10A0C000D5D0D459AFCED5599C8AD6599D8AD75967
:10A0D000A9E6D859B0E6D9599E8ADA59A6D2DB59F1
:10A0E0009F8ADC59AABDDD59ADE6DE59A08ADF5949
:10A0F000A18AE059A28AE159A38AE259A48AE359C4
:10A10000AFE6E459A58AE559D1C0E659A68AE759D0
:10A11000A78AE859CCD2E959A88AEA59A98AEB5901
:10A12000AA8AEC59A7BCED59AB8AEE59AC8AEF5913
:10A13000AD8AF059AE8AF159AF8AF259B08AF35913
:10A14000B18AF459B28AF559B38AF659B48AF759E3
:10A15000B58AF859B68AF959B1E6FA59B78AFB595E
:10A16000F6D2FC59B88AFD59B98AFE59BA8AFF5904
:10A17000CBD7005ABB8A015AFECD025ABC8A035A79
:10A18000DECD045AA6C2055AABE6065AACE6075A1B
:10A19000BFBD085AAEE6095AB3E60A5ABD8A0B5A41
:10A1A000BE8A0C5AB2E60D5ABF8A0E5AC08A0F5A9E
:10A1B000C18A105AC28A115AB6E6125AC38A135A71
:10A1C000B8E6145AC48A155AC58A165AC68A175A46
:10A1D000C78A185AEFC4195AC88A1A5AC98A1B5A08
:10A1E000CA8A1C5AC8C41D5ACB8A1E5ACC8A1F5A06
:10A1F000EABE205AEFC9215ACD8A225ACE8A235A62
:10A20000B7E6245ACF8A255AF0B6265AD08A275A5A
:10A21000D18A285AD28A295AE4C32A5AD38A2B5A75
:10A22000D48A2C5AD58A2D5AD68A2E5AD78A2F5A92
:10A23000D88A305AD98A315AE9D3325AB4E6335AD5
:10A24000DA8A345AB5E6355ADB8A365AA2C8375A02
:10A25000DC8A385ADD8A395ADE8A3A5ADF8A3B5A12
:10A26000E08A3C5ABDE63D5AE18A3E5AE28A3F5AAC
:10A27000E38A405AB9E6415AE48A425AE58A435A87
:10A28000E68A445AE78A455AE88A465AC5C6475A72
:10A29000E98A485AEA8A495AF1CD4A5ABBE64B5AEA
:10A2A000EB8A4C5AEC8A4D5AED8A4E5AEE8A4F5A36
:10A2B000EF8A505AF08A515AF18A525AF28A535A06
:10A2C000F38A545AF48A555ABCE6565AF58A575AB4
:10A2D000F68A585AF78A595AF88A5A5AE9BB5B5A89
:10A2E000F98A5C5AFA8A5D5AFB8A5E5AFC8A5F5A7E
:10A2F000FD8A605AFE8A615A408B625ABEE6635AF2
:10A30000418B645A428B655A438B665A448B675A19
:10A31000BAE6685A458B695A468B6A5AB7C06B5A77
:10A32000478B6C5A488B6D5A498B6E5A4A8B6F5AC1
:10A330004B8B705A4C8B715A4D8B725A4E8B735A91
:10A340004F8B745AA4D3755ABFE6765AF4C9775A1C
:10A35000C3E6785A508B795A518B7A5AC4E67B5AA5
:10A36000528B7C5A538B7D5A548B7E5A558B7F5A15
:10A37000F6D0805A568B815A578B825A588B835A03
:10A38000598B845A5A8B855A5B8B865A5C8B875AB9
:10A390005D8B885A5E8B895A5F8B8A5A608B8B5A89
:10A3A000618B8C5A628B8D5A638B8E5A648B8F5A59
:10A3B000658B905A668B915A678B925ABDC3935A9C
:10A3C000688B945A698B955A6A8B965A6B8B975AFD
:10A3D0006C8B985A6D8B995A6E8B9A5AC4C39B5A40
:10A3E000C2E69C5A6F8B9D5A708B9E5A718B9F5AF6
:10A3F000728BA05A738BA15A748BA25A758BA35A75
:10A40000768BA45A778BA55A788BA65A798BA75A44
:10A410007A8BA85A7B8BA95A7C8BAA5AC1E6AB5A75
:10A420007D8BAC5A7E8BAD5A808BAE5A818BAF5AE6
:10A43000828BB05A838BB15A848BB25AC7E6B35A17
:10A44000B1CFB45A858BB55AF4EBB65A868BB75A4E
:10A45000878BB85ACAE6B95A888BBA5A898BBB5AC5
:10A460008A8BBC5A8B8BBD5A8C8BBE5AC5E6BF5AA1
:10A470008D8BC05A8E8BC15ADEBCC25AA9C9C35A31
:10A480008F8BC45A908BC55A918BC65A928BC75AE0
:10A49000938BC85A948BC95AB5BCCA5A958BCB5A60
:10A4A000968BCC5AD3CFCD5A978BCE5A988BCF5A06
:10A4B000998BD05A9A8BD15A9B8BD25AC8E6D35AD1
:10A4C0009C8BD45AC9E6D55A9D8BD65ACEE6D75A1C
:10A4D0009E8BD85AD0E6D95A9F8BDA5AA08BDB5A7A
:10A4E000A18BDC5AD1E6DD5AA28BDE5AA38BDF5A50
:10A4F000A48BE05ACBE6E15AD5B5E25AA58BE35AD4
:10A50000CCE6E45AA68BE55AA78BE65ACFE6E75A83
:10A51000A88BE85AA98BE95ADBC4EA5AAA8BEB5AF2
:10A52000C6E6EC5AAB8BED5AAC8BEE5AAD8BEF5ABC
:10A53000AE8BF05AAF8BF15ACDE6F25AB08BF35A8C
:10A54000B18BF45AB28BF55AB38BF65AB48BF75AD7
:10A55000B58BF85AB68BF95AB78BFA5AB88BFB5AA7
:10A56000B98BFC5ABA8BFD5ABB8BFE5ABC8BFF5A77
:10A57000BD8B005BBE8B015BBF8B025BC08B035B43
:10A58000C18B045BC28B055BC38B065BC48B075B13
:10A59000C58B085BC68B095BD2E60A5BC78B0B5B7E
:10A5A000C88B0C5BC98B0D5BCA8B0E5BCB8B0F5BB7
:10A5B000CC8B105BCD8B115BCE8B125BCF8B135B87
:10A5C000D08B145BD18B155BD28B165BD4E6175BFB
:10A5D000D3E6185BD38B195BD48B1A5BD58B1B5BD3
:10A5E000D68B1C5BD78B1D5BD88B1E5BD98B1F5BFF
:10A5F000DA8B205BDB8B215BDC8B225BDD8B235BCF
:10A60000DE8B245BDF8B255BE08B265BE18B275B9E
:10A61000E28B285BE38B295BE48B2A5BE58B2B5B6E
:10A62000E68B2C5BE78B2D5BE88B2E5BE98B2F5B3E
:10A63000EA8B305BEB8B315BEC8B325BD5E6335BCB
:10A64000ED8B345BF8D9355BEE8B365BEF8B375B8C
:10A65000D6E6385BF08B395BF18B3A5BF28B3B5B78
:10A66000F38B3C5BF48B3D5BF58B3E5BF68B3F5B8A
:10A67000F78B405BD7E6415BF88B425BF98B435B22
:10A68000FA8B445BFB8B455BFC8B465BFD8B475B2E
:10A69000FE8B485B408C495B418C4A5B428C4B5B38
:10A6A000438C4C5B448C4D5B458C4E5B468C4F5BC6
:10A6B000478C505BD3D7515BDDE6525B488C535BD4
:10A6C000DEE6545BD7BF555BD0D4565B498C575BF5
:10A6D000D6D7585BE6B4595BEFCB5A5BDAE65B5BE7
:10A6E000C3D85C5BCED75D5BA2D05E5B4A8C5F5B00
:10A6F000CFC3605B4B8C615B4C8C625BDFE6635B62
:10A70000BEBC645BC2B9655BDBE6665BA7D1675B19
:10A710004D8C685B4E8C695BA2BA6A5BCFC26B5B87
:10A720004F8C6C5BABD86D5B508C6E5B518C6F5BF0
:10A73000528C705BEBCA715BEEE5725B538C735BA2
:10A74000DCE6745B548C755BF5B7765B558C775B98
:10A75000568C785B578C795B588C7A5BE6C87B5B50
:10A76000598C7C5B5A8C7D5BF5C47E5B5B8C7F5B1C
:10A770005C8C805BB2E5815BFEC4825B5D8C835B3D
:10A78000FCCB845BB3E5855BACD5865B5E8C875B7D
:10A79000EED3885BD8CA895BB2B08A5B5F8C8B5B77
:10A7A000CECB8C5BEACD8D5B608C8E5B618C8F5BDE
:10A7B000EABA905B628C915B638C925B648C935B76
:10A7C000B5E5945B658C955BB4E5965B668C975BB1
:10A7D000DAD7985BD9B9995BE6D69A5BA8B69B5B4A
:10A7E000F0CD9C5BCBD29D5BA6B19E5BB5CA9F5B57
:10A7F000678CA05BE8B3A15BF3C9A25BCDBFA35B91
:10A80000FBD0A45BD2CAA55BB6E5A65BC2BBA75BC7
:10A81000688CA85B698CA95B6A8CAA5BDCCFAB5B9C
:10A82000ACB9AC5B6B8CAD5B6C8CAE5B6D8CAF5BB9
:10A830006E8CB05BD7D4B15B6F8CB25B708CB35B4A
:10A84000A6BAB45BE7D1B55BFCCFB65BD2BCB75B55
:10A85000718CB85BB7E5B95BDDC8BA5B728CBB5B6A
:10A86000738CBC5B748CBD5BEDBFBE5BF6B1BF5B34
:10A87000DECBC05B758CC15B768CC25BC5BCC35B39
:10A88000778CC45BC4BCC55BFAD2C65BDCC3C75B58
:10A89000DCBFC85B788CC95B798CCA5B7A8CCB5B7C
:10A8A0007B8CCC5BBBB8CD5B7C8CCE5B7D8CCF5B7B
:10A8B0007E8CD05BC2C3D15B808CD25BAEBAD35BE3
:10A8C000A2D4D45B818CD55B828CD65B838CD75B26
:10A8D000848CD85B858CD95B868CDA5B878CDB5B60
:10A8E000888CDC5B898CDD5BDEC7DE5BAFC4DF5B45
:10A8F000ECB2E05B8A8CE15BD1B9E25B8B8CE35B11
:10A900008C8CE45BBBE5E55BC8C1E65B8D8CE75BEB
:10A910008E8CE85BAFD5E95B8F8CEA5B908CEB5B50
:10A92000918CEC5B928CED5B938CEE5BBCE5EF5B0A
:10A93000948CF05BBEE5F15B958CF25B968CF35BDF
:10A94000978CF45B988CF55B998CF65B9A8CF75B33
:10A950009B8CF85BE7B4F95BD4B6FA5BC2CBFB5BCC
:10A96000B0D1FC5BBCB5FD5B9C8CFE5B9D8CFF5B42
:10A97000D9CA005C9E8C015CE2B7025C9F8C035CD0
:10A98000A08C045CE4C9055CA18C065CABBD075CD3
:10A99000A28C085CA38C095CBECE0A5CF0D70B5C71
:10A9A000A48C0C5CA58C0D5CA68C0E5CA78C0F5C3B
:10A9B000A1D0105CA88C115CD9C9125CA98C135C65
:10A9C000AA8C145CFBB6155CD8E6165CE2BC175C7E
:10A9D000AB8C185CBEB3195CAC8C1A5CD0C91B5C28
:10A9E000AD8C1C5CD9E61D5CA2B31E5CAE8C1F5CFA
:10A9F000AF8C205CB08C215CB18C225CCCDE235C03
:10AA0000B28C245CC8D3255CCDDE265CB38C275C7D
:10AA1000A2D2285CB48C295CB58C2A5CB68C2B5CE9
:10AA2000B78C2C5CCEDE2D5CB88C2E5CB98C2F5C88
:10AA3000BA8C305CBB8C315CCDBE325CBC8C335C80
:10AA4000BD8C345CCFDE355CBE8C365CBF8C375C35
:10AA5000C08C385CACCA395CFCD23A5CDFB33B5C7E
:10AA6000EAE53C5CE1C43D5CA1BE3E5CB2CE3F5C2D
:10AA7000F2C4405CD6BE415CA8C6425CE3B2435C13
:10AA8000C18C445CC28C455CD3BE465CC38C475CC5
:10AA9000C48C485CFCC7495CEBCC4A5CECBD4B5CAD
:10AAA000DDCE4C5CC58C4D5CC68C4E5CBACA4F5C2E
:10AAB000C1C6505CECE5515CBCD0525CC78C535CA9
:10AAC000C88C545CC98C555CB9D5565CCA8C575C33
:10AAD000CB8C585CCC8C595CEDE55A5CCD8C5B5CC6
:10AAE000CE8C5C5CCF8C5D5CD08C5E5CF4CA5F5CB1
:10AAF000D18C605CC0CD615CC5C2625CD28C635C91
:10AB0000EFE5645CD38C655CC4C2665CF0E5675CB1
:10AB1000D48C685CD58C695CD68C6A5CD78C6B5C99
:10AB2000D88C6C5CD98C6D5CDA8C6E5CF8E56F5CF3
:10AB3000CDCD705CDB8C715CBDC9725CDC8C735CF0
:10AB4000DD8C745CDE8C755CDF8C765CE08C775C15
:10AB5000E18C785CE28C795CD9D27A5CA8E17B5C90
:10AB6000E38C7C5CE48C7D5CE58C7E5CE68C7F5CBD
:10AB7000ECD3805CE78C815CEACB825CF1C6835CC1
:10AB8000E88C845CE98C855CEA8C865CEB8C875C69
:10AB9000EC8C885CACE1895CED8C8A5CEE8C8B5C27
:10ABA000EF8C8C5CA7E18D5CA9E18E5CF08C8F5CF6
:10ABB000F18C905CAAE1915CAFE1925CF28C935CC9
:10ABC000F38C945CEDB2955CF48C965CABE1975C95
:10ABD000DAB8985CADE1995CAEE19A5CB0E19B5C5F
:10ABE000BAB59C5CB1E19D5CF58C9E5CF68C9F5C7B
:10ABF000F78CA05CF88CA15CF98CA25CB3E1A35C3F
:10AC0000B8E1A45CFA8CA55CFB8CA65CFC8CA75C10
:10AC1000FD8CA85CFE8CA95CD2D1AA5C408DAB5C9B
:10AC2000B6E1AC5CB5E1AD5CEBC1AE5C418DAF5C57
:10AC3000428DB05C438DB15CB7E1B25C448DB35CD6
:10AC4000C0D4B45C458DB55CB2E1B65C468DB75CF2
:10AC5000BAE1B85CB6B0B95C478DBA5C488DBB5CF4
:10AC6000498DBC5C4A8DBD5CB4E1BE5C4B8DBF5C64
:10AC7000F9BFC05C4C8DC15CB9E1C25C4D8DC35C59
:10AC80004E8DC45CBBE1C55C4F8DC65C508DC75C0E
:10AC9000518DC85C528DC95C538DCA5C548DCB5CA0
:10ACA000BEE1CC5C558DCD5C568DCE5C578DCF5CB6
:10ACB000588DD05C598DD15C5A8DD25CBCE1D35C8F
:10ACC0005B8DD45C5C8DD55C5D8DD65C5E8DD75C18
:10ACD0005F8DD85C608DD95CC5D6DA5C618DDB5C3C
:10ACE000628DDC5C638DDD5C648DDE5C658DDF5CBC
:10ACF000668DE05C678DE15CBFCFE25C688DE35CF4
:10AD0000698DE45CBDE1E55CBFE1E65CCDC2E75C7A
:10AD10006A8DE85CEBB6E95C6B8DEA5CF8D3EB5CC2
:10AD20006C8DEC5C6D8DED5CCDC7EE5C6E8DEF5C7B
:10AD30006F8DF05CE5B7F15C708DF25C718DF35C4A
:10AD4000728DF45C738DF55C748DF65C758DF75CBB
:10AD5000768DF85C778DF95C788DFA5C798DFB5C8B
:10AD6000FEBEFC5C7A8DFD5C7B8DFE5C7C8DFF5CA9
:10AD70007D8D005D7E8D015D808D025DC0E1035D96
:10AD8000C1E1045D818D055D828D065DC7E1075DD2
:10AD9000E7B3085D838D095D848D0A5D858D0B5D4C
:10ADA000868D0C5D878D0D5D888D0E5DE9C60F5D0E
:10ADB000898D105D8A8D115D8B8D125D8C8D135D7B
:10ADC0008D8D145DDEB4155D8E8D165DC2D1175D5F
:10ADD0008F8D185D908D195D918D1A5D928D1B5D23
:10ADE000C8E11C5D938D1D5D948D1E5DC6E11F5DE8
:10ADF000958D205D968D215D978D225D988D235DCB
:10AE0000998D245DC5E1255D9A8D265DC3E1275DA1
:10AE1000C2E1285D9B8D295DC0B12A5D9C8D2B5DB3
:10AE20009D8D2C5D9E8D2D5DB8D52E5DC4E12F5D71
:10AE30009F8D305DA08D315DA18D325DA28D335D22
:10AE4000A38D345DCBE1355DA48D365DA58D375D79
:10AE5000A68D385DA78D395DA88D3A5DA98D3B5DC6
:10AE6000AA8D3C5DAB8D3D5DCCE13E5DCAE13F5DB1
:10AE7000AC8D405DAD8D415DAE8D425DAF8D435D6E
:10AE8000B08D445DB18D455DB28D465DB38D475D3E
:10AE9000FAEF485DB48D495DB58D4A5DD3E14B5DF8
:10AEA000D2E14C5DB6C74D5DB68D4E5DB78D4F5D41
:10AEB000B88D505DB98D515DBA8D525DBB8D535DBE
:10AEC000BC8D545DBD8D555DBE8D565DBF8D575D8E
:10AED000C08D585DC9E1595DC18D5A5DC28D5B5D04
:10AEE000CEE15C5DC38D5D5DD0E15E5DC48D5F5D77
:10AEF000C58D605DC68D615DC78D625DC88D635D0A
:10AF0000C98D645DCA8D655DCB8D665DCC8D675DD9
:10AF1000CD8D685DCE8D695DD4E16A5DCF8D6B5D51
:10AF2000D1E16C5DCDE16D5DD08D6E5DD18D6F5DDC
:10AF3000CFE1705DD28D715DD38D725DD48D735D07
:10AF4000D58D745DD5E1755DD68D765DD78D775DD8
:10AF5000D88D785DD98D795DDA8D7A5DDB8D7B5DFD
:10AF6000DC8D7C5DDD8D7D5DDE8D7E5DDF8D7F5DCD
:10AF7000E08D805DE18D815DE28D825DD6E1835D56
:10AF8000E38D845DE48D855DE58D865DE68D875D71
:10AF9000E78D885DE88D895DE98D8A5DEA8D8B5D41
:10AFA000EB8D8C5DEC8D8D5DED8D8E5DEE8D8F5D11
:10AFB000EF8D905DF08D915DF18D925DF28D935DE1
:10AFC000F38D945DF48D955DF58D965DF68D975DB1
:10AFD000F78D985DF88D995DD7E19A5DF98D9B5D50
:10AFE000FA8D9C5DFB8D9D5DD8E19E5DFC8D9F5D26
:10AFF000FD8DA05DFE8DA15D408EA25D418EA35DA5
:10B00000428EA45D438EA55D448EA65D458EA75DF0
:10B01000468EA85D478EA95D488EAA5D498EAB5DC0
:10B020004A8EAC5D4B8EAD5D4C8EAE5D4D8EAF5D90
:10B030004E8EB05D4F8EB15D508EB25D518EB35D60
:10B04000528EB45D538EB55D548EB65D558EB75D30
:10B05000DAE1B85D568EB95D578EBA5D588EBB5D2C
:10B06000598EBC5D5A8EBD5D5B8EBE5D5C8EBF5DD4
:10B070005D8EC05D5E8EC15D5F8EC25D608EC35DA4
:10B08000618EC45D628EC55DDBE1C65D638EC75DAA
:10B09000648EC85D658EC95D668ECA5D678ECB5D48
:10B0A000688ECC5D698ECD5DA1CECE5D6A8ECF5DA2
:10B0B0006B8ED05D6C8ED15D6D8ED25D6E8ED35DEC
:10B0C0006F8ED45D708ED55D718ED65D728ED75DBC
:10B0D000738ED85D748ED95D758EDA5D768EDB5D8C
:10B0E000DDE7DC5D778EDD5DA8B4DE5DDDD6DF5D9E
:10B0F000788EE05D798EE15DB2D1E25DB2B3E35D61
:10B100007A8EE45D7B8EE55DA4B9E65DF3D7E75DFD
:10B11000C9C7E85DDEBEE95DAEB9EA5D7C8EEB5D78
:10B12000D7CEEC5D7D8EED5D7E8EEE5DEEB2EF5D99
:10B13000CFDBF05D808EF15DBABCF25DD1D2F35D04
:10B14000C8CBF45DCDB0F55D818EF65D828EF75D86
:10B15000EFCFF85D838EF95D848EFA5D858EFB5DA1
:10B16000868EFC5D878EFD5DE3D9FE5DEDBDFF5DE6
:10B17000888E005E898E015ED2B1025ED0CA035E07
:10B18000BCB2045E8A8E055EA7CB065EABB7075ED7
:10B190008B8E085EA6CA095E8C8E0A5E8D8E0B5E53
:10B1A0008E8E0C5EA3CF0D5E8F8E0E5E908E0F5E28
:10B1B000F8E0105ECAD5115EFBE0125E918E135E60
:10B1C000928E145EFAE0155EC1C5165EFBCC175E6A
:10B1D000938E185EB1C1195EF9E01A5EE3D61B5E6C
:10B1E000AFB21C5EC4D61D5EDBB51E5E948E1F5EC4
:10B1F000958E205E968E215E978E225E988E235EBF
:10B20000998E245E9A8E255E9B8E265EF8B4275E0C
:10B21000A1D6285E9C8E295E9D8E2A5E9E8E2B5E18
:10B220009F8E2C5EA08E2D5EAFCF2E5EEFB02F5E78
:10B23000A18E305EA28E315EFCE0325EA38E335E64
:10B24000A48E345EA58E355EA68E365EA78E375EE2
:10B25000A1E1385EA3B3395EA88E3A5EA98E3B5E4B
:10B26000FDE03C5EFEE03D5EB1C33E5EAA8E3F5E09
:10B27000AB8E405EAC8E415EAD8E425EDDC3435E02
:10B28000AE8E445EA2E1455EF9B7465EAF8E475E84
:10B29000B08E485EB18E495EB28E4A5EB38E4B5E12
:10B2A000B48E4C5ECFBB4D5EB58E4E5EB68E4F5E9D
:10B2B000B78E505EB88E515EB98E525EBA8E535EB6
:10B2C000BB8E545EA3E1555EBBC4565EBC8E575E1A
:10B2D000BD8E585EBE8E595EBF8E5A5EC08E5B5E5E
:10B2E000A4E15C5EC18E5D5EC28E5E5EA5E15F5EC6
:10B2F000C38E605EC48E615EA6E1625EB1B4635EC1
:10B30000C58E645EC68E655EC78E665EC88E675EDD
:10B31000C98E685ECA8E695ECB8E6A5ECC8E6B5EAD
:10B32000CD8E6C5ECE8E6D5ECF8E6E5ED08E6F5E7D
:10B33000D18E705ED28E715ED38E725EC9B8735E2E
:10B34000BDC6745EEAC4755ED48E765EA2B2775EC8
:10B35000D58E785ED2D0795ED68E7A5EDBE77B5E64
:10B36000C3BB7C5ED7D37D5EC4D37E5ED78E7F5E4B
:10B37000E3B9805ECFE2815ED88E825ED98E835E35
:10B38000DA8E845EAFD7855EDB8E865EECC7875E25
:10B39000D3B1885EDC8E895EDD8E8A5EB2B48B5E50
:10B3A000D1E28C5EDE8E8D5EDF8E8E5EE08E8F5EF5
:10B3B000F2D0905EAEC2915ED0E2925EE18E935E7C
:10B3C000E2BF945EA6D3955ED7B5965ED2E2975E55
:10B3D000EAB5985EE28E995EEDC39A5EFDB89B5E1B
:10B3E000E38E9C5EAEB89D5EE48E9E5ED3C59F5E8E
:10B3F000CFB7A05ED4E2A15EE58EA25EE68EA35E2C
:10B40000E78EA45EE88EA55ED3E2A65EC8B6A75E10
:10B41000F9D7A85EE98EA95EEA8EAA5EEB8EAB5ED6
:10B42000EC8EAC5EED8EAD5EA5CDAE5EEE8EAF5E0B
:10B43000EF8EB05EF08EB15EF18EB25EF28EB35ED4
:10B44000D8E2B45EF38EB55ED6E2B65EFCCAB75EF5
:10B45000B5BFB85EB9D3B95ED5E2BA5EF48EBB5E55
:10B46000F58EBC5EF68EBD5EF78EBE5ED7E2BF5E29
:10B47000F88EC05EF98EC15EFA8EC25EFB8EC35E30
:10B48000FC8EC45EFD8EC55EFE8EC65E408FC75EBE
:10B49000418FC85E428FC95EAEC1CA5EC8C0CB5E76
:10B4A000438FCC5E448FCD5E458FCE5E468FCF5EA0
:10B4B000478FD05E488FD15EDBE2D25EDAE2D35EA8
:10B4C000AAC0D45E498FD55E4A8FD65ECEC1D75E04
:10B4D0004B8FD85E4C8FD95E4D8FDA5E4E8FDB5E20
:10B4E000DCE2DC5E4F8FDD5E508FDE5E518FDF5E13
:10B4F000528FE05E538FE15E548FE25E558FE35EC4
:10B50000568FE45E578FE55E588FE65E598FE75E93
:10B510005A8FE85EDDE2E95E5B8FEA5EDEE2EB5EBB
:10B520005C8FEC5E5D8FED5E5E8FEE5E5F8FEF5E3B
:10B53000608FF05E618FF15E628FF25E638FF35E0B
:10B54000648FF45EC8DBF55E658FF65ED3D1F75E7F
:10B55000A2CDF85E668FF95E678FFA5EA8BDFB5ECE
:10B56000688FFC5E698FFD5E6A8FFE5EC3DEFF5EE4
:10B57000A5D8005FAABF015FCDDB025FECD2035FFD
:10B58000FAC6045FAAC5055F6B8F065F6C8F075F05
:10B590006D8F085FC4DE095F6E8F0A5FD7B10B5FE6
:10B5A000AEDF0C5F6F8F0D5F708F0E5F718F0F5F5F
:10B5B000BDCA105F728F115FB1DF125F738F135FAF
:10B5C000ADB9145F748F155FFDD2165F758F175F6D
:10B5D000A5B8185FEBBA195F768F1A5F778F1B5F7C
:10B5E000DAB31C5F788F1D5F798F1E5F7A8F1F5FC4
:10B5F000DCB5205FC5D5215F7B8F225F7C8F235F09
:10B600007D8F245F7E8F255FD6C3265FD2CF275FD5
:10B61000A1BB285F808F295FF3E52A5FF2E52B5FEE
:10B62000818F2C5F828F2D5FF4E52E5F838F2F5FDC
:10B63000E4CD305F848F315FF5C8325F858F335F33
:10B64000868F345F878F355F888F365F898F375F4E
:10B650008A8F385F8B8F395FAFB53A5FBFC73B5F6B
:10B660008C8F3C5FF6E53D5F8D8F3E5F8E8F3F5F39
:10B670008F8F405FB0EC415F908F425F918F435F4F
:10B68000928F445F938F455F948F465F958F475F9E
:10B69000968F485F978F495F988F4A5F998F4B5F6E
:10B6A0009A8F4C5F9B8F4D5F9C8F4E5F9D8F4F5F3E
:10B6B0009E8F505FE6E5515F9F8F525FE9B9535F00
:10B6C000B1B5545FA08F555FBCC2565FE8E5575FC8
:10B6D000E7E5585FE9E5595FA18F5A5FA28F5B5F8D
:10B6E000A38F5C5FA48F5D5FCDD25E5FA58F5F5F30
:10B6F000A68F605FA78F615FEAE1625FCED0635F74
:10B70000A88F645FAECD655FA98F665FE5D1675F87
:10B71000AA8F685FAB8F695FCAB26A5FEBB16B5F7C
:10B72000AC8F6C5FF2B16D5FEDC56E5FAD8F6F5F1B
:10B73000AE8F705FC3D5715FB0D3725FAF8F735F31
:10B74000DCE1745FB08F755FB18F765FB28F775F2A
:10B75000DDE1785FB38F795FDBD27A5FB48F7B5F97
:10B76000B9B37C5FCBB17D5FB58F7E5FB68F7F5FF6
:10B77000B78F805FF9CD815FF7D5825FDEE1835FB0
:10B78000B88F845FB6BE855FFDB4865FB98F875F73
:10B79000DFE1885FDCBA895FE0E18A5FB2BB8B5F83
:10B7A000C9C28C5FE1E18D5FBA8F8E5FBB8F8F5F07
:10B7B000BC8F905FECD0915FBD8F925FBDCD935FEA
:10B7C000BE8F945FBF8F955FE2E1965FC08F975FFA
:10B7D000C3B5985FC7C5995FE3E19A5FC18F9B5F6F
:10B7E000C28F9C5FE4E19D5FC38F9E5FC48F9F5FAC
:10B7F000C58FA05FC68FA15FF9D3A25FC78FA35F7C
:10B80000C88FA45FC98FA55FCA8FA65FCB8FA75FC4
:10B81000CC8FA85FE5E1A95FCD8FAA5FADD1AB5F0B
:10B82000CE8FAC5FCF8FAD5FE6E1AE5FA2CEAF5FF4
:10B83000D08FB05FD18FB15FD28FB25FD38FB35F44
:10B84000D48FB45FD58FB55FE7E1B65FD68FB75FB2
:10B85000C2B5B85FD78FB95FD88FBA5FD98FBB5FDA
:10B86000DA8FBC5FE8E1BD5FD5BBBE5FDB8FBF5F3A
:10B87000DC8FC05FDD8FC15FDE8FC25FDF8FC35F94
:10B88000C4D0C45FE0E2C55FD8B1C65FE4D2C75F91
:10B89000E08FC85FE18FC95FE1E2CA5FE28FCB5FF3
:10B8A000E38FCC5FC9BCCD5FCCC8CE5FE48FCF5FE8
:10B8B000E3E2D05FFEECD15FFDECD25FAFDFD35FA0
:10B8C000E58FD45FE68FD55FE78FD65FE2E2D75F83
:10B8D000BED6D85FFCCDD95FA6C3DA5FE88FDB5F49
:10B8E000E98FDC5FEA8FDD5FC3E3DE5FEB8FDF5F55
:10B8F000EC8FE05FD2D6E15FE7E2E25FED8FE35FDE
:10B90000EE8FE45FE8E2E55FEF8FE65FF08FE75FE1
:10B91000C7D3E85FF18FE95FF28FEA5FECE2EB5F9C
:10B92000ECBFEC5FF38FED5FEDE2EE5FE5E2EF5F22
:10B93000F48FF05FF58FF15FC0B3F25FF68FF35FC6
:10B94000F78FF45FF88FF55FEEC4F65FF98FF75F5E
:10B95000FA8FF85FEEE2F95FFB8FFA5FFC8FFB5F17
:10B96000C3D0FC5FFD8FFD5FF6BAFE5FE9E2FF5FCB
:10B97000DEB70060B3BB0160ACCC0260CBCB036030
:10B98000E4E20460E6E20560EAE20660EBE20760FA
:10B99000FE8F08604090096041900A60F7E20B60FA
:10B9A00042900C6043900D60F4E20E60F5D40F609D
:10B9B000F3E210604490116045901260ADC51360D1
:10B9C00046901460FAD51560C2C51660C0B2176003
:10B9D0004790186048901960EFE21A6049901B6028
:10B9E000F2E21C60AFC11D60BCCB1E604A901F60BC
:10B9F0004B902060A1B52160F9E222604C90236059
:10BA00004D9024604E902560B1BC2660F1E2276025
:10BA1000D4D02860B9D42960F5E22A60D6B92B6069
:10BA2000F6E22C604F902D6050902E6051902F6068
:10BA3000D3C730605290316053903260549033607D
:10BA40005590346056903560F0E23660579037601C
:10BA500058903860599039605A903A605B903B60DA
:10BA6000DCD73C60A1ED3D605C903E605D903F6046
:10BA7000F8E240605E904160A5ED4260FEE2436006
:10BA8000D1CA44605F9045606090466061904760B5
:10BA9000629048606390496064904A6065904B6032
:10BAA000B5C14C6066904D60D0BB4E6067904F60F2
:10BAB00068905060D6BF516069905260E3BA53609D
:10BAC0006A9054606B905560A1CB56606C90576043
:10BAD0006D9058606E905960A6ED5A60A3ED5B6062
:10BAE0006F905C6070905D60A2ED5E6071905F60D1
:10BAF000729060607390616074906260D6BB6360A6
:10BB0000A7ED6460F4D065607590666076906760BC
:10BB1000A4ED6860DEBA6960F7B66A60A1E36B60A5
:10BB2000B2B66C60F1CC6D60A7B96E6077906F6053
:10BB3000A2CF7060A1C771607890726079907360D5
:10BB4000D2BF74607A9075607B907660F1B6776052
:10BB50007C907860FAE27960FBE27A60FDE27B60DB
:10BB6000FCE27C60D5C47D60A2E37E607D907F6056
:10BB7000C1D380607E90816080908260819083607C
:10BB8000A7E38460C4C785608290866083908760E5
:10BB90008490886085908960A4CF8A6086908B604D
:10BBA00087908C60A9E38D60B7BA8E6088908F60B3
:10BBB000899090608A9091608B909260A8E39360E6
:10BBC0008C909460DABB95608D909660A3E397604B
:10BBD0008E9098608F90996090909A60A4E39B609B
:10BBE000AAE39C6091909D60A6E39E6092909F6006
:10BBF000F2CEA060C6D3A1609390A2609490A3609F
:10BC0000BCBBA4609590A5609690A660C3D4A760C5
:10BC10009790A860FAC4A9609890AA609990AB60C8
:10BC2000A8EDAC60FCD0AD60A5E3AE609A90AF60CB
:10BC3000F5C3B0609B90B160ADE3B260AFB1B360EB
:10BC40009C90B460B2E3B5609D90B6609E90B76082
:10BC50009F90B860C2BCB960A090BA60A190BB6070
:10BC6000ACE3BC60BFB5BD60A290BE60A390BF60F6
:10BC7000A490C060A590C160A690C260A790C36068
:10BC8000A890C460A990C560E9C7C660B0E3C7606A
:10BC9000AA90C860AB90C960AC90CA60AABECB60E5
:10BCA000EFCDCC60AD90CD60AE90CE60AF90CF6068
:10BCB000B090D060B190D160F3BBD260B290D3604D
:10BCC000B390D460B490D560E8CCD660B590D7601E
:10BCD000B690D860AFE3D960B790DA60B1E3DB60CB
:10BCE000B890DC60A7CFDD60AEE3DE60B990DF60C6
:10BCF000A9CEE060DDBBE160BA90E260BB90E3609A
:10BD0000BC90E460BD90E560BE90E660EBB5E76096
:10BD1000E5BEE860D2B2E960CDB3EA60BF90EB6007
:10BD2000B9B1EC60ABE3ED60D1B2EE60ACB5EF6001
:10BD3000DFB9F060E8B6F160C090F260C190F360E6
:10BD4000EBCFF460B7E3F560C290F660CCBBF76070
:10BD5000C390F860C490F960C7C8FA60CAD0FB60AD
:10BD6000C590FC60C690FD60C790FE60C890FF6003
:10BD7000C9900061B8E30161EEB30261CA9003614A
:10BD8000CB900461CC900561CD900661A9ED07616F
:10BD9000CE900861FAD30961E4D30A61CF900B61B8
:10BDA000D0900C61D1900D61AAED0E61B9E30F61E5
:10BDB000E2D21061D2901161D3901261D4901361DC
:10BDC000D5901461D6901561B5E31661D7901761CF
:10BDD000D8901861D9901961DA901A61DED31B618D
:10BDE000DB901C61DC901D61DD901E61DE901F61A7
:10BDF000D0B82061B3E32161DF902261E09023613C
:10BE0000B6E32461DFB72561E1902661B4E32761E1
:10BE1000A2C02861E2902961E3902A61E4902B613D
:10BE2000BAE32C61E5902D61E6902E61E7902F61D9
:10BE3000E8903061E9903161EA903261EB903361D2
:10BE4000EC903461ED903561EE903661EF903761A2
:10BE5000F0903861F1903961F2903A61F3903B6172
:10BE6000F4903C61F5903D61F6903E61F7903F6142
:10BE7000B8D44061F8904161F9904261FA90436111
:10BE8000FB904461FC904561FD904661FE904761E6
:10BE900040914861C8B4496141914A61BBE34B613B
:10BEA00042914C61C5BB4D6143914E61F7C94F61F1
:10BEB0004491506145915161E5C952614691536188
:10BEC0004791546148915561BDC45661499157618C
:10BED0004A9158614B9159614C915A614D915B6106
:10BEE0004E915C614F915D61ABED5E6150915F6120
:10BEF000519160615291616153916261FDC26361D0
:10BF0000549164615591656156916661579167617D
:10BF1000DBBB6861AEBF696158916A6159916B6121
:10BF20005A916C615B916D615C916E615D916F6125
:10BF30005E917061BFCE71615F917261609173615A
:10BF40006191746162917561BCE37661639177611F
:10BF5000B6BF78616491796165917A6166917B6120
:10BF600067917C6168917D6169917E616A917F6171
:10BF70006B9180616C9181616D9182616E91836141
:10BF80006F91846170918561719186617291876111
:10BF9000739188617491896175918A6176918B61E1
:10BFA000EFB18C6177918D6178918E61F7D48F615B
:10BFB000799190617A9191617B9192617C91936189
:10BFC0007D919461BEE395617E91966180919761C8
:10BFD000819198618291996183919A6184919B6129
:10BFE00085919C6186919D61ADED9E6187919F6178
:10BFF0008891A0618991A1618A91A2618B91A361CD
:10C000008C91A4618D91A5618E91A6618F91A7619C
:10C01000BFE3A861A9BAA961ACEDAA619091AB6137
:10C020009191AC61BDE3AD619291AE619391AF61CD
:10C030009491B0619591B1619691B2619791B3611C
:10C040009891B4619991B5619A91B6619B91B761EC
:10C05000C0E3B8619C91B9619D91BA619E91BB6149
:10C060009F91BC61A091BD61A191BE61B6BABF6153
:10C07000A291C061A391C161A491C261AEB6C36136
:10C08000A591C461A691C561A791C661A891C76138
:10C09000A991C861B8D0C961AA91CA61C3B0CB6186
:10C0A000AEEDCC61AB91CD61AC91CE61AD91CF6184
:10C0B000AE91D061AF91D161AFEDD261C1C0D3611A
:10C0C000B091D461C1E3D561B191D661B291D7612C
:10C0D000B391D861B491D961B591DA61B691DB6160
:10C0E000B791DC61B891DD61B991DE61BA91DF6130
:10C0F000BB91E061BC91E161BD91E261BE91E36100
:10C10000BF91E461C091E561C191E661B3C5E761AA
:10C11000C291E861C391E961C491EA61C591EB61A3
:10C12000C691EC61C791ED61C891EE61C991EF6173
:10C13000CA91F061CB91F161CC91F261CD91F36143
:10C14000CE91F461CF91F561C2E3F661D091F761D0
:10C15000D191F861D291F961D391FA61D491FB61E7
:10C16000D591FC61D691FD61D791FE61D891FF61B7
:10C17000B2DC0062D9910162DA910262DB91036262
:10C18000DC910462DD910562DE910662B0ED07622A
:10C19000DF910862EAB80962E0910A62ECCE0B62B4
:10C1A000A7EA0C62E7D00D62F9CA0E62D6C80F6228
:10C1B000B7CF1062C9B31162D2CE1262E4BD13626E
:10C1C000E1911462E2911562DEE31662F2BB17623E
:10C1D000A8EA1862BDD51962E3911A62DDC61B6236
:10C1E000A9EA1C62E4911D62E5911E62E6911F625C
:10C1F000AAEA2062E7912162ACEA2262ABEA2362FA
:10C20000E8912462AEEA2562ADEA2662E9912762EE
:10C21000EA912862EB912962EC912A62D8BD2B62E7
:10C22000ED912C62AFEA2D62EE912E62BEC22F62BA
:10C23000EF913062F0913162F1913262F2913362AA
:10C24000C1B43462F7B43562F3913662F491376267
:10C25000A7BB3862F5913962F6913A62F7913B6279
:10C26000F8913C62F9913D62E6EC3E62E5EC3F629A
:10C27000BFB74062F9CB4162E2B14262FA914362D8
:10C28000E7EC4462FB914562FC914662FD91476296
:10C29000C8C94862E8EC4962E9EC4A62FE914B6227
:10C2A000D6CA4C62D0DE4D62C5B24E62FAD44F623D
:10C2B0004092506241925162CBC65262C7B0536203
:10C2C000F2B45462D3C855624292566243925762A6
:10C2D00044925862D0CD596245925A6246925B624E
:10C2E000B8BF5C6247925D6248925E6249925F624B
:10C2F0004A9260624B9261624C9262624D926362BA
:10C30000DBBF64624E9265624F926662A4C7676249
:10C31000B4D6686250926962A9C06A62D1DE6B626B
:10C32000A8C96C62EFD16D62A4C56E62E7B06F629E
:10C33000B6B37062C5C871625192726252927362F2
:10C34000E2B074625392756254927662F6B7776285
:10C350005592786256927962FAC57A6257927B62F8
:10C3600058927C62F3B67D6259927E62D2D57F622A
:10C37000D0B38062BCBC81625A9282625B9283625B
:10C380005C928462ADB385625D9286625E928762E2
:10C390005F92886260928962F1BE8A62D1B08B62DC
:10C3A00061928C6262928D6263928E6264928F62FD
:10C3B0006592906266929162D6D29262E3CA93626B
:10C3C000A5D7946267929562B6CD9662B6B697622B
:10C3D000B9BF9862DBD5996268929A62A7B89B62EE
:10C3E000D7C59C6269929D626A929E626B929F62BF
:10C3F000D2DEA062D9BFA162D5C2A262C0C7A362C9
:10C400006C92A462A4BBA562A8B1A6626D92A76259
:10C410006E92A862EAC5A9626F92AA627092AB623C
:10C42000FBC5AC62A7CCAD627192AE627292AF6294
:10C430007392B0627492B162A7B1B2627592B36244
:10C440007692B4627792B562D6B5B6627892B762E8
:10C450007992B8627A92B962A8C4BA627B92BB62DE
:10C46000D3DEBC62BAD1BD62E9B3BE627C92BF6268
:10C47000F2C3C0627D92C1627E92C262F7B7C362AC
:10C480008092C462F4D6C562A3B5C662F0B2C76238
:10C49000B4C4C862E9C4C962ADC0CA62D4DECB62AA
:10C4A0008192CC62E8B0CD62C4C5CE62E0C1CF62F9
:10C4B0008292D062D5B9D1628392D262DCBED3625D
:10C4C000D8CDD462CEB0D5628492D662CFCDD762B9
:10C4D000D6DED862D0BED962BED7DA62D5DEDB62E4
:10C4E000D0D5DC62DDB0DD628592DE628692DF62ED
:10C4F000E2C4E0628792E1628892E262A3C2E362F0
:10C50000F0BCE4628992E562B5D3E662B9C0E76245
:10C51000A1C5E862A6B2E962F1D4EA628A92EB624E
:10C520008B92EC62A8C0ED62C3CAEE62D7DEEF6206
:10C53000FCD5F0628C92F162B0B9F2628D92F36236
:10C54000ADC8F462A9CBF5628E92F662D9DEF762CD
:10C55000BDBFF8628F92F9629092FA629192FB628B
:10C560009292FC62B4C6FD62A7D7FE62B0CAFF62B7
:10C57000C3C4006393920163D6B30263D2B9036369
:10C58000949204639592056396920663979207636B
:10C59000B8D60863FCEA0963B4B00A6398920B63E7
:10C5A00099920C639A920D639B920E63E6BF0F63A0
:10C5B0009C9210639D921163F4CC12639E9213635C
:10C5C0009F921463A0921563A1921663DACD17634C
:10C5D000A2921863A3921963A4921A63BFD61B6335
:10C5E000CEC21C63A5921D63CECE1E63A2CC1F6378
:10C5F000AED02063D3C42163B2B52263D8DE2363F7
:10C60000F5D52463B7BC2563D3BB2663A692276305
:10C61000A7922863A4B02963A8922A63B2C52B63AA
:10C62000ECB42C63A9922D63AA922E63AB922F6374
:10C63000F1D53063AC923163AD923263FDEA33637E
:10C64000AE923463AF923563B0923663B192376382
:10C65000B2923863B3923963DADE3A63A6CD3B63B4
:10C66000B4923C63B5923D63ECCD3E63B6923F63BA
:10C67000B7924063B8924163B9924263E6CE436396
:10C68000DCDE4463BA924563B1CD4663A6C047631E
:10C69000BB924863BC924963BDD74A63BD924B636A
:10C6A000DBDE4C63C6B04D63B4BA4E63D3C94F638F
:10C6B000F3C45063E8BE5163BE925263BF925363AA
:10C6C000C0925463C1925563B6B25663C292576327
:10C6D000C3925863C4925963C5925A63C6925B630E
:10C6E000C7925C63C8925D63C9925E63CCC05F63AE
:10C6F000F0CB6063CA926163F1BC6263BBBB6363EE
:10C70000B7B56463CB926563CC926663CD92676381
:10C71000F5C56863CE926963E6DE6A63CF926B63A8
:10C72000D0926C63D1926D63E3DE6E63DDBE6F63A6
:10C73000D2927063D3927163DFDE7263D4927363BB
:10C74000D5927463D6927563D7927663B7B47763E4
:10C75000DDBD7863D8927963D9927A63E0DE7B633A
:10C76000EDC47C63DA927D63DB927E63DC927F634F
:10C77000DD928063C6CF8163DE928263E0B583631E
:10C78000DF928463E0928563E1928663E29287633D
:10C79000DEB68863DACA8963F4B58A63E5DE8B6343
:10C7A000E3928C63C6D58D63E4928E63E1DE8F6382
:10C7B000CDCC9063FEC69163E5929263C5C5936349
:10C7C000E6929463E7929563E8929663B4D2976396
:10C7D000E9929863F2BE9963EA929A63EB929B6343
:10C7E000EC929C63ED929D63EE929E63EF929F6349
:10C7F000F092A063D3C2A163F192A263BDCCA36304
:10C80000B8B3A463F292A563D3BDA663F392A76302
:10C81000D8BFA863C6CDA963DAD1AA63EBB4AB6372
:10C82000F492AC63E4DEAD63DDDEAE63E7DEAF63FE
:10C83000F592B063FEEAB163F692B263F792B36326
:10C84000B0C2B463E2DEB563F892B663F992B7633F
:10C85000C0D6B863A7B5B963FA92BA63F4B2BB6342
:10C86000FB92BC63E8DEBD63FC92BE63F2DEBF6395
:10C87000FD92C063FE92C1634093C2634193C36360
:10C880004293C463EDDEC5634393C663F1DEC763C1
:10C890004493C8634593C963E0C8CA634693CB63B6
:10C8A0004793CC634893CD63E1D7CE63EFDECF638C
:10C8B000E8C3D063E1CCD1634993D263E5B2D363DB
:10C8C0004A93D4634B93D5634C93D663BED2D7635C
:10C8D0004D93D8634E93D9634F93DA635093DB63E0
:10C8E0005193DC635293DD635393DE63EEDEDF63CB
:10C8F0005493E063EBDEE163D5CEE2635593E363EB
:10C90000A7B4E4635693E5635793E6635893E763EC
:10C910005993E8635A93E963ABBFEA63BEBEEB6326
:10C920005B93EC635C93ED63D2BDEE635D93EF6369
:10C930005E93F0635F93F1636093F263E9DEF36308
:10C940006193F463AED4F5636293F663DEDEF7635E
:10C950006393F863EADEF9636493FA636593FB63B8
:10C960006693FC636793FD63BFC0FE636893FF63D8
:10C97000ECDE0064F3B20164E9B80264A7C20364A8
:10C98000699304646A930564C1BD06646B9307648C
:10C990006C9308646D9309646E930A646F930B64DF
:10C9A000F5DE0C64F8DE0D6470930E6471930F6411
:10C9B000ABB21064A4B411647293126473931364E1
:10C9C000EAB41464A6C91564749316647593176465
:10C9D000769318647793196478931A6479931B6437
:10C9E000F6DE1C64D1CB1D647A931E64E3B81F6429
:10C9F0007B932064F7DE2164FADE22647C93236457
:10CA00007D9324647E93256480932664F9DE2764F5
:10CA1000819328648293296483932A64C2CC2B6413
:10CA200084932C64E1B02D64EEB42E6485932F645E
:10CA30008693306487933164889332648993336436
:10CA40008A933464BAE535648B9336648C93376487
:10CA50008D9338648E9339648F933A64AFD03B647E
:10CA600090933C6491933D64EBB23E6492933F6437
:10CA7000A1EB406493934164F4DE42649493436475
:10CA800095934464E3C94564F3DE4664DAB04764D1
:10CA9000A1D24864F7B1496496934A64AFCC4B6421
:10CAA00097934C6498934D6499934E649A934F6412
:10CAB0009B9350649C9351649D935264F0DE536445
:10CAC0009E935464A4CB55649F935664A09357647B
:10CAD000A1935864AAD55964A2935A64A3935B6442
:10CAE000A4935C64A5935D64A6935E64FBDE5F64BF
:10CAF000A7936064A8936164A9936264AA93636432
:10CB0000AB936464AC936564AD936664AE93676401
:10CB1000DDB46864AF936964A6C46A64B0936B645F
:10CB2000B1936C64B2936D64FDDE6E64B3936F6415
:10CB3000B4937064B5937164B6937264B79373647D
:10CB4000B8937464B9937564BA937664BB9377644D
:10CB5000BC937864FEC37964A1C47A64A1DF7B646A
:10CB6000BD937C64BE937D64BF937E64C0937F64F9
:10CB7000C1938064C2938164C3938264CCC1836493
:10CB8000C4938464FCDE8564EFBE8664C5938764C9
:10CB9000B2C68864C6938964C7938A64C8938B6459
:10CBA000C9938C64CA938D64CB938E64CC938F6449
:10CBB000CD939064CE939164C5B39264F6C89364A8
:10CBC000CF939464D0939564BACB9664FEDE976459
:10CBD000D1939864D2939964A4DF9A64D3939B64AD
:10CBE000D4939C64D5939D64D6939E64B2D79F647E
:10CBF000D793A064D893A164D993A264DA93A36471
:10CC0000DB93A464B7B3A564DC93A664DD93A76447
:10CC1000DE93A864DF93A964C3C1AA64E093AB6404
:10CC2000E193AC64CBC7AD64A5B2AE64E9B4AF64C4
:10CC3000E293B064ABD7B164E393B264E493B364BA
:10CC4000E593B464E693B564ECC4B664E793B76463
:10CC5000A2DFB864A3DFB964E893BA64A5DFBB645C
:10CC6000E993BC64B3BABD64EA93BE64EB93BF645A
:10CC7000EC93C064A6DFC164ED93C264DEC0C364FC
:10CC8000EE93C464EF93C564C3C9C664F093C764EC
:10CC9000F193C864F293C964F393CA64F493CB64C8
:10CCA000F593CC64F693CD64D9B2CE64E6C7CF6475
:10CCB000F793D064A7DFD164F893D264DCC7D36460
:10CCC000F993D464FA93D564FB93D664FC93D76448
:10CCD000A8DFD864A2EBD964FD93DA64FE93DB6429
:10CCE0004094DC644194DD644294DE64D3CBDF6421
:10CCF0004394E0644494E1644594E264AADFE3640D
:10CD00004694E464A9DFE5644794E664C1B2E7644D
:10CD10004894E8644994E9644A94EA644B94EB6467
:10CD20004C94EC644D94ED644E94EE644F94EF6437
:10CD30005094F0645194F1645294F2645394F36407
:10CD40005494F4645594F5645694F6645794F764D7
:10CD50005894F8645994F9645A94FA645B94FB64A7
:10CD60005C94FC645D94FD645E94FE645F94FF6477
:10CD700060940065CAC501656194026562940365AB
:10CD80006394046564940565659406656694076517
:10CD90006794086568940965ABDF0A6569940B655B
:10CDA0006A940C656B940D656C940E656D940F65BB
:10CDB0006E9410656F94116570941265DCD41365E0
:10CDC000719414657294156573941665749417655F
:10CDD00075941865C1C8196576941A6577941B65B2
:10CDE00078941C6579941D657A941E657B941F6503
:10CDF0007C9420657D9421657E94226580942365D2
:10CE00008194246582942565ACDF2665839427652B
:10CE1000849428658594296586942A6587942B6572
:10CE2000F0BE2C6588942D6589942E65ADDF2F6545
:10CE3000A7D630658A9431658B9432658C943365BE
:10CE40008D943465B7EA3565B6EB3665D5CA376576
:10CE50008E943865FCD83965C4B83A658F943B65C3
:10CE6000A5B93C6590943D6591943E65C5B73F6515
:10CE7000FED54065929441659394426594944365D0
:10CE80009594446596944565CAB9466597944765F7
:10CE900098944865A7D04965CDF44A6599944B6547
:10CEA0009A944C65D0B54D659B944E659C944F65A6
:10CEB000F4C350659D945165C8BE52659E945365F8
:10CEC0009F945465A0945565B7EB5665BDB0576502
:10CED000A1945865A2945965CCBD5A65A3945B652D
:10CEE000B2C15C65A4945D65D6B15E65A8B35F65AB
:10CEF000A5946065A6946165A7946265D2B86365E0
:10CF0000A2C96465A8946565A9946665D8B6676585
:10CF1000AA946865AB946965AC946A65AD946B65D9
:10CF2000B8EB6C65B4BE6D65AE946E65AF946F651D
:10CF3000B0947065FDCA7165B1947265C3C77365BD
:10CF4000B2947465FBD57565B3947665B4947765D2
:10CF5000F3B77865B5947965B6947A65B7947B65CF
:10CF6000B8947C65B9947D65BA947E65BB947F6501
:10CF7000BC948065BD948165BE948265BF948365D1
:10CF8000C0948465C1948565C2948665C3948765A1
:10CF9000C4CE8865C4948965C5948A65C6948B653A
:10CFA000ABD58C65F3B18D65C7948E65C8948F65DC
:10CFB000C9949065B3EC9165DFB09265CA949365AE
:10CFC000B5EC9465CB949565CC949665CD949765B6
:10CFD000B7B69865CE949965CFC19A65CF949B6595
:10CFE000FAF59C65B1D09D65D0949E65D1949F65FE
:10CFF000E5D5A065D294A165D3CEA265D394A365EF
:10D00000D494A465EFBDA565E2B3A665D594A765E4
:10D01000ABB8A865D694A965B6D5AA65D794AB6513
:10D02000BDEDAC65D894AD65CFB6AE65D994AF65AE
:10D03000B9CBB065C2D0B165DA94B265DB94B365A3
:10D04000DC94B465DD94B565DE94B665DF94B765B0
:10D05000E094B865E194B965BDB7BA65E294BB6583
:10D06000E394BC65B6ECBD65A9CABE65E494BF6532
:10D07000E594C065E694C165D4C5C265E794C3650F
:10D08000B9ECC465B8ECC565C3C2C665B7ECC76585
:10D09000E894C865E994C965EA94CA65EB94CB65E0
:10D0A000FDD0CC65BAECCD65EC94CE65BBECCF651C
:10D0B000E5D7D065ED94D165EE94D265BCECD3652F
:10D0C000EF94D465F094D565F194D665BDECD76541
:10D0D000ECC6D865F294D965F394DA65F494DB650F
:10D0E000F594DC65F694DD65F794DE65F894DF650C
:10D0F000F994E065DECEE165FA94E265C8BCE365CB
:10D10000FB94E465FC94E565D5C8E665A9B5E765DB
:10D11000C9BEE865BCD6E965E7D4EA65FD94EB6570
:10D12000FE94EC65AED1ED65F1D0EE65B8EAEF6541
:10D13000B9EAF065BAEAF165B5BAF2654095F3650A
:10D140004195F4654295F5654395F665B1CAF76575
:10D15000F5BFF8654495F9654595FA65FACDFB6527
:10D160004695FC654795FD654895FE654995FF65C3
:10D170004A950066C0EA01664B950266BAB003663E
:10D18000BEEA04664C9505664D950666A5C0076621
:10D190004E9508664F95096650950A66BBEA0B6680
:10D1A00051950C66FDB20D6652950E66F7C30F667B
:10D1B000E8BB106653951166549512665595136633
:10D1C000D7D21466F4CE1566BFEA16665695176672
:10D1D0005795186658951966BCEA1A6659951B66E4
:10D1E0005A951C665B951D66C3EA1E665C951F66B4
:10D1F000C7D02066B3D321665D9522665E9523660F
:10D200005F95246660952566BAB4266661952766A3
:10D21000C1C32866F2D7296662952A6663952B6694
:10D2200064952C6665952D66D1D52E6666952F661C
:10D23000C7CA306667953166C5EA32666895336657
:10D2400069953466C4EA3566C7EA3666C6EA376663
:10D250006A9538666B9539666C953A666D953B664E
:10D260006E953C66E7D63D666F953E66D4CF3F66C9
:10D270007095406671954166CBEA42667295436649
:10D28000CEBB44667395456674954666759547664C
:10D29000769548667795496678954A6679954B669E
:10D2A000FABD4C66CEC94D667A954E667B954F6643
:10D2B000CCEA50667C9551667D955266B9C9536635
:10D2C000FECF5466CAEA5566CED45666CDEA576696
:10D2D000CFEA58667E95596680955A66EDCD5B66B5
:10D2E00081955C6682955D6683955E6684955F66D2
:10D2F000C9EA606685956166CEEA62668695636670
:10D3000087956466EECE656688956666DEBB676661
:10D3100089956866BFB369668A956A668B956B6600
:10D320008C956C668D956D668E956E66D5C66F66AE
:10D33000B0BE7066FACE71668F9572669095736610
:10D3400091957466E7C7756692957666A7BE77660F
:10D35000D0EA78669395796694957A66C7D67B66A7
:10D3600095957C6696957D6697957E66C0C17F662D
:10D3700098958066999581669A958266DDD48366D4
:10D380009B958466D1EA85669C9586669D958766A1
:10D39000BECF88669E9589669F958A66A0958B66A6
:10D3A000A1958C66D2EA8D66A2958E66A3958F664E
:10D3B000A4959066A5959166EECA9266A695936629
:10D3C000A7959466A8959566A9959666AFC5976644
:10D3D000B5B09866AA959966AB959A66AC959B662A
:10D3E000AD959C66AE959D66D4EA9E66AF959F66A8
:10D3F000B095A066B195A166B295A266B395A366F5
:10D40000B495A466B595A566B695A666B795A766C4
:10D41000D3EAA866DFF4A966B895AA66B995AB66A3
:10D42000BA95AC66BB95AD66BC95AE66BAC4AF6640
:10D43000BD95B066BE95B166BF95B266C095B36640
:10D44000C195B466A9B1B566C295B666C395B7660F
:10D45000C495B866C595B966DFE5BA66C695BB667C
:10D46000C795BC66C895BD66C995BE66D5EABF6658
:10D47000CA95C066CB95C166CC95C266CD95C3668C
:10D48000CE95C466CF95C566D095C666D195C7665C
:10D49000D295C866D395C966D495CA66D595CB662C
:10D4A000D695CC66D795CD66D895CE66D995CF66FC
:10D4B000DA95D066DB95D166DC95D266DD95D366CC
:10D4C000DE95D466DF95D566E095D666E195D7669C
:10D4D000E295D866E395D966EFCADA66E495DB662D
:10D4E000D6EADC66D7EADD66D8C6DE66E595DF6695
:10D4F000E695E066E795E166E895E266E995E3661C
:10D50000EA95E466EB95E566EC95E666D8EAE766AB
:10D51000ED95E866EE95E966D9EAEA66EF95EB6681
:10D52000F095EC66F195ED66F295EE66F395EF6693
:10D53000F495F066BBD4F166F595F266FAC7F3662A
:10D54000B7D2F466FCB8F566F695F666F795F76619
:10D55000C2EAF866F895F966DCB2FA66F995FB66F8
:10D56000FA95FC66FCC2FD66FB95FE66F8D4FF6684
:10D57000E6CC0067EED70167FC950267FD9503676F
:10D58000FE950467409605674196066742960767D1
:10D5900043960867C2D40967D0D30A67C3EB0B6709
:10D5A000F3C50C6744960D67FEB70E6745960F6787
:10D5B00046961067D4EB1167479612674896136733
:10D5C00049961467B7CB1567DEEB16674A9617675F
:10D5D000CAC018674B9619674C961A674D961B6719
:10D5E000FBCD1C674E961D67AFB31E674F961F6736
:10D5F000DAC62067509621675196226752962367B4
:10D60000539624675496256755962667FCEB276743
:10D6100056962867BEC4296757962A67B4CE2B67EB
:10D62000A9C42C67BEB12D67FDD42E6758962F670D
:10D63000F5CA306759963167ECD632675A96336728
:10D640005B963467D3C63567E4B636675C96376752
:10D650005D9638675E9639675F963A67FABB3B67B7
:10D6600060963C6761963D67E0D03E6762963F6793
:10D6700063964067B1C9416764964267D3D44367F4
:10D68000A8C844676596456766964667CBB84767FE
:10D6900067964867BEE84967BCC94A6768964B67A2
:10D6A00069964C67BBE84D676A964E67EEC04F6758
:10D6B000D3D05067C4B25167E5B452676B965367D5
:10D6C000BCE854676C9655676D965667C8D5576722
:10D6D0006E9658676F96596770965A6771965B6732
:10D6E00072965C67C5B65D6773965E67BDE85F67F7
:10D6F000F8CA6067DCB86167F5CC626774966367E7
:10D700007596646776966567B4C06667779667674F
:10D7100078966867EED16967BFE86A67C2E86B67A9
:10D7200079966C677A966D67BCBA6E677B966F6701
:10D73000ADB17067DCBD71677C967267BDEA7367D7
:10D74000C3E874677D967567C6E876677E967767E7
:10D75000CBE878678096796781967A6782967B674F
:10D7600083967C67CCE87D6784967E67C9CB7F67AC
:10D77000E5B0806785968167ABBC826786968367D4
:10D7800087968467B9B9856788968667899687671B
:10D79000C1E888678A968967F7CD8A678B968B6719
:10D7A000CAE88C678C968D678D968E678E968F678C
:10D7B0008F969067F6CE9167909692679196936751
:10D7C0009296946793969567EDD59667949697672A
:10D7D000D6C19867C4E8996795969A67B6C39B6760
:10D7E00096969C67FBB99D67A6D69E67C8E89F671B
:10D7F0009796A0679896A1679996A267E0CAA367D3
:10D80000E6D4A4679A96A567C0E8A6679B96A76723
:10D81000C5E8A867C7E8A9679C96AA67B9C7AB67B8
:10D82000E3B7AC679D96AD67C9E8AE679E96AF67F4
:10D83000DDBFB067D2E8B1679F96B267A096B367C5
:10D84000D7E8B467A196B567D5E8B667DCBCB7671B
:10D85000CFBCB867DBE8B967A296BA67A396BB6787
:10D86000A496BC67A596BD67A696BE67A796BF6738
:10D87000A896C067A996C167DEE8C267AA96C36783
:10D88000DAE8C467FAB1C567AB96C667AC96C767F6
:10D89000AD96C867AE96C967AF96CA67B096CB67B4
:10D8A000B196CC67B296CD67B396CE67B496CF6784
:10D8B000D8B0D067B3C4D167CCB8D267E2C6D3675B
:10D8C000BEC8D467E1C8D567B596D667B696D767A0
:10D8D000B796D867CFE8D967D4E8DA67D6E8DB67C8
:10D8E000B896DC67F1B9DD67D8E8DE67F5D7DF67A2
:10D8F000B996E067FBC4E167BA96E267DCE8E367E4
:10D90000BB96E467BC96E567E9B2E667BD96E76754
:10D91000BE96E867BF96E967D1E8EA67C096EB670D
:10D92000C196EC67EDBCED67C296EE67C396EF67F4
:10D93000C2BFF067CDE8F167F9D6F267C496F36726
:10D94000F8C1F467F1B2F567C596F667C696F76752
:10D95000C796F867C896F967C996FA67CA96FB67CB
:10D96000CB96FC67CC96FD67DFE8FE67CD96FF6738
:10D97000C1CA0068D9E80168CE960268CF960368EC
:10D98000D0960468D1960568A4D50668D296076833
:10D99000EAB10868BBD50968CEE80A68D0E80B6828
:10D9A000B0B60C68D3E80D68D3960E68DDE80F6852
:10D9B000B8C01068D4961168F7CA1268D596136873
:10D9C000A8CB1468D6961568D7961668DCC6176873
:10D9D000F5C01868D8961968D9961A68DA961B683F
:10D9E000DB961C68DC961D68E9E81E68DD961F68FA
:10D9F000DE962068DF962168A3D02268E09623682F
:10DA0000E1962468E2962568E3962668E4962768FE
:10DA1000E5962868E6962968F2E82A68EAD62B682F
:10DA2000E7962C68E8962D68E9962E68EA962F68A6
:10DA3000EB963068EC963168ED963268E0E8336832
:10DA4000E1E83468EE963568EF963668F096376808
:10DA5000F9D13868CBBA3968F9B83A68F1963B68B9
:10DA6000F2963C68F1B83D68D4D43E68EFE83F6870
:10DA7000F3964068EEE84168ECE84268F0B9436824
:10DA8000D2CC4468E6E84568A6CE4668F2BF47684F
:10DA9000F4964868B8B04968F1E84A68F0E84B681D
:10DAA000F5964C68C0D74D68F6964E68E4E84F6826
:10DAB000F7965068A9CD5168A3C95268F896536883
:10DAC000B8BB5468DBBD5568EAE85668F9965768F4
:10DAD000FA965868FB965968FC965A68FD965B68FA
:10DAE000FE965C6840975D6841975E6842975F6804
:10DAF00043976068E2E86168E3E86268E5E86368C4
:10DB0000B5B56468E7E86568C5C76668EBE8676847
:10DB1000EDE86868B0BD6968AED76A6844976B681D
:10DB2000F8E86C6845976D6846976E6847976F6828
:10DB300048977068499771684A9772684B977368FD
:10DB40004C977468F5E875684D977668B0CD77683E
:10DB5000F6E878684E9779684F977A6850977B68AF
:10DB600051977C6852977D6853977E6854977F6879
:10DB70005597806856978168BAC1826857978368BD
:10DB8000E8E8846858978568B7C38668F0B0876806
:10DB9000599788685A9789685B978A685C978B68F9
:10DBA0005D978C685E978D685F978E6860978F68C9
:10DBB000F4E89068619791686297926863979368B8
:10DBC000F7E894686497956865979668669797688C
:10DBD000A3B998686797996868979A6869979B68E6
:10DBE0006A979C686B979D686C979E686D979F6815
:10DBF0006E97A0686F97A1687097A268D2C9A36852
:10DC00007197A4687297A5687397A668CEC3A76832
:10DC1000E0CEA868E6C0A9687497AA687597AB6853
:10DC20007697AC687797AD68F3CBAE687897AF68B6
:10DC3000DDCCB068B5D0B1687997B2687A97B3682F
:10DC4000E1CAB4687B97B568F3E8B6687C97B768B3
:10DC50007D97B8687E97B9688097BA688197BB68E6
:10DC60008297BC688397BD688497BE688597BF68B4
:10DC70008697C068ECBCC1688797C268F9E8C3683A
:10DC80008897C4688997C5688A97C6688B97C7685C
:10DC90008C97C8688D97C968DEC3CA688E97CB68B1
:10DCA000E5C6CC688F97CD68F7B9CE689097CF68F6
:10DCB0009197D0689297D1689397D268F4B0D3685F
:10DCC0009497D4689597D568D8D7D6689697D7682B
:10DCD0009797D868ACBCD9689897DA68EFC5DB68C5
:10DCE0009997DC689A97DD689B97DE689C97DF6858
:10DCF0009D97E068C4CCE1689E97E2689F97E368CF
:10DD0000A6E9E468A097E568A197E668A297E768A6
:10DD1000A397E868A497E968A597EA68A697EB68CF
:10DD2000A797EC68A897ED68A997EE68ADC9EF686A
:10DD3000AA97F068A2E9F168E2C0F268AB97F368CD
:10DD4000AC97F468AD97F568C3BFF668AE97F7680F
:10DD5000AF97F868B097F968FEE8FA68D7B9FB683A
:10DD6000B197FC68FBE8FD68B297FE68B397FF685F
:10DD7000B4970069B5970169A4E90269B697036988
:10DD8000B7970469B8970569CED20669B99707694C
:10DD9000BA970869BB970969BC970A69BD970B696F
:10DDA000A3E90C69BE970D69B2D60E69B5D70F69A4
:10DDB000BF971069A7E91169C0971269B7BD1369C8
:10DDC000C1971469C2971569C3971669C4971769F3
:10DDD000C5971869C6971969C7971A69C8971B69C3
:10DDE000C9971C69CA971D69CB971E69CC971F6993
:10DDF000FCE82069FDE82169CD972269CE97236967
:10DE0000CF972469A1E92569D0972669D197276919
:10DE1000D2972869D3972969D4972A69D5972B690E
:10DE2000D6972C69D7972D69D6CD2E69D8972F69AB
:10DE3000D9973069ACD23169DA973269DB973369A7
:10DE4000DC973469B2E93569DD973669DE97376961
:10DE5000DF973869E0973969A9E93A69E1973B6941
:10DE6000E2973C69E3973D69AAB43E69E4973F694C
:10DE7000BBB44069E5974169E6974269ABE94369FC
:10DE8000E7974469E8974569E9974669EA974769DA
:10DE9000EB974869EC974969ED974A69EE974B69AA
:10DEA000EF974C69F0974D69F1974E69F2974F697A
:10DEB000F3975069F4975169F5975269F69753694A
:10DEC000F7975469A8D05569F8975669F997576933
:10DED000A5E95869FA975969FB975A69FEB35B69D6
:10DEE000FC975C69FD975D69ACE95E69E3C05F69B9
:10DEF000FE976069AAE9616940986269419863691F
:10DF0000B9E964694298656943986669B8E96769DF
:10DF1000449868694598696946986A6947986B6941
:10DF2000AEE96C6948986D6949986E69FAE86F695D
:10DF30004A9870694B987169A8E972694C9873693D
:10DF40004D9874694E9875694F98766950987769BD
:10DF5000ACBF7869B1E97969BAE97A6951987B69A6
:10DF600052987C69A5C27D6953987E6954987F69EF
:10DF700055988069AFE9816956988269C5B8836907
:10DF800057988469ADE9856958988669DCD38769B3
:10DF9000B4E98869B5E98969B7E98A6959988B69EB
:10DFA0005A988C695B988D69C7E98E695C988F690E
:10DFB0005D9890695E9891695F989269609893699D
:10DFC00061989469C6C09569C5E996696298976930
:10DFD00063989869B0E9996964989A6965989B69AA
:10DFE000BBE99C69F1B09D6966989E6967989F69D5
:10DFF0006898A0696998A1696A98A2696B98A369F1
:10E000006C98A4696D98A5696E98A6696F98A769C0
:10E01000BCE9A869A5D5A9697098AA697198AB6986
:10E02000BEE9AC697298AD69BFE9AE697398AF6932
:10E030007498B0697598B169C1E9B2697698B369A5
:10E040007798B469F1C1B5697898B6697998B76974
:10E05000B6C8B8697A98B9697B98BA697C98BB697F
:10E06000BDE9BC697D98BD697E98BE698098BF692D
:10E070008198C0698298C169C2E9C2698398C369FD
:10E080008498C4698598C5698698C6698798C76960
:10E090008898C8698998C9698A98CA69C3E9CB69A7
:10E0A0008B98CC69B3E9CD698C98CE69B6E9CF6914
:10E0B0008D98D069B1BBD1698E98D2698F98D36998
:10E0C0009098D469C0E9D5699198D6699298D76932
:10E0D0009398D8699498D9699598DA699698DB6984
:10E0E000F7BCDC699798DD699898DE699998DF69D3
:10E0F000C4E9E069C6E9E1699A98E2699B98E36935
:10E100009C98E4699D98E5699E98E6699F98E769FF
:10E11000A098E869A198E969A298EA69A398EB69CF
:10E12000A498EC69A598ED69CAE9EE69A698EF692B
:10E13000A798F069A898F169A998F269CEE9F369FE
:10E14000AA98F469AB98F569AC98F669AD98F76947
:10E15000AE98F869AF98F969B098FA69B198FB6917
:10E16000B298FC69B398FD69DBB2FE69B498FF69A7
:10E17000C8E9006AB598016AB698026AB798036A56
:10E18000B898046AB998056ABA98066ABB98076A8B
:10E19000BC98086ABD98096ABE980A6AAEB70B6A4D
:10E1A000BF980C6AC0980D6AC1980E6AC2980F6A2F
:10E1B000C398106AC498116AC598126AC698136AFF
:10E1C000C798146AC898156AC998166ACA98176ACF
:10E1D000CBE9186ACCE9196ACB981A6ACC981B6A01
:10E1E000CD981C6ACE981D6ACF981E6AD0981F6A77
:10E1F000C1D5206AD198216AA3C4226AD298236A21
:10E20000D398246AD498256AD598266AD698276A1E
:10E21000D798286AD8E9296AD8982A6AE1BA2B6A75
:10E22000D9982C6ADA982D6ADB982E6ADC982F6AC6
:10E23000C9E9306ADD98316AA3D3326ADE98336A5D
:10E24000DF98346AE098356AD4E9366AE198376A2B
:10E25000E298386AE398396AE4983A6AE5983B6A42
:10E26000E6983C6AE7983D6AD7E93E6AD0E93F6A9A
:10E27000E898406AE998416AEA98426AEB98436AEA
:10E28000EC98446ACFE9456AED98466AEE98476A89
:10E29000C1C7486AEF98496AF0984A6AF1984B6A90
:10E2A000F2984C6AF3984D6AF4984E6AF5984F6A62
:10E2B000F698506AD2E9516AF798526AF898536A08
:10E2C000F998546AFA98556AFB98566AFC98576A06
:10E2D000FD98586AD9E9596AC8B35A6AFE985B6AC8
:10E2E000D3E95C6A40995D6A41995E6A42995F6AC6
:10E2F0004399606A4499616AF0CF626A4599636A9A
:10E300004699646A4799656ACDE9666A4899676A79
:10E310004999686A4A99696A4B996A6A4C996B6A21
:10E320004D996C6A4E996D6A4F996E6A50996F6AF1
:10E330005199706A5299716AF7B3726A5399736A04
:10E340005499746A5599756A5699766A5799776A95
:10E350005899786A5999796AD6E97A6A5A997B6A9A
:10E360005B997C6ADAE97D6A5C997E6A5D997F6A6D
:10E370005E99806AB4CC816A5F99826A6099836A87
:10E380006199846AADCF856A6299866A6399876A62
:10E390006499886A6599896A66998A6A67998B6AB5
:10E3A00068998C6A69998D6A6A998E6AD5E98F6ACB
:10E3B0006B99906ADCE9916ADBE9926A6C99936ADD
:10E3C0006D99946A6E99956A6F99966A7099976A31
:10E3D000DEE9986A7199996A72999A6A73999B6A47
:10E3E00074999C6A75999D6A76999E6A77999F6AD5
:10E3F0007899A06AD1E9A16A7999A26A7A99A36AFF
:10E400007B99A46A7C99A56A7D99A66A7E99A76A78
:10E410008099A86A8199A96ADDE9AA6A8299AB6A9A
:10E42000DFE9AC6ACAC3AD6A8399AE6A8499AF6A00
:10E430008599B06A8699B16A8799B26A8899B36AF0
:10E440008999B46A8A99B56A8B99B66A8C99B76AC0
:10E450008D99B86A8E99B96A8F99BA6A9099BB6A90
:10E460009199BC6A9299BD6A9399BE6A9499BF6A60
:10E470009599C06A9699C16A9799C26A9899C36A30
:10E480009999C46A9A99C56A9B99C66A9C99C76A00
:10E490009D99C86A9E99C96A9F99CA6AA099CB6AD0
:10E4A000A199CC6AA299CD6AA399CE6AA499CF6AA0
:10E4B000A599D06AA699D16AA799D26AA899D36A70
:10E4C000A999D46AAA99D56AAB99D66AAC99D76A40
:10E4D000AD99D86AAE99D96AAF99DA6AB099DB6A10
:10E4E000B199DC6AB299DD6AB399DE6AB499DF6AE0
:10E4F000B599E06AB699E16AB799E26AB899E36AB0
:10E50000B999E46ABA99E56ABB99E66ABC99E76A7F
:10E51000BD99E86ABE99E96ABF99EA6AC099EB6A4F
:10E52000C199EC6AC299ED6AC399EE6AC499EF6A1F
:10E53000C599F06AC699F16AC799F26AC899F36AEF
:10E54000C999F46ACA99F56ACB99F66ACC99F76ABF
:10E55000CD99F86ACE99F96ACF99FA6AD099FB6A8F
:10E56000D199FC6AD299FD6AD399FE6AD499FF6A5F
:10E57000D599006BD699016BD799026BD899036B2B
:10E58000D999046BDA99056BDB99066BDC99076BFB
:10E59000DD99086BDE99096BDF990A6BE0990B6BCB
:10E5A000E1990C6BE2990D6BE3990E6BE4990F6B9B
:10E5B000E599106BE699116BE799126BE899136B6B
:10E5C000E999146BEA99156BEB99166BEC99176B3B
:10E5D000ED99186BEE99196BEF991A6BF0991B6B0B
:10E5E000F1991C6BF2991D6BF3991E6BF4991F6BDB
:10E5F000F599206BB7C7216BCEB4226BB6BB236BEA
:10E60000C0D0246BA3EC256BF699266BF799276B8A
:10E61000B7C5286BF899296BF9992A6BFA992B6B76
:10E62000FB992C6BFC992D6BFD992E6BFE992F6B32
:10E63000409A306B419A316B429A326BFBD3336B09
:10E64000439A346B449A356B459A366B469A376BCE
:10E65000A4EC386B479A396BA5EC3A6BDBC63B6B85
:10E66000489A3C6B499A3D6B4A9A3E6BEEBF3F6BB2
:10E670004B9A406B4C9A416B4D9A426B4E9A436B4E
:10E68000A6EC446B4F9A456B509A466BA7EC476BD0
:10E69000AAD0486B519A496BB8C74A6B529A4B6BD8
:10E6A000539A4C6BE8B84D6B549A4E6B559A4F6B1E
:10E6B000569A506B579A516B589A526B599A536BA2
:10E6C0005A9A546B5B9A556B5C9A566B5D9A576B72
:10E6D0005E9A586B5F9A596BA8EC5A6B609A5B6BA9
:10E6E000619A5C6B629A5D6B639A5E6B649A5F6B16
:10E6F000659A606B669A616B679A626BB9D6636B59
:10E70000FDD5646BCBB4656BBDB2666BE4CE676B55
:10E71000E7C6686B689A696B699A6A6BE1CD6B6B47
:10E720006A9A6C6B6B9A6D6B6C9A6E6B6D9A6F6B71
:10E730006E9A706B6F9A716B709A726B719A736B41
:10E74000729A746B739A756B749A766B759A776B11
:10E75000769A786B779A796BF5B47A6B789A7B6B4B
:10E76000C0CB7C6BDFBC7D6B799A7E6B7A9A7F6BBA
:10E770007B9A806B7C9A816BE2E9826BE3E9836B25
:10E78000EAD1846BE5E9856B7D9A866BF9B4876B7A
:10E79000E4E9886B7E9A896BB3D18A6BE2CA8B6B92
:10E7A000D0B28C6B809A8D6BE8E98E6B819A8F6BFF
:10E7B000829A906B839A916B849A926BE6E9936B41
:10E7C000E7E9946B859A956B869A966BB3D6976BAF
:10E7D000879A986B889A996B899A9A6BE9E99B6BEF
:10E7E000EAE99C6B8A9A9D6B8B9A9E6B8C9A9F6BC5
:10E7F0008D9AA06B8E9AA16BEBE9A26B8F9AA36B9B
:10E80000909AA46B919AA56B929AA66B939AA76B18
:10E81000949AA86B959AA96B969AAA6BECE9AB6B44
:10E82000979AAC6B989AAD6B999AAE6B9A9AAF6BBC
:10E830009B9AB06B9C9AB16B9D9AB26B9E9AB36B8C
:10E84000AFECB46BB9C5B56BCEB6B66B9F9AB76B70
:10E85000F3D2B86BA09AB96BA19ABA6BA29ABB6BB0
:10E86000A39ABC6BA49ABD6BA59ABE6BA69ABF6B0C
:10E87000EEB5C06BA79AC16BD9BBC26BB1ECC36BD1
:10E88000A89AC46BA99AC56BE3D2C66BAA9AC76B48
:10E89000AB9AC86BAC9AC96BAD9ACA6BAE9ACB6B8C
:10E8A000E3CECC6BAF9ACD6BB8C4CE6BB09ACF6BC6
:10E8B000BFC3D06BB19AD16BB29AD26BBEB6D36BD9
:10E8C000B9D8D46BC8B1D56BCFB1D66BD1B1D76B3A
:10E8D000FEC5D86BB39AD96BD0B1DA6BB49ADB6B47
:10E8E000ABC3DC6BB59ADD6BB69ADE6BB79ADF6BA8
:10E8F000B89AE06BB99AE16BB1D5E26BBA9AE36B67
:10E90000BB9AE46BBC9AE56BBD9AE66BBE9AE76B6B
:10E91000BF9AE86BC09AE96BC19AEA6BA4EBEB6B08
:10E92000C1BAEC6BC29AED6BC39AEE6BC49AEF6BF3
:10E93000BACCF06BC59AF16BC69AF26BC79AF36BBF
:10E94000A5EBF46BC89AF56BA7EBF66BC99AF76B5E
:10E95000CA9AF86BCB9AF96BA8EBFA6BCC9AFB6B63
:10E96000CD9AFC6BCE9AFD6BA6EBFE6BCF9AFF6B3C
:10E97000D09A006CD19A016CD29A026CD39A036C33
:10E98000D49A046CD59A056CA9EB066CABEB076CBA
:10E99000AAEB086CD69A096CD79A0A6CD89A0B6CB9
:10E9A000D99A0C6CDA9A0D6CACEB0E6CDB9A0F6C8E
:10E9B000CFCA106CB5D8116CF1C3126CDC9A136C11
:10E9C000A5C3146CF8C6156CADEB166CCAC4176CF5
:10E9D000DD9A186CAEEB196CAFEB1A6CB0EB1B6CDC
:10E9E000D5B71C6CDE9A1D6CDF9A1E6CE09A1F6C0A
:10E9F000FAB7206CE19A216CB1EB226CE2C7236C70
:10EA0000E29A246CB3EB256CE39A266CA4BA276CCB
:10EA1000F5D1286CB1B0296CB2EB2A6CB4EB2B6C3D
:10EA2000E49A2C6CE59A2D6CE69A2E6CAAB52F6CA4
:10EA3000C8C2306CE8C7316CE79A326CB5EB336C06
:10EA4000E89A346CAECB356CDFE3366CE99A376C00
:10EA5000EA9A386CC0D3396CEB9A3A6CEC9A3B6CFE
:10EA6000ED9A3C6CEE9A3D6CDBD93E6CEF9A3F6CB4
:10EA7000F09A406CA1CD416CADD6426CF3C7436CAB
:10EA8000F19A446CF29A456CF39A466CE0D9476C63
:10EA9000E3BB486CF49A496CBABA4A6CE2E34B6C3B
:10EAA000F59A4C6CF69A4D6CF79A4E6CF89A4F6C3E
:10EAB000F99A506CABCF516CFA9A526CFB9A536C2A
:10EAC000FC9A546CE0E3556CC7C9566CFD9A576CC0
:10EAD000B9BA586CFE9A596C409B5A6C419B5B6C5E
:10EAE000B4D15C6CE1E35D6CEAC85E6CAFB95F6C9D
:10EAF000ADBD606CD8B3616CDBCE626C429B636C65
:10EB0000439B646CC0CC656C449B666C459B676C96
:10EB1000469B686CE8E3696CE9E36A6CF4CD6B6C66
:10EB2000479B6C6C489B6D6C499B6E6C4A9B6F6CF1
:10EB30004B9B706CADCC716C4C9B726CB3BC736CAA
:10EB40004D9B746CEAE3756C4E9B766CEBE3776CD3
:10EB50004F9B786C509B796CDAD07A6C519B7B6CB4
:10EB6000529B7C6C539B7D6CFBC67E6CDAB77F6CD2
:10EB7000549B806C559B816CDFC7826CCAD2836CBE
:10EB8000D6CE846C569B856CE4E3866CECE3876C94
:10EB9000579B886CF2C9896CC1B38A6C589B8B6C8B
:10EBA000599B8C6CE7E38D6C5A9B8E6C5B9B8F6CD6
:10EBB000E3C6906CE5E3916C5C9B926C5D9B936CFF
:10EBC000B3ED946CE6E3956C5E9B966C5F9B976CE3
:10EBD000609B986C619B996CB3C99A6C629B9B6CAF
:10EBE000E6C59C6C639B9D6C649B9E6C659B9F6C57
:10EBF000B5B9A06C669BA16CBBC3A26C679BA36CF0
:10EC0000E3E3A46CBDC5A56CA4C1A66CD9C2A76C76
:10EC1000D7B2A86C689BA96CEDE3AA6CA6BBAB6CE1
:10EC2000ADC4AC6C699BAD6CF0E3AE6CDABEAF6C9E
:10EC30006A9BB06C6B9BB16CFBE3B26CF5E3B36C9D
:10EC4000D3BAB46C6C9BB56C6D9BB66C6E9BB76C99
:10EC50006F9BB86CD0B7B96CCDD3BA6C709BBB6CE2
:10EC6000CED6BC6CD3D5BD6CC1B9BE6CB4D5BF6CAF
:10EC7000D8D1C06C719BC16C729BC26C739BC36C0E
:10EC8000749BC46CB9D0C56CF6C7C66C759BC76C59
:10EC9000769BC86C779BC96CAAC8CA6CB4B2CB6CA3
:10ECA000789BCC6CDAC3CD6C799BCE6C7A9BCF6CA5
:10ECB0007B9BD06CEEE3D16C7C9BD26C7D9BD36C48
:10ECC000FCE3D46CEFE3D56CA8B7D66CF7E3D76C54
:10ECD000F4E3D86C7E9BD96C809BDA6C819BDB6CF7
:10ECE000BAB7DC6C829BDD6C839BDE6CA2C5DF6CEB
:10ECF000849BE06CF6E3E16CDDC5E26CA8B2E36CEA
:10ED0000FCC6E46C859BE56CE0C4E66C869BE76C16
:10ED1000879BE86CA2D7E96C889BEA6CE1C0EB6C3E
:10ED2000F9E3EC6C899BED6C8A9BEE6CFAE3EF6C7B
:10ED3000FDE3F06CA9CCF16CF3E3F26C8B9BF36C0C
:10ED4000BED3F46C8C9BF56CC3B1F66CB4EDF76C70
:10ED5000F1E3F86CF2E3F96C8D9BFA6CF8E3FB6C71
:10ED6000BAD0FC6CC3C6FD6CF3D4FE6CFEE3FF6C42
:10ED70008E9B006D8F9B016DE0BD026D909B036DBE
:10ED8000919B046DA7E4056D929B066D939B076DA7
:10ED9000A6E4086D949B096D959B0A6D969B0B6D7F
:10EDA000F3D10C6DA3E40D6D979B0E6DA9E40F6D6F
:10EDB000989B106D999B116D9A9B126DF7C8136DFE
:10EDC0009B9B146D9C9B156D9D9B166D9E9B176D5B
:10EDD000B4CF186D9F9B196DA8E41A6DAEE41B6D3E
:10EDE000E5C21C6DA09B1D6DA19B1E6DB4B61F6D71
:10EDF000A29B206DA39B216DA49B226DA59B236DDF
:10EE0000A69B246DA79B256DF2BD266DA89B276D43
:10EE1000A2E4286DA99B296DAA9B2A6DE9BA2B6DE6
:10EE2000AAE42C6DAB9B2D6DAC9B2E6DACE42F6DCD
:10EE3000AD9B306DAE9B316DFDB6326DDED6336D60
:10EE4000B2E4346DAF9B356DADE4366DB09B376D7C
:10EE5000B19B386DB29B396DA1E43A6DB39B3B6DAC
:10EE6000EEBB3C6DDDCD3D6DA2C73E6DC9C53F6DAE
:10EE7000B49B406DB59B416DF7C1426DB69B436D30
:10EE8000A4E4446DB79B456DB3C7466DACBD476DFB
:10EE9000BDBD486DA5E4496DB89B4A6DC7D74B6DA4
:10EEA000E2B24C6DB99B4D6DABE44E6DC3BC4F6D82
:10EEB000AFE4506DBA9B516DEBBB526DB0E4536D36
:10EEC000A8C5546DB1E4556DBB9B566DBC9B576D89
:10EED000BD9B586DBE9B596DE3D55A6DA3BF5B6D4D
:10EEE000BF9B5C6DBAE45D6DC09B5E6DB7E45F6D0A
:10EEF000C19B606DBBE4616DC29B626DC39B636D22
:10EF0000BDE4646DC49B656DC59B666DD6C6676DBB
:10EF1000C69B686DC79B696DC6BA6A6DCBC06B6DC9
:10EF2000C89B6C6DC99B6D6DCA9B6E6DA1B86F6DF2
:10EF3000B4E4706DCB9B716DCC9B726DCD9B736D8A
:10EF4000CE9B746DA1D4756DCF9B766DD09B776D84
:10EF5000A3BA786DFEBD796DD19B7A6DD29B7B6D26
:10EF6000D39B7C6DBCE47D6DD49B7E6DD59B7F6D0A
:10EF7000D69B806DD79B816DD89B826DBFCD836DF5
:10EF8000D99B846DDA9B856DF9C4866DDB9B876D9B
:10EF9000DC9B886DFBCF896DE6C98A6DDD9B8B6D2F
:10EFA000DE9B8C6DBFD38D6DDF9B8E6DD1CF8F6D52
:10EFB000E09B906DE19B916DB3E4926DE29B936D4C
:10EFC000B8E4946DB9E4956DE9CC966DE39B976DCB
:10EFD000E49B986DE59B996DE69B9A6DE79B9B6D15
:10EFE000CECC9C6DE89B9D6DD4C09E6DB5E49F6DAD
:10EFF000B0C1A06DB6E4A16DD0CEA26DE99BA36DAA
:10F00000C1BBA46DD3B5A56DEA9BA66DF3C8A76D72
:10F01000A7BDA86DC7D5A96DACC9AA6DA2B8AB6DC7
:10F02000CAE4AC6DEB9BAD6DEC9BAE6DCCE4AF6D0B
:10F03000C4D1B06DED9BB16DEE9BB26DBAD2B36D24
:10F04000EF9BB46DF09BB56DADBAB66DF19BB76D2E
:10F05000F29BB86DD4BAB96DF39BBA6DF49BBB6DDE
:10F06000F59BBC6DF69BBD6DF79BBE6DF89BBF6DB0
:10F07000C3E4C06DEDB5C16DF99BC26DFA9BC36D64
:10F08000FB9BC46DCDD7C56DC0E4C66DFDCFC76D0C
:10F09000BFE4C86DFC9BC96DFD9BCA6DFE9BCB6D2B
:10F0A000DCC1CC6DCACCCD6D409CCE6D419CCF6D8A
:10F0B000429CD06D439CD16DE7CAD26D449CD36D08
:10F0C000459CD46D469CD56D479CD66DD7C4D76DF5
:10F0D000489CD86DD4CCD96DC8E4DA6D499CDB6D01
:10F0E0004A9CDC6D4B9CDD6DC7E4DE6DC1E4DF6DD9
:10F0F0004C9CE06DC4E4E16DADB5E26D4D9CE36DFB
:10F100004E9CE46DD9D3E56D4F9CE66DC6E4E76D8A
:10F11000509CE86D519CE96D529CEA6D539CEB6DDF
:10F12000F9D2EC6DE3B4ED6D549CEE6DB4BBEF6DB4
:10F13000559CF06D569CF16DEEC9F26D579CF36DC8
:10F14000BEB4F46D589CF56D599CF66D5A9CF76DE4
:10F15000ECBBF86D5B9CF96DCDD1FA6D5C9CFB6DE1
:10F16000EDCCFC6DB5EDFD6D5D9CFE6D5E9CFF6DA7
:10F170005F9C006E609C016E619C026E629C036EDF
:10F18000639C046E649C056EE5C7066E659C076E05
:10F19000669C086E679C096E689C0A6EA8D40B6E0C
:10F1A000699C0C6ECBE40D6ED5D70E6EC2E40F6E6B
:10F1B0006A9C106EA5BD116EC5E4126E6B9C136E39
:10F1C0006C9C146EE6D3156E6D9C166EC9E4176EBA
:10F1D000F8C9186E6E9C196E6F9C1A6EBEE41B6E99
:10F1E000709C1C6E719C1D6EE5D31E6E729C1F6E12
:10F1F000739C206EFEC7216EC9B6226E749C236E6E
:10F20000FCD4246EB3B2256ED7E4266E759C276EAF
:10F21000769C286E779C296EC2CE2A6E789C2B6EC7
:10F22000CDE42C6E799C2D6EBCCE2E6E7A9C2F6E0A
:10F23000DBB8306E7B9C316E7C9C326ED6E4336ED4
:10F240007D9C346ECABF356E7E9C366E809C376E58
:10F25000819C386ECED3396E829C3A6EECC33B6E85
:10F26000839C3C6E849C3D6E859C3E6E869C3F6E6E
:10F27000879C406E889C416E899C426E8A9C436E3E
:10F28000C8C5446ED8E4456E8B9C466E8C9C476E18
:10F290008D9C486E8E9C496E8F9C4A6E909C4B6EE6
:10F2A000919C4C6E929C4D6EC4CD4E6ECFE44F6ED1
:10F2B000939C506E949C516E959C526E969C536E8E
:10F2C000D4E4546ED5E4556E979C566EFEBA576ED4
:10F2D000989C586EE6CF596E999C5A6E9A9C5B6EBC
:10F2E000BFD55C6E9B9C5D6E9C9C5E6E9D9C5F6EB4
:10F2F000D2E4606E9E9C616E9F9C626EA09C636E69
:10F30000A19C646EA29C656EA39C666EA49C676EB5
:10F31000A59C686EA69C696EA79C6A6EA89C6B6E85
:10F32000D0E46C6EA99C6D6EAA9C6E6ECEE46F6E7E
:10F33000AB9C706EAC9C716EAD9C726EAE9C736E2D
:10F34000AF9C746EB09C756EB19C766EB29C776EFD
:10F35000B39C786EB49C796EB59C7A6EB69C7B6ECD
:10F36000B79C7C6EB89C7D6EB99C7E6EE5CD7F6E41
:10F37000AACA806EBA9C816EBB9C826EBC9C836E56
:10F38000A3C0846EBD9C856EA6BD866ED3E4876ED9
:10F39000BE9C886EBF9C896EC8B88A6EC09C8B6EFE
:10F3A000C19C8C6EC29C8D6EC39C8E6EC49C8F6EF5
:10F3B000E7E4906EB4D4916EC59C926EC69C936E39
:10F3C000C79C946EC89C956EC99C966ECA9C976E9D
:10F3D000CB9C986EDBE4996ECC9C9A6ECD9C9B6E18
:10F3E000CE9C9C6EEFC19D6ECF9C9E6ED09C9F6EFE
:10F3F000E9E4A06ED19CA16ED29CA26EE7D2A36E6E
:10F40000D39CA46ED49CA56EDFE4A66ED59CA76E9B
:10F41000E0E4A86ED69CA96ED79CAA6EAACFAB6E6C
:10F42000D89CAC6ED99CAD6EDA9CAE6EDB9CAF6E98
:10F43000DDCBB06EDC9CB16EDAE4B26ED1E4B36EBB
:10F44000DD9CB46EE5E4B56EDE9CB66EDCC8B76ECE
:10F45000E3E4B86EDF9CB96EE09CBA6EE7C4BB6EA5
:10F46000E2E4BC6EE19CBD6EE1E4BE6EE29CBF6E68
:10F47000E39CC06EE49CC16EFCB3C26EE8E4C36E54
:10F48000E59CC46EE69CC56EE79CC66EE89CC76EA4
:10F49000E1B5C86EE99CC96EEA9CCA6EEB9CCB6E66
:10F4A000CCD7CC6EEC9CCD6EED9CCE6EEE9CCF6E30
:10F4B000E6E4D06EEF9CD16EACBBD26EF09CD36E06
:10F4C000D2D7D46ECFCCD56EF8EBD66EF19CD76E7A
:10F4D000E4E4D86EF29CD96EF39CDA6EF6B9DB6E7A
:10F4E000F49CDC6EF59CDD6EF69CDE6ECDD6DF6E98
:10F4F000D9E4E06EDCE4E16EFAC2E26EDEE4E36ED3
:10F50000F79CE46ECBC2E56EC4C0E66ED0C2E76E77
:10F51000F89CE86EF5B1E96EB2CCEA6EF99CEB6E40
:10F52000FA9CEC6EFB9CED6EFC9CEE6EFD9CEF6E0F
:10F53000FE9CF06E409DF16E419DF26E429DF36E19
:10F54000439DF46ECEB5F56E449DF66E459DF76E07
:10F55000469DF86E479DF96EEFE4FA6E489DFB6E8E
:10F56000499DFC6E4A9DFD6E4B9DFE6E4C9DFF6E4F
:10F570004D9D006F4E9D016F4F9D026FAFC6036F93
:10F58000509D046F519D056F529D066FE1C6076F38
:10F59000539D086F549D096FF5E40A6F559D0B6FDD
:10F5A000569D0C6F579D0D6F589D0E6F599D0F6F97
:10F5B000A9C2106F5A9D116F5B9D126F5C9D136FF6
:10F5C000ECC0146FDDD1156FEEE4166F5D9D176F03
:10F5D0005E9D186F5F9D196F609D1A6F619D1B6F17
:10F5E000629D1C6F639D1D6F649D1E6F659D1F6FE7
:10F5F000669D206FAEC4216F679D226F689D236F4B
:10F60000699D246FEDE4256F6A9D266F6B9D276FC2
:10F610006C9D286F6D9D296FF6E42A6FF4E42B6FC3
:10F62000FEC22C6F6E9D2D6FDDE42E6F6F9D2F6FD0
:10F63000F0E4306F709D316FFECA326F719D336F91
:10F64000C4D5346F729D356F739D366FF1E4376F9B
:10F65000749D386F759D396F769D3A6F779D3B6FBE
:10F66000789D3C6F799D3D6F7A9D3E6FFAD13F6FDB
:10F670007B9D406F7C9D416F7D9D426F7E9D436F62
:10F68000809D446F819D456F829D466FEBE4476F7F
:10F69000ECE4486F839D496F849D4A6F859D4B6F55
:10F6A000F2E44C6F869D4D6FABCE4E6F879D4F6FD2
:10F6B000889D506F899D516F8A9D526F8B9D536FAE
:10F6C0008C9D546F8D9D556F8E9D566F8F9D576F7E
:10F6D000909D586FCBC5596F919D5A6F929D5B6FEE
:10F6E000939D5C6FB1C75D6F949D5E6FBAC25F6F93
:10F6F000959D606F969D616F979D626FEAE4636F61
:10F70000989D646F999D656F9A9D666FCAC1676F7A
:10F710009B9D686F9C9D696F9D9D6A6F9E9D6B6FA1
:10F720009F9D6C6FA09D6D6FB6CC6E6FB1B36F6F08
:10F73000A19D706FA29D716FA39D726FFBE4736FAB
:10F74000A49D746FF3E4756FA59D766FA69D776F8A
:10F75000A79D786FFAE4796FA89D7A6FFDE47B6FBF
:10F76000A99D7C6FFCE47D6FAA9D7E6FAB9D7F6F32
:10F77000AC9D806FAD9D816FAE9D826FAF9D836F9D
:10F78000B09D846FCEB3856FB19D866FB29D876F3C
:10F79000B39D886FBAB3896FF7E48A6FB49D8B6F9E
:10F7A000B59D8C6FF9E48D6FF8E48E6FECC58F6FAB
:10F7B000B69D906FB79D916FB89D926FB99D936FF5
:10F7C000BA9D946FBB9D956FBC9D966FBD9D976FC5
:10F7D000BE9D986FBF9D996FC09D9A6FC19D9B6F95
:10F7E000C29D9C6FBDC09D6FC39D9E6FC49D9F6F4A
:10F7F000C59DA06FC69DA16FE8D4A26FC79DA36FE2
:10F80000C89DA46FC99DA56FCA9DA66FCB9DA76F0C
:10F81000A2E5A86FCC9DA96FCD9DAA6FCE9DAB6FC1
:10F82000CF9DAC6FD09DAD6FD19DAE6FD29DAF6FB0
:10F83000D39DB06FD49DB16FD59DB26FD69DB36F80
:10F84000C4B0B46FD79DB56FD89DB66FA4E5B76F40
:10F85000D99DB86FDA9DB96FA3E5BA6FDB9DBB6F19
:10F86000DC9DBC6FDD9DBD6FDE9DBE6FDF9DBF6FFC
:10F87000E09DC06FA4BCC16FE19DC26FA5E5C36FE1
:10F88000E29DC46FE39DC56FE49DC66FE59DC76FA4
:10F89000E69DC86FE79DC96FA1E5CA6FE89DCB6F74
:10F8A000E99DCC6FEA9DCD6FEB9DCE6FEC9DCF6F48
:10F8B000ED9DD06FEE9DD16FFEE4D26FF4B1D36FAA
:10F8C000EF9DD46FF09DD56FF19DD66FF29DD76FF0
:10F8D000F39DD86FF49DD96FF59DDA6FF69DDB6FC0
:10F8E000F79DDC6FF89DDD6FF99DDE6FA8E5DF6F9A
:10F8F000FA9DE06FA9E5E16FA6E5E26FFB9DE36F7E
:10F90000FC9DE46FFD9DE56FFE9DE66F409EE76FF9
:10F91000419EE86F429EE96F439EEA6F449EEB6F03
:10F92000459EEC6F469EED6F479EEE6FA7E5EF6F2D
:10F93000AAE5F06F489EF16F499EF26F4A9EF36F01
:10F940004B9EF46F4C9EF56F4D9EF66F4E9EF76F7B
:10F950004F9EF86F509EF96F519EFA6F529EFB6F4B
:10F96000539EFC6F549EFD6F559EFE6F569EFF6F1B
:10F97000579E0070589E0170599E02705A9E0370E7
:10F980005B9E04705C9E05705D9E06705E9E0770B7
:10F990005F9E0870609E0970619E0A70629E0B7087
:10F9A000639E0C70649E0D70659E0E70669E0F7057
:10F9B000679E1070689E1170D9C61270699E137090
:10F9C0006A9E14706B9E15706C9E16706D9E1770FB
:10F9D0006E9E18706F9E1970709E1A70ABE51B704A
:10F9E000ADE51C70719E1D70729E1E70739E1F701F
:10F9F000749E2070759E2170769E2270779E237073
:10FA0000ACE52470789E2570799E26707A9E2770CA
:10FA10007B9E28707C9E29707D9E2A707E9E2B7016
:10FA2000809E2C70819E2D70829E2E70839E2F70E2
:10FA3000849E3070859E3170869E3270879E3370B2
:10FA4000889E3470899E3570AFE536708A9E377017
:10FA50008B9E38708C9E3970AEE53A708D9E3B70EF
:10FA60008E9E3C708F9E3D70909E3E70919E3F702A
:10FA7000929E4070939E4170949E4270959E4370FA
:10FA8000969E4470979E4570989E4670999E4770CA
:10FA90009A9E48709B9E49709C9E4A709D9E4B709A
:10FAA0009E9E4C70E0B94D709F9E4E70A09E4F7010
:10FAB000B0E55070A19E5170A29E5270A39E5370EB
:10FAC000A49E5470A59E5570A69E5670A79E577012
:10FAD000A89E5870A99E5970AA9E5A70AB9E5B70E2
:10FAE000AC9E5C70AD9E5D70AE9E5E70B1E55F7069
:10FAF000AF9E6070B09E6170B19E6270B29E637086
:10FB0000B39E6470B49E6570B59E6670B69E677055
:10FB1000B79E6870B89E6970B99E6A70BA9E6B7025
:10FB2000F0BB6C70E1EC6D70F0C36E70BB9E6F70DB
:10FB3000C6B57070D2BB7170BC9E7270BD9E737082
:10FB4000BE9E7470BF9E7570E9C17670EED47770FA
:10FB5000C09E7870C4BE7970C19E7A70C29E7B7060
:10FB6000C39E7C70C6D77D70C49E7E70D6D47F70D5
:10FB7000D3B28070BEEC8170C59E8270C69E8370C9
:10FB8000C79E8470C89E8570C1EA8670C99E8770C2
:10FB9000CA9E8870CB9E8970AFC28A70B6B48B70D3
:10FBA000CC9E8C70CD9E8D70CE9E8E70D7D18F7076
:10FBB000CF9E9070D09E9170D19E9270B4B393708E
:10FBC000D29E9470B2C89570BBBF9670C0EC97700F
:10FBD000D39E9870D49E9970CBD69A70D59E9B7008
:10FBE000D69E9C70BFEC9D70C1EC9E70D79E9F709E
:10FBF000D89EA070D99EA170DA9EA270DB9EA370E1
:10FC0000DC9EA470DD9EA570DE9EA670DF9EA770B0
:10FC1000E09EA870E19EA970E29EAA70E39EAB7080
:10FC2000C5ECAC70E6BEAD70BFCCAE70DAC5AF70DF
:10FC3000BCBEB070E49EB170C6ECB270E59EB3700D
:10FC4000FEB1B470E69EB570E79EB670E89EB770E0
:10FC5000C4ECB870A8D5B970E3B5BA70E99EBB70B2
:10FC6000C2ECBC70B6C1BD70E3B3BE70EA9EBF709B
:10FC7000EB9EC070C3ECC170B8CBC270C3C0C37080
:10FC8000FECCC470EC9EC570ED9EC670EE9EC77033
:10FC9000EF9EC870D2C1C970F09ECA70C8ECCB701C
:10FCA000F19ECC70F29ECD70F39ECE70F49ECF701C
:10FCB000F59ED070F69ED170F79ED270F89ED370EC
:10FCC000F99ED470FA9ED570FB9ED670FC9ED770BC
:10FCD000FD9ED870E6BAD970D3C0DA70FE9EDB7094
:10FCE000F2D6DC70409FDD70419FDE70429FDF7076
:10FCF000CCD1E070439FE170449FE270459FE37078
:10FD0000469FE470BEBFE570479FE670B3B7E770EB
:10FD1000D5C9E870C7ECE970E2BBEA70489FEB70A8
:10FD2000CCCCEC70FDBDED70C8C8EE70499FEF7093
:10FD3000A9CFF0704A9FF1704B9FF2704C9FF37007
:10FD40004D9FF4704E9FF5704F9FF670509FF77067
:10FD5000E9CDF870519FF970EBC5FA70529FFB70B6
:10FD6000539FFC70549FFD70E9B7FE70559FFF7064
:10FD7000569F0071579F0171589F0271599F0371DF
:10FD80005A9F04715B9F05715C9F06715D9F0771AF
:10FD90005E9F08715F9F0971C9D10A71B8BA0B7172
:10FDA000609F0C71619F0D71629F0E71639F0F7157
:10FDB000649F1071C9EC1171659F1271669F137178
:10FDC000CAEC1471679F1571C0BB1671CBEC17712B
:10FDD000689F1871E2EC1971BAB11A71D9B71B7129
:10FDE000699F1C716A9F1D716B9F1E716C9F1F71B3
:10FDF0006D9F20716E9F21716F9F2271709F237183
:10FE0000719F2471729F2571739F2671B9BD2771EF
:10FE1000749F2871759F2971769F2A71779F2B7126
:10FE2000789F2C71799F2D717A9F2E717B9F2F71F6
:10FE3000CCEC3071E6D13171CDEC32717C9F3371F5
:10FE40007D9F34717E9F3571809F3671BBC837713D
:10FE5000819F3871829F3971839F3A71849F3B7172
:10FE6000859F3C71869F3D71879F3E71889F3F7142
:10FE7000899F40718A9F41718B9F42718C9F437112
:10FE80008D9F44718E9F4571D1EC46718F9F477154
:10FE9000909F4871919F4971929F4A71D3EC4B7129
:10FEA000939F4C71CDBB4D71949F4E71E5BC4F71CA
:10FEB000959F5071969F5171979F5271989F537162
:10FEC000999F54719A9F55719B9F56719C9F577132
:10FED0009D9F58719E9F59719F9F5A71A09F5B7102
:10FEE000A19F5C71CFEC5D71A29F5E71B7C95F711C
:10FEF000A39F6071A49F6171A59F6271A69F6371AA
:10FF0000A79F6471BAC36571A89F6671E3EC6771BE
:10FF1000D5D56871D0EC6971A99F6A71AA9F6B7180
:10FF2000AB9F6C71AC9F6D71AD9F6E71F3D66F71AD
:10FF3000AE9F7071AF9F7171B09F7271D2EC73718F
:10FF4000CEEC7471B19F7571B29F7671B39F77716A
:10FF5000B49F7871D4EC7971B59F7A71D5EC7B71CF
:10FF6000B69F7C71B79F7D71BFC97E71B89F7F714D
:10FF7000B99F8071BA9F8171BB9F8271BC9F837151
:10FF8000BD9F8471A8CF8571BE9F8671BF9F877109
:10FF9000C09F8871C19F8971C29F8A71DCD08B71AB
:10FFA000C39F8C71C49F8D71C59F8E71C69F8F71C9
:10FFB000ACD19071C79F9171C89F9271C99F937185
:10FFC000CA9F9471DBC89571CB9F9671CC9F977136
:10FFD000CD9F9871D6EC9971F5CE9A71CE9F9B7199
:10FFE000CF9F9C71D09F9D71D19F9E71D29F9F7119
:10FFF000ECCAA071DAECA171D39FA271D49FA37156
:020000040801F1
:10000000D59FA471D69FA571D79FA671D89FA771C0
:10001000D99FA871D9ECA971DA9FAA71DB9FAB7146
:10002000DC9FAC71BEB0AD71DD9FAE71DE9FAF7174
:10003000DF9FB071E09FB171E19FB271E29FB37138
:10004000D7ECB471E39FB571D8ECB671E49FB7718A
:10005000E59FB871E69FB971E4ECBA71E79FBB7197
:10006000E89FBC71E99FBD71EA9FBE71EB9FBF71B4
:10007000EC9FC071ED9FC171EE9FC271EF9FC37184
:10008000BCC8C471F09FC571F19FC671F29FC77162
:10009000F39FC871F49FC971F59FCA71F69FCB7128
:1000A000F79FCC71F89FCD71F99FCE71C7C1CF7109
:1000B000FA9FD071FB9FD171FC9FD271FD9FD371CC
:1000C000FE9FD471DCECD571E0D1D67140A0D77120
:1000D00041A0D87142A0D97143A0DA7144A0DB716C
:1000E00045A0DC7146A0DD7147A0DE7148A0DF713C
:1000F00049A0E071DBECE1714AA0E2714BA0E37131
:100100004CA0E4714DA0E571EFD4E6714EA0E7710B
:10011000DDECE8714FA0E97150A0EA7151A0EB71DC
:1001200052A0EC7153A0ED7154A0EE71C6DBEF71DB
:1001300055A0F07156A0F17157A0F27158A0F3715B
:1001400059A0F4715AA0F5715BA0F6715CA0F7712B
:100150005DA0F8715EA0F971DEECFA715FA0FB7131
:1001600060A0FC7161A0FD7162A0FE7163A0FF71CF
:1001700064A0007265A0017266A0027267A003729B
:1001800068A0047269A005726AA00672ACB1077219
:100190006BA008726CA009726DA00A726EA00B723F
:1001A0006FA00C7270A00D7271A00E7272A00F720F
:1001B00073A0107274A0117275A0127276A01372DF
:1001C00077A0147278A0157279A016727AA01772AF
:1001D0007BA018727CA019727DA01A727EA01B727F
:1001E00080A01C7281A01D72DFEC1E7282A01F72A3
:1001F00083A0207284A0217285A0227286A023721F
:1002000087A0247288A0257289A026728AA02772EE
:100210008BA02872E0EC29728CA02A72A6D72B72D0
:100220008DA02C72C0C52D728EA02E728FA02F7241
:1002300090A03072BCEB3172AEB0327291A03372CA
:1002400092A0347293A03572F4BE3672B8B8377289
:10025000AFD23872D6B03972F9B53A7294A03B7207
:10026000B3D83C7295A03D72ACCB3E7296A03F7263
:10027000DDE3407297A0417298A0427299A0437248
:100280009AA044729BA045729CA046729DA04772A2
:10029000ACC64872E6B049729EA04A729FA04B72EB
:1002A000A0A04C72C6C54D72B9EB4E72A1A04F72A0
:1002B000A2A05072A3A05172A4A05272BAEB5372C2
:1002C000A5A05472A6A05572A7A05672BBEB577298
:1002D000A8A05872A9A05972C0D15A72AAA05B7284
:1002E000A3C55C72ABA05D72F2EA5E72ACA05F72F5
:1002F000B2C46072ADA06172B5C46272CEC06372E6
:10030000AEA06472AFA06572B0A06672F3EA6772C5
:10031000C1C46872B1A06972EFCE6A72B2A06B728A
:10032000B3A06C72B4A06D72B5A06E72F0EA6F7279
:10033000F4EA7072B6A07172B7A07272FCC97372DF
:10034000B8A07472B9A07572A3C77672BAA077729A
:10035000BBA07872BCA07972D8CC7A72FECE7B72C8
:10036000BDA07C72BEA07D72BFA07E72F5EA7F72D6
:10037000F6EA8072ACCF8172E7C08272C0A083724D
:10038000C1A08472F7EA8572C2A08672C3A0877288
:10039000C4A08872C5A08972C6A08A72BFB68B72CB
:1003A000F8EA8C72C7A08D72F9EA8E72C8A08F72BB
:1003B000FAEA9072C9A09172CAA09272FBEA937293
:1003C000CBA09472CCA09572CDA09672CEA097725D
:1003D000CFA09872D0A09972D1A09A72D2A09B722D
:1003E000D3A09C72D4A09D72D5A09E72D6A09F72FD
:1003F000F1EAA072D7A0A172D8A0A272D9A0A3726C
:10040000DAA0A472DBA0A572DCA0A672DDA0A772A0
:10041000DEA0A872DFA0A972E0A0AA72E1A0AB7270
:10042000E2A0AC72AEC8AD72EBE1AE72E3A0AF7207
:10043000B8B7B072ECE1B172E4A0B272E5A0B372E9
:10044000E6A0B472EDE1B572E7A0B672B4D7B772A8
:10045000EEE1B872EFE1B972CCD3BA72E8A0BB7228
:10046000E9A0BC72EAA0BD72EBA0BE72ECA0BF72A4
:10047000EDA0C072EEA0C172F1E1C272F1BFC37211
:10048000F0E1C472D2B5C572EFA0C672F0A0C77217
:10049000F1A0C872B7B1C972F2A0CA72F3A0CB7250
:1004A000F4A0CC72F5A0CD72F3E1CE72F2E1CF727E
:1004B000F6A0D072FCBAD172F7A0D272F4E1D37276
:1004C000F8A0D472F9A0D572FAA0D672FBA0D772A8
:1004D000B7B9D872FCA0D972D1BEDA72FDA0DB72B6
:1004E000FEA0DC7240AADD7241AADE72FCC4DF729B
:1004F00042AAE072DDBAE172C6BDE27243AAE372BB
:1005000044AAE47245AAE57246AAE67247AAE772CF
:1005100048AAE872F5E1E972F7E1EA7249AAEB72DA
:100520004AAAEC72C0B6ED72C1CFEE72A8CAEF72E1
:10053000F6E1F072F8D5F172FCD3F272F8E1F372E1
:10054000FCE1F472F9E1F5724BAAF6724CAAF7726B
:10055000FAE1F872EAC0F9724DAAFA72FEE1FB7292
:10056000A1E2FC72C7C0FD724EAAFE724FAAFF72D2
:1005700050AA007351AA0173FBE1027352AA0373DC
:10058000FDE1047353AA057354AA067355AA0773B1
:1005900056AA087357AA097358AA0A73A5E20B73DF
:1005A00059AA0C735AAA0D735BAA0E73D4C10F73A8
:1005B0005CAA10735DAA11735EAA12735FAA13730B
:1005C000A3E2147360AA1573A8E21673FEB2177340
:1005D000A2E2187361AA197362AA1A7363AA1B7341
:1005E000CDC31C73C2B21D73A7E21E73A6E21F73B4
:1005F00064AA207365AA2173A4E22273A9E223737B
:1006000066AA247367AA2573ABE2267368AA2773C8
:1006100069AA28736AAA2973C9D02A73EDD62B73E5
:10062000A8C32C73ACE22D736BAA2E73D7CF2F7394
:100630006CAA30736DAA3173AEE232736EAA337353
:100640006FAA3473EFBA357370AA367371AA377311
:10065000E0E93873ADE23973AAE23A7372AA3B73E8
:1006600073AA3C7374AA3D7375AA3E73ABBB3F7308
:10067000B3D4407376AA417377AA427378AA4373BE
:1006800079AA44737AAA45737BAA46737CAA4773F6
:100690007DAA48737EAA497380AA4A7381AA4B73C4
:1006A00082AA4C7383AA4D73B0E24E7384AA4F732F
:1006B00085AA5073AFE2517386AA5273E1E953736E
:1006C00087AA547388AA557389AA56738AAA57733E
:1006D000B1E258738BAA59738CAA5A738DAA5B73B3
:1006E0008EAA5C738FAA5D7390AA5E7391AA5F73E2
:1006F00092AA6073B2E2617393AA627394AA63735D
:1007000095AA647396AA657397AA667398AA677385
:1007100099AA68739AAA69739BAA6A739CAA6B7355
:100720009DAA6C73B3E26D73A1CC6E739EAA6F73B6
:10073000B4E270739FAA7173A0AA727340AB737313
:1007400041AB747342AB757343AB767344AB777351
:1007500045AB787346AB797347AB7A7348AB7B7321
:1007600049AB7C734AAB7D734BAB7E73B5E27F7351
:100770004CAB80734DAB81734EAB82734FAB8373C5
:1007800050AB8473FED0857351AB867352AB8773C5
:10079000CAC2887353AB8973F1D38A7354AB8B731A
:1007A000F5CD8C7355AB8D7356AB8E73E0E78F73BD
:1007B00057AB907358AB9173E1E7927359AB937356
:1007C0005AAB94735BAB95735CAB9673C1BE977376
:1007D0005DAB98735EAB99735FAB9A7360AB9B73C1
:1007E000EAC29C7361AB9D7362AB9E7363AB9F73F4
:1007F000E4E7A07364ABA17365ABA273E3E7A373F3
:1008000066ABA47367ABA57368ABA67369ABA7733C
:100810006AABA8736BABA973E6CDAA736CABAB7371
:10082000B5C3AC736DABAD736EABAE73E2E7AF73D4
:10083000B7BBB073D6CFB1736FABB273E1C1B37353
:10084000E9E7B47370ABB57371ABB67372ABB773E2
:10085000E8E7B87373ABB97374ABBA73F4E7BB73FF
:10086000A3B2BC7375ABBD7376ABBE7377ABBF730E
:1008700078ABC073EAE7C17379ABC273E6E7C373C1
:100880007AABC4737BABC5737CABC6737DABC773EC
:100890007EABC873ECE7C973EBE7CA73BAC9CB7315
:1008A00080ABCC7381ABCD73E4D5CE7382ABCF7309
:1008B000E5E7D073A9B7D173E7E7D27383ABD373FE
:1008C00084ABD47385ABD57386ABD67387ABD77344
:1008D00088ABD87389ABD973EEE7DA738AABDB7375
:1008E0008BABDC738CABDD738DABDE73F3E7DF7347
:1008F0008EABE073E9D6E1738FABE27390ABE37339
:1009000091ABE47392ABE573EDE7E67393ABE773FA
:10091000F2E7E87394ABE973F1E7EA7395ABEB7335
:1009200096ABEC7397ABED73E0B0EE7398ABEF73EF
:1009300099ABF0739AABF1739BABF273F5E7F3737A
:100940009CABF4739DABF5739EABF6739FABF773E3
:10095000A0ABF87340ACF97341ACFA7342ACFB73D3
:1009600043ACFC7344ACFD7345ACFE7346ACFF7303
:1009700047AC007448AC017449AC02744AAC0374CF
:10098000F2C704744BAC0574C5C00674EDC007749F
:100990004CAC08744DAC0974F0C10A74F0E70B74E8
:1009A0004EAC0C744FAC0D7450AC0E7451AC0F7453
:1009B000F6E71074F6CB117452AC127453AC137486
:1009C00054AC147455AC157456AC167457AC1774FB
:1009D00058AC187459AC19745AAC1A74A2E81B7448
:1009E000A1E81C745BAC1D745CAC1E745DAC1F7420
:1009F0005EAC20745FAC217460AC2274C1D72374E8
:100A000061AC247462AC2574FAE72674F9E72774A4
:100A100063AC2874FBE7297464AC2A74F7E72B7481
:100A200065AC2C74FEE72D7466AC2E74FDE72F7454
:100A300067AC3074FCE7317468AC327469AC337401
:100A4000D5C13474D9C73574FDC53674C3C5377480
:100A50006AAC38746BAC39746CAC3A746DAC3B7482
:100A60006EAC3C74EDC73D746FAC3E7470AC3F74BB
:100A700071AC407472AC4174A3E8427473AC4374BB
:100A800074AC447475AC457476AC467477AC4774FA
:100A900078AC487479AC49747AAC4A747BAC4B74CA
:100AA0007CAC4C747DAC4D747EAC4E7480AC4F7499
:100AB00081AC507482AC517483AC527484AC537466
:100AC00085AC547486AC5574A6E8567487AC5774DC
:100AD000A5E8587488AC5974A7E85A74F7BA5B74DF
:100AE000F8E75C74A4E85D7489AC5E74F0C85F7468
:100AF000AAC960748AAC61748BAC62748CAC637488
:100B00008DAC64748EAC65748FAC667490AC677495
:100B100091AC687492AC697493AC6A7494AC6B7465
:100B200095AC6C7496AC6D74A9E86E7497AC6F74E8
:100B300098AC7074E5B9717499AC72749AAC7374B2
:100B40009BAC74749CAC75749DAC7674FED1777458
:100B5000A8E878749EAC79749FAC7A74A0AC7B746E
:100B600040AD7C7441AD7D7442AD7E74AAE87F7463
:100B700043AD8074ADE88174AEE8827444AD837493
:100B8000A7C1847445AD857446AD867447AD87743E
:100B9000AFE8887448AD897449AD8A744AAD8B74E6
:100BA000B0E88C744BAD8D744CAD8E74ACE88F7422
:100BB0004DAD9074B4E891744EAD92744FAD937492
:100BC00050AD947451AD957452AD967453AD977405
:100BD00054AD987455AD997456AD9A7457AD9B74D5
:100BE00058AD9C74ABE89D7459AD9E74B1E89F7488
:100BF0005AADA0745BADA1745CADA2745DADA3747D
:100C00005EADA4745FADA57460ADA67461ADA7744C
:100C1000B5E8A874B2E8A974B3E8AA7462ADAB747D
:100C200063ADAC7464ADAD7465ADAE7466ADAF74F8
:100C300067ADB07468ADB17469ADB2746AADB374C8
:100C40006BADB4746CADB5746DADB6746EADB77498
:100C50006FADB87470ADB97471ADBA74B7E8BB74E8
:100C600072ADBC7473ADBD7474ADBE7475ADBF743C
:100C700076ADC07477ADC17478ADC27479ADC3740C
:100C80007AADC4747BADC5747CADC6747DADC774DC
:100C90007EADC87480ADC97481ADCA7482ADCB74A9
:100CA00083ADCC7484ADCD7485ADCE7486ADCF7478
:100CB00087ADD07488ADD17489ADD274B6E8D374E1
:100CC0008AADD4748BADD5748CADD6748DADD7741C
:100CD0008EADD8748FADD97490ADDA7491ADDB74EC
:100CE00092ADDC74CFB9DD7493ADDE74ACF0DF741B
:100CF00094ADE074ADF0E17495ADE274B0C6E37408
:100D0000EAB0E474BFC8E57496ADE674DFCDE7746D
:100D100097ADE87498ADE97499ADEA749AADEB7447
:100D20009BADEC749CADED749DADEE74CDCEEF74C7
:100D3000B1EAF0749EADF1749FADF274A0ADF3749E
:100D400040AEF474B2EAF57441AEF674BFC6F774FF
:100D5000C9B4F87442AEF97443AEFA7444AEFB748D
:100D600045AEFC7446AEFD7447AEFE7448AEFF74EB
:100D7000B3EA007549AE01754AAE02754BAE037514
:100D80004CAE0475E7D505754DAE06754EAE0775CC
:100D90004FAE087550AE097551AE0A7552AE0B755F
:100DA00053AE0C7554AE0D75F9DD0E7555AE0F755D
:100DB000B4EA107556AE1175B5EA127557AE1375D3
:100DC000B6EA147558AE157559AE16755AAE177544
:100DD0005BAE1875CAB81975B0DF1A75F5C91B7501
:100DE0005CAE1C75F0CC1D755DAE1E755EAE1F75DC
:100DF000FAC920755FAE217560AE227561AE2375AC
:100E000062AE247563AE2575FBC9267564AE277581
:100E100065AE2875C3D32975A6CB2A7566AE2B752A
:100E2000A6B82C75AEF02D75C2B12E7567AE2F75B4
:100E3000B8E53075EFCC3175C9D33275D7BC337591
:100E4000EAC9347568AE3575E7B5367569AE37757C
:100E5000D0C43875E9B539756AAE3A75AEEE3B75F2
:100E6000ADBB3C756BAE3D756CAE3E75DEE73F7558
:100E70006DAE4075AFEE41756EAE42756FAE4375A7
:100E800070AE447571AE4575A9B3467572AE4775BF
:100E900073AE4875B2EE497574AE4A7575AE4B7552
:100EA000B1EE4C75E7BD4D7576AE4E75B0EE4F7533
:100EB000B7CE507577AE517578AE527579AE537521
:100EC0007AAE5475CFC555757BAE56757CAE5775E9
:100ED0007DAE58757EAE5975F4C15A75CEDB5B7523
:100EE000B3EE5C75F3D05D7580AE5E7581AE5F75F7
:100EF00082AE607583AE617584AE627585AE6375D2
:100F000086AE647587AE6575D4C26675E8C66775CA
:100F100088AE687589AE69758AAE6A75ACB76B754F
:100F20008BAE6C758CAE6D758DAE6E758EAE6F754D
:100F30008FAE707590AE717591AE7275B4EE7375BB
:100F400092AE7475EBB3757593AE767594AE777596
:100F500095AE7875FBBB7975B5EE7A7596AE7B75F7
:100F600097AE7C7598AE7D7599AE7E759AAE7F759D
:100F7000DCE780759BAE81759CAE82759DAE8375F6
:100F8000B6EE84759EAE85759FAE8675AEBD8775CF
:100F9000A0AE887540AF897541AF8A7542AF8B7539
:100FA000E2F18C7543AF8D7544AF8E7545AF8F758B
:100FB000E8CA907546AF9175C9D29275DAF093750B
:100FC00047AF9475DBF0957548AF9675DCF0977573
:100FD000C6C1987549AF9975EDB89A75CEBE9B7527
:100FE0004AAF9C754BAF9D75DEF09E754CAF9F75FB
:100FF000B1C5A075DDF0A175F1D1A2754DAFA37596
:10100000E0F0A475CCB0A575EABDA6754EAFA77586
:101010004FAFA87550AFA97551AFAA7552AFAB7558
:10102000DFD2AC75DFF0AD7553AFAE75AFB4AF7551
:10103000E8B7B075E6F0B175E5F0B275A3C6B37563
:10104000E1F0B475E2F0B575C3B4B67554AFB775D9
:1010500055AFB875E3F0B975EED5BA7556AFBB7537
:1010600057AFBC75DBCCBD75D2BEBE75B2BCBF750B
:1010700058AFC07559AFC1755AAFC275E8F0C375A6
:10108000E7F0C475E4F0C575A1B2C6755BAFC7756E
:10109000A2D6C875B8D3C975B7BECA75ACC8CB756A
:1010A0005CAFCC755DAFCD75EAF0CE755EAFCF7538
:1010B0005FAFD07560AFD17561AFD275F7D1D37521
:1010C00062AFD475CCD6D575DBBAD675E9F0D775D5
:1010D00063AFD875BBB6D97564AFDA7565AFDB752C
:1010E000B4CDDC7566AFDD7567AFDE75A6C6DF759E
:1010F00068AFE07569AFE1756AAFE275A1C1E375EC
:10110000EBF0E475EEF0E5756BAFE675EDF0E775C5
:10111000F0F0E875ECF0E9756CAFEA75BEBBEB7505
:10112000EFF0EC756DAFED756EAFEE756FAFEF75FF
:1011300070AFF075B5CCF175F2F0F27571AFF37573
:1011400072AFF475D5B3F57573AFF67574AFF77507
:1011500075AFF87576AFF975D4B1FA7577AFFB75E1
:1011600078AFFC75F3F0FD7579AFFE757AAFFF755A
:10117000F4F00076F6F00176E1B402767BAF037608
:10118000F1F004767CAF0576F7F006767DAF077652
:101190007EAF087680AF097681AF0A76FAF00B76DB
:1011A00082AF0C76F8F00D7683AF0E7684AF0F76B3
:1011B00085AF1076F5F0117686AF127687AF13768D
:1011C00088AF147689AF1576FDF016768AAF17765C
:1011D000F9F01876FCF01976FEF01A768BAF1B76D4
:1011E000A1F11C768CAF1D768DAF1E768EAF1F766B
:1011F000C1CE2076A4F121768FAF2276A3F123769B
:1012000090AF2476F6C12576FBF02676DDCA2776E8
:1012100091AF287692AF2976F1B42A76F1B12B7688
:10122000B1CC2C7693AF2D76A6F12E7694AF2F7697
:1012300095AF3076A7F1317696AF327697AF3376A9
:10124000ACF13476CED53576A9F1367698AF3776CF
:1012500099AF3876B3C839769AAF3A769BAF3B767A
:101260009CAF3C76A2F13D769DAF3E76ABF13F76EA
:10127000A8F14076A5F141769EAF42769FAF4376C6
:10128000AAF14476A0AF457640B0467641B04776A5
:1012900042B0487643B0497644B04A7645B04B7682
:1012A00046B04C76A9B04D76ADF14E7647B04F764C
:1012B00048B0507649B051764AB052764BB053762A
:1012C0004CB05476AFF155764DB05676B1F15776B5
:1012D0004EB058764FB0597650B05A7651B05B76D2
:1012E00052B05C76B0F15D7653B05E76AEF15F766B
:1012F00054B0607655B0617656B0627657B063767A
:10130000A2D1647658B0657659B066765AB06776E1
:101310005BB068765CB069765DB06A765EB06B761D
:10132000B2F16C765FB06D7660B06E7661B06F765C
:10133000B3F1707662B0717663B0727664B0737632
:1013400065B0747666B0757667B0767668B0777695
:1013500069B07876EFB979766AB07A766BB07B76D9
:10136000C7B57C766CB07D76D7B07E76D9B07F7607
:101370006DB080766EB081766FB08276EDD4837674
:1013800070B08476C4B5857671B08676D4BD877624
:10139000CABB8876A7F0897672B08A7673B08B76EE
:1013A000DEB88C7674B08D7675B08E76A8F08F76B8
:1013B00076B0907677B09176A8B0927678B0937642
:1013C000A9F0947679B095767AB09676EECD977648
:1013D0007BB098767CB09976AAF09A767DB09B76B1
:1013E0007EB09C7680B09D7681B09E7682B09F76EE
:1013F00083B0A07684B0A17685B0A27686B0A376BD
:1014000087B0A476ABF0A57688B0A67689B0A7762B
:101410008AB0A8768BB0A9768CB0AA768DB0AB7660
:101420008EB0AC768FB0AD7690B0AE76A4C6AF7607
:1014300091B0B07692B0B176E5D6B276E4F1B376FB
:1014400093B0B476E5F1B57694B0B67695B0B7764C
:1014500096B0B87697B0B97698B0BA7699B0BB76B0
:101460009AB0BC769BB0BD769CB0BE769DB0BF7680
:10147000F3C3C0769EB0C1769FB0C276DBD3C3768D
:10148000A0B0C47640B1C576D1D6C676E8C5C776D9
:1014900041B1C876AFD3C97642B1CA76E6D2CB762F
:1014A00043B1CC7644B1CD76C1EECE76BBB0CF762B
:1014B000B5D5D076CED1D176E0BCD276D0BAD376BF
:1014C00045B1D476F8BFD57646B1D676C7B8D776CB
:1014D000C1B5D876CCC5D97647B1DA7648B1DB76D6
:1014E000A2CADC7649B1DD764AB1DE764BB1DF7651
:1014F000CBC3E0764CB1E1764DB1E2764EB1E37606
:101500004FB1E47650B1E576C2EEE67651B1E776BA
:1015100052B1E87653B1E97654B1EA7655B1EB763B
:1015200056B1EC7657B1ED7658B1EE76BFC4EF7692
:10153000A2B6F07659B1F176ECEDF276A4C3F3766B
:101540005AB1F476B1D6F5765BB1F6765CB1F77642
:101550005DB1F876E0CFF976EFEDFA765EB1FB7625
:101560005FB1FC76CEC5FD7660B1FE76DCB6FF7667
:1015700061B1007762B10177A1CA027763B10377E5
:1015800064B10477EDED057765B1067766B107774D
:10159000F0ED0877F1ED0977BCC30A7767B10B77F7
:1015A000B4BF0C7768B10D77EEED0E7769B10F77A8
:1015B0006AB110776BB111776CB112776DB1137797
:1015C0006EB114776FB1157770B1167771B1177767
:1015D00072B1187773B11977F4ED1A77F2ED1B77C2
:1015E00074B11C7775B11D7776B11E7777B11F770F
:1015F000E6D52077DFC3217778B12277F3ED237723
:1016000079B124777AB125777BB12677F6ED277704
:101610007CB12877A3D52977A3D12A777DB12B7701
:101620007EB12C7780B12D77F5ED2E7781B12F77B4
:10163000D0C3307782B1317783B1327784B13377D9
:1016400085B1347786B13577F7ED3677F4BF3777E4
:10165000ECBE3877F8ED397787B13A77F7CC3B773E
:1016600088B13C77DBD13D7789B13E778AB13F774E
:101670008BB14077C5D74177F6D542778CB14377A8
:10168000FCED44778DB145778EB146778FB14777C2
:10169000FBED487790B1497791B14A7792B14B779A
:1016A00093B14C7794B14D7795B14E7796B14F7712
:1016B00097B15077F9ED5177FAED527798B15377AA
:1016C00099B154779AB155779BB156779CB15777BA
:1016D0009DB158779EB159779FB15A77FDED5B77F1
:1016E000A6BE5C77A0B15D7740B25E7741B25F770E
:1016F00042B2607743B26177AFCB6277A1EE637796
:10170000BDB6647744B26577A2EE6677C0C46777EA
:1017100045B26877FEED697746B26A7747B26B7774
:10172000DEBD6C77C7B26D7748B26E7749B26F771E
:101730004AB270774BB271774CB272774DB2737711
:101740004EB274774FB2757750B2767751B27777E1
:1017500052B2787753B27977C3B67A7754B27B773F
:1017600055B27C7756B27D77A5EE7E77BAD87F7773
:10177000A3EE8077A6EE817757B2827758B283774F
:1017800059B28477E9C38577F2B386775AB28777FF
:101790005BB288775CB289775DB28A775EB28B770D
:1017A0005FB28C77A7EE8D77A4EE8E77B9CF8F7767
:1017B00060B2907761B29177A8EE9277F7C2937793
:1017C00062B2947763B2957764B2967765B2977791
:1017D00066B2987767B2997768B29A7769B29B7761
:1017E0006AB29C776BB29D776CB29E776DB29F7731
:1017F000A9EEA077AAEEA1776EB2A277ABDEA377AF
:101800006FB2A47770B2A577B3C6A67771B2A77787
:10181000C6C7A87772B2A977F5D6AA77C9B5AB774C
:1018200073B2AC77B2CBAD7774B2AE7775B2AF7737
:1018300076B2B077ABEEB17777B2B27778B2B377F2
:10184000ABCDB47779B2B577ACEEB6777AB2B7777D
:101850007BB2B8777CB2B9777DB2BA777EB2BB770C
:10186000B0D5BC7780B2BD77ADEEBE7781B2BF7721
:10187000C4F6C07782B2C17783B2C27784B2C3772D
:1018800085B2C47786B2C57787B2C67788B2C77784
:1018900089B2C8778AB2C9778BB2CA778CB2CB7754
:1018A0008DB2CC778EB2CD77C7DBCE778FB2CF77C4
:1018B00090B2D07791B2D17792B2D27793B2D377F8
:1018C00094B2D47795B2D57796B2D67797B2D777C8
:1018D000A3B4D87798B2D97799B2DA779AB2DB778E
:1018E000ACC3DC77E6F1DD779BB2DE779CB2DF77C5
:1018F0009DB2E0779EB2E1779FB2E277B8CAE37714
:10190000D3D2E477A0B2E577AAD6E67740B3E777FB
:10191000F2EFE87741B3E977D8BEEA7742B3EB77E5
:10192000C3BDEC77F3EFED77CCB6EE77ABB0EF77E6
:1019300043B3F07744B3F17745B3F27746B3F37727
:10194000AFCAF47747B3F57748B3F677B6EDF777D4
:1019500049B3F877B7EDF9774AB3FA774BB3FB772A
:101960004CB3FC774DB3FD77F9CEFE77AFB7FF7779
:10197000F3BF0078B8ED0178EBC20278B0C9037804
:101980004EB304784FB3057850B3067851B3077857
:1019900052B3087853B30978B9ED0A7854B30B7889
:1019A00055B30C78F6C60D78B3BF0E7856B30F78E2
:1019B00057B3107858B31178BCED1278F8C5137886
:1019C00059B31478D0D115785AB31678A9D71778A7
:1019D000BAED1878BBED19785BB31A78E2D11B78B1
:1019E0005CB31C78BFED1D78C0ED1E785DB31F7829
:1019F000C4ED20785EB321785FB3227860B323789A
:101A0000C8ED247861B32578C6ED2678CEED277829
:101A1000E8D5287862B32978C9ED2A7863B32B78A2
:101A200064B32C78C7ED2D78BEED2E7865B32F7892
:101A300066B33078E9C5317867B3327868B3337804
:101A400069B33478C6C635786AB336786BB33778FD
:101A5000E9C93878D2D43978C1ED3A78C2ED3B780B
:101A6000C3ED3C78C5ED3D786CB33E78F9C03F7866
:101A70006DB34078A1B441786EB342786FB34378C8
:101A800070B3447871B34578E8B9467872B3477853
:101A9000D0ED487873B3497874B34A7875B34B780E
:101AA00076B34C78D1ED4D7877B34E78CAED4F7858
:101AB00078B35078CFED517879B35278F8CE537827
:101AC0007AB354787BB35578B6CB5678CCED57784B
:101AD000CDED58787CB359787DB35A787EB35B7876
:101AE00080B35C7881B35D78F5CF5E7882B35F7840
:101AF00083B3607884B3617885B3627886B36378A2
:101B000087B3647888B3657889B366788AB3677871
:101B10008BB368788CB369788DB36A78D2ED6B78C3
:101B2000F2C16C78B2D36D78CBED6E78B7C86F78B0
:101B30008EB370788FB3717890B3727891B37378F5
:101B400092B3747893B3757894B3767895B37778C5
:101B5000EFBC787896B3797897B37A7898B37B7836
:101B600099B37C78F0C57D789AB37E789BB37F7803
:101B70009CB380789DB381789EB382789FB383783D
:101B8000A0B3847840B4857841B4867842B487782D
:101B9000D6ED887843B48978EFB58A7844B48B78E9
:101BA00045B48C78B5C28D78ADB08E78E9CB8F789E
:101BB00046B4907847B49178AEB1927848B49378AF
:101BC000D4ED947849B495784AB496784BB4977824
:101BD000EBCD9878E2B599784CB49A78D5ED9B78AE
:101BE000D3ED9C78D7ED9D784DB49E784EB49F7818
:101BF000FAB5A0784FB4A178D8EDA27850B4A37804
