:020000040800F2
:100000007804002049010008B1130008B313000868
:10001000B7130008BB130008BF130008000000005E
:10002000000000000000000000000000C3130008F2
:10003000C513000800000000C7130008C91300081A
:100040006301000863010008630100086301000800
:1000500063010008630100086301000863010008F0
:1000600063010008630100086301000863010008E0
:1000700063010008630100086301000863010008D0
:1000800063010008630100086301000863010008C0
:1000900063010008630100086301000863010008B0
:1000A00063010008630100086301000863010008A0
:1000B0006301000863010008630100086301000890
:1000C0006301000863010008630100086301000880
:1000D0006301000863010008630100086301000870
:1000E0006301000863010008630100086301000860
:1000F0006301000863010008630100086301000850
:10010000630100086301000863010008630100083F
:10011000630100086301000863010008630100082F
:10012000630100086301000863010008630100081F
:10013000DFF810D001F0C6FC004800479711000816
:10014000AFF3008078040020064880470648004747
:10015000FEE7FEE7FEE7FEE7FEE7FEE7FEE7FEE777
:10016000FEE7FEE74B020008310100080CB5002055
:10017000019000906C48006840F480306A49086043
:1001800000BF6948006800F4003000900198401CEE
:100190000190009818B90198B0F5A06FF1D16248AC
:1001A000006800F4003010B10120009001E0002050
:1001B00000900098012843D15C48006840F010008E
:1001C0005A4908600846006820F0030008600846A5
:1001D000006840F002000860534840685249486097
:1001E0000846406848600846406840F480604860BF
:1001F0000846406820F47C1048600846406840F497
:10020000E81048600846006840F08070086000BF51
:100210004548006800F000700028F9D04248406866
:1002200020F00300404948600846406840F0020062
:10023000486000BF3C48406800F00C000828F9D135
:100240000CBD10B5FFF792FF10BD10B53648006821
:1002500040F00100344908600846406834490840CD
:100260003149486008460068324908402E49086014
:100270000846006820F4802008600846406820F4A2
:10028000FE0048604FF41F008860FFF7DAFF4FF070
:1002900000602949086010BD10B50021002000222F
:1002A000214B5B6803F00C0121B1042906D0082919
:1002B00028D107E0214B224C236027E01F4B204C24
:1002C000236023E0184B5B6803F47010164B5B68E7
:1002D00003F48032022303EB904022B9194B4343CD
:1002E000174C23600DE0104B5B6803F4003323B11F
:1002F000144B4343124C236003E0104B4343104C18
:10030000236003E00D4B0E4C236000BF00BF064B83
:100310005B68C3F303130C4CE15C094B1B68CB40D7
:10032000074C236010BD0000001002400020024076
:100330000000FFF8FFFFF6FE08ED00E000127A0073
:100340000000002000093D000400002010B5044614
:10035000CC48844208D10121042000F02DFB00216B
:10036000042000F029FB46E0C748844208D101215F
:10037000082000F021FB0021082000F01DFB3AE0DE
:10038000C248844208D10121102000F015FB002151
:10039000102000F011FB2EE0BD48844208D101215D
:1003A000202000F009FB0021202000F005FB22E0C6
:1003B000B848844208D10121402000F0FDFA002114
:1003C000402000F0F9FA16E0B348844208D1012138
:1003D000802000F0F1FA0021802000F0EDFA0AE020
:1003E000AE48844207D10121801500F0E5FA0021D2
:1003F000A01500F0E1FA10BD10B50121084600F08B
:10040000DBFA0021012000F0D7FA10BD2DE9F04100
:10041000024600250026002000230024002791F832
:1004200003C00CF00F0591F803C00CF0100CBCF1E8
:10043000000F03D091F802C04CEA050591F800C006
:10044000BCF1000F31D0146800202BE04FF0010CFC
:100450000CFA00F3B1F800C00CEA03069E4220D16A
:1004600083004FF00F0C0CFA03F7BC4305FA03FCB2
:100470004CEA040491F803C0BCF1280F06D14FF0F8
:10048000010C0CFA00FCC2F814C00AE091F803C099
:10049000BCF1480F05D14FF0010C0CFA00FCC2F87A
:1004A00010C0401C0828D1D31460B1F800C0BCF1C2
:1004B000FF0F34DD546800202EE000F1080C4FF0EF
:1004C000010808FA0CF3B1F800C00CEA03069E42DA
:1004D00021D183004FF00F0C0CFA03F7BC4305FA4F
:1004E00003FC4CEA040491F803C0BCF1280F05D1C9
:1004F00000F1080C08FA0CF8C2F8148091F803C057
:10050000BCF1480F07D100F1080C4FF0010808FAC0
:100510000CF8C2F81080401C0828CED35460BDE807
:10052000F0814FF6FF710180022181700421C170BA
:1005300070470246002093680B400BB1012000E099
:10054000002070470146886880B27047024600204C
:10055000D3680B400BB1012000E00020704701463A
:10056000C86880B2704701617047416170470AB145
:10057000016100E041617047C16070474FF4803213
:100580000A438261816182618269826970470246A1
:100590000020434B18684FF68073184040EA021061
:1005A00008433F4B186070473E49C8617047F0B53B
:1005B0000A46002300240021002500F00046B6F181
:1005C000004F02D1364EF16901E0354E7168C0F33B
:1005D000034583B200F44016B6F5401F08D121F060
:1005E00070612F4E766826F070662D4F7E6012E0A7
:1005F00000F48016B6F5801F06D1032606FA05F42E
:10060000A14341F0706106E0460D360103FA06F69B
:10061000B14341F0706122B1460D360103FA06F68E
:10062000314300F00046B6F1004F02D11C4EF1619B
:1006300001E01B4E7160F0BD30B500228B071C0F2E
:100640000F2303FA04F2164B08338C1053F82430AE
:100650009343134C08348D1044F8253023468C10F6
:1006600053F824308C07240F00FA04F423430C4C75
:1006700008348D1044F8253030BD0A49DC3108605B
:100680007047000000080140000C014000100140CC
:100690000014014000180140001C014000200140EE
:1006A0000000014000002042DF48006840F00100E7
:1006B000DD49086008464068DC490840DA4948607E
:1006C00008460068DA490840D749086008460068CB
:1006D00020F4802008600846406820F4FE0048604E
:1006E0004FF41F0088607047CF49096821F48031BA
:1006F000CD4A11601146096821F480211160B0F5DE
:10070000803F03D0B0F5802F0ED106E0C6490968BE
:1007100041F48031C44A116007E0C349096841F4DB
:10072000A021C14A116000E000BF00BF704710B5B2
:1007300001460022002300204A11012A02D1BA4CAE
:10074000236806E0022A02D1B74C236A01E0B64CC6
:10075000636A01F01F02012494401C400CB1012087
:1007600000E0002010BD38B50020009000240025D6
:1007700000BF3120FFF7DBFF05460098401C0090CA
:100780000098B0F5A06F01D0002DF2D03120FFF716
:10079000CEFF08B1012400E00024204638BD014608
:1007A0000020A14A106820F0F80040EAC100106063
:1007B0007047A04908607047024600209A4B58686D
:1007C00020F47C1042EA01031843974B58607047AD
:1007D00098490866704701460020934A506820F007
:1007E00003000843506070478F48406800F00C00D9
:1007F0007047014600208C4A506820F0F000084302
:100800005060704701460020874A506820F4E0603D
:1008100008435060704701460020834A506820F426
:10082000605040EAC1005060704729B17E4A527A58
:1008300002437D4B5A7204E07B4A527A82437A4BE0
:100840005A7270477B49D8310860704701460020D2
:10085000754A506820F440400843506070470021BA
:10086000714A20321170704A82F82010012802D09B
:1008700004280AD104E001216B4A2032117005E0FE
:100880000521694A2032117000E000BF00BF7047A7
:100890006949086070476449096A0143624A116204
:1008A0007047654944390860704730B5002100221F
:1008B000002400235C4D6D6805F00C0121B1042972
:1008C00005D0082923D105E05C4D056022E05B4D91
:1008D00005601FE0544D6D6805F47012524D6D684F
:1008E00005F48034022505EB92421CB9544D554362
:1008F00005600BE04C4D6D6805F400351DB1504DA1
:100900005543056002E04D4D5543056002E04B4DF7
:10091000056000BF00BF444D6D6805F0F001090996
:10092000484D6B5C0568DD4045603F4D6D6805F4E2
:10093000E061090A434D6B5C4568DD4085603A4DD6
:100940006D6805F46051C90A3E4D6B5C4568DD4039
:10095000C560354D6D6805F44041890B3A4D6B5CBF
:10096000C568B5FBF3F5056130BD29B12E4A526962
:1009700002432D4B5A6104E02B4A526982432A4BB1
:100980005A61704729B1284A92690243264B9A61FD
:1009900004E0254A92698243234B9A61704729B14A
:1009A000214AD2690243204BDA6104E01E4AD2692F
:1009B00082431D4BDA61704729B11B4AD26802435A
:1009C000194BDA6004E0184AD2688243164BDA60A9
:1009D000704729B1144A12690243134B1A6104E0AB
:1009E000114A12698243104B1A617047124940390B
:1009F000086070470F49C86470470B49C871704759
:100A00000948406A40F080700749486270470146D3
:100A10000020054A92680A400AB1012000E0002047
:100A20007047014988727047001002400000FFF8CB
:100A3000FFFFF6FE000042428004424200127A00AC
:100A400000093D00140000202400002010B50446D9
:100A5000BE48844208D101218014FFF7ADFF002178
:100A6000A014FFF7A9FF16E0B948844208D101217C
:100A70000014FFF7AEFF00212014FFF7AAFF0AE0E1
:100A8000B448844207D10121C013FFF7A2FF00211F
:100A9000E013FFF79EFF10BD10B50022028802F49C
:100AA00041520B884C8823438C882343CC882343B2
:100AB0000C8923434C8923438C892343CC892343CA
:100AC0001A430280838B4FF2FF74234083830B8A87
:100AD000038210BD2DE9F04F85B005460C464FF05E
:100AE000000902274FF000084FF0010B0026B24624
:100AF000A88B4FF240010840A88302202884B5F853
:100B00001C90A068022801D100BF38E0A08810B96D
:100B10004FF0010B01E04FF0020B8D48854200D1F0
:100B200000E000BF6846FFF7C0FEDDF800A0E088E7
:100B3000B0F5007F0AD14FEA1A2000EB8000400098
:100B4000A168B0FBF1F0401D86B20BE04FEA4B10FC
:100B5000BAFBF0F000EB80004000A168B0FBF1F0C0
:100B6000401D86B20A20B6FBF0F606F00108A6EB9F
:100B70000800C0F34F074FF6FF7000EA0828022F65
:100B800001DBFF2F02DD02274FF00008E08840EA7A
:100B9000080038432884A088A18908436188084355
:100BA0002188084340F4006040EA0909A5F81C9038
:100BB00005B0BDE8F08F0021018041808180C180B7
:100BC000018141818181C18107210182704700211A
:100BD000018041808180C18002218160002181816A
:100BE000704721B1028842F04002028004E002888E
:100BF0004FF6BF731A400280704721B1828B42F4D6
:100C00008062828304E0828B4FF6FF331A40828336
:100C1000704730B5002400230C110125A540ABB26C
:100C20001AB185881D43858002E085889D438580B3
:100C300030BD1AB183880B43838002E083888B43E5
:100C400083807047818170470146888970474FF6DD
:100C5000FF62914204D0028842F48072028004E074
:100C600002884FF6FF631A400280704721B18288E4
:100C700042F00402828004E082884FF6FB731A403F
:100C80008280704702884FF2FF731A400280028808
:100C90000A4302807047018841F480510180704707
:100CA00021B1028842F40052028004E002884DF62D
:100CB000FF731A400280704702460020012901D0CC
:100CC000108B00E0908A70470146088A7047B1F5A2
:100CD000804F04D1028842F48042028004E00288FE
:100CE0004BF6FF731A4002807047024600201389BA
:100CF0000B400BB1012000E000207047CA43028185
:100D00007047F0B50246002000240023002501F0C2
:100D10000F070126BE40B4B20B1101269E40B3B2AC
:100D2000968806EA03051689264016B10DB1012002
:100D300000E00020F0BD10B5002201F00F040123F7
:100D4000A3409AB2D343038110BD0000003001409C
:100D500000380040003C004010B50446FB48844287
:100D600009D101218803FFF727FE00214FF48040BD
:100D7000FFF722FE32E0F648844209D101214804FF
:100D8000FFF727FE00214FF40030FFF722FE25E099
:100D9000F048844209D101218804FFF71AFE00219E
:100DA0004FF48020FFF715FE18E0EB48844209D18C
:100DB0000121C804FFF70DFE00214FF40020FFF7CA
:100DC00008FE0BE0E548844208D101210805FFF741
:100DD00000FE00214FF48010FFF7FBFD10BD2DE950
:100DE000F04786B005460E460024A24600BFA14645
:100DF0000027B08900B100BF2F462C8A4CF6FF7047
:100E00000440F08804432C82AC894EF6F310044071
:100E1000B08831890843718908430443AC81AC8AA6
:100E20004FF6FF400440B0890443AC8201A8FFF7AD
:100E30003CFDC648874202D1DDF810A001E0DDF894
:100E40000CA0A88900F4004040B10AEBCA0000EBF6
:100E50000A1031684900B0FBF1F807E00AEBCA005C
:100E600000EB0A1031688900B0FBF1F86420B8FB90
:100E7000F0F004012009642101FB1089A88900F425
:100E8000004040B1322000EBC900B0FBF1F000F0AF
:100E90000700044308E0322000EB09106421B0FB96
:100EA000F1F000F00F0004432C8106B0BDE8F0879C
:100EB0004FF41651016000218180C18001810C2115
:100EC000418100218181704710B502460020108ABF
:100ED0004FF2FF0318400B884C8823438C88234330
:100EE000CC8823431843108210BD0021018041802B
:100EF0008180C180704721B1828942F40052828191
:100F000004E082894DF6FF731A4082817047F0B584
:100F10000346002400260025002040F66A17B94247
:100F200000D100BF1846C1F3421401F01F0601278B
:100F300007FA06F5012C01D10C3004E0022C01D196
:100F4000103000E014301AB107682F43076002E048
:100F50000768AF430760F0BD1AB1838A0B438382F1
:100F600002E0838A8B4383827047028A4FF6F073D4
:100F70001A400282028A0A430282704782894FF233
:100F8000FF731A40828182890A438281704721B1AE
:100F9000828942F00202828104E082894FF6FD7369
:100FA0001A4082817047028A4FF6DF731A4002822C
:100FB000028A0A430282704721B1028A42F48042C7
:100FC000028204E0028A4BF6FF731A4002827047E5
:100FD000C1F308028280704701468888C0F3080088
:100FE0007047818941F0010181817047028BD2B243
:100FF0000283028B42EA012202837047028B02F4D1
:101000007F420283028B0A430283704721B1828AA6
:1010100042F02002828204E0828A4FF6DF731A4097
:101020008282704721B1828A42F01002828204E0FB
:10103000828A4FF6EF731A408282704721B1828A0A
:1010400042F00802828204E0828A4FF6F7731A4067
:101050008282704721B1828942F40042828103E09A
:101060008289C2F30E028281704721B1828A42F4E2
:101070000062828204E0828A4FF2FF731A40828209
:101080007047828A4FF6FB731A408282828A0A4333
:101090008282704721B1828A42F00202828204E099
:1010A000828A4FF6FD731A40828270470246002002
:1010B000B1F5007F00D100BF13880B400BB10120B8
:1010C00000E00020704701F40072B2F5007F00D10B
:1010D00000BFCA430280704770B502460024002357
:1010E0000025002040F66A16B14200D100BFC1F3CE
:1010F000421501F01F03012606FA03F3012D02D168
:101100009689334006E0022D02D1168A334001E071
:10111000968A33400C12012606FA04F416883440ED
:1011200013B10CB1012000E0002070BD10B5002209
:10113000002340F66A14A14200D100BF0A12012424
:101140009440A3B2DC43048010BD0000003801408D
:101150000044004000480040004C00400050004067
:1011600010B5034607E018780C78A04201D00020A3
:1011700010BD5B1C491C101EA2F10104A2B2F2D1E9
:101180000120F5E701B502E00098401E00900098AC
:101190000028F9D108BD00F077F920203749086010
:1011A000012008600220091D086000F00FF934A03A
:1011B00000F0BAFC00F098F900F08FFB3B490860A2
:1011C000C820FFF7DFFF00F063FB394908603748AC
:1011D00002680846016837A000F0A6FC34480068A1
:1011E000424988423CD142A000F09EFC002000F021
:1011F00037FA1B220021464800F093FA444945A0E3
:1012000000F092FC1B220021484800F01BFB4749DC
:1012100047A000F089FC1B2244493D48FFF7A0FF8E
:10122000494908700846007801280CD1202013494C
:1012300008600120091D08600220091F086043A002
:1012400000F072FC18E020200C49091D0860012004
:10125000091F08600220086045A000F065FC0BE053
:1012600020200649091D08600120091F086002208E
:10127000086048A000F058FC00BFFEE7100C0140D9
:101280000D0A20D5E2CAC7D2BBB8F6384D627974D0
:1012900065B4AED0D0666C6173682857323551366C
:1012A0003429CAB5D1E9200D0A000000440000200D
:1012B000480000200D0A20466C617368494420698B
:1012C0007320307825582C094D616E756661637402
:1012D00075726572204465766963652049442069AA
:1012E0007320307825580D0A000000001740EF00E9
:1012F0000D0A20BCECB2E2B5BDB4AED0D0666C61D4
:1013000073682057323551363420210D0A00000011
:10131000280000200D0A20D0B4C8EBB5C4CAFDBE19
:10132000DDCEAAA3BA2573200D09000058000020C5
:101330000D0A20B6C1B3F6B5C4CAFDBEDDCEAAA360
:10134000BA2573200D0A00004C0000200D0A203839
:101350004DB4AED0D0666C617368285732355136C3
:101360003429B2E2CAD4B3C9B9A6210A0D000000DB
:101370000D0A20384DB4AED0D0666C617368285722
:10138000323551363429B2E2CAD4CAA7B0DC210AB8
:101390000D0000000D0A20BBF1C8A1B2BBB5BD20F5
:1013A000573235513634204944210A0D00000000DF
:1013B000704700BFFEE700BFFEE700BFFEE700BFCB
:1013C000FEE77047704770477047000000B585B072
:1013D00001210420FFF7D6FA01218803FFF7D2FA92
:1013E0004FF40070ADF8100018208DF813000320A2
:1013F0008DF8120004A92248FFF708F84FF4806026
:10140000ADF8100004208DF8130004A91C48FEF765
:10141000FDFF4FF4E13000900020ADF80400ADF87E
:101420000600ADF80800ADF80C000C20ADF80A007D
:1014300069461448FFF7D3FC01211248FFF75BFD12
:1014400005B000BD70B504460D46E1B20D48FFF78A
:10145000BFFD00BF80210B48FFF728FE0028F9D010
:10146000204670BD10B5044600BF20210548FFF797
:101470001DFE0028F9D00348FFF7AEFD10BD0000A7
:10148000000801400038014008B501210820FFF79D
:1014900079FA2020ADF8000010208DF80300032019
:1014A0008DF8020069460F48FEF7B0FF0120ADF845
:1014B000000069460B48FEF7A9FF0220ADF80000C6
:1014C00069460848FEF7A2FF20210648FFF74BF8BF
:1014D00001210448FFF747F802210248FFF743F8CB
:1014E00008BD0000000C014000B587B001210803D1
:1014F000FFF748FA0121C420FFF744FA1020ADF8A5
:10150000040003208DF8060010208DF8070001A9C3
:10151000FE48FEF77BFF2020ADF8040018208DF870
:10152000070001A9F948FEF771FF4020ADF804005B
:1015300001A9F648FEF76AFF8020ADF8040001A972
:10154000F248FEF763FF1021F048FFF70CF8002087
:10155000ADF808004FF48270ADF80A000020ADF835
:101560000C000220ADF80E000120ADF81000400282
:10157000ADF812000820ADF814000020ADF81600F8
:101580000720ADF8180002A9E148FFF785FA01210C
:10159000DF48FFF726FB07B000BD10B50446214623
:1015A000DCA000F0C1FA002010BD10B504464FF4D5
:1015B0008050E44908600AE0E2490868411EE14AB7
:1015C000116020B90020FFF7E8FFC0B210BD022172
:1015D000CF48FFF78AFB0028EED02146CC48FFF722
:1015E00031FB4FF48050D74908600AE0D5490868BC
:1015F000411ED44A116020B90120FFF7CEFFC0B2CE
:10160000E4E70121C248FFF770FB0028EED0C04894
:10161000FFF71AFBC0B2D9E710B500241021BB4870
:10162000FEF7A3FF0520FFF7C0FF00BFFF20FFF775
:10163000BCFF044604F001000028F7D11021B34894
:10164000FEF791FF10BD10B51021B048FEF78DFFD9
:101650000620FFF7AAFF1021AC48FEF784FF10BD5B
:1016600010B50446FFF7EFFFFFF7D6FF1021A7489C
:10167000FEF77BFF2020FFF798FFC4F30740FFF73A
:1016800094FFC4F30720FFF790FFE0B2FFF78DFF50
:1016900010219E48FEF767FFFFF7BEFF10BD10B593
:1016A000FFF7D1FF10219948FEF75FFFC720FFF732
:1016B0007CFF10219548FEF756FFFFF7ADFF10BDE8
:1016C00070B505460C461646FFF7BDFF10218F4842
:1016D000FEF74BFF0220FFF768FFC4F30740FFF758
:1016E00064FFC4F30720FFF760FFE0B2FFF75DFF80
:1016F000B6F5807F04DD4FF4807693A000F014FAF5
:1017000003E02878FFF751FF6D1C301EA6F10101A0
:101710008EB2F6D110217D48FEF725FFFFF77CFF42
:1017200070BD2DE9F05F07460E4614464FF00008E5
:10173000C146C2460025AB4606F0FF0ACAF10000CA
:10174000C5B22046E11704EB1161C1F30728E11788
:1017500004EB11610912A4EB012101F0FF09BAF1B8
:10176000000F20D1B8F1000F05D12246314638468E
:10177000FFF7A6FF64E009E04FF480723146384677
:10178000FFF79EFF06F5807607F58077B8F1000039
:10179000A8F1010101F0FF08EED14A463146384672
:1017A000FFF78EFF4CE0B8F1000F18D1A94510DD0E
:1017B000A9EB050000F0FF0B2A4631463846FFF73B
:1017C0007FFF2E442F445A4631463846FFF778FFB4
:1017D00036E0224631463846FFF772FF30E0601BA4
:1017E00084B22046E11704EB1161C1F30728E11729
:1017F00004EB11610912A4EB012101F0FF092A4653
:1018000031463846FFF75CFF2E442F4409E04FF481
:10181000807231463846FFF753FF06F5807607F5AC
:101820008077B8F10000A8F1010101F0FF08EED1C6
:10183000B9F1000F04D04A4631463846FFF740FF61
:10184000BDE8F09F70B505460C46164610212F489E
:10185000FEF78BFE0320FFF7A8FEC4F30740FFF757
:10186000A4FEC4F30720FFF7A0FEE0B2FFF79DFE41
:1018700004E0FF20FFF799FE28706D1C301EA6F1D2
:1018800001018EB2F5D110212048FEF76CFE70BD2B
:101890002DE9F041002400250026002710211B48D7
:1018A000FEF763FE9F20FFF780FEFF20FFF77DFE1F
:1018B0000546FF20FFF779FE0646FF20FFF775FE7D
:1018C000074610211148FEF74EFE280440EA062084
:1018D00040EA07042046BDE8F08110B5002410213D
:1018E0000A48FEF742FEAB20FFF75FFEFF20FFF73E
:1018F0005CFEFF20FFF759FEFF20FFF756FEFF209A
:10190000FFF753FE04461021004837E0000801406D
:10191000003001403C3C2D464C4153482D4552522D
:101920004F522D3E3E2053504920B5C8B4FDB3ACB4
:10193000CAB1216572726F72436F6465203D2025C4
:10194000640A0000500000203C3C2D464C415348A6
:101950002D4552524F522D3E3E205350495F464C2A
:101960004153485F50616765577269746520746FB1
:101970006F206C61726765210A000000FEF7F3FDBD
:10198000204610BD10B5044610213248FEF7EDFD8B
:101990000320FFF70AFEC4F30740FFF706FEC4F377
:1019A0000720FFF702FEE0B2FFF7FFFD10BD10B504
:1019B000FF20FFF7FAFD10BD10B504464FF480502C
:1019C0002549086009E024490868411E224A11603F
:1019D00018B90220FFF7E1FD10BD02211F48FFF7F3
:1019E00084F90028EFD021461C48FFF72BF94FF46B
:1019F00080501949086009E017490868411E164AD5
:101A0000116018B90320FFF7C8FDE5E7012113486D
:101A1000FFF76BF90028EFD01048FFF715F9DBE767
:101A200010B510210B48FEF7A0FDB920FFF7BDFD52
:101A300010210848FEF797FD10BD10B5102105488C
:101A4000FEF793FDAB20FFF7B0FD10210148FEF734
:101A50008AFD10BD00080140500000200030014008
:101A60002DE9F05F0546002092469B4688460646D3
:101A7000814640241BE0284641464746224600F066
:101A800042F853465A46C01A914110D3114618469F
:101A9000224600F029F82D1A67EB01084F4622462E
:101AA0000120002100F020F817EB00094E41201E14
:101AB000A4F10104DFDC484631462A464346BDE82E
:101AC000F09F0000064C074D06E0E06840F001037F
:101AD00094E8070098471034AC42F6D3FEF72CFB8D
:101AE000281E0008481E0008202A04DB203A00FABD
:101AF00002F1002070479140C2F1200320FA03F365
:101B0000194390407047202A04DB203A21FA02F062
:101B10000021704721FA02F3D040C2F12002914027
:101B200008431946704700000FB4054B10B503A9D0
:101B3000044A029800F018F810BC5DF814FB00008D
:101B4000451400085400002002E008C8121F08C114
:101B5000002AFAD170477047002001E001C1121F2E
:101B6000002AFBD1704700002DE9FF4F8DB09B4646
:101B70000F460446002606E025280BD05A460F994A
:101B80009047641C761C20780028F5D111B03046AF
:101B9000BDE8F08F0025A8460122984900E00543E2
:101BA00014F8013F203B02FA03F00842F7D12078F5
:101BB0002E2817D114F8010F45F004052A280ED05D
:101BC0006FF02F022078A0F1300109290AD808EB24
:101BD000880102EB410100EB0108641CF2E757F8B1
:101BE000048B641C20786C280DD004DC4C2812D0A7
:101BF0006A2811D104E074280DD07A280CD10AE0AB
:101C000045F4001507E0617845F48015814202D162
:101C1000641C05F58015641C2078692844D008DC14
:101C20000028B3D0582867D063280FD0642808D183
:101C30003AE0702865D0732812D075285AD07828D9
:101C40005AD05A460F999047761CD5E017F8040BE6
:101C50008DF8000000208DF80100E946012003E026
:101C600057F8049B4FF0FF3069074FF0000501D48F
:101C70000AE06D1C45450DDA8542FADB19F80510BE
:101C80000029F6D106E06D1C8542FCDB19F8051031
:101C90000029F8D12E4404E019F8010B5A460F9997
:101CA00090476D1EF8D2A7E00A200021CDE9080177
:101CB000C5F3025002280CD001CFC117021E71F1EA
:101CC00000020CDA0023D0EB030063EB01012D22AC
:101CD00008E0FF1D27F00707F7E80201EEE72A05F5
:101CE00004D52B228DF8282001223CE0EA073AD0C7
:101CF0002022F7E70A2000E010200021CDE90801AA
:101D000007E01020002145F00405CDE908014FF05F
:101D10000808C5F30250022810D001CF00214FF06F
:101D2000000A2A0720D52278702A0DD0DDE908C3E1
:101D30008CF0100C5CEA030C0CD015E0FF1D27F0B2
:101D40000707F7E80201EAE740228DF828204FF064
:101D5000010A0CE050EA010306D030238DF8283048
:101D60008DF82920022292462278582A04D024A2F3
:101D70000DF120090B9209E026A2F9E7DDE908231D
:101D8000FFF76EFE0B9B9B5C09F8013D50EA0102D8
:101D9000F4D1ADEB090020300890680701D44FF072
:101DA00001080899884503DD0898A8EB000000E0C9
:101DB00000208046002506E00AA85A46405D0F999B
:101DC00090476D1C761C5545F6DB04E030205A46E2
:101DD0000F999047761CB8F10001A8F10108F5DCD5
:101DE00005E019F8010B5A460F999047761C08999F
:101DF000481E08900029F4DC641CC4E60928010090
:101E00003031323334353637383961626364656670
:101E10000000000030313233343536373839414232
:101E20004344454600000000481E00080000002012
:101E300058000000481B0008A01E000858000020A1
:101E400020040000581B000800A24A040000000003
:101E5000000000000102030406070809000000005A
:101E6000010203040102030406070809020406082C
:101E7000B8D0D0BBC4FAD1A1D3C3D2B0BBF0737475
:101E80006D3332BFAAB7A2B0E50D0A000000000012
:101E9000000000000000000000A0000000000000A2
:0400000508000131BD
:00000001FF
